:020000040800F2
:1000000038230120010002087D380208312D020842
:10001000DD30020871220208359502080000000058
:100020000000000000000000000000008D7D0208BC
:100030001D24020800000000270B02088951020855
:100040001B000208397102081B0002081B0002088D
:100050001B0002081B0002081B0002081B0002080C
:100060001B0002081B0002081B0002081B000208FC
:100070001B0002081B0002081B0002081B000208EC
:100080001B0002081B0002081B0002081B000208DC
:100090001B0002081B0002081B0002081B000208CC
:1000A0001B000208958B0208DD8A02081B0002086B
:1000B0001B0002081B0002081B0002081B000208AC
:1000C0001B0002081B0002081B000208957B0208A7
:1000D000057C0208DD900208ED900208FD90020800
:1000E0001B0002081B0002081B0002081B0002087C
:1000F0001B0002081B0002081B0002081B0002086C
:100100001B000208697A02081B0002081B00020893
:100110001B0002081B0002081B0002081B0002084B
:100120001B0002081B0002081B000208B123020882
:100130001B0002081B0002081B0002081B0002082B
:100140001B0002081B0002081B0002081B0002081B
:100150001B0002081B0002081B0002081B0002080B
:100160001B0002081B0002081B0002081B000208FB
:100170001B0002081B0002081B0002081B000208EB
:100180001B0002081B000208DFF80CD000F006F884
:1001900000480047D9E2020838230120064C074DE9
:1001A00006E0E06840F0010394E807009847103447
:1001B000AC42F6D3FFF7ECFFE001000800020008B4
:1001C00002E008C8121F08C1002AFAD17047704720
:1001D000002001E001C1121F002AFBD1704700007E
:1001E0000002000800000020F4020000920A020849
:1001F00024020008F402002044200100D00100087D
:1002000001252D010203040405C806070809623010
:100210005A020179EB018732A763E70303FF0F2737
:04022000014F00008A
:020000040802F0
:100000000648804706480047FEE7FEE7FEE7FEE7B2
:10001000FEE7FEE7FEE7FEE7FEE7FEE77D7E02087D
:100020008901000872B6704762B67047EFF310801E
:1000300072B6704780F31088704730BF704720BF9A
:100040007047B0FA80F0704790FAA0F0B0FA80F0F4
:10005000704790FAA0F07047002800D1704700293F
:1000600000D17047002A00D170472DE9F81F00F039
:10007000030301F00304A34211D1C3F1040303F00D
:100080000303012B1DD3012A00D2F2E011F8014B2A
:1000900000F8014BA3F10103A2F10102F1E700F026
:1000A000010301F00104A34200D094E0012B44D3EA
:1000B00011F8014B00F8014BA3F10103A2F1010279
:1000C000F4E7B2F5B47F26D3B1E8F81FA0E8F81F33
:1000D000B1E8F81FA0E8F81FB1E8F81FA0E8F81F82
:1000E000B1E8F81FA0E8F81FB1E8F81FA0E8F81F72
:1000F000B1E8F81FA0E8F81FB1E8F81FA0E8F81F62
:10010000B1E8F81FA0E8F81FB1E8F81FA0E8F81F51
:10011000A2F5B472D5E7282A06D3B1E8F81FA0E803
:10012000F81FA2F12802F6E7042A06D351F8043B8F
:1001300040F8043BA2F10402F6E7202A42D331F84A
:10014000023B20F8023B31F8023B20F8023B31F839
:10015000023B20F8023B31F8023B20F8023B31F829
:10016000023B20F8023B31F8023B20F8023B31F819
:10017000023B20F8023B31F8023B20F8023B31F809
:10018000023B20F8023B31F8023B20F8023B31F8F9
:10019000023B20F8023B31F8023B20F8023B31F8E9
:1001A000023B20F8023B31F8023B20F8023B31F8D9
:1001B000023B20F8023B31F8023B20F8023BA2F15F
:1001C0002002BAE7022A06D331F8023B20F8023BAC
:1001D000A2F10202F6E7102A42D311F8013B00F81F
:1001E000013B11F8013B00F8013B11F8013B00F81D
:1001F000013B11F8013B00F8013B11F8013B00F80D
:10020000013B11F8013B00F8013B11F8013B00F8FC
:10021000013B11F8013B00F8013B11F8013B00F8EC
:10022000013B11F8013B00F8013B11F8013B00F8DC
:10023000013B11F8013B00F8013B11F8013B00F8CC
:10024000013B11F8013B00F8013B11F8013B00F8BC
:10025000013B11F8013B00F8013BA2F11002BAE7A3
:10026000012A06D311F8013B00F8013BA2F101027B
:10027000F6E7BDE8F81F70472DE9F05F054600205E
:1002800092469B4688460646814640241BE0284607
:1002900041464746224600F066FA53465A46C01A7F
:1002A000914110D311461846224600F04DFA2D1AFE
:1002B00067EB01084F4622460120002100F044FA76
:1002C00017EB00094E41201EA4F10104DFDC484673
:1002D00031462A464346BDE8F09FD2B201E000F81D
:1002E000012B491EFBD270470022F6E710B51346DA
:1002F0000A4604461946FFF7F0FF204610BD30B508
:1003000005462A460B4612F8010B13F8014B08B1BB
:10031000A042F8D01CB1002802D06D1CF1E728469D
:1003200030BD2DE9FE4F804681EA0300C00F0C4628
:10033000009021F0004123F00045B8EB0200A941F4
:1003400005D24046214690461C460B46024623F005
:100350000040104304D14046214603B0BDE8F08F71
:10036000270DC7F30A00C3F30A510290401A019007
:10037000402866DAC3F3130040F4801B00989246CD
:1003800020B10023D2EB030A63EB0B0B0198594613
:10039000C0F14002504600F0D7F906460D465046DF
:1003A0005946019A00F0EFF910EB08006141002472
:1003B00087EA115284EAE7731A433BD0009A3AB3B2
:1003C000019A012A4FEA075210DC001B61EB02017F
:1003D0004FF0004202EA0752CDE90042001C41F50D
:1003E000801132462B4600F023FAB6E7001B61EB82
:1003F0000201001C41F5801300185B412018A2F592
:10040000001747EB030140EAD570B6196D4111E0C2
:100410006D084FEA360645EAC0754FEA0752001BE1
:1004200061EB0201001C41F5801149084FEA3000E0
:100430000019514132462B4603B0BDE8F04F00F0A1
:10044000EAB90098012240000023D0EB020263EBDE
:10045000E073009821464FEAE074B8EB000061EBCE
:100460000401E9E783F000435BE781F0004158E7CE
:100470002DE9FE4F81EA030404F0004421F000411D
:1004800000944FF0000B23F0004350EA010402D027
:1004900052EA030404D10020014603B0BDE8F08F06
:1004A000C3F30A54C1F30A552C44A4F2F334019463
:1004B000A0FB0254C1F3130141F48011C3F31303F1
:1004C00043F4801301FB024400FB034E840A970AA5
:1004D00044EA815447EA8357A4FB076802958D0AD2
:1004E00005FB07854FEA932C04FB0C542705029D5E
:1004F0004FEA065847EA1637B5EB08056EEB070CCE
:10050000870E920E47EA811742EA8312A7FB020187
:10051000B6EB0B0164EB00042B0D43EA0C335E18C1
:1005200044EB1C50DA465146E7FB0201C5F31304C5
:100530004FEA0B3343EA14534FEA0432019C43EA77
:100540000603A4F10C040294009CCDE900B400F071
:100550006FF9A2E72DE9F04D81EA030404F0004BA6
:1005600021F0004514464FF0000A23F0004150EA04
:10057000050220D054EA01021DD0C5F30A570246F5
:10058000C5F31303C1F31300C1F30A5640F48015F9
:1005900043F48013A7EB0608101BD64608F2FD387B
:1005A00073EB050002D308F1010801E092185B41EA
:1005B000B8F1000F03DA00200146BDE8F08D0020FD
:1005C0004FF48011064684460EE0171B73EB0507B7
:1005D00005D3121B63EB050306434CEA010C4908E3
:1005E0004FEA300092185B4150EA0107EDD152EA20
:1005F000030012D082EA040083EA0501084303D114
:1006000000224FF0004308E0101BAB4102D2012250
:10061000002302E06FF0010253101AEB06004CEBCE
:10062000085110EB0A0041EB0B01BDE8F04D00F062
:10063000F2B80EB5C10F80EAE0700844CA07002185
:1006400040F233438DE80E000A460B4600F0F0F806
:1006500003B000BD0EB540F2334102910021CDE957
:1006600000110A460B4600F0E3F803B000BD00F0AD
:10067000004230F000400AD0C10D01F56071C0F3B6
:10068000160042EA0151C20840071143704700209A
:100690000146704730B5002904DB4FF0004440426A
:1006A00064EB0101002B04DB4FF00044524264EB89
:1006B00003038B4208BF824230BD000030B50029E1
:1006C00004DB4FF00044404264EB0101002B04DBEB
:1006D0004FF00044524264EB0303994208BF90423A
:1006E00030BD000001F0004330B421F0004150EA79
:1006F000010206D00A0DA2F56072C1F31301002AAF
:1007000002DC30BC00207047440F44EAC104C10041
:10071000E01830BC00EBC25000F047B830B50B46D3
:10072000014600202022012409E021FA02F59D4221
:1007300005D303FA02F5491B04FA02F52844151EF5
:10074000A2F10102F1DC30BD202A04DB203A00FADC
:1007500002F1002070479140C2F1200320FA03F318
:10076000194390407047202A04DB203A21FA02F016
:100770000021704721FA02F3D040C2F120029140DB
:10078000084319467047202A06DBCB17203A41FA66
:1007900002F043EAE07306E041FA02F3D040C2F10E
:1007A000200291400843194670470029A8BF7047AE
:1007B000401C490008BF20F00100704710B4B0FA97
:1007C00080FC00FA0CF050EA010404BF10BC704732
:1007D00049B1CCF1200421FA04F411FA0CF118BF4C
:1007E000012121430843A3EB0C01CB1D0106000AA4
:1007F000002BBEBF002010BC704700EBC35010445C
:100800000029A4BF10BC7047401C490008BF20F05D
:10081000010010BC704710B5002B08DA401C41F1F4
:10082000000192185B411A4301D120F0010010BD74
:100830002DE9F04D92469B4611B1B1FA81F202E0EA
:10084000B0FA80F220329046FFF77EFF04460F4652
:1008500040EA0A0041EA0B0153465A46084303D1D5
:1008600020463946BDE8F08D114653EA010015D007
:10087000C8F140025046FFF776FF05460E46504647
:1008800059464246FFF760FF084301D0012000E0CF
:100890000020054346EAE0762C4337430A984FEAA6
:1008A0004453A0EB08004FEAD4240A304FF0000272
:1008B00044EA47544FEAD72502D500200146D1E744
:1008C000010510196941DDE9084500196941BDE8D4
:1008D000F04DA0E770B521F0004303430CD0C1F305
:1008E0000A550024D5EB040564EB0403D617AD1AB2
:1008F000B34102DB0020014670BD201841EB0251DC
:1009000070BD2DE9F04D00231A461B1A8A4103DB06
:1009100000200146BDE8F08DC1F30A52C1F3130176
:1009200041F480154FF0000BD10702D100186D4142
:10093000521E0027044640F2FF11384601EB620ABE
:100940003E468046024600204FF48011FFF70BFF21
:10095000C2197141BB1846EB0100B4EB030C75EBF7
:10096000000C04D3E41A65EB000517460E46241963
:1009700008F101006D4180463428E3DDF91946EBAA
:100980000600091BA84103D24FF0FF32134601E0D5
:10099000002213461BEB070046EB0A51BDE8F04D61
:1009A000FFF739BF2DE9FE4FC3F30A5701F00045A9
:1009B0000024C1F30A56C3F31303C1F3130143F434
:1009C000801312EB020AA64641F48011009543EB16
:1009D000030CA7F1010B13E0B0EB0A0071EB0C0163
:1009E00007D54FF00008D0EB080085F0004568EB14
:1009F0000101171A73EB0107EED3761E0018494167
:100A00005E45F6DA50EA010204D10099204603B0AF
:100A1000BDE8F08FCDE900E5002213460296FFF70E
:100A200007FFF4E7C1F30A52C1F3130140F2FF33A9
:100A300041F480119A4202DA00200146704740F2E8
:100A400033439A42A2F2334202DC5242FFF78BBE9A
:100A5000FFF77ABE70B5C1F30A5201F000450024D9
:100A6000C1F3130140F2FF3341F480119A4201DADD
:100A7000002070BD40F233439A42A2F2334203DCBD
:100A80005242FFF770FE00E090402C43F1D040420C
:100A900070BD70B501EB020410F8015B15F007039F
:100AA00001D110F8013B2A1106D110F8012B03E007
:100AB00010F8016B01F8016B5B1EF9D12B0705D40F
:100AC0000023521E0FD401F8013BFAE710F8013B56
:100AD00002F10202A1EB030303E013F8015B01F84A
:100AE000015B521EF9D5A142D6D3002070BD000093
:100AF00021484FF0FF010170002080F309881F4852
:100B0000016881F308881E484FF08051016062B689
:100B1000FEE71B484FF080510160704718484FF0C6
:100B200080510160704772B6EFF3098050B11EF03A
:100B3000100F08BF20ED108A734620E9F80F114905
:100B40000968086000B5104880475DF804EB0F485D
:100B50000F490A7802700B480E490A680260106853
:100B6000B0E8F80F9E461EF0100F08BFB0EC108AD8
:100B700080F3098862B6704722ED00E0F40000209F
:100B800004ED00E0EC000020FD4C02087A0000209B
:100B90007B000020F0000020002007E09FED370BD5
:100BA000384901EBC00181ED000B401C0328F5DB47
:100BB000002007E09FED310B334901EBC00181EDCF
:100BC000000B401C0328F5DB9FED2C0B2F4981ED1A
:100BD000000B9FED2F0B81ED020B9FED2F0B30498A
:100BE00081ED000B9FED2C0B2E4981ED000B0121B7
:100BF0002D4A117000212D4A11702D4A11702D4A75
:100C000011602D4A11602D4A11609FED2D0B2E4968
:100C100081ED000B00212D4A11702D4A11702D4AD3
:100C200011709FED2D0B2E4981ED000B9FED2D0BCB
:100C30002E4981ED000B9FED2E0B2F4981ED000B0E
:100C40009FED2E0B2F4981ED000B00212E4A1170D4
:100C50002E4A11702E4A11702E4A11702E4A1170B0
:100C60002E4A11702E4A11702E4A11702E4A1170A0
:100C70009FED2E0B2F4981ED000B70470000000007
:100C80000000000058E10020D0E1002018E2002020
:100C9000F4FB7CD35E16D33F000000000000F03F61
:100CA000C8020020D0020020B8020020B9020020B3
:100CB000BA020020BC020020C0020020C4020020B2
:100CC000000000000000004098020020E801002021
:100CD000DC020020E9010020613255302AA9333FAF
:100CE00030020020FA7E6ABC7493783F48020020EC
:100CF0000000000000000840600200207B14AE47A6
:100D0000E17AB43F7802002040020020580200201F
:100D10007002002088020020890200208A02002040
:100D20008C0200208E020020900200200000004073
:100D30005DBE4241E002002001F0D8FB06F052F90E
:100D4000642001F065FA1FE0002417E0012001F0A3
:100D5000E9FB012001F05CFA022001F0E3FB202115
:100D60000A4800F017F8012001F052FA06F048F99D
:100D70001021074800F00EF8601CC4B2102CE5DB0F
:100D80004FF47A7001F044FADEE7000030DC002016
:100D900010D30020F0B502460B46002046E000EBE1
:100DA000400732F8274000EB400732F82750002672
:100DB00000212BE000EB400702EB870737F81170AA
:100DC000A74206DD00EB400702EB870737F81170FA
:100DD00000E027463C4600EB400702EB870737F868
:100DE0001170AF4206DA00EB400702EB870737F8D5
:100DF000117000E02F463D4600EB400702EB8707ED
:100E000037F811703744BEB24F1CF9B20529D1DB57
:100E1000371B7F1B4FF0030C97FBFCF700EB400CDC
:100E200002EB8C0CACF80A70471CF8B29842B6DBA7
:100E3000F0BD000010B51CA200211F4801F0ADF963
:100E40001EA20021204801F0A8F920A2002122487A
:100E500001F0A3F921A20021244801F09EF924A267
:100E60000021264801F099F925A20021284801F027
:100E700094F928A200212B4801F08FF92AA2002121
:100E80002D4801F08AF92DA20021304801F085F9A2
:100E90002FA20021324801F080F932A2002135480A
:100EA00001F07BF910BD000053454D5F5445585487
:100EB0005F5245560000000014A3002053454D5FCB
:100EC0004750535F53544F003CA3002053454D5FA0
:100ED00054454C5F53544F0064A3002053454D5F6D
:100EE000504C4F41445F53544F0000008CA30020EE
:100EF00053454D5F4F52425F4445540040DF002050
:100F000053454D5F4F52425F43414C4355000000F3
:100F100068DF002053454D5F4359435F494E464FBC
:100F20000000000090DF002053454D5F4D41475FBA
:100F3000444F545F444D5000B8DF002053454D5F8F
:100F40005049545F464C545F434F4D00E0DF002052
:100F500053454D5F5049545F464C545F50524F00CB
:100F600008E0002053454D5F4154545F5354415FA6
:100F700043544C0030E000202DED108BAAB09FEDC3
:100F8000CB0B8DED160B9FEDCB0BB0EE40BAF0EE18
:100F900060BA9FEDCA0BB0EE40CAF0EE60CA9FED9A
:100FA000C90B8DED140B7FE10021C84801F014F945
:100FB000C74890ED001BB0EE410AF0EE610A9FEDCC
:100FC000C51B53EC112B51EC100BFFF751FA41EC00
:100FD000100BB0EE40DAF0EE60DA9FEDC00B53EC90
:100FE000102B51EC1D0BFFF7B5FA41EC180BB8486C
:100FF00090ED021BB0EE410AF0EE610A9FEDB51BC9
:1010000053EC112B51EC100BFFF732FA41EC100BA3
:10101000B0EE40DAF0EE60DA9FEDB00B53EC102B3F
:1010200051EC1D0BFFF796FA41EC190BAD48006827
:10103000012806DA03230122AB4924A80DF0BDF9EB
:101040000DE00320012324AAA74900901EA80DF05B
:101050003BFC03230122A44924A80DF0AEF953EC74
:10106000192BA24890ED000B51EC100BFFF700FA82
:1010700041EC100BB0EE40DAF0EE60DA9C4890EDF7
:10108000000B51EC100B81F0004141EC100BB0EE65
:1010900040FAF0EE60FA53EC182B51EC1F0BFFF7FF
:1010A000E7F941EC100BB0EE40EAF0EE60EA53ECE9
:1010B0001D2B51EC1E0BFFF7D5F941EC1A0B9FEDE0
:1010C0008D0B8DED0C0B8DED0EAB9FED8A0B8DED29
:1010D000100B012016AACDE9002003230246824905
:1010E000029018A80DF0F8FA032118A80DF046FC9C
:1010F000B0EE40DAF0EE60DA53EC1D2B9FED7F0B83
:1011000051EC100BFFF726FA41EC100B8DED120B92
:101110009DED120B53EC102B9DED120B51EC100BAF
:10112000FFF7A6F941EC100B8DED120B0CAA18A9D4
:10113000744808F001FA012012AACDE90020032327
:1011400002467049029008460DF0C6FA9DED201B3C
:10115000B0EE410AF0EE610A6B4890ED001B53ECD3
:10116000112B51EC100BFFF77DF941EC100BB0EE99
:1011700040DAF0EE60DA654890ED000B51EC100BB0
:1011800081F0004141EC100BB0EE40EAF0EE60EA75
:1011900053EC1D2B51EC1E0BFFF76AF941EC100BC1
:1011A000584880ED020B002432E0564800EBC400A2
:1011B00090ED001BB0EE410AF0EE610A9FED541B6A
:1011C00053EC112B51EC100BFFF764FA06D29FED94
:1011D000500B4C4800EBC40080ED000B494800EB7D
:1011E000C40090ED001BB0EE410AF0EE610A9FEDE5
:1011F0004A1B53EC112B51EC100BFFF75FFA06D290
:101200009FED470B3F4800EBC40080ED000B641CD2
:10121000032CCADB3B4890ED001BB0EE410AF0EE18
:10122000610A53EC1B2B51EC100BFFF721F941EC39
:10123000100B8DED060B334890ED021BB0EE410A0A
:10124000F0EE610A53EC1C2B51EC100BFFF710F978
:1012500041EC100B8DED080B2A4890ED041BB0EE0D
:10126000410AF0EE610A9DED141B53EC112B51EC79
:10127000100BFFF7FDF841EC100B8DED0A0B2A481F
:1012800090ED000B8DED040B9DED040B274880EDD8
:10129000000B0323012206A925480DF08EF8114802
:1012A0000068401C0F4908607EE6000095D626E8DD
:1012B0000B2E113E39183558CD5CDC3FAF3DAC39B3
:1012C000AE02DD3F9F910416B960DE3F30E00020A2
:1012D000E8E100200000000000806640182D445422
:1012E000FB210940C4020020A0E1002048020020A8
:1012F000300200200000000000000000000000009C
:101300000000F03FB8E10020A00200207802002099
:101310009A9999999999C9BF00000000000000406E
:101320009A9999999999C93F60020020C0010020BB
:1013300088E000202DED088B92B04FF4B4648AE071
:101340000021454800F048FF10A803F04BFE434938
:10135000086008460068FFF77DF941EC100BB0EE1D
:1013600040BAF0EE60BA9FED3E0B53EC102B51ECFF
:101370001B0BFFF77DF841EC100BB0EE40AAF0EE2E
:1013800060AA9FED390B53EC102B51EC1A0BFFF7B1
:10139000E1F841EC100BB0EE409AF0EE609A9FED50
:1013A000340B53EC102B51EC190BFFF7D3F841EC35
:1013B000100BB0EE408AF0EE608A2F4890ED000BE3
:1013C00053EC102B51EC180BFEF7ABFF41EC100B5C
:1013D0002A4880ED000B2046FFF72BF941EC100B5B
:1013E000B0EE408AF0EE608A254890ED341BB0EEF6
:1013F000410AF0EE610A53EC102B204890ED001BDF
:1014000051EC110BFFF72EF841EC100BB0EE409AA7
:10141000F0EE609A53EC182B51EC190BFFF728F8FB
:1014200041EC100B8DED0C0B1648006810B91448F8
:101430000FF0AAF913480068401C124908600CAB71
:101440000F4A694606A80DF0A9FC0EAB6A4606A92C
:101450000D480DF064FC73E768DF0020E80200200F
:10146000000000000000F03F0000000000408F403E
:10147000000000000018F540E0020020B00200204B
:1014800028E20020D802002028E1002000B58BB01F
:101490000AA8032100220592CDE906210890012027
:1014A00080210C22DD4BCDE90132CDE90310032070
:1014B0000023DB4ADBA10090DE4803F05DF80AA8B8
:1014C000032100220592CDE9062108900220802107
:1014D0000C22D94BCDE90132CDE9031004200023C1
:1014E000D64AD7A10090DA4803F046F80AA80321AB
:1014F00000220592CDE906210890104680210C2299
:10150000D44BCDE90132CDE9031005200023D24AA6
:10151000D2A10090D54803F02FF80AA80321002299
:101520000823CDE90532CDE9071010469901332291
:10153000CF4BCDE90132CDE9031006200023CD4A7F
:10154000CDA10090D04803F017F80AA8032100228B
:101550000823CDE90532CDE90710104680210C2281
:10156000CA4BCDE90132CDE9031007200023C84A58
:10157000C8A10090CB4802F0FFFF0AA80321002277
:101580000823CDE90532CDE90710104680210C2251
:10159000C54BCDE90132CDE9031008200023C34A31
:1015A000C3A10090C64802F0E7FF0AA80321002269
:1015B0000823CDE90532CDE90710104680210C2221
:1015C000C04BCDE90132CDE9031009200023BE4A0A
:1015D000BEA10090C14802F0CFFF0AA8032100225B
:1015E0000823CDE90532CDE90710104680210C22F1
:1015F000BB4BCDE9013200230092CDE90310B94A7B
:10160000B9A1BE4802F0B8FF0AA8032100220823AE
:10161000CDE90532CDE90710104680210C22B84BE8
:10162000CDE90132CDE9031002200023B54AB6A16D
:101630000090B84802F0A0FF0AA803210022082366
:10164000CDE90532CDE90710104680210C22B24BBE
:10165000CDE90132CDE9031002200023AF4AB0A149
:101660000090B24802F088FF0AA803210022082354
:10167000CDE90532CDE90710104680210C22AC4B94
:10168000CDE90132CDE903100D200023A94AAAA11A
:101690000090AD4802F070FF0AA803210022082341
:1016A000CDE90532CDE90710104680210C22A74B69
:1016B000CDE90132CDE903100B200023A44AA5A1F6
:1016C0000090A74802F058FF0AA8032100220592C3
:1016D000CDE90621089010464FF480616622A14BA7
:1016E000CDE90132CDE903100F2000239E4A9FA1CE
:1016F0000090A24802F040FF0AA8032100220592B0
:10170000CDE90621089010464FF4806166229C4B7B
:10171000CDE90132CDE9031011200023994A9AA1A5
:1017200000909E4802F028FF0AA80321002205929B
:10173000CDE90621089010464FF480616622984B4F
:10174000CDE90132CDE9031012200023954A96A17C
:101750000090994802F010FF0AA803210022059288
:10176000CDE90621089010464FF480616622934B24
:10177000CDE90132CDE9031013200023904A91A155
:101780000090954802F0F8FE0AA803210022059275
:10179000CDE90621089010464FF4806166228F4BF8
:1017A000CDE90132CDE90310142000238C4A8DA12C
:1017B0000090914802F0E0FE0AA803210022059261
:1017C000CDE90621089010464FF4806166228B4BCC
:1017D000CDE90132CDE9031015200023884A89A103
:1017E00000908D4802F0C8FE0AA80321002205924D
:1017F000CDE90621089010464FF480616622874BA0
:10180000CDE90132CDE9031016200023844A85A1D9
:101810000090894802F0B0FE0BB000BD4C070020DC
:10182000252D02084750535F53544F5F5441534B8B
:101830000000000088060020100A0020912C0208F9
:101840004750535F5245565F5441534B00000000D0
:101850004C090020D40C0020E57E020854454C5F62
:1018600053414D5F5441534B00000000100C0020C9
:10187000980F0020257F020854454C5F53544F5F5A
:101880005441534B00000000D40E00205C1800208F
:1018900021710208504C4F41445F53414D5F544108
:1018A000534B000098170020201B00202D710208C8
:1018B000504C4F41445F53544F5F5441534B0000D1
:1018C0005C1A0020E41D0020597D020853544F5F2C
:1018D0005550444154455F5441534B00201D002056
:1018E000A82000204D7D020853544F5F4D4F4E49B4
:1018F000544F525F5441534B00000000E41F00203E
:101900006C230020952602084641554C545F5441F3
:10191000534B0000A8220020F4280020656E020826
:101920004F55545055545F5441534B0030280020BC
:10193000B82B0020390D02084144435F53414D50FC
:101940004C455F5441534B00F42A002030260020C0
:10195000597F0208544553545F5441534B000000D3
:101960006C2500207C2E0020D51C020841707020C0
:101970005461736B204F726244657400B82D00206F
:10198000403F002035130208417070205461736B92
:101990002043616C63754F72620000007C3E002042
:1019A00004500020451E0208417070205461736B82
:1019B0002053656E47657400404F0020C8600020CA
:1019C0003D1A0208417070205461736B204D6167AD
:1019D000446F74446D700000046000208C7100201E
:1019E000E51D0208417070205461736B20506974CA
:1019F000466C74436F6D0000C87000205082002058
:101A0000E91D0208417070205461736B20506974A5
:101A1000466C7450726F00008C810020149300207B
:101A2000790F0208417070205461736B2041747407
:101A300053746143746C0000509200202DED0A8BAA
:101A400094B040F6B7359FED870BB0EE408AF0EECC
:101A5000608A9FED860BB0EE409AF0EE609A9FEDA3
:101A6000850BB0EE40AAF0EE60AAF9E000218348B1
:101A700000F0B2FB82480068FEF7DBFD41EC100B82
:101A8000B0EE40CAF0EE60CA9FED7E0B53EC102B17
:101A900051EC1C0BFEF7FEFD12D2032301227B4901
:101AA0000EA80CF08AFC002407E09FED790B7A4821
:101AB00000EBC40080ED000B641C032CF5DB74E02C
:101AC000032001230EAA7149009008A80CF0FCFE27
:101AD000032301226D490EA80CF06FFC002462E084
:101AE00008A800EBC40090ED001BB0EE410AF0EE38
:101AF000610A53EC102B9FED691B51EC110BFEF7A3
:101B0000B7FC41EC100BB0EE40CAF0EE60CA65487D
:101B100090ED000B53EC102B51EC1C0BFEF71AFD53
:101B200041EC100B5C4800EBC40080ED000B5A4800
:101B300000EBC40090ED001BB0EE410AF0EE610A2C
:101B40009FED591B53EC112B51EC100BFEF7B6FD1A
:101B500007D29FED550B504800EBC40080ED000B01
:101B600020E04D4800EBC40090ED001BB0EE410AB0
:101B7000F0EE610A9FED4E1B53EC112B51EC100B54
:101B8000FEF788FD07D29FED4A0B434800EBC400E7
:101B900080ED000B06E09FED3E0B3F4800EBC400DC
:101BA00080ED000B641C032C9ADB3B4890ED001B7E
:101BB000B0EE410AF0EE610A53EC182B51EC100B19
:101BC000FEF756FC41EC100B8DED020B324890ED08
:101BD000021BB0EE410AF0EE610A53EC192B51ECF6
:101BE000100BFEF745FC41EC100B8DED040B2A4861
:101BF00090ED041BB0EE410AF0EE610A53EC1A2B93
:101C000051EC100BFEF734FC41EC100B8DED060B84
:101C1000294890ED00BB294880ED00BB0323012239
:101C200002A927480CF0C9FB0323012217492548C4
:101C30000CF0C3FB2448007890B911480068401CA0
:101C40000F49086021480078012809D1084600683A
:101C5000A84205DD1E48007810B901201A49087015
:101C600004E7000039183558CD5CDC3FAF3DAC3996
:101C7000AE02DD3F9F910416B960DE3FB8DF002061
:101C8000BC0200209A9999999999B93FA0E1002046
:101C90000000000000000000B8E10020000000008B
:101CA00080842EC1980200209A9999999999C93FE8
:101CB0009A9999999999C9BF60020020C0010020A2
:101CC00088E00020C8E00020B9020020E8010020E0
:101CD0008A0200202DED088B8EB06AE00021354885
:101CE00000F07AFA0CA803F07DF933490860084641
:101CF0000068FEF7AFFC41EC100BB0EE40BAF0EE1E
:101D000060BA9FED2E0B53EC102B51EC1B0BFEF722
:101D1000AFFB41EC100BB0EE40AAF0EE60AA9FEDD5
:101D2000290B53EC102B51EC1A0BFEF713FC41EC72
:101D3000100BB0EE409AF0EE609A9FED240B53EC3E
:101D4000102B51EC190BFEF705FC41EC100BB0EE1B
:101D5000408AF0EE608A1F4890ED000B53EC102B88
:101D600051EC180BFEF7DDFA41EC100B1A4880ED30
:101D7000000B002415E0194800EBC40090ED000BA7
:101D800006A800EBC40080ED000B1449E01C01EB39
:101D9000C00090ED000B684600EBC40080ED000B26
:101DA000641C032CE7DB0C4B6A4606A90C480CF0BC
:101DB0002FFF93E740DF0020E80200200000000032
:101DC0000000F03F0000000000408F4000000000D5
:101DD0000018F540E0020020B0020020F8E00020EA
:101DE00070E100207047000086B01EE000210F481F
:101DF00000F0F2F9002411E00D4800EBC40090ED72
:101E0000000B684600EBC40080ED000B9FED090B52
:101E1000074800EBC40080ED000B641C032CEBDBD7
:101E20006A46064906480CF0F7FDDFE708E00020A7
:101E3000D0E100200000000000000000F8E10020D8
:101E4000E8E10020DCE000216E4800F0C5F96E48B2
:101E50000078012810D100206B49087001206B49DF
:101E6000087000206A4908706A4908706A49086069
:101E70006A4908606A4908606A480078012801D107
:101E80006949087069480078012837D166490870A7
:101E9000002066490870664890ED000B654880EDAB
:101EA000360B654890ED000B624880ED3C0B6348B3
:101EB00090ED000B5F4880ED380B614890ED000B12
:101EC0005C4880ED3E0B5F4890ED000B594880ED7B
:101ED000340B5D4890ED000B564880ED400B5B489D
:101EE00090ED000B534880ED420B594890ED000BEC
:101EF000504880ED3A0B002056490860564800785B
:101F0000012808D1554890ED000B554880ED000B95
:101F100000205149087053480078012808D15248E0
:101F200090ED000B514880ED000B00204D490870EA
:101F30004F480078012808D14E4890ED000B4E48DC
:101F400080ED000B00204A4908704C4800780128B9
:101F500008D14B4890ED000B4A4880ED000B002063
:101F60004649087048480078012806D1474800785B
:101F70002649087000204449087045480078012827
:101F800006D1444800782249087000204049087072
:101F900041480078012806D1404800781D49087062
:101FA00000203D49087020480078012802D13C48B3
:101FB00000F004F915480078012802D1394800F0F2
:101FC000FDF813480078012802D1374800F0F6F8F0
:101FD0000E480078354908700F4800683449086099
:101FE0000B480078334908700C4800683249086093
:101FF000084800783149087009480068304908608D
:1020000021E7000090DF002089020020B8020020B4
:10201000B9020020BA020020BC020020C002002049
:10202000C4020020DC020020E8010020E9010020B9
:10203000F001002028E20020F8010020000200202A
:1020400008020020100200201802002020020020B8
:1020500028020020D8020020400200203802002080
:1020600030020020580200205002002048020020C8
:102070007002002068020020600200208802002018
:1020800080020020780200208C0200208B020020B9
:102090008E0200208D020020900200208F0200207E
:1020A00068DF0020B8DF0020E0DF0020D001002042
:1020B000D4010020D8010020DC010020E001002034
:1020C000E401002008B509F077FF00F0D3F800F034
:1020D000C1F8684602F0CEF900F00AF8FEF7AAFE51
:1020E000FFF7D4F903E04FF4FA6000F091F8FAE753
:1020F00000B585B004A800210123CDE900310A46CE
:10210000CDE9021010A1144802F0D8FF04A8002164
:10211000124A0123CDE90032CDE902100B460A46EE
:102120000FA1134802F0CAFF04A80021114A01239D
:10213000CDE90032CDE902100B4614220EA112485F
:1021400002F0BCFF05B000BD455053204F766572CC
:102150002054696D65720000F40200201923020802
:10216000434F4D204F7665722054696D65720000B3
:10217000280300205F2C0208475053204F766572D9
:102180002054696D657200005C0300201FB568462D
:1021900005F068F8019804B010BDF8B506460C4685
:1021A00015466B4622462946304601F04DFFBDF8E4
:1021B000000008B10020F8BD0120FCE738B5044656
:1021C0006A460021204602F053F8BDF8000008B12D
:1021D000002038BD0120FCE77CB505460C464FF4D5
:1021E0007A70604309490968B0FBF1F601A8002341
:1021F0001A4631460090284601F066FFBDF80400FB
:1022000008B100207CBD0120FCE7000090270308F6
:10221000FEB5044642F21070844200D90446B4F57B
:102220007A7F0BD34FF47A70B4FBF0F086B24FF4A0
:102230007A70B4FBF0F100FB114501E0A5B2002675
:1022400002A800212B463246CDE90010084602F0D4
:10225000FBFDFEBD70B5FFF799FF0446034800681B
:10226000B4FBF0F5284602F0ABFF70BD90270308E1
:1022700000BFFEE710B500F01FF800F019F810BD20
:1022800010B5002400BF00BFFDF7D0FE044600BF1C
:1022900000BF1021054800F023FF00BF00BF20460B
:1022A000FDF7C8FE00BF00BF10BD00002CB8002025
:1022B00010B5FFF7E5FF10BD10B50020024908601A
:1022C00000F00AF810BD0000340000200149086049
:1022D000704700003400002010B5FFF757FF044698
:1022E0000848006840F080700649086000200649F0
:1022F00048600846006840F0010008602046FFF78B
:10230000E5FF10BDFCED00E0001000E00149486869
:1023100070470000001000E070470000014609B956
:102320000B487047012901D10A48FAE7022901D177
:102330000948F6E7032901D10020F2E7042901D179
:102340000020EEE7052901D10020EAE70020E8E7B8
:10235000B4A30020DCAB002004B0002008B54FF48B
:10236000E06001F0FDFB25208DF8000000208DF8D5
:10237000020001208DF80300684601F0B5FB26201D
:102380008DF8000001208DF802008DF803006846EA
:1023900001F0AAFB27208DF8000002208DF8020032
:1023A00001208DF80300684601F09EFB08BD000087
:1023B00010B5002400BF00BFFDF738FE044600BF83
:1023C00000BF08480078401C0649087000BF00BFE5
:1023D0002046FDF72FFE00BF00BF05F071FB01F0A6
:1023E000BFFC10BD600000200246094B9A4201D29A
:1023F000084801E00648103811F0005F03D0064B92
:102400000B40C36002E0044B0B4083607047000048
:1024100010640240006002407D0F7D0F7047000095
:1024200010B54FF4C0720021054800F062FE202272
:102430000021044800F05DFE00200349087010BD33
:1024400030DC0020B0DD002062010020014908607E
:1024500070470000143C0140002123498279002A82
:102460003AD00A46126803689A430B461A600A1D5E
:10247000126803689A430B1D1A60027911440A68B6
:1024800003681A430A60184A0832126803689A43BC
:10249000154B08331A601A1D126803689A43124BD1
:1024A0000C331A604279102A0ED11A1F1268036881
:1024B0001A430D4B08331A601A1D126803681A4339
:1024C000094B0C331A600DE00749427911440A6840
:1024D00003681A430A6005E0027911440A68036838
:1024E0009A430A6070470000003C014010B548F272
:1024F000B0340121204600F075F800BF00BF00BFD6
:1025000001214FF6FF7000F06DF80221204600F027
:1025100069F800BF00BF00BF02214FF6FF7000F056
:1025200061F810BD70B504462146002000F05AF84D
:1025300005462146284600F003F8002070BD000043
:10254000F0B503460C461913C3F30B02022C02D15B
:1025500001F11005E9B240F6FF75AA421DDA102A12
:102560001BDD002010E001EB41051C4E06EB85064B
:10257000451C36F8155001EB4106184F07EB86064F
:1025800026F81050451CE8B20428ECDB01EB4105AD
:10259000124E06EB85052A811FE0002010E001EBBA
:1025A00041050E4E06EB8506451C36F8155001EB2D
:1025B00041060A4F07EB860626F81050451CE8B284
:1025C0000428ECDB01EB4105044E06EB85052A816E
:1025D000034D6D5C6D1C024E7554F0BD30DC002067
:1025E000B0DD002070B505460C4600260EE000BFA9
:1025F00000BF00BF3046761C2149884206D92148D9
:102600000078401C1F490870012070BD02211E483F
:1026100005F046FB0028EAD0012C03D110201B490D
:10262000488304E0022C02D1A003184948832946BC
:10263000154805F06BFB0EE000BF00BF00BF304641
:10264000761C0F49884206D911480078401C104971
:1026500008700120D9E701210B4805F021FB002873
:10266000EAD0012C03D110200849088304E0022C91
:1026700002D1A00305490883034805F044FBC4E7E1
:10268000400D03003B0100200030014000000240EB
:102690003C01002003E04FF47A70FFF7B9FDFAE740
:1026A00001490860704700000C3C024070B50446C8
:1026B0000A460026092502B909E0012A01D11602BD
:1026C00005E0022A01D1160201E04FF4407600F045
:1026D0009DF80546092D28D11548006820F4407062
:1026E00013490860084600683043086008460068DF
:1026F00020F0F80008600846006844F00201084332
:102700000B4908600846006840F48030086000F01B
:102710007DF805460648006820F00200044908607C
:102720000846006820F0F8000860284670BD0000E8
:10273000103C024009201349096801F48031B1F5C9
:10274000803F01D101201CE00E49096811F0100FF3
:1027500001D0062015E00B49096811F4807F01D0F3
:1027600002200EE00749096811F0EF0F01D00720A1
:1027700007E00449096811F0020F01D0082000E0C9
:10278000092070470C3C02400348006840F00040BC
:102790000149086070470000103C024030B5024615
:1027A0000C46092500F032F80546092D17D10D48D1
:1027B000006820F440700B49086008460068086013
:1027C0000846006840F001000860147000F01EF830
:1027D00005460448006820F00100024908602846C8
:1027E00030BD0000103C02400548006810F0004F6A
:1027F00005D0044802490C39086003480860704756
:10280000103C024023016745AB89EFCD08B5092094
:102810000090FFF78FFF009002E0FFF78BFF009022
:102820009DF800000128F8D09DF8000008BD0000C8
:1028300051B14FF0204252F8202042F001024FF0F7
:10284000204343F8202009E04FF0204252F8202096
:10285000034B1A404FF0204343F8202070470000FC
:10286000FEFF0F00D0E901121143C2681143026953
:1028700011434269114382691143C2691143026ADB
:102880001143426A1143826A1143C26A1143026BC7
:1028900011434FF02043026843F822108168082951
:1028A00008D11A46016852F8211041F0400102682F
:1028B00043F82210416B0968426B526841EA0211E9
:1028C000426B926841EA0221426B928941EA0241DD
:1028D000426B128A41EA0251426B127D41EA026167
:1028E000426B926911430268521C4FF0204343F837
:1028F0002210C16AB1F5804F1AD1816B0968826BD1
:10290000526841EA0211826B926841EA0221826BAD
:10291000128A41EA0251826B127D41EA0261826BA6
:1029200092691143026803EB8202C2F8041108E0C5
:102930006FF070414FF02043026803EB8202C2F84F
:102940000411704710B5022400BF4FF4B872084953
:10295000084800680AF0DCF820B12000A4F1010169
:10296000CCB2F2D114B904A006F03EFE002010BD96
:10297000D0DD00205C010020496E7465726E616CD0
:1029800020466C6173682070726F6772616D20659C
:1029900072726F72210D0A0070B505460C4616461C
:1029A00004EBC4000C4901EB800080F8206004EBCC
:1029B000C401094A02EB81002022002100F099FBAA
:1029C00004EBC401044A02EB810032462946FDF7BC
:1029D00043FB002070BD0000D0DD002070B517A0C3
:1029E00006F002FE4FF4B8721D491E4800680AF056
:1029F00049F81DA006F0F8FD00241CE021A006F017
:102A0000F3FD00250AE004EBC400154A02EB800048
:102A1000415D1EA006F0E8FD681CC5B2202DF2DB6A
:102A200004EBC4000E4A02EB8000418C18A006F0B3
:102A3000DBFD601CC4B2082CE0DB70BD5265616434
:102A400020466970657820436F6D6D616E64206605
:102A5000726F6D2043505520466C6173680D0A00FB
:102A6000D0DD00205C010020466970657820436F4E
:102A70006D6D616E6420696E666F6D6174696F6EF5
:102A80003A0D0A00436D643A2000000025782000CA
:102A90007C7C436F6D6D616E642044656C61793A36
:102AA0002025640D0A00000010B523488078801DA1
:102AB000C2B200212048FFF76FFF20488078801DB8
:102AC000C2B201211D48FFF767FF1D488078801DB5
:102AD000C2B202211A48FFF75FFF1A488078801DB2
:102AE000C2B203211748FFF757FF17488078801DAF
:102AF000C2B204211448FFF74FFF14488078801DAC
:102B0000C2B205211148FFF747FF11488078801DA8
:102B1000C2B206210E48FFF73FFF0E480E49C1F82A
:102B200068014FF46160A1F86C010A2081F86E0120
:102B3000FFF708FF10BD00008E2903089429030841
:102B40009D290308A6290308AF290308B52903080E
:102B5000BB290308C0BF561AD0DD0020F0B50A46D5
:102B600000210023002400BF3DE0012505FA01F308
:102B7000156805EA03049C4234D105684F0003261A
:102B8000BE40B543056015794E00B5400668354333
:102B900005601579012D02D01579022D16D18568B1
:102BA0004F000326BE40B543856055794E00B540C1
:102BB000866835438560456801268E40B54345608B
:102BC000456896798E40B6B235434560C5684F007A
:102BD0000326BE40B543C560D5794E00B540C668F2
:102BE0003543C560491C1029BFD3F0BDF0B50023A3
:102BF00000244D07ED0E02FA05F3CE1000F120057A
:102C000055F826504E07F70E0F26BE40B543CF109D
:102C100000F1200646F82750CE1000F1200555F8A7
:102C2000265045EA0304CE1000F1200545F8264061
:102C3000F0BD0246002013690B4201D0012000E0E4
:102C4000002070470246002053690B4201D001204A
:102C500000E0002070474183704701837047704750
:102C600070B504460D462946204600F0B5FB2946BE
:102C7000204600F021FB2946204600F051FB294662
:102C8000204600F043FC2946204600F04BFD70BD75
:102C900008B5002240F225511E4806F082FA0120B4
:102CA00009F096FF00201C49088032E042F21070C3
:102CB000FFF7AEFA012009F08BFF002016490880CB
:102CC000012240F22551134806F06BFA12E008E0A9
:102CD0009DF8002010490888411C0F4B19800F49AE
:102CE0000A546946012009F081FF0028F0D16420D0
:102CF000FFF78EFA08480088B0F5487FE7DB00222E
:102D000040F22551034806F04CFA04490448FFF705
:102D1000A7FFCBE7004400401201002010D900209B
:102D200090D8002003E04FF47A70FFF771FAFAE7C9
:102D300000BFFEE710B500F001F810BD4AF6AA206A
:102D400001490860704700000030004000B587B0BE
:102D50000121022004F036FA0121102004F072FA59
:102D6000072206217548FFF741FF072211467348E5
:102D7000FFF73CFF00208DF81A0001208DF81B00A2
:102D800002208DF818004020059002208DF81900CF
:102D900005A96A48FFF7E2FE02208DF8180080209E
:102DA000059005A96548FFF7D9FE4FF4E130019081
:102DB0000020ADF80800ADF80A00ADF80C00ADF841
:102DC00010000C20ADF80E0001A95D4806F00EFAC7
:102DD000012240F225515A4806F0E3F901215848F2
:102DE00006F0A9F94021564806F09CF90121084651
:102DF00004F0E8F90121480404F014FA0722032141
:102E00005048FFF7F3FE00208DF81A0001208DF8DE
:102E10001B0002208DF818008DF81800082005907E
:102E200002208DF8190005A94648FFF797FE4FF4D8
:102E3000E13001900020ADF80800ADF80A00ADF8CF
:102E40000C00ADF810000420ADF80E0001A93E48BA
:102E500006F0CCF9012240F225513B4806F0A1F9D9
:102E60000121394806F067F94021374806F05AF940
:102E70000121022004F0A6F901208DF8180000209D
:102E80008DF81A008DF81B0003208DF8190004201E
:102E9000059005A92948FFF761FE0121022004F0F1
:102EA00091F90121880404F0BDF907220A21234881
:102EB000FFF79CFE07220B212048FFF797FE00201A
:102EC0008DF81A0001208DF81B0002208DF81800E3
:102ED0004002059002208DF8190005A91748FFF758
:102EE0003DFE02208DF818008002059005A91348C8
:102EF000FFF734FE4FF4165001900020ADF80800A3
:102F0000ADF80A00ADF80C00ADF810000C20ADF8DB
:102F10000E0001A90D4806F069F9012240F2255181
:102F20000A4806F03EF90121084806F004F940215C
:102F3000064806F0F7F807B000BD000000040240A4
:102F400000100140000002400044004000480040E2
:102F500000B587B01222002102A800F0CAF80422AE
:102F6000002101A800F0C5F80121080304F06AF966
:102F700000211F4804F07EFE0020ADF808004FF449
:102F80008270ADF80A004FF40060ADF80C0002202A
:102F9000ADF80E000020ADF810004FF40070ADF851
:102FA00012003820ADF814000020ADF816000720FC
:102FB000ADF8180002A90E4804F0AAFE0122502123
:102FC0000B4804F090FE0121094804F053FE232031
:102FD0008DF8040002208DF8050000208DF8060011
:102FE00001208DF8070001A800F07EFD07B000BDAC
:102FF000003001401CB508220021684600F079F835
:103000000121084604F0DEF80121022004F0DAF87C
:10301000052211462F48FFF7E9FD052206212D481C
:10302000FFF7E4FD052207212A48FFF7DFFD022014
:103030008DF804008DF8050000208DF806000220B0
:103040008DF80700E020009069462248FFF786FDD2
:1030500001208DF8040000208DF8060002208DF874
:10306000050000208DF807000220009069461A48EC
:10307000FFF774FD01208DF8040000208DF8060094
:1030800002208DF8050000208DF807001020009028
:1030900069461048FFF762FD01208DF8040000200A
:1030A0008DF8060002208DF8050000208DF807003D
:1030B0004FF40040009069460648FFF74FFD02209C
:1030C000054918310880102002490883C00208838E
:1030D0001CBD0000000002400004024000BFFEE7EB
:1030E00030B505460C4622460021284600F001F87E
:1030F00030BD2DE9F04103460C4617460FB9BDE837
:10310000F08103B9FBE70025002202E02D022543F0
:10311000521C042AFAD3384603F0030C1946BCF1BA
:10312000000F08D0624603E001F8014B401E521C1C
:1031300008B1042AF8D30E4601E020C6001F042877
:10314000FBD2314602E001F8014B401E0028FAD1C3
:1031500000BFD4E710B50BA006F046FA15A006F0A4
:1031600043FA20A006F040FA24A006F03DFA2BA076
:1031700006F03AFA31A006F037FA39A006F034FA30
:1031800010BD00002D2D2D2D2D2D2D2D4F6E2042EB
:10319000726F616420436F6D707574657220446551
:1031A000627567204D6F64652D2D2D2D2D2D2D2DD4
:1031B0000D0A00002D2D2D2D2D2D2D2D2D2D2D2DDC
:1031C0002D2D2D2D2D2D2D2D2D2D2D2D2D2D2D2D2F
:1031D0002D2D2D2D2D2D2D2D2D2D2D2D2D2D2D2D1F
:1031E0000D0A00005B315D205254432046756E632A
:1031F00074696F6E20546573740D0A005B325D2034
:103200004E6F72466C6173682046756E6374696FA9
:103210006E20546573740D0A000000005B335D205E
:103220004550532053797374656D2046756E6374F1
:10323000696F6E20546573740D0A00005B345D2065
:103240004F626320414453797374656D2046756EF7
:103250006374696F6E20546573740D0A000000007A
:103260005B355D204669706578205061796C6F61CF
:10327000642046756E6374696F6E20546573740DB7
:103280000A0000000246134610E010782A2805D0F4
:103290001078202802DB10787A2801DDFF207047A3
:1032A00010782C2801D1481EC1B2521C0029ECD143
:1032B000D01AC0B2F3E70000F8B505460F4616A1D4
:1032C0003846FDF71CF8064606213046FFF7DAFFC0
:1032D0000446FF2C05D03019694600F05AFA85F8EB
:1032E000610007213046FFF7CDFF0446FF2C05D0D3
:1032F0003019694600F04DFA85F862000921304620
:10330000FFF7C0FF0446FF2C04D03019694600F0D7
:1033100040FAA867F8BD0000244750474741000025
:103320002DE9F8430546884629A14046FCF7E7FF0A
:10333000064602213046FFF7A5FF0446FF2C05D0C4
:103340003019694600F025FA85F86F00002713E070
:10335000F81CC1B23046FFF795FF0446FF2C08D099
:103360003019694600F015FAC1B205F16300C15584
:1033700000E003E0781CC7B20C2FE9DB00BF0F218F
:103380003046FFF77FFF0446FF2C05D03019694611
:1033900000F0FFF9A5F8700010213046FFF772FF2A
:1033A0000446FF2C05D03019694600F0F2F9A5F863
:1033B000720011213046FFF765FF0446FF2C05D04F
:1033C0003019694600F0E5F9A5F87400BDE8F88306
:1033D00024475047534100002DE9FC5F07468A46C9
:1033E0004FF00008CDF804A046A10198FCF787FF34
:1033F0000646F079303800F0FF0B03213046FFF726
:1034000041FF0546FF2D04D07019694600F0C1F94F
:1034100038704FF0000970E03AA10198FCF76FFF97
:103420000646002460E0042000EB8400C1B2304670
:10343000FFF728FF0546FF2D0AD07019694600F0F6
:10344000A8F9C1B208EB4802B81C00F8121000E05D
:103450004CE0052000EB8400C1B23046FFF712FFBC
:103460000546FF2D0BD07019694600F092F9C1B2E4
:1034700008EB4802B81C00EB4200417000E035E068
:10348000062000EB8400C1B23046FFF7FBFE054684
:10349000FF2D0BD07019694600F07BF981B208EB63
:1034A0004802B81C00EB4200418000E01EE007200B
:1034B00000EB8400C1B23046FFF7E4FE0546FF2D65
:1034C0000BD07019694600F064F9C1B208EB4802EC
:1034D000B81C00EB4200017100E007E008F10100B8
:1034E00000F0FF08601CC4B2042C9CDB00BF701C01
:1034F000019009F1010000F0FF09D9458CDBBDE81E
:10350000FC9F000024475047535600002DE9F0432C
:103510002DED028B81B0044688467FA14046FCF722
:10352000EEFE074601213846FFF7ACFE0546FF2DAB
:1035300023D07819694600F02CF981469DF80010D7
:103540000A2000F01BF9B9FBF0F642F21070B6FB4E
:10355000F0F0C1B24E2001556420B6FBF0F06421BA
:10356000B0FBF1F201FB12014F2001556420B6FBC4
:10357000F0F100FB11615020015503213846FFF79F
:1035800081FE0546FF2D3FD07819694600F001F90C
:1035900006469DF80000801CC1B20A2000F0EEF83B
:1035A000B6FBF0F060659DF80000801CC1B20A20F7
:1035B00000F0E4F8B6FBF0F100FB116000EE100A39
:1035C000B8EE408A05210A2000F0D8F8616D484322
:1035D00000EE100AF8EE400A9DF80000C0F1050068
:1035E000C1B20A2000F0CAF800EE100AB8EE400A94
:1035F00020EE080A9FED4A1AC0EE011A30EEA10A29
:10360000BCEEC00A84ED150A04213846FFF73AFEE5
:103610000546FF2D02D0785D84F858000521384614
:10362000FFF730FE0546FF2D41D07819694600F0BE
:10363000B0F806469DF80000801CC1B20A2000F0D8
:103640009DF8B6FBF0F0E0659DF80000801CC1B26B
:103650000A2000F093F8B6FBF0F100FB116000EED9
:10366000100AB8EE400AB0EE408A05210A2000F0A8
:1036700085F8E16D484300EE100AF8EE400A9DF827
:103680000000C0F10500C1B20A2000F077F800EE9A
:10369000100AB8EE400A20EE080A9FED211AC0EE8B
:1036A000011A30EEA10ABCEEC00A84ED170A062109
:1036B0003846FFF7E7FD0546FF2D02D0785D84F818
:1036C000600009213846FFF7DDFD0546FF2D1ED0BD
:1036D0007819694600F05DF8064642F21070B6FBB4
:1036E000F0F0C1B24D2001556420B6FBF0F064212A
:1036F000B0FBF1F201FB12014C2001556420B6FB36
:10370000F0F100FB116000F5FA60A4F84A0001B086
:10371000BDEC028BBDE8F083244750524D430000BE
:1037200000007042F8B504460D4612A12846FCF789
:10373000E6FD064607213046FFF7A4FD0746FF2FAA
:1037400016D0F019694600F024F8A4F87C009DF822
:10375000000003280CDA9DF80000C0F10300C1B29C
:103760000A2000F00BF8B4F87C104843A4F87C0061
:10377000F8BD0000244750565447000010B50246DB
:10378000012000E050430B00A1F10104E1B2F9D1A6
:1037900010BD2DE9F34F81B007463C460020009054
:1037A000834681460026804628E020782D2802D1D5
:1037B00048F00208641C20782C2802D020782A289F
:1037C00000D11CE020782E2803D148F00108641CA9
:1037D00009E02078392802DC2078302803DA4FF01D
:1037E000000900260BE018F0010F02D0701CC6B2D1
:1037F00003E009F1010000F0FF09641CD5E700BFF8
:1038000018F0020F00D07F1C00250EE0A9F1010086
:10381000401BC1B20A20FFF7B1FF795D3039009A31
:1038200000FB01200090681CC5B24D45EEDB052E63
:1038300000DD05260298067000250EE0701E401B74
:10384000C1B20A20FFF79AFF09F101012944795C0E
:10385000303900FB01BB681CC5B2B542EEDB314616
:103860000A20FFF78BFF009901FB00BA18F0020F46
:1038700001D0CAF1000A5046BDE8FE8F7047000033
:1038800010B50446AA200B49088055200A49088033
:10389000802008490880AA20088055200649088011
:1038A00030214FF0C84001534FF4200000F006F8DB
:1038B00010BD0000AA0A0064540500642DE9F0411F
:1038C0000446002500274FF00108264600E0761E3A
:1038D00040212248FFF7ADF908B1002EF7D1264666
:1038E00000E0761E40211D48FFF7A3F908B9002E1D
:1038F000F7D127E0641E4FF0C8400588078805F01F
:10390000400007F04001884202D10020BDE8F0816C
:1039100005F02000202801D04FF001084FF0C840EA
:103920000588078805F0400007F04001884201D172
:103930000020EBE705F02000202803D14FF002081B
:1039400000F00EF814B1B8F1000FD3D11CB94FF04C
:10395000030800F005F84046D8E70000000C0240DC
:10396000AA2005490880552004490880F0204FF01E
:10397000C841088070470000AA0A0064540500642A
:10398000F0B51646344611F0010F07D06FF01C4712
:103990007A5A171200F8017B641E491C01F1C843D2
:1039A000002508E033F8022B00F8012B171200F86D
:1039B000017BA41E6D1CB5EB540FF3D3012C02D177
:1039C0001F7800F8017BF0BD70B5AA25114E358037
:1039D0005525114E358090250E4E35804FF0C84547
:1039E0002D88E9B24FF0C8456D88EAB24FF0C8455E
:1039F000AD8BEBB24FF0C845ED8BECB20D0645EA4E
:103A0000024545EA032545EA0400F0254FF0C84683
:103A1000358070BDAA0A0064540500642DE9F047A2
:103A200004460D469246D14615F0010F11D06FF0B5
:103A30001C40465BF6B214F8011B46EA0126681EDC
:103A4000314600F033F8074607B12CE0A9F101092F
:103A50006D1C4FF000080FE014F8016B14F8011B07
:103A600046EA01263146284600F020F8074607B10D
:103A700019E0AD1C08F10108B8EB590FECD319F0AF
:103A8000010F0ED04FF0C840465B06F47F4614F895
:103A9000010B06433146284600F008F8074607B1F7
:103AA00001E0002700BF3846BDE8F08770B5054645
:103AB0000C46AA2007490880552007490880A02005
:103AC000044908804FF0C84044534FF4A050FFF71A
:103AD000F5FE70BDAA0A00645405006410B54FF4E9
:103AE000407000F03DF810BD70B5002100230F229A
:103AF000C47824B3174C246804F4E064C4F5E0648B
:103B0000C4F30721C1F10404E3B20A4144789C40A4
:103B1000E1B28478144021430C07210E0E4C057845
:103B20006155047804F01F050124AC4005786D113F
:103B30004FF0E02606EB8505C5F8004109E0047862
:103B400004F01F040125A540044C0678761144F8C2
:103B5000265070BD0CED00E000E400E080E100E0E4
:103B600002490143024A1160704700000000FA0553
:103B70000CED00E07047000010B50348006810B17C
:103B800001480068804710BD4C00002070B5044615
:103B900000F0BCF8002045490870454908704549C7
:103BA000087045490860454908604549087045491D
:103BB000087045490870454908604549086045490D
:103BC000086045490870454800680A21B0FBF1F0DB
:103BD000434908604348006858B14348056845B107
:103BE0004048066803E0761E002028602D1D002E48
:103BF000F9D100203D4908603D4908603D49086011
:103C00003D4908603D4908603D4908603D490860FC
:103C10003D49087001F02EFE01F068FE204601F0DB
:103C2000BDFB208800B170BD204601F01DFC20883E
:103C300000B1F8E7204601F023FC208800B1F2E74C
:103C4000204601F085FC208800B1ECE7204601F019
:103C500041FE208800B1E6E7204601F0A9FF208858
:103C600000B1E0E7204602F075FA208800B1DAE7FB
:103C7000204601F0C1FB208800B1D4E7204602F0C5
:103C8000EBFE208800B1CEE7204602F0A7F920889D
:103C900000B1C8E7204602F04FFF208800B1C2E71C
:103CA00001F0A6FAFFF766FF00BFBCE76000002046
:103CB0006100002094000020EC000020F0000020B3
:103CC0007A0000207B0000207C000020880000207B
:103CD0008C000020900000209C000020902703080A
:103CE00098000020602703085C270308400000209C
:103CF00044000020480000204C000020500000201C
:103D00005400002058000020CA0000200648006827
:103D10000649096800EB810005490860084600680B
:103D200020F00700086070475C270308602703083D
:103D3000F400002008480078012800D070470748A8
:103D40000078FA2800DBF9E704480078401C0349B2
:103D5000087000BFF2E70000610000206000002052
:103D600010B500242D480078012800D010BD00BFF8
:103D7000FCF75CF9044600BF2948007828B900BF69
:103D80002046FCF757F900BFF0E725480078401EB1
:103D90002349087008460078002805DD00BF20464A
:103DA000FCF748F900BFE1E71E480078002805DD70
:103DB00000BF2046FCF73EF900BFD7E701F046FD03
:103DC000194908700846007800EB4000174951F87F
:103DD00020001749086008460068164909688842AB
:103DE00005D100BF2046FCF725F900BFBEE710480B
:103DF0000068D0F89000401C0D490968C1F8900097
:103E00000D480068401C0C490860FCF787FE00BFA5
:103E10002046FCF70FF900BF00BFA7E761000020B4
:103E200060000020940000207B00002054CC002083
:103E3000F0000020EC000020C000002010B500249D
:103E40001F480078002800DD10BD1E4800780028BB
:103E500000DDF9E700BFFCF7E9F8044600BF01F018
:103E6000F5FC194908700846007800EB4000174936
:103E700051F820001649086008460068154909688D
:103E8000884205D100BF2046FCF7D4F800BFDBE72D
:103E90000F480068D0F89000401C0D490968C1F82F
:103EA00090000D480068401C0B490860FCF731FE8B
:103EB00000BF2046FCF7BEF800BF00BFC4E700000B
:103EC00060000020940000207B00002054CC0020E3
:103ED000F0000020EC000020C000002070B5044677
:103EE000002518480078002803DD46F6625020803F
:103EF00070BD15480078012803D045F68960208000
:103F0000F6E712480078FA2803DB45F20920208002
:103F1000EEE700BF00BFFCF789F8054600BF00BF11
:103F20000A480078401C0949087001F095FD00BF5F
:103F300000BF2846FCF77EF800BF00BF00202080AD
:103F400000BFD5E760000020610000209400002041
:103F50002DE9F04105460C461646002700BF00BF7C
:103F6000FCF764F8074600BF00BF012D03D0002016
:103F70000D49087002E001200B49087014B10B488C
:103F8000046006E00A4800680A21B0FBF1F0074926
:103F9000086000BF00BF3846FCF74CF800BF00BF08
:103FA00000203080BDE8F0819C00002098000020B7
:103FB0009027030870B504460025204800780028A3
:103FC00003DD46F66550208070BD1D48007801284D
:103FD00003D045F689602080F6E71A48007818B9C2
:103FE00046F664502080EFE700BF00BFFCF71EF8E4
:103FF000054600BF00BF13480078401E11490870F5
:104000000846007800280ADD00BF00BF2846FCF7FC
:1040100011F800BF00BF46F663502080D4E701F0DE
:1040200029FD00BF00BF2846FCF704F800BF00BF11
:10403000FFF704FF0020208000BFC5E760000020DC
:1040400061000020940000202DE9F04104460E4656
:1040500017461D464FF0000818480078002804DD78
:1040600042F6E1602880BDE8F0811CB945F6C350F6
:104070002880F8E700BF00BFFBF7D8FF804600BFED
:1040800000BF0F482060276200206062666004F174
:10409000080001F0F1FA204601F072FD094800889D
:1040A000401C0849088000BF00BF4046FBF7C2FF24
:1040B00000BF00BF0020288000BFD4E760000020C0
:1040C00053454D41A40000202DE9F04788B0064635
:1040D000894690461C46109D4FF0000A60480078C3
:1040E000002806DD46F2AE102880002008B0BDE8AA
:1040F000F08726B945F6C35028800020F6E7B8F1CE
:10410000000F03D0B8F5004F02D100E000BF04E07B
:1041100045F6256028800020E8E700BF5149306857
:10412000884204D045F6C45028800020DEE70CB158
:104130000020206000BF00BFFBF778FF824600BF71
:1041400000BF306A88B1306A401E30620CB1706ABC
:104150002060376A00BF00BF5046FBF76BFF00BF0F
:1041600000BF002028803846C0E718F4004F0CD06C
:10417000376A00BF00BF5046FBF75CFF00BF00BFBF
:1041800046F2B01028803846B0E73748007800285B
:104190000BDD00BF00BF5046FBF74CFF00BF00BF68
:1041A00046F6635028800020A0E74B4606223146A1
:1041B000684601F0D9F900BF00BF5046FBF73AFF4F
:1041C00000BF00BFFFF73AFE00BF00BFFBF72EFFA6
:1041D000824600BF00BF2548006890F8350030B126
:1041E00001280CD002281AD0032821D110E01CB1DC
:1041F0001E480068006C20600020288024E01CB16C
:104200001A480068006C206046F2A91028801BE064
:104210000CB10020206047F2D920288014E01CB1A6
:1042200012480068006C206045F6C25028800BE000
:1042300046F62E60288000BF00BF5046FBF7FAFE0E
:1042400000BF00BF002051E700BF376A00BF00BFBA
:104250005046FBF7EFFE00BF00BF384646E70000C0
:104260006000002053454D4194000020EC000020E8
:104270002DE9F04105460E4614462DB945F6C350CA
:1042800020800020BDE8F0814EB1B6F5007F07D058
:10429000B6F5004F05D0B6F5024F04D102E000BFDD
:1042A00000BF00BF04E045F6256020800020E9E75C
:1042B00000BF0A492868884204D045F6C4502080CF
:1042C0000020DFE7FEF722F88046234642463146CB
:1042D000284601F079FC07463846D3E753454D415F
:1042E00010B5044612480078E8B901F0AFFA114958
:1042F000087008460078104908700E48007800EBF6
:1043000040000E4951F820000D4908600846006839
:104310000C490860012006490870FCF7E9FB43F6E8
:104320009920208002E045F68A60208010BD0000C0
:10433000610000207B0000207A00002054CC002087
:10434000F0000020EC0000202DE9F04107464FF07E
:10435000000800BF00BFFBF769FE804600BF00BF3A
:1043600000203C4908803C4908603C4908603C49C1
:1043700008603C4908603C49088100BF00BF4046D6
:10438000FBF758FE00BF00BF00BF00BFFBF74EFEAB
:10439000804600BF00BF3548046800BF00BF4046EC
:1043A000FBF748FE00BF00BF24E000BF00BFFBF7E3
:1043B0003DFE804600BF00BF002004F17804E063AA
:1043C00020602063A061A082E0826062A062FDF7AD
:1043D0009DFF2062A4F1780404F164064FF0000010
:1043E000B081D4F8BC4000BF00BF4046FBF722FEBE
:1043F00000BF00BF002CD8D100BF00BFFBF716FEE6
:10440000804600BF00BF1A48056800BF00BF404695
:10441000FBF710FE00BF00BF12E000BF00BFFBF7BC
:1044200005FE804600BF00BF05F120060020B081D8
:10443000AD6900BF00BF4046FBF7FCFD00BF00BFF9
:10444000002DEAD102F016FA02F072FC002038804A
:10445000BDE8F081AA000020BC000020D0000020B0
:10446000DC0000208C00002048CC0020C40000208C
:1044700080000020F8B5044600266946324800F066
:1044800021FCBDF8000018B1BDF800002080F8BD87
:104490006A460021022000F075FCBDF8000018B14A
:1044A000BDF800002080F2E700BF00BFFBF7BEFDB3
:1044B000064600BF00BF00202449086000BF00BFBF
:1044C0003046FBF7B7FD00BF00BF0025204800685D
:1044D00020490968884205D91D4800681D490968B6
:1044E000B0FBF1F525B91A4800680A21B0FBF1F5D7
:1044F0006A460021284600F045FC6946124800F053
:10450000C1F9BDF8000018B1BDF800002080BEE779
:1045100000BF00BFFBF78AFD064600BF00BF0020BA
:104520000D490860094800680C49086001200C49E1
:10453000087000BF00BF3046FBF77CFD00BF00BF26
:104540000020208000BFA2E7DCD00020AC000020CB
:104550009027030878270308BC000020B000002043
:10456000B800002010B50348006810B10148006889
:10457000804710BD500000202DE9FF4F85B0044654
:104580009046DDE91995159F139E00200290614821
:104590000078002805DD47F24A10288009B0BDE800
:1045A000F08F1CB947F2AD102880F7E7B8F1000F83
:1045B00003D147F24F102880F0E71EB946F62F606E
:1045C0002880EBE754480068874203D246F6306003
:1045D0002880E3E71498B84203D346F63160288078
:1045E000DCE71298402803D346F273202880D5E7F1
:1045F00012983F2806D14948844203D046F27320DE
:104600002880CBE7204601F0B5FD0020288019F076
:10461000010F10D019F0020F0DD0B346049007E03F
:104620000020CBF800000BF1040B0498401C049010
:104630000498B842F4D3149806EB80000390CDE9B7
:10464000007932464046039B089900F0D3FA83462E
:10465000C4F828800898E06206982062129884F8CE
:104660003700C4F800B00398A060179860651798E9
:1046700018B92B480068A06501E01798A065189844
:1046800060606662A763A4F83C904FF0000A08E0FF
:10469000002104F17C0040F82A100AF1010000F02A
:1046A000FF0ABAF1000FF3D004F16400169900F08C
:1046B00047FF204600F03AF800BF00BFFBF7B6FC0A
:1046C000029000BF00BF94F8370001F0DFF82046E9
:1046D00001F054F9204601F003FD12480088401C07
:1046E0001049088010480078012807D000BF00BF9B
:1046F0000298FBF79FFC00BF00BF4FE700BF00BF61
:104700000298FBF797FC00BF00BFFFF797FB00BFC5
:1047100044E70000600000208C27030884CB0020C1
:1047200098000020C80000206100002010B5044659
:104730000348006818B1204601490968884710BD40
:104740004000002070B504460D460026434800781E
:10475000002803DD47F24E10288070BD4048844297
:1047600003D147F24C102880F7E77CB900BF00BFA7
:10477000FBF75CFC064600BF00BF3A48046800BF78
:1047800000BF3046FBF756FC00BF00BF00BF00BFB4
:10479000FBF74CFC064600BF00BF94F83600082823
:1047A0002DD2DFE800F004090E10080A0F11204690
:1047B00001F024F92EE02DE000BF204602F03EF883
:1047C00028E000BF00BF00BF204602F037F894F891
:1047D0003400082810D2DFE800F004070508090AB1
:1047E0000B0600BF00BF08E000BF00BF00BF00BF56
:1047F000204600F079FF00E000BF00BF0AE000BFE4
:1048000000BF3046FBF716FC00BF00BF46F62D6028
:104810002880A2E700BF04F1640000F06FFE20468C
:1048200000F024F8204601F073FC0F480088401E79
:104830000D490880204601F09DFCFF2084F83600D9
:1048400000BF00BF3046FBF7F5FB00BF00BF0020F4
:104850002880FFF7F3FA00BF7FE700006000002028
:1048600084CB0020EC000020C800002010B50446D6
:104870000348006818B1204601490968884710BDFF
:104880004400002070B504460D4600261548007807
:10489000002803DD47F25510288070BD00BF00BF1F
:1048A000FBF7C4FB064600BF00BF1CB10E48006802
:1048B00084420AD100BF00BF3046FBF7BBFB00BFFC
:1048C00000BF47F257102880E7E700BF00BF30461F
:1048D000FBF7B0FB00BF00BF2946204601F0C2FC39
:1048E00000BFDAE760000020EC00002010B50446AD
:1048F0000348006818B1204601490968884710BD7F
:10490000480000202DE9F04780460E4614461D461B
:104910004FF000096F480078002805DD46F2AE1020
:1049200028800020BDE8F0871EB1B6F5004F02D107
:1049300000E000BF04E045F6256028800020F1E794
:1049400000BF0CB10020206000BF00BFFBF76EFB72
:10495000814600BF00BF60480068406CA8B35E4855
:104960000068406C401E5C49096848645A48006809
:10497000476C1CB158480068006C2060FDF7C6FC0D
:1049800055490968096C401A53490968C1F8A400DF
:1049900051480068D0F8A8004F490968D1F8A41020
:1049A000884207D24C480068D0F8A4004A490968F8
:1049B000C1F8A80000BF00BF4846FBF73BFB00BFA3
:1049C00000BF002028803846ACE7FFE716F4004F10
:1049D0000BD000BF00BF4846FBF72CFB00BF00BF59
:1049E00046F2B010288000209CE73C480078002860
:1049F0000BDD00BF00BF4846FBF71CFB00BF00BF3C
:104A000046F66350288000208CE7434607220021A9
:104A1000084600F0A9FD00BF00BF4846FBF70AFBAF
:104A200000BF00BFFFF70AFA00BF00BFFBF7FEFAA6
:104A3000814600BF00BF2848006890F8350020B1CB
:104A4000012826D0032834D12CE0FCB1224800688C
:104A5000006C2060FDF75AFC1F490968096C401A78
:104A60001D490968C1F8A4001B480068D0F8A800D7
:104A700019490968D1F8A410884207D2164800687D
:104A8000D0F8A40014490968C1F8A80000202880C3
:104A900013E01CB110480068006C206046F2A910B9
:104AA00028800AE00CB10020206047F2D92028803D
:104AB00003E046F62E60288000BF00BF064800686D
:104AC000476C00BF00BF4846FBF7B4FA00BF00BF09
:104AD000384627E760000020EC000020940000200A
:104AE0002DE9F04106460D4614461DB1B5F5004FBF
:104AF00002D100E000BF05E045F6256020800020DF
:104B0000BDE8F08100BFFDF701FC80462346424628
:104B10002946304601F032FC07463846F0E70000EF
:104B20002DE9F04705460E4617461C464FF0000A91
:104B30002E480078002804DD47F259102080BDE897
:104B4000F0871EB946F2D5202080F8E71FB946F25B
:104B5000D5202080F3E700BF00BFFBF767FA82464D
:104B600000BF00BF0DB922480568286868B900BFBA
:104B700000BF5046FBF75EFA00BF00BF0020306068
:104B8000386047F252102080D9E795F83C0010F0C9
:104B9000010F0DD100BF00BF5046FBF74BFA00BF1D
:104BA00000BF00203060386047F254102080C6E714
:104BB00000BF00BF5046FBF73DFA00BF00BF4FF0FB
:104BC0000008D5F8249003E009F1040908F1010870
:104BD000D9F800000028F7D0C6F80080A86BA0EB39
:104BE000080038600020208000BFA8E76000002097
:104BF000EC000020F0B50446DDE9055602EB850027
:104C000020F007004FF0807C071F3846C7F800C02F
:104C1000071F38463C60DFF8A8C0071F3846C7F8B2
:104C200000C04FF0123C071F3846C7F800C04FF0D5
:104C3000033C071F3846C7F800C04FF0023C071F6F
:104C40003846C7F800C0071F38463B60071F384684
:104C500039604FF0113C071F3846C7F800C04FF0CD
:104C6000103C071F3846C7F800C04FF0093C071F2B
:104C70003846C7F800C04FF0083C071F3846C7F851
:104C800000C04FF0073C071F3846C7F800C04FF080
:104C9000063C071F3846C7F800C04FF0053C071F09
:104CA0003846C7F800C04FF0043C071F3846C7F825
:104CB00000C06FF0020C071F3846C7F800C0F0BDF7
:104CC0006563020870B505460C460A48007800285E
:104CD00003DD47F25D10208070BD0748854203D197
:104CE00047F25B102080F7E72146284601F028FCB8
:104CF00000BFF1E76000002084CB002010B51D4804
:104D0000006810B11B4800688047FDF7FFFA0446B1
:104D10001948006819490968884215D01648006882
:104D2000D0F89800201A14490968C1F89400124874
:104D30000068D0F89C0010490968D1F89410084424
:104D40000D490968C1F89C000C480068C0F89840FB
:104D500009480068D0F8B40009490968884205D2BA
:104D60000748006804490968C1F8B40000200449F4
:104D7000086010BD54000020EC000020F00000206E
:104D8000900000202DE9F04105460E46144600270C
:104D90002A480078002804DD47F275202080BDE80D
:104DA000F08127480078002803DD46F66350208014
:104DB000F5E736B1022E05D0042E0AD0082E09D10F
:104DC00001E000BF00BF1DB947F27E202080E6E76A
:104DD00004E003E045F625602080E0E700BF00BF67
:104DE00000BFFBF723F9074600BF00BF01201549AC
:104DF000096881F836002346324629461148006882
:104E000001F03EFC208838B100BF00BF3846FBF7F8
:104E100011F900BF00BFC2E70A48006800F0EEFDCC
:104E200000BF00BF3846FBF705F900BF00BFFFF722
:104E300005F80020208000BFB1E7000060000020DE
:104E400094000020EC0000202DE9FF5F05460E468F
:104E500017469846DDE90EA4002000905D480078D2
:104E6000002804DD47F275202080BDE8FF9F5A48E6
:104E70000078002803DD46F663502080F5E70AF04D
:104E80000E0BBBF1000F09D0BBF1020F07D0BBF135
:104E9000040F10D0BBF1080F0ED101E000BF00BF1E
:104EA000B8F1000F06D12FB926B91DB947F27E20FF
:104EB0002080DAE704E003E045F625602080D4E7AF
:104EC00000BF3AF01E0001D0012000E00020039056
:104ED0000398012803D145F625602080C5E7CAF371
:104EE000001002900298C0B9B8F57A7F03D347F258
:104EF0007B202080B9E73B2F03DD47F27A2020801A
:104F0000B3E73B2E03DD47F279202080ADE7632D28
:104F100012DD47F278202080A7E742F20F70864228
:104F200003DD47F2792020809FE7B5F57A7F03DB28
:104F300047F27820208098E72848D0F800904FF476
:104F4000FA70B0FBF9F0404400FB09F04FF47A71BD
:104F5000B0FBF1F14FF461606843C6EB061200EB61
:104F60008200384400FB09100190019860B300BF33
:104F700000BFFBF75BF8009000BF00BF012018499D
:104F8000096881F8360023465A4615480199006899
:104F900001F076FB208838B100BF00BF0098FBF716
:104FA00049F800BF00BF60E70D48006800F026FD2B
:104FB00000BF00BF0098FBF73DF800BF00BFFEF741
:104FC0003DFF0020208002E047F27E20208000BFCD
:104FD0004BE70000600000209400002090270308A9
:104FE000EC00002070B50446002600BF00BFFBF7B0
:104FF0001DF8064600BF00BF0648056800BF00BF99
:105000003046FBF717F800BF00BF0020208028467D
:1050100070BD0000CC00002070B504460D4600268F
:1050200000BF00BFFBF702F8064600BF00BF0648FE
:10503000046000BF00BF3046FAF7FCFF00BF00BFAE
:105040000020288070BD0000CC00002008B500F0D2
:105050002BF86A4600210E48FFF742FD0D490978FA
:1050600001EB41010C4A02EB810000F021FD0B48ED
:105070000068401E094908600846006838B90848B9
:10508000006808606A4600210648FFF729FD08BD50
:1050900018D000207A00002054CC0020E800002026
:1050A000E4000020DCD0002010B50348006810B1F7
:1050B00001480068804710BD580000202DE9F84FD6
:1050C0000446884616461F46DDE90BABDDF82890FE
:1050D0000D9D0020009029480078002804DD47F24B
:1050E00043302880BDE8F88F1CB945F6C3502880AE
:1050F000F8E7B9F1010F08D0B9F1020F0BD11FB9D0
:1051000047F240302880EDE709E01EB947F23F3012
:105110002880E7E703E045F625602880E2E700BF46
:1051200000BF00BFFAF782FF009000BF00BF012060
:1051300084F82A0012482060C4F804802662002007
:10514000A061E0616762A4F82890C4F808A0C4F8E0
:105150000CB020616061204601F0DAFC094800884B
:10516000401C0849088000BF00BF0098FAF762FFA2
:1051700000BF00BF0020288000BFB3E76000002010
:10518000544D5220D800002010B5002400BF00BFAD
:10519000FAF74CFF044600BF00BF08480078401CE7
:1051A0000649087000BF00BF2046FAF743FF00BF62
:1051B00000BFFFF74BFFFEF7D3FD10BD60000020DE
:1051C00001464A1E4FF0E0235A61084A106820F059
:1051D0007F4000BF10601A46126942F005021A6152
:1051E0001A46126942F002021A61704720ED00E08F
:1051F000244A2549254A264A2649274A2748284A33
:10520000284A294A294A2A482A482B4A2B482C4A04
:105210002C482D4A2D482E482E482F482F4A304AD8
:10522000304A3148314A324A3248334833483448A8
:10523000344835483548364A364A374A374A384876
:1052400038483948394A3A4A3A4A3B483B483C4848
:105250003C493D483D4A3E4A3E4A3F4A3F4A404A11
:10526000404A4148414A424A42484348434A444AE4
:105270004448454A454A46484648474800BF00BF5B
:1052800000BF7047D42703083C290308D52703082B
:10529000D6270308D8270308DC270308E0270308DC
:1052A000DD27030808280308092803080A2803083B
:1052B0000C2803080E2803081228030814280308E2
:1052C0003428030836280308382803083A28030836
:1052D0003C2803083E280308402803086C280308DC
:1052E0006D2803086E280308702803087228030835
:1052F000732803087428030876280308782803080D
:105300007A2803087C2803087E28030880280308DD
:10531000B0280308B1280308B2280308B3280308FB
:10532000B4280308B6280308B8280308E0280308AF
:10533000E1280308E2280308E3280308E428030817
:10534000E6280308E8280308EC280308ED280308EA
:10535000EE280308EF280308F0280308F1280308C3
:10536000F2280308F3280308F4280308F6280308A2
:10537000F7280308F8280308FA280308FC2803087C
:10538000FD280308002903083429030835290308E8
:1053900036290308382903083A2903080021034A5B
:1053A0001160034A118001807047000064000020F2
:1053B00068000020002400BF19E000BF00BFFAF71A
:1053C00035FE044600BF00BF09480068401C08497C
:1053D000086008480068401C0649086000BF00BF1C
:1053E0002046FAF727FE00BF00BFFEF7C5FBE4E743
:1053F0005C000020AC00002010B58AB004460020FC
:105400000E4908600B2000210591CDE907040691A3
:1054100008460B4909680B4A12680B4B1B68CDE91B
:105420000132CDE903103F200023084A08A1009073
:105430000C48FFF7A1F80AB010BD00005C00002086
:10544000382703083427030830270308B553020818
:1054500075432F4F532D4949492049646C652054A9
:1054600061736B0084CB00200021034A1160034A62
:1054700011800180704700006C0000207000002047
:1054800070B501461A4D2D681DB945F21E750D8087
:1054900070BD184D2D881DB945F21D750D80F7E7BB
:1054A000134D28682A681032124D2D886D1EACB23B
:1054B000002308E00260002545600581C5601030CA
:1054C00010325D1CABB2A342F4DB002505604560E1
:1054D0000581C560064D2D68074E3560054D2D8848
:1054E000B5800025F58035810D8000BFD0E7000034
:1054F000702703086827030848CC002010B5014630
:1055000048894B89002B17DD0A680C4B1B68136018
:105510000A4C4B6823602346DB884C891B1B074CD5
:10552000E38023469B884C892344044CA3800023BA
:105530004B818B810B604B6010BD000048CC00207C
:105540000181002242818281026042607047000036
:105550000021034A1160034A118001807047000056
:1055600074000020780000202DE9F04105460C462B
:1055700016461F461548006880F83460002013491D
:10558000096881F8350039461048006800F08CFD44
:105590006CB104F10808EC60012229460B48006850
:1055A00000F016F82946404600F06BF806E00020AF
:1055B00006490968C88705490968086303480168FE
:1055C000204600F019F8BDE8F0810000EC00002052
:1055D00010B5C287016300230AE000244C600C6010
:1055E0000C614C610C83CC61886020315C1CA3B2DF
:1055F0009342F2DB10BD000030B548B14568C1F8F8
:10560000C05000F10804226893681D6AC56113E068
:1056100091F83450022D02D0072D08D103E007A5E0
:10562000C1F8C05007E007A5C1F8C05003E008A5C5
:10563000C1F8C05000BF00BF30BD00005461736BA3
:10564000205100005461736B2053656D0000000011
:105650002000000030B507A5C1F8C05000F10804D3
:1056600022681AB193681D6AC56101E001A5C56190
:1056700030BD000020000000002101604160018178
:105680007047F0B58E6896F8375007893FB9012703
:10569000078100274F600F600160416023E00789A8
:1056A0007F1C0781026806E0946894F83770AF4267
:1056B00000DD02E05268002AF6D100BF32B90027AF
:1056C0004F6043680B60596041600CE017682FB968
:1056D000116000270F604A60016004E013680B60EE
:1056E0004A6059601160F0BD2DE9F0410446256B18
:1056F000E68F0AE0D5F80C8008F1080729463846FD
:1057000000F00AF82035701E86B2002EF2DC002070
:10571000E0872063BDE8F08110B50489012C03D136
:1057200000240460446011E00C6824B94A68002435
:10573000146002600AE04C6824B90B6800245C60C5
:10574000436003E00B684A685A6013600489641E72
:10575000048100244C600C6010BD2DE9F84306461E
:105760000C4617469846089D94F83600082853D2F0
:10577000DFE800F00405080906072C2D00BF00BF74
:1057800000BF4AE000BF94F83400032807D1434625
:105790003A4621463046009500F042F803E0E765BE
:1057A000A4F86080256436B12046FFF79DFF2146AE
:1057B0003046FFF74FFF204600F046FD002004F181
:1057C0003404A070607004F8340926E000BF94F837
:1057D0003400032807D143463A4621463046009517
:1057E00000F01EF803E0E765A4F860802564204619
:1057F00001F024F836B12046FFF776FF2146304607
:10580000FFF728FF042004F13404A0704FF00000DB
:10581000607004F8340900E000BF00BFBDE8F88301
:10582000F0B50446059E086BCD8F0AE0C768A74215
:1058300004D1046142610383C66104E020306F1E1D
:10584000BDB2002DF2DC00BFF0BD000070B5002538
:10585000074C03E005F12000C5B2241D2068002894
:10586000F8D02068FAF7EDFB2844C5B2284670BD91
:1058700038000020002004E00021034A42F82010F4
:10588000401C0228F8D370473800002030B5420988
:1058900000F01F030121C3F11F04A140034C54F881
:1058A00022400C43014D45F8224030BD3800002015
