:020000040800F2
:10000000581A01209D010008E13800088D2E0008D3
:100010006D31000821210008F5A000080000000053
:10002000000000000000000000000000398F000800
:100030008D27000800000000330A0008FD51000869
:10004000B7010008F1710008B7010008B701000806
:10005000B7010008B7010008B7010008B7010008A0
:10006000B7010008B7010008B7010008B701000890
:10007000B7010008B7010008B7010008B701000880
:10008000B7010008B7010008B7010008B701000870
:10009000B7010008B7010008B7010008B701000860
:1000A000B7010008B7010008B7010008B701000850
:1000B000B7010008B7010008B7010008B701000840
:1000C000B7010008B7010008B7010008318D00082A
:1000D000A18D0008099D0008199D0008B7010008BE
:1000E000B7010008B7010008B7010008B701000810
:1000F000B7010008B7010008B7010008B701000800
:10010000B7010008F57C0008B7010008B701000836
:10011000B7010008B7010008B7010008B7010008DF
:10012000B7010008B7010008B70100080925000859
:10013000B7010008B7010008B7010008B7010008BF
:10014000B7010008B7010008B7010008B7010008AF
:10015000B7010008B7010008B7010008B70100089F
:10016000B7010008B7010008B7010008B70100088F
:10017000B7010008B7010008B7010008B70100087F
:10018000B7010008B7010008DFF80CD000F0D6FB7B
:10019000004800477DFF0008581A012006488047A4
:1001A00006480047FEE7FEE7FEE7FEE7FEE7FEE75C
:1001B000FEE7FEE7FEE7FEE715900008890100086C
:1001C00072B6704762B67047EFF3108072B6704730
:1001D00080F31088704730BF704720BF7047B0FA77
:1001E00080F0704790FAA0F0B0FA80F0704790FA73
:1001F000A0F070472DE9F05F0546002092469B462F
:1002000088460646814640241BE02846414647462C
:10021000224600F020F852465B46801A994110D3DE
:1002200010461946224600F047FA2D1A67EB0108DE
:100230004F4622460120002100F03EFA17EB00094C
:100240004E41201EA4F10104DFDC484631462A4617
:100250004346BDE8F09F202A04DB203A21FA02F051
:100260000021704721FA02F3D040C2F120029140F0
:10027000084319467047D2B201E000F8012B491E2D
:10028000FBD270470022F6E710B504460846114637
:1002900002462046FFF7EFFF204610BD30B50EE0C6
:1002A00003460A4601E05B1C521C1C781578AC42E0
:1002B00001D1002CF7D115F0FF0F04D0401C0278BB
:1002C000002AEDD1002030BD2DE9FE4F074681EA1E
:1002D0000300C00F0E46019021F0004123F00044BE
:1002E000B81AA14105D23846314617461E460B467C
:1002F000024623F00040104304D13846314603B093
:10030000BDE8F08F350DC5F30A00C3F30A51029022
:10031000401A0090402868DAC3F3130040F4801BB1
:100320000198924620B10023D2EB030A63EB0B0B3A
:1003300000985946C0F14002504600F0BDF9804691
:100340000C4650465946009A00F0C5F9C019714153
:10035000EF1785EA11533B4340D0019A52B3009AFC
:10036000012A11DC0022801A4FF0004361EB055195
:1003700003EA05538018CDE9002341F58011424678
:10038000234600F0C7F9BAE72E050025401B61EBB4
:100390000601401941F58012001852412818A6F5AF
:1003A000001343EB020140EAD470294318EB08081C
:1003B000644113E064084FEA38084FF0000244EA51
:1003C000C0744FEA0553801A61EB0301801841F5B0
:1003D000801149084FEA30008018594142462346AF
:1003E00003B0BDE8F04F00F088B901980122400049
:1003F0000023D0EB020263EBE07301984FEAE07454
:10040000381A66EB0401EBE783F000435CE781F008
:10041000004159E72DE9FE4F81EA030421F0004530
:1004200004F0004423F000414FF0000A009450EA29
:10043000050302D052EA010304D10020014603B0B3
:10044000BDE8F08FC1F30A53C5F30A541C44A0FB66
:1004500002B3C5F3130545F4801CC1F3130141F445
:1004600080180CFB023300FB083EA4F2F334810A2F
:10047000930A41EA8C5143EA88530194A1FB034754
:100480004FEA9C2505FB03734FEA982601FB0637CC
:100490003D05260545EA1435BBEB06016EEB050369
:1004A000850E920E45EA8C1542EA8812A5FB0206DB
:1004B000261E67EB00070C0D44EA0334A41947EB32
:1004C0001350C1F313064FF0000319464FEA0333EC
:1004D00043EA165343EA0403019CE5FB0201A4F13D
:1004E0000C040294009C4FEA0632CDE900A400F00F
:1004F00011F9A4E72DE9F04D81EA030404F0004B63
:1005000021F0004714464FF0000A23F0004150EA62
:10051000070220D054EA01021DD0C1F30A55024659
:10052000C1F31300C7F30A56C7F3130340F4801155
:1005300043F48013A6EB0508101BD64608F2FD38DD
:1005400073EB010002D308F1010801E092185B414E
:10055000B8F1000F03DA00200146BDE8F08D00205D
:100560004FF48015064607460EE0B2EB040C73EB21
:10057000010C04D3121B064363EB01032F436D08E8
:100580004FEA300092185B4150EA050CEDD152EA77
:10059000030012D082EA040083EA0105284303D154
:1005A00000224FF0004308E0101B8B4102D20122D1
:1005B000002302E06FF0010253101AEB060047EB34
:1005C000085110EB0A0041EB0B01BDE8F04D00F0C3
:1005D00094B80EB5C10F80EAE0700844CA07002144
:1005E00040F233438DE80E000A460B4600F092F8C5
:1005F00003B000BD0EB540F2334102910021CDE9B8
:1006000000110A460B4600F085F803B000BD00F06B
:10061000004230F000400DD0C10D01F5607142EA9A
:1006200001510022C0F31600520742EAD0024007EF
:1006300011437047002001467047000030B5002983
:1006400004DB4FF00044404264EB0101002B04DB6B
:100650004FF00044524264EB03038B4208BF8242D6
:1006600030BD000030B5002904DB4FF000444042AB
:1006700064EB0101002B04DB4FF00044524264EBB9
:100680000303994208BF904230BD000030B50B46CD
:10069000014600202022012409E021FA02F59D42B2
:1006A00005D303FA02F5491B04FA02F52844151E86
:1006B000A2F10102F1DC30BD202A04DB203A00FA6D
:1006C00002F1002070479140C2F1200320FA03F3A9
:1006D000194390407047202A06DBCB17203A41FA95
:1006E00002F043EAE071704741FA02F3D040C2F1F0
:1006F0002002914008431946704710B5002B08DAD4
:10070000401C41F1000192185B411A4301D120F0D5
:10071000010010BD2DE9F04D92469B4611B1B1FA92
:1007200081F202E0B0FA80F220329046FFF7C4FF77
:1007300006460F4640EA0A0041EA0B0152465B4674
:10074000084303D130463946BDE8F08D194652EAD8
:10075000010015D0C8F140025046FFF77CFD044669
:100760000D46504659464246FFF7A6FF084301D0C2
:10077000012000E00020044345EAE07526432F43B2
:100780000A984FEAD625A0EB08000A304FEA4653F4
:100790004FF0000245EA47554FEAD72402D5002022
:1007A0000146D1E7010550196141DDE9084500190D
:1007B0006941BDE8F04DA0E770B521F00043034367
:1007C0000CD0C1F30A540026D4EB060566EB0603F1
:1007D000D417AD1AA34102DB0020014670BD001CF6
:1007E00041EB025170BD2DE9F04D00231A461B1A52
:1007F0008A4103DB00200146BDE8F08DC1F30A52B7
:10080000C1F3130141F480154FF0000BD10702D161
:1008100000186D41521E0026044640F2FF1130467A
:1008200001EB620A37468046024600204FF48011F1
:10083000FFF711FD80197941331847EB0102B4EB42
:10084000030C75EB020C04D3E41A65EB02050646B3
:100850000F46241908F101006D4180463428E3DD7C
:10086000B11947EB0700091BA84103D24FF0FF3233
:10087000134601E0002213461BEB060047EB0A512A
:10088000BDE8F04DFFF739BF2DE9FE4FC3F30A581D
:1008900001F000450024C1F30A56C3F31303C1F36A
:1008A000130143F4801312EB020CA64641F48011AD
:1008B0009246009543EB0307A8F1010B13E0B0EB60
:1008C0000C00B94107D54FF00008D0EB080085F0C7
:1008D000004568EB0101BAEB000273EB0102EED3B5
:1008E000761E001849415E45F5DA50EA010204D14E
:1008F0000099204603B0BDE8F08FCDE900E5002265
:1009000013460296FFF706FFF4E7C1F30A52C1F35C
:10091000130140F2FF3341F480119A4202DA0020C1
:100920000146704740F233439A42A2F2334202DC5E
:100930005242FFF790BCFFF7BFBE0000064C074DC8
:1009400006E0E06840F0010394E80700984710349F
:10095000AC42F6D3FFF71CFC784B0108984B01081A
:1009600070B5C1F30A5201F000450024C1F3130130
:1009700040F2FF3341F480119A4201DA002070BD49
:1009800040F233439A42A2F2334203DC5242FFF771
:1009900062FC00E090402C43F1D0404270BD70B545
:1009A00001EB020410F8015B15F0070301D110F808
:1009B000013B2A1106D110F8012B03E010F8016B5E
:1009C00001F8016B5B1EF9D12B0705D40023521EE1
:1009D0000FD401F8013BFAE710F8013B02F10202E3
:1009E000A1EB030303E013F8015B01F8015B521E66
:1009F000F9D5A142D6D3002070BD000021484FF0A8
:100A0000FF010170002080F309881F48016881F30D
:100A100008881E484FF08051016062B6FEE71B480F
:100A20004FF080510160704718484FF080510160CD
:100A3000704772B6EFF3098050B11EF0100F08BF77
:100A400020ED108A734620E9F80F11490968086003
:100A500000B5104880475DF804EB0F480F490A784D
:100A600002700B480E490A6802601068B0E8F80F7F
:100A70009E461EF0100F08BFB0EC108A80F3098864
:100A800062B6704722ED00E0F400002004ED00E0C3
:100A9000EC000020654D00087A0000207B0000205B
:100AA000F0000020002007E09FED370B384901EBF4
:100AB000C00181ED000B401C0328F5DB002007E09E
:100AC0009FED310B334901EBC00181ED000B401C60
:100AD0000328F5DB9FED2C0B2F4981ED000B9FEDDB
:100AE0002F0B81ED020B9FED2F0B304981ED000B99
:100AF0009FED2C0B2E4981ED000B01212D4A117029
:100B000000212D4A11702D4A11702D4A11602D4A75
:100B100011602D4A11609FED2D0B2E4981ED000BC8
:100B200000212D4A11702D4A11702D4A11709FED30
:100B30002D0B2E4981ED000B9FED2D0B2E4981EDE4
:100B4000000B9FED2E0B2F4981ED000B9FED2E0B1F
:100B50002F4981ED000B00212E4A11702E4A117091
:100B60002E4A11702E4A11702E4A11702E4A1170A1
:100B70002E4A11702E4A11702E4A11709FED2E0BC5
:100B80002F4981ED000B70470000000000000000BD
:100B900078D80020F0D8002038D90020F4FB7CD38E
:100BA0005E16D33F000000000000F03FB0020020BE
:100BB000B8020020A0020020A1020020A202002012
:100BC000A4020020A8020020AC02002000000000C7
:100BD0000000004080020020D0010020C40200205C
:100BE000D1010020613255302AA9333F180200207C
:100BF000FA7E6ABC7493783F300200200000000047
:100C000000000840480200207B14AE47E17AB43F60
:100C1000600200202802002040020020580200202C
:100C20007002002071020020720200207402002075
:100C30007602002078020020000000405DBE4241A4
:100C4000C802002001F00AFE06F028FA642001F034
:100C500037FA1FE0002417E0012001F01BFE0120FD
:100C600001F02EFA022001F015FE20210A4800F0C2
:100C700017F8012001F024FA06F01EFA10210748A7
:100C800000F00EF8601CC4B2102CE5DB4FF47A7053
:100C900001F016FADEE70000C0D40020A0CB00204F
:100CA000F0B502460B46002046E000EB400732F864
:100CB000274000EB400732F82750002600212BE0A8
:100CC00000EB400702EB870737F81170A74206DDFB
:100CD00000EB400702EB870737F811C000E0A4469D
:100CE000644600EB400702EB870737F81170AF420C
:100CF00006DA00EB400702EB870737F811C000E087
:100D0000AC46654600EB400702EB870737F81170E9
:100D10003744BEB24F1CF9B20529D1DB371B7F1B0C
:100D20004FF0030C97FBFCF700EB400C02EB8C0C34
:100D3000ACF80A70471CF8B29842B6DBF0BD000070
:100D400010B51CA200211F4801F07FF91EA200214E
:100D5000204801F07AF920A20021224801F075F91B
:100D600021A20021244801F070F924A20021264884
:100D700001F06BF925A20021284801F066F928A2AC
:100D800000212B4801F061F92AA200212D4801F031
:100D90005CF92DA20021304801F057F92FA2002163
:100DA000324801F052F932A20021354801F04DF9E4
:100DB00010BD000053454D5F544558545F52455691
:100DC00000000000FCA2002053454D5F4750535FD8
:100DD00053544F0024A3002053454D5F54454C5FAE
:100DE00053544F004CA3002053454D5F504C4F418E
:100DF000445F53544F00000074A3002053454D5FDF
:100E00004F52425F4445540060D6002053454D5F29
:100E10004F52425F43414C435500000088D60020AA
:100E200053454D5F4359435F494E464F0000000014
:100E3000B0D6002053454D5F4D41475F444F545F4E
:100E4000444D5000D8D6002053454D5F5049545F63
:100E5000464C545F434F4D0000D7002053454D5F33
:100E60005049545F464C545F50524F0028D70020E1
:100E700053454D5F4154545F5354415F43544C00BC
:100E800050D700202DED108BAAB09FEDCB0B8DED30
:100E9000160B9FEDCB0BB0EE40EAF0EE60EA9FED53
:100EA000CA0B8DED140B9FEDCA0B8DED120B81E17A
:100EB0000021C94801F0E8F8C84890ED001BB0EEE9
:100EC000410AF0EE610A9FEDC61B53EC112B51EC69
:100ED000100BFFF79FFA41EC100BB0EE40BAF0EEAA
:100EE00060BA9FEDC10B53EC102B51EC1B0BFFF7BD
:100EF00001FB41EC180BB94890ED021BB0EE410A22
:100F0000F0EE610A9FEDB61B53EC112B51EC100B68
:100F1000FFF780FA41EC100BB0EE40BAF0EE60BA89
:100F20009FEDB10B53EC102B51EC1B0BFFF7E2FACA
:100F300041EC190BAE480068012806DA03230122B0
:100F4000AC4924A80FF0C5F80DE00320012324AA22
:100F5000A84900901EA80FF029FB03230122A549F0
:100F600024A80FF0B6F853EC192BA34890ED000B12
:100F700051EC100BFFF74EFA41EC100BB0EE40BAFB
:100F8000F0EE60BA9D4890ED000B51EC100B81F033
:100F9000004141EC100BB0EE40CAF0EE60CA53ECD9
:100FA000182B51EC1C0BFFF735FA41EC100BB0EE8F
:100FB00040DAF0EE60DA53EC1B2B51EC1D0BFFF71F
:100FC00023FA41EC1A0B9FED8E0B8DED0A0B8DED84
:100FD0000CAB9FED8B0B8DED0E0B012016AACDE90E
:100FE0000020032302468349029018A80FF0F2F96B
:100FF000032118A80FF02CFBB0EE40BAF0EE60BA57
:1010000053EC1B2B9FED800B51EC100BFFF772FA8A
:1010100041EC100B8DED100B9DED100B53EC102BD4
:101020009DED100B51EC100BFFF7F4F941EC100B98
:101030008DED100B0AAA18A9754809F05DF801207A
:1010400010AACDE900200323024671490290084608
:101050000FF0C0F99DED201BB0EE410AF0EE610AE1
:101060006C4890ED001B53EC112B51EC100BFFF76B
:10107000CBF941EC100BB0EE40BAF0EE60BA664826
:1010800090ED000B51EC100B81F0004141EC100B86
:10109000B0EE40CAF0EE60CA53EC1B2B51EC1C0BB7
:1010A000FFF7B8F941EC100B594880ED020B002412
:1010B00032E0574800EBC40090ED001BB0EE410A4F
:1010C000F0EE610A9FED551B53EC112B51EC100B08
:1010D000FFF7B4FA06D29FED510B4D4800EBC40068
:1010E00080ED000B4A4800EBC40090ED001BB0EE11
:1010F000410AF0EE610A9FED4B1B53EC112B51ECB2
:10110000100BFFF7AFFA06D29FED480B404800EBFB
:10111000C40080ED000B641C032CCADB3C4890ED3E
:10112000001BB0EE410AF0EE610A53EC1E2B51ECAD
:10113000100BFFF76FF941EC100B8DED040B3448E9
:1011400090ED021BB0EE410AF0EE610A9DED141B1A
:1011500053EC112B51EC100BFFF75CF941EC100B29
:101160008DED060B2A4890ED041BB0EE410AF0EE1F
:10117000610A9DED121B53EC112B51EC100BFFF784
:1011800049F941EC100B8DED080B2A4890ED000B4E
:10119000B0EE40FAF0EE60FA274880ED00FB032342
:1011A000012204A925480EF094FF11480068401C54
:1011B0000F4908607CE6000095D626E80B2E113E0C
:1011C00039183558CD5CDC3FAF3DAC39AE02DD3F60
:1011D0009F910416B960DE3F50D7002008D9002047
:1011E0000000000000806640182D4454FB21094097
:1011F000AC020020C0D800203002002018020020DD
:101200000000000000000000000000000000F03FAF
:10121000D8D8002088020020600200209A9999996D
:101220009999C9BF00000000000000409A9999995F
:101230009999C93F48020020A8010020A8D70020A2
:101240002DED088B92B04FF4B46489E0002145483D
:1012500000F01AFF10A803F0F9FE434908600846A1
:101260000068FFF7C7F941EC100BB0EE409AF0EEC2
:10127000609A9FED3E0B53EC102B51EC190BFFF7CE
:10128000C9F841EC100BB0EE408AF0EE608A9FED99
:10129000390B53EC102B51EC180BFFF72BF941ECE9
:1012A000100BB0EE40BAF0EE60BA9FED340B53EC89
:1012B000102B51EC1B0BFFF71DF941EC100BB0EE9E
:1012C00040AAF0EE60AA2F4890ED000B53EC102BD3
:1012D00051EC1A0BFEF7F8FF41EC100B2A4880ED99
:1012E000000B2046FFF775F941EC100BB0EE408A79
:1012F000F0EE608A254803C841EC100B53EC102B2C
:10130000214890ED001B51EC110BFFF77DF841ECEB
:10131000100BB0EE409AF0EE609A53EC182B51ECA3
:10132000190BFFF777F841EC100B8DED0C0B1848FB
:10133000006818B91548D03811F048F91448006809
:10134000401C134908600CAB104AD03A694606A805
:101350000FF046FC0EAB6A4606A90E480FF031FBB3
:1013600074E7000088D60020D002002000000000B2
:101370000000F03F0000000000408F40000000002F
:101380000018F540C80200209802002018DA00205A
:10139000C002002048D8002000B58BB00AA8032165
:1013A00000220592CDE906210890012080210C221F
:1013B000DD4BCDE90132CDE9031003200023DB4AE8
:1013C000DBA10090DE4803F00BF90AA803210022FC
:1013D0000592CDE906210890022080210C22D94BEC
:1013E000CDE90132CDE9031004200023D64AD7A16C
:1013F0000090DA4803F0F4F80AA8032100220592CD
:10140000CDE906210890104680210C22D44BCDE96D
:101410000132CDE9031005200023D24AD2A1009069
:10142000D54803F0DDF80AA8032100220823CDE9FE
:101430000532CDE90710104699013322CF4BCDE993
:101440000132CDE9031006200023CD4ACDA1009042
:10145000D04803F0C5F80AA8032100220823CDE9EB
:101460000532CDE90710104680210C22CA4BCDE988
:101470000132CDE9031007200023C84AC8A100901B
:10148000CB4803F0ADF80AA8032100220823CDE9D8
:101490000532CDE90710104680210C22C54BCDE95D
:1014A0000132CDE9031008200023C34AC3A10090F4
:1014B000C64803F095F80AA8032100220823CDE9C5
:1014C0000532CDE90710104680210C22C04BCDE932
:1014D0000132CDE9031009200023BE4ABEA10090CD
:1014E000C14803F07DF80AA8032100220823CDE9B2
:1014F0000532CDE90710104680210C22BB4BCDE907
:10150000013200230092CDE90310B94AB9A1BE48C7
:1015100003F066F80AA8032100220823CDE905326A
:10152000CDE90710104680210C22B84BCDE90132DD
:10153000CDE9031002200023B54AB6A10090B848B7
:1015400003F04EF80AA8032100220823CDE9053252
:10155000CDE90710104680210C22B24BCDE90132B3
:10156000CDE9031002200023AF4AB0A10090B24899
:1015700003F036F80AA8032100220823CDE905323A
:10158000CDE90710104680210C22AC4BCDE9013289
:10159000CDE903100D200023A94AAAA10090AD486F
:1015A00003F01EF80AA8032100220823CDE9053222
:1015B000CDE90710104680210C22A74BCDE901325E
:1015C000CDE903100B200023A44AA5A10090A74851
:1015D00003F006F80AA8032100220592CDE90621AE
:1015E000089010464FF480616622A14BCDE901328C
:1015F000CDE903100F2000239E4A9FA10090A2482E
:1016000002F0EEFF0AA8032100220592CDE906218F
:10161000089010464FF4806166229C4BCDE9013260
:10162000CDE9031011200023994A9AA100909E4809
:1016300002F0D6FF0AA8032100220592CDE9062177
:10164000089010464FF480616622984BCDE9013234
:10165000CDE9031012200023954A96A100909948E5
:1016600002F0BEFF0AA8032100220592CDE906215F
:10167000089010464FF480616622934BCDE9013209
:10168000CDE9031013200023904A91A100909548C2
:1016900002F0A6FF0AA8032100220592CDE9062147
:1016A000089010464FF4806166228F4BCDE90132DD
:1016B000CDE90310142000238C4A8DA1009091489D
:1016C00002F08EFF0AA8032100220592CDE906212F
:1016D000089010464FF4806166228B4BCDE90132B1
:1016E000CDE9031015200023884A89A100908D4878
:1016F00002F076FF0AA8032100220592CDE9062117
:10170000089010464FF480616622874BCDE9013284
:10171000CDE9031016200023844A85A10090894852
:1017200002F05EFF0BB000BD34070020812E0008E0
:101730004750535F53544F5F5441534B00000000D8
:1017400070060020F8090020ED2D00084750535F77
:101750005245565F5441534B0000000034090020AD
:10176000BC0C00207D90000854454C5F53414D5FF8
:101770005441534B00000000F80B0020800F002064
:10178000BD90000854454C5F53544F5F5441534B38
:1017900000000000BC0E002044180020D971000891
:1017A000504C4F41445F53414D5F5441534B0000F7
:1017B00080170020081B0020E5710008504C4F41A5
:1017C000445F53544F5F5441534B0000441A002070
:1017D000CC1D0020058F000853544F5F55504441E5
:1017E00054455F5441534B00081D002090200020B9
:1017F000F78E000853544F5F4D4F4E49544F525F80
:101800005441534B00000000CC1F00205423002003
:10181000092A00084641554C545F5441534B00007F
:1018200090220020DC2800201D6F00084F555450E6
:1018300055545F5441534B0018280020A02B002022
:10184000450C00084144435F53414D504C455F54A3
:1018500041534B00DC2A002018260020F19000089C
:10186000544553545F5441534B000000542500200D
:10187000642E0020AD1B0008417070205461736B12
:10188000204F726244657400A02D0020283F002084
:1018900041120008417070205461736B2043616CE9
:1018A00063754F7262000000643E0020EC4F002020
:1018B000111D0008417070205461736B2053656ED8
:1018C00047657400284F0020B060002049190008C7
:1018D000417070205461736B204D6167446F744494
:1018E0006D700000EC5F002074710020B51C0008D2
:1018F000417070205461736B20506974466C74435E
:101900006F6D0000B070002038820020B91C000804
:10191000417070205461736B20506974466C745030
:10192000726F000074810020FC920020850E000878
:10193000417070205461736B20417474537461431F
:10194000746C0000389200202DED0A8B94B040F6A4
:10195000B7359FED7A0BB0EE40AAF0EE60AA9FED8E
:10196000790BB0EE40BAF0EE60BA9FED780BB0EEB6
:1019700040CAF0EE60CADFE00021764800F084FB48
:1019800075480068FEF725FE41EC100BB0EE408A6A
:10199000F0EE608A9FED710B53EC102B51EC180B9D
:1019A000FEF74CFE12D2032301226E490EA80EF060
:1019B00090FB002407E09FED6C0B6D4800EBC4002A
:1019C00080ED000B641C032CF5DB67E00320012392
:1019D0000EAA6449009008A80EF0E8FD0323012236
:1019E00060490EA80EF075FB002455E008A800EB36
:1019F000C40003C841EC100B53EC102B9FED5D1B92
:101A000051EC110BFEF706FD41EC100BB0EE408AD5
:101A1000F0EE608A594890ED000B53EC102B51EC1E
:101A2000180BFEF767FD41EC100B514800EBC400AA
:101A300080ED000B4E4800EBC40003C841EC100BD6
:101A40009FED4F1B53EC112BFEF70CFE07D29FEDC1
:101A50004C0B474800EBC40080ED000B1BE04448F2
:101A600000EBC40003C841EC100B9FED471B53EC87
:101A7000112BFEF7E3FD07D29FED430B3C4800EB33
:101A8000C40080ED000B06E09FED370B384800EBFB
:101A9000C40080ED000B641C032CA7DB344803C892
:101AA00041EC100B53EC1A2BFEF7B4FC41EC100B7D
:101AB0008DED020B2E48C168806841EC100B53EC91
:101AC0001B2BFEF7A7FC41EC100B8DED040B2848F7
:101AD0004169006941EC100B53EC1C2BFEF79AFC9A
:101AE00041EC100B8DED060B294890ED009B294829
:101AF00080ED009B0323012202A927480EF0E9FA9A
:101B000003230122174925480EF0E3FA2448007800
:101B100090B911480068401C0F49086021480078BE
:101B2000012809D108460068A84205DD1E48007852
:101B300010B901201A4908701EE7000039183558FD
:101B4000CD5CDC3FAF3DAC39AE02DD3F9F9104166A
:101B5000B960DE3FD8D60020A40200209A99999956
:101B60009999B93FC0D80020000000000000000093
:101B7000D8D800200000000080842EC18002002000
:101B80009A9999999999C93F9A9999999999C9BF97
:101B900048020020A8010020A8D70020E8D7002094
:101BA000A1020020D0010020720200202DED088B40
:101BB0008EB066E00021334800F066FA0CA803F00E
:101BC00045FA3149086008460068FEF713FD41EC0C
:101BD000100BB0EE40AAF0EE60AA9FED2C0B53EC78
:101BE000102B51EC1A0BFEF715FC41EC100BB0EE6C
:101BF000409AF0EE609A9FED270B53EC102B51ECBE
:101C0000190BFEF777FC41EC100BB0EE408AF0EEBA
:101C1000608A9FED220B53EC102B51EC180BFEF752
:101C200069FC41EC100BB0EE40BAF0EE60BA1D4812
:101C300090ED000B53EC102B51EC1B0BFEF744FB0B
:101C400041EC100B184880ED000B002411E0174800
:101C500000EBC40006C806A800EBC40006C0134988
:101C6000E01C01EBC00006C8684600EBC40006C0DB
:101C7000641C032CEBDB0C4B6A4606A90C480EF0E7
:101C800019FE97E760D60020D00200200000000077
:101C90000000F03F0000000000408F400000000006
:101CA0000018F540C80200209802002018D8002033
:101CB00090D800207047000086B01CE000210E483C
:101CC00000F0E2F900240FE00C4800EBC40003C868
:101CD0006A4602EBC40203C29FED090B074800EB02
:101CE000C40080ED000B641C032CEDDB6A46064942
:101CF00006480EF0F3FCE1E728D70020F0D80020DA
:101D0000000000000000000018D9002008D90020C1
:101D1000CFE00021674800F0B7F967480078012854
:101D200010D1002064490870012064490870002027
:101D30006349087063490870634908606349086033
:101D40006349086063480078012801D1624908703E
:101D500062480078012832D15F49087000205F494D
:101D600008705F4806C85F4806C05F4806C85D48FF
:101D7000183006C05D4806C85A48083006C05C489E
:101D800006C85848203006C05A4806C85548083882
:101D900006C0594806C85348D83800F5807006C0B8
:101DA000564806C84F48D83800F5847006C05448D5
:101DB00006C84C48103006C00020524908605248FE
:101DC0000078012806D1514806C8514806C00020B5
:101DD0004D4908704F480078012806D14E4806C882
:101DE0004E4806C000204B4908704D480078012835
:101DF00006D14C4806C84C4806C000204849087027
:101E00004A480078012806D1494806C8494806C012
:101E100000204649087048480078012806D1474804
:101E2000007826490870002043490870444800782B
:101E3000012806D143480078214908700020404914
:101E4000087041480078012806D1404800781D49B3
:101E5000087000203C4908701F480078012802D112
:101E60003B4800F003F915480078012802D13948B1
:101E700000F0FCF812480078012802D1364800F042
:101E8000F5F80E480078354908700F480068344965
:101E900008600B480078334908700C4800683249E4
:101EA00008600848007831490870094800683049DE
:101EB00008602EE7B0D6002071020020A0020020AA
:101EC000A1020020A2020020A4020020A8020020FB
:101ED000AC020020C4020020D0010020D10100206B
:101EE000D801002020DA0020E0010020E8010020D5
:101EF000F0010020F801002000020020080200206C
:101F000010020020C0020020280200202002002031
:101F10001802002040020020380200203002002079
:101F200058020020500200204802002070020020C9
:101F3000680200206002002074020020730200206A
:101F4000760200207502002078020020770200202F
:101F500088D60020D8D6002000D70020B801002065
:101F6000BC010020C0010020C4010020C8010020E5
:101F7000CC01002008B50AF0BBFC00F0D3F800F05B
:101F8000C1F8684602F0AAFA00F00AF8FEF7D8FE97
:101F9000FFF702FA03E04FF4FA6000F091F8FAE775
:101FA00000B585B004A800210123CDE900310A461F
:101FB000CDE9021010A1144803F0B4F804A80021E0
:101FC000124A0123CDE90032CDE902100B460A4640
:101FD0000FA1134803F0A6F804A80021114A012319
:101FE000CDE90032CDE902100B4614220EA11248B1
:101FF00003F098F805B000BD455053204F76657248
:102000002054696D65720000DC0200208D240008F8
:10201000434F4D204F7665722054696D6572000004
:1020200010030020BB2D0008475053204F766572E7
:102030002054696D65720000440300201FB5684696
:1020400005F07CF9019804B010BDF8B506460C46C1
:1020500015466B4622462946304602F029F8BDF85F
:10206000000008B10020F8BD0120FCE738B50446A7
:102070006A460021204602F02FF9BDF8000008B1A1
:10208000002038BD0120FCE77CB505460C464FF426
:102090007A70604309490968B0FBF1F601A8002392
:1020A0001A4631460090284602F042F8BDF8040076
:1020B00008B100207CBD0120FCE70000304701088A
:1020C000FEB5044642F21070844200D90446B4F5CD
:1020D0007A7F0BD34FF47A70B4FBF0F086B24FF4F2
:1020E0007A70B4FBF0F100FB114501E0A5B20026C7
:1020F00002A800212B463246CDE90010084602F026
:10210000D7FEFEBD70B5FFF799FF0446034800688F
:10211000B4FBF0F5284603F08DF870BD3047010898
:1021200000BFFEE710B500F01FF800F019F810BD71
:1021300010B5002400BF00BFFEF746F8044600BFFC
:1021400000BF1021054801F013F800BF00BF204672
:10215000FEF73EF800BF00BF10BD0000BCB000207D
:1021600010B5FFF7E5FF10BD10B50020024908606B
:1021700000F00AF810BD000034000020014908609A
:10218000704700003400002010B5FFF757FF0446E9
:102190000848006840F08070064908600020064941
:1021A00048600846006840F0010008602046FFF7DC
:1021B000E5FF10BDFCED00E0001000E001494868BB
:1021C00070470000001000E070B500254FF4803427
:1021D00000E0641E24B1802005F064FD0028F8D0E2
:1021E00014B90325284670BD40F2FF5005F016FDD6
:1021F0002846F8E72DE9F0410646002747480568DC
:1022000001E04648056815F0450FFAD015F0040FB7
:1022100006D00327042005F001FD3846BDE8F08113
:1022200015F0010F05D00127012005F0F7FC384615
:10223000F4E705F031FDB04202D010273846EDE753
:1022400040F2FF5005F0EAFC002005F04BFD04468B
:102250003348044201D13846E0E714F0004F01D082
:102260001C20DBE714F0804F01D00920D6E714F0E2
:10227000005F01D00A20D1E714F0805F01D00B206D
:10228000CCE714F0006F01D00C20C7E714F0806F8A
:1022900001D00D20C2E714F0807F01D00E20BDE7F1
:1022A00014F4000F01D00F20B8E714F4800F01D010
:1022B0001020B3E714F4001F01D01120AEE714F48E
:1022C000801F01D01220A9E714F4002F01D01320A1
:1022D000A4E714F4802F01D014209FE714F4003FEA
:1022E00001D015209AE714F4803F01D0162095E71D
:1022F00014F4004F01D0172090E714F4804F01D060
:1023000018208BE714F4005F01D0192086E714F041
:10231000080F01D01A2081E738467FE7342C0140AE
:1023200008E0FFFD70B500250F48046801E00E4885
:10233000046814F0450FFAD014F0040F05D00325FB
:10234000042005F06BFC284670BD14F0010F05D089
:102350000125012005F062FC2846F5E740F2FF5018
:1023600005F05CFC2846EFE7342C014070B50025F1
:102370000B48046801E00A48046814F0450FFAD0DD
:1023800014F0040F05D00325042005F047FC28466F
:1023900070BD40F2FF5005F041FC2846F8E7000010
:1023A000342C01402DE9F04106460F464FF000085D
:1023B0002248056801E02148056815F0450FFAD06C
:1023C00015F0040F07D04FF00308042005F026FC99
:1023D0004046BDE8F08115F0010F06D04FF001082E
:1023E000012005F01BFC4046F3E705F055FCB04228
:1023F00003D04FF010084046EBE740F2FF5005F0E5
:102400000DFC002005F06EFC044614F4604F03D16F
:10241000200C38804046DCE714F4005F01D0132024
:10242000D7E714F4804F01D01020D2E714F4004F06
:1024300001D00F20CDE74046CBE70000342C01400F
:1024400070B500264FF480350F48046802E06D1E19
:102450000D48046814F0450F01D1002DF7D115B1D6
:1024600014F0040F05D00326042005F0D7FB3046F6
:1024700070BD14F0400F05D00026402005F0CEFBC3
:102480003046F5E73046F3E7342C01407047000052
:10249000014609B90B487047012901D10A48FAE7FA
:1024A000022901D10020F6E7032901D10020F2E73B
:1024B000042901D10020EEE7052901D10020EAE737
:1024C0000020E8E76CA4002094AC002008B54FF48D
:1024D000E06001F079FB25208DF8000000208DF8E8
:1024E000020001208DF80300684601F031FB262030
:1024F0008DF8000001208DF802008DF80300684679
:1025000001F026FB08BD000010B5002400BF00BF8D
:10251000FDF75AFE044600BF00BF08480078401C83
:102520000649087000BF00BF2046FDF751FE00BFFE
:1025300000BF06F0FFF801F047FC10BD600000206E
:102540000246094B9A4201D2084801E00648103879
:1025500011F0005F03D0064B0B40C36002E0044B58
:102560000B4083607047000010640240006002402E
:102570007D0F7D0F21B1026842F00102026003E08D
:10258000026822F00102026070470000016821F039
:10259000010101600021016041608160C160016151
:1025A000212141614A49884204D13D21484A103ADB
:1025B00091608CE046491831884205D14FF474612E
:1025C000434A103A916082E041493031884205D156
:1025D0004FF474113E4A103A916078E03C4948311A
:1025E000884205D14FF07461394A103A91606EE02B
:1025F00037496031884204D13649354A103AD160B2
:1026000065E033497831884204D13349304A103A81
:10261000D1605CE02E499031884204D12F492C4A88
:10262000103AD16053E02A49A831884205D14FF0D1
:102630003D51274A103AD16049E02949884204D1E6
:102640003D21274A083A116041E025491831884266
:1026500005D14FF47461224A083A116037E02049ED
:102660003031884205D14FF474111D4A083A116087
:102670002DE01B494831884205D14FF07461184A5A
:10268000083A116023E016496031884204D11149AB
:10269000134A121F11601AE011497831884204D19F
:1026A0000D490F4A121F116011E00D499031884207
:1026B00004D10A490A4A121F116008E00849A831EA
:1026C000884204D14FF03D51054A121F11607047F6
:1026D000106002403D000020400F002000003D201F
:1026E0001064024021B1026842F02002026003E05F
:1026F000026822F020020260704710B511F0800FCE
:1027000009D022B1436943F08003436103E0436988
:1027100023F08003436180290BD02AB1036801F0C4
:102720001E042343036004E0036801F01E04A34376
:10273000036010BD10B500220268134B1A40CC682C
:102740000B6823434C6923438C692343CC6923439F
:102750000C6A23434C6A23438C6A23434C6B234308
:102760008C6B23431A430260426922F00702D1E9CD
:102770000B3423431A4342610B6943604B68836007
:102780008B68C36010BD00003F801CF070470000E4
:1027900010B54FF4C0720021054800F0F2FC202271
:1027A0000021044800F0EDFC00200349087010BD32
:1027B000C0D4002040D600206201002001490860FA
:1027C00070470000143C0140002123498279002A0F
:1027D0003AD00A46126803689A430B461A600A1DEB
:1027E000126803689A430B1D1A60027911440A6843
:1027F00003681A430A60184A0832126803689A4349
:10280000154B08331A601A1D126803689A43124B5D
:102810000C331A604279102A0ED11A1F126803680D
:102820001A430D4B08331A601A1D126803681A43C5
:10283000094B0C331A600DE00749427911440A68CC
:1028400003681A430A6005E0027911440A680368C4
:102850009A430A6070470000003C014010B548F2FE
:10286000B0340121204600F077F800BF00BF00BF60
:1028700001214FF6FF7000F06FF80221204600F0B2
:102880006BF800BF00BF00BF02214FF6FF7000F0E1
:1028900063F810BD70B504462146002000F05CF8D6
:1028A00005462146284600F003F8002070BD0000D0
:1028B00070B503468C461913C3F30B02BCF1020F2B
:1028C00002D101F11004E1B240F6FF74A2421DDA18
:1028D000102A1BDD002010E001EB41041C4D05EB2C
:1028E0008405441C35F8144001EB4105184E06EBF5
:1028F000850525F81040441CE0B20428ECDB01EB10
:102900004104134D05EB840422811FE0002010E0F8
:1029100001EB41040E4D05EB8405441C35F81440D1
:1029200001EB41050A4E06EB850525F81040441CD5
:10293000E0B20428ECDB01EB4104054D05EB840417
:102940002281044C645C641C024D6C5470BD000018
:10295000C0D4002040D6002070B506460C460025A5
:102960000EE000BF00BF00BF28466D1C2149884211
:1029700006D921480078401C1F490870012070BD0D
:1029800002211E4806F05AFA0028EAD0012C03D191
:1029900010201B49488304E0022C02D1A0031849EF
:1029A00048833146154806F086FA0EE000BF00BFA6
:1029B00000BF28466D1C0F49884206D9114800788F
:1029C000401C104908700120D9E701210B4806F08E
:1029D00035FA0028EAD0012C03D1102008490883D9
:1029E00004E0022C02D1A00305490883034806F045
:1029F0005FFAC4E7400D03003B01002000300140B6
:102A0000000002403C01002003E04FF47A70FFF721
:102A100057FBFAE751B14FF0204252F8202042F024
:102A200001024FF0204343F8202009E04FF02042FC
:102A300052F82020034B1A404FF0204343F8202047
:102A400070470000FEFF0F00D0E901121143C26879
:102A50001143026911434269114382691143C269FA
:102A60001143026A1143426A1143826A1143C26AE6
:102A70001143026B11434FF02043026843F82210C8
:102A80008168082908D11A46016852F8211041F0DE
:102A90004001026843F82210416B0968426B52689A
:102AA00041EA0211426B926841EA0221426BD2680C
:102AB00041EA0241426B126941EA0251426B52699A
:102AC00041EA0261426B926911430268521C4FF065
:102AD000204343F82210C16AB1F5804F1AD1816BAF
:102AE0000968826B526841EA0211826B926841EA7E
:102AF0000221826B126941EA0251826B526941EAFA
:102B00000261826B92691143026803EB8202C2F890
:102B1000041108E06FF070414FF02043026803EBAE
:102B20008202C2F8041170472DE9FC4107460D46A8
:102B30000026002400200090019008205A490860D7
:102B400010204860402088600020C8604FF48060FA
:102B50000861084605F036F91020FFF74BFB0446E4
:102B600014B12046BDE8FC815048006800044E497D
:102B7000086037204860402088600020C8604FF41B
:102B800080600861084605F01DF93720FFF732FB29
:102B900004460CB12046E5E74FF0FF304449086099
:102BA00008204860302088600220C860002008614A
:102BB00001204861084605F049F800203A490860BC
:102BC00033204860402088600020C8604FF4806057
:102BD0000861084605F0F6F83320FFF70BFB0446C2
:102BE0000CB12046BEE709E04FF4001005F05AF89A
:102BF00020B105F0E1F84DF82600761C2D4800685C
:102C000040F22A610842EFD0082005F04BF828B1C5
:102C1000082005F003F804242046A3E7022005F06D
:102C200041F828B1022004F0F9FF0224204699E778
:102C3000202005F037F828B1202004F0EFFF06240B
:102C400020468FE74FF4007005F02CF830B14FF4B8
:102C5000007004F0E3FF0724204683E740F2FF50B2
:102C600004F0DCFF00980006009901F47F4140EA7F
:102C70000120009901F47F0140EA1120009940EA07
:102C80001160686001980006019901F47F4140EAF3
:102C90000120019901F47F0140EA1120019940EAE5
:102CA0001160286020465DE740A400200400002059
:102CB00054A40020342C014070B50A4600210023A2
:102CC0008C4600BF3DE0012404FA01F3146804EAD5
:102CD000030C9C4534D104684E000325B540AC4339
:102CE000046014794D00AC4005682C4304601479ED
:102CF000012C02D01479022C16D184684E000325D1
:102D0000B540AC43846054794D00AC4085682C4399
:102D10008460446801258D40AC43446044689579E3
:102D20008D40ADB22C434460C4684E000325B540CD
:102D3000AC43C460D4794D00AC40C5682C43C4603A
:102D4000491C1029BFD370BD70B500239C464C07A9
:102D5000E40E02FA04F3CD1000F1200454F82540EB
:102D60004D07EE0E0F25B540AC43CE1000F1200507
:102D700045F82640CD1000F1200454F8254044EADF
:102D8000030CCD1000F1200444F825C070BD0246AC
:102D9000002013690B4201D0012000E000207047A1
:102DA0000246002053690B4201D0012000E00020C0
:102DB00070474183704701837047704770B5044680
:102DC0000D462946204600F039FB2946204600F0F2
:102DD000A5FA2946204600F0D5FA2946204600F0FB
:102DE000C7FB2946204600F0CFFC70BD08B5002285
:102DF00040F225511E4806F0D8FF01200AF0EBFCF6
:102E000000201C49088032E042F21070FFF758F9A8
:102E100001200AF0E0FC002016490880012240F25F
:102E20002551134806F0C1FF12E008E09DF800208C
:102E300010490888411C0F4B19800F490A546946F4
:102E400001200AF0D6FC0028F0D16420FFF738F901
:102E500008480088B0F5487FE7DB002240F22551A2
:102E6000034806F0A2FF04490448FFF7A7FFCBE799
:102E70000044004012010020A0D1002020D10020F9
:102E800003E04FF47A70FFF71BF9FAE700BFFEE7A3
:102E900010B500F001F810BD4AF6AA2001490860FB
:102EA000704700000030004000B587B001210220CB
:102EB00004F0E4F90121102004F020FA0722062191
:102EC0004348FFF741FF072211464148FFF73CFF07
:102ED00000208DF81A0001208DF81B0002208DF8CB
:102EE00018004020059002208DF8190005A93848E7
:102EF000FFF7E2FE02208DF818008020059005A95A
:102F00003348FFF7D9FE4FF4E13001900020ADF8CF
:102F10000800ADF80A00ADF80C00ADF810000C2068
:102F2000ADF80E0001A92B4806F064FF012240F223
:102F30002551284806F039FF0121264806F0FDFEFC
:102F40004021244806F0F0FE0121084604F096F9DD
:102F50000121480404F0C2F9072203211E48FFF7AB
:102F6000F3FE00208DF81A0001208DF81B000220CE
:102F70008DF818008DF818000820059002208DF8B3
:102F8000190005A91448FFF797FE4FF4E1300190AE
:102F90000020ADF80800ADF80A00ADF80C00ADF85F
:102FA00010000420ADF80E0001A90C4806F022FF25
:102FB000012240F22551094806F0F7FE0121074899
:102FC00006F0BBFE4021054806F0AEFE07B000BD8E
:102FD0000004024000100140000002400044004094
:102FE00000B587B01222002102A800F0CAF804221E
:102FF000002101A800F0C5F80121080304F07EF9C2
:1030000000211F4805F004FF0020ADF808004FF430
:103010008270ADF80A004FF40060ADF80C00022099
:10302000ADF80E000020ADF810004FF40070ADF8C0
:1030300012003820ADF814000020ADF8160007206B
:10304000ADF8180002A90E4805F037FF0122502103
:103050000B4805F018FF0121094805F0D9FE23208F
:103060008DF8040002208DF8050000208DF8060080
:1030700001208DF8070001A800F06AFD07B000BD2F
:10308000003001401CB508220021684600F079F8A4
:103090000121084604F0F2F80121022004F0EEF8C4
:1030A000052211462F48FFF74FFE052206212D4825
:1030B000FFF74AFE052207212A48FFF745FE0220B6
:1030C0008DF804008DF8050000208DF80600022020
:1030D0008DF80700E020009069462248FFF7ECFDDC
:1030E00001208DF8040000208DF8060002208DF8E4
:1030F000050000208DF807000220009069461A485C
:10310000FFF7DAFD01208DF8040000208DF806009D
:1031100002208DF8050000208DF807001020009097
:1031200069461048FFF7C8FD01208DF80400002013
:103130008DF8060002208DF8050000208DF80700AC
:103140004FF40040009069460648FFF7B5FD0220A5
:10315000054918310880102002490883C0020883FD
:103160001CBD0000000002400004024000BFFEE75A
:1031700030B505460C4622460021284600F001F8ED
:1031800030BD2DE9F04103460C4617460FB9BDE8A6
:10319000F08103B9FBE70025002202E02D02254360
:1031A000521C042AFAD3384603F0030C1946BCF12A
:1031B000000F08D0624603E001F8014B401E521C8C
:1031C00008B1042AF8D30E4601E020C6001F0428E7
:1031D000FBD2314602E001F8014B401E0028FAD133
:1031E00000BFD4E710B509A006F0D2FF13A006F087
:1031F000CFFF1EA006F0CCFF22A006F0C9FF29A039
:1032000006F0C6FF2FA006F0C3FF10BD2D2D2D2DFB
:103210002D2D2D2D4F6E2042726F616420436F6DF6
:103220007075746572204465627567204D6F6465C2
:103230002D2D2D2D2D2D2D2D0D0A00002D2D2D2D5B
:103240002D2D2D2D2D2D2D2D2D2D2D2D2D2D2D2DAE
:103250002D2D2D2D2D2D2D2D2D2D2D2D2D2D2D2D9E
:103260002D2D2D2D2D2D2D2D0D0A00005B315D20D6
:103270005254432046756E6374696F6E20546573B3
:10328000740D0A005B325D204E6F72466C6173688C
:103290002046756E6374696F6E20546573740D0AF1
:1032A000000000005B335D20455053205379737458
:1032B000656D2046756E6374696F6E205465737416
:1032C0000D0A00005B345D204F6263204144537956
:1032D0007374656D2046756E6374696F6E205465F6
:1032E00073740D0A000000000246134610E01078C7
:1032F0002A2805D01078202802DB10787A2801DDF2
:10330000FF20704710782C2801D1481EC1B2521CF2
:103310000029ECD1D01AC0B2F3E70000F8B5054699
:103320000F4616A13846FCF7B9FF0646062130467F
:10333000FFF7DAFF0446FF2C05D03019694600F08C
:103340005AFA85F8610007213046FFF7CDFF0446A1
:10335000FF2C05D03019694600F04DFA85F862005F
:1033600009213046FFF7C0FF0446FF2C04D0301976
:10337000694600F040FAA867F8BD000024475047AE
:10338000474100002DE9F8430546884629A14046FB
:10339000FCF784FF064602213046FFF7A5FF0446EE
:1033A000FF2C05D03019694600F025FA85F86F002A
:1033B000002713E0F81CC1B23046FFF795FF044622
:1033C000FF2C08D03019694600F015FAC1B205F19A
:1033D0006300C15500E003E0781CC7B20C2FE9DBA5
:1033E00000BF0F213046FFF77FFF0446FF2C05D0BA
:1033F0003019694600F0FFF9A5F870001021304639
:10340000FFF772FF0446FF2C05D03019694600F023
:10341000F2F9A5F8720011213046FFF765FF044666
:10342000FF2C05D03019694600F0E5F9A5F87400C5
:10343000BDE8F88324475047534100002DE9FC5F65
:1034400007468A464FF00008CDF804A046A101982F
:10345000FCF724FF0646F079303800F0FF0B03211B
:103460003046FFF741FF0546FF2D04D0701969462D
:1034700000F0C1F938704FF0000970E03AA10198EE
:10348000FCF70CFF0646002460E0042000EB8400FB
:10349000C1B23046FFF728FF0546FF2D0AD070194C
:1034A000694600F0A8F9C1B208EB4802B81C00F860
:1034B000121000E04CE0052000EB8400C1B2304661
:1034C000FFF712FF0546FF2D0BD07019694600F07B
:1034D00092F9C1B208EB4802B81C00EB42004170FF
:1034E00000E035E0062000EB8400C1B23046FFF773
:1034F000FBFE0546FF2D0BD07019694600F07BF9E5
:1035000081B208EB4802B81C00EB4200418000E0A9
:103510001EE0072000EB8400C1B23046FFF7E4FE56
:103520000546FF2D0BD07019694600F064F9C1B251
:1035300008EB4802B81C00EB4200017100E007E014
:1035400008F1010000F0FF08601CC4B2042C9CDBF1
:1035500000BF701C019009F1010000F0FF09D9457E
:103560008CDBBDE8FC9F0000244750475356000009
:103570002DE9F0432DED028B81B0044688467FA1F2
:103580004046FCF78BFE074601213846FFF7ACFEAC
:103590000546FF2D23D07819694600F02CF98146A5
:1035A0009DF800100A2000F01BF9B9FBF0F642F27A
:1035B0001070B6FBF0F0C1B24E2001556420B6FB8E
:1035C000F0F06421B0FBF1F201FB12014F20015534
:1035D0006420B6FBF0F100FB11615020015503217E
:1035E0003846FFF781FE0546FF2D3FD07819694622
:1035F00000F001F906469DF80000801CC1B20A20C7
:1036000000F0EEF8B6FBF0F060659DF80000801C5D
:10361000C1B20A2000F0E4F8B6FBF0F100FB116043
:1036200000EE100AB8EE408A05210A2000F0D8F812
:10363000616D484300EE100AF8EE400A9DF8000064
:10364000C0F10500C1B20A2000F0CAF800EE100A6D
:10365000B8EE400A20EE080A9FED4A1AC0EE011AA1
:1036600030EEA10ABCEEC00A84ED150A04213846EA
:10367000FFF73AFE0546FF2D02D0785D84F858002A
:1036800005213846FFF730FE0546FF2D41D0781959
:10369000694600F0B0F806469DF80000801CC1B2F3
:1036A0000A2000F09DF8B6FBF0F0E0659DF8000000
:1036B000801CC1B20A2000F093F8B6FBF0F100FBC9
:1036C000116000EE100AB8EE400AB0EE408A052103
:1036D0000A2000F085F8E16D484300EE100AF8EE8C
:1036E000400A9DF80000C0F10500C1B20A2000F0B8
:1036F00077F800EE100AB8EE400A20EE080A9FEDB7
:10370000211AC0EE011A30EEA10ABCEEC00A84ED07
:10371000170A06213846FFF7E7FD0546FF2D02D0C0
:10372000785D84F8600009213846FFF7DDFD054625
:10373000FF2D1ED07819694600F05DF8064642F26A
:103740001070B6FBF0F0C1B24D2001556420B6FBFD
:10375000F0F06421B0FBF1F201FB12014C200155A5
:103760006420B6FBF0F100FB116000F5FA60A4F8EC
:103770004A0001B0BDEC028BBDE8F08324475052F3
:103780004D43000000007042F8B504460F4612A1F8
:103790003846FCF783FD054607212846FFF7A4FDC0
:1037A0000646FF2E16D0A819694600F024F8A4F8A2
:1037B0007C009DF8000003280CDA9DF80000C0F1A1
:1037C0000300C1B20A2000F00BF8B4F87C104843A3
:1037D000A4F87C00F8BD0000244750565447000070
:1037E00010B50246012000E050430B00A1F1010496
:1037F000E1B2F9D110BD2DE9F34F81B007463C4647
:1038000000200090834681460026804628E02078EC
:103810002D2802D148F00208641C20782C2802D000
:1038200020782A2800D11CE020782E2803D148F0E7
:103830000108641C09E02078392802DC207830284F
:1038400003DA4FF0000900260BE018F0010F02D058
:10385000701CC6B203E009F1010000F0FF09641C0E
:10386000D5E700BF18F0020F00D07F1C00250EE046
:10387000A9F10100401BC1B20A20FFF7B1FF795D39
:103880003039009A00FB01200090681CC5B24D45FC
:10389000EEDB052E00DD05260298067000250EE001
:1038A000701E401BC1B20A20FFF79AFF09F1010107
:1038B0002944795C303900FB01BB681CC5B2B542B4
:1038C000EEDB31460A20FFF78BFF009901FB00BABF
:1038D00018F0020F01D0CAF1000A5046BDE8FE8F71
:1038E0007047000010B50446AA200B4908805520F7
:1038F0000A490880802008490880AA2008805520AD
:103900000649088030214FF0C84001534FF4200091
:1039100000F006F810BD0000AA0A00645405006417
:103920002DE9F0410446002500274FF00108264606
:1039300000E0761E40212248FFF729FA08B1002E48
:10394000F7D1264600E0761E40211D48FFF71FFAFA
:1039500008B9002EF7D127E0641E4FF0C840058853
:10396000078805F0400007F04001884202D100209E
:10397000BDE8F08105F02000202801D04FF00108BB
:103980004FF0C8400588078805F0400007F0400167
:10399000884201D10020EBE705F02000202803D168
:1039A0004FF0020800F00EF814B1B8F1000FD3D1B7
:1039B0001CB94FF0030800F005F84046D8E70000B6
:1039C000000C0240AA2005490880552004490880BF
:1039D000F0204FF0C841088070470000AA0A006438
:1039E0005405006470B59446644611F0010F07D089
:1039F0006FF01C46725A161200F8016B641E491CC7
:103A000001F1C843002508E033F8022B00F8012B30
:103A1000161200F8016BA41E6D1CB5EB540FF3D306
:103A2000012C02D11E8800F8016B70BD30B5AA24AC
:103A3000124D2C805524124D2C8090240F4D2C803B
:103A40004FF0C8442488E1B24FF0C8446488E2B221
:103A50004FF0C844A48BE3B24FF0C844E48B04F0A9
:103A6000FF0C0C0644EA024444EA032444EA0C0036
:103A7000F0244FF0C8452C8030BD0000AA0A006435
:103A8000540500642DE9F04704460D469246D146A0
:103A900015F0010F11D06FF01C40465BF6B214F820
:103AA000011B46EA0126681E314600F033F807463E
:103AB00007B12CE0A9F101096D1C4FF000080FE0DF
:103AC00014F8016B14F8011B46EA0126314628461A
:103AD00000F020F8074607B119E0AD1C08F1010815
:103AE000B8EB590FECD319F0010F0ED04FF0C840CE
:103AF000465B06F47F4614F8010B06433146284620
:103B000000F008F8074607B101E0002700BF38467B
:103B1000BDE8F08770B504460D46AA200749088025
:103B2000552007490880A020044908804FF0C8406C
:103B300005534FF4A050FFF7F3FE70BDAA0A0064CE
:103B40005405006410B54FF4407000F03DF810BD0E
:103B500070B5002100230F22C47824B3174C2468C9
:103B600004F4E064C4F5E064C4F30721C1F1040483
:103B7000E3B20A4144789C40E1B284781440214386
:103B80000C07210E0E4C05786155047804F01F05D2
:103B90000124AC4005786D114FF0E02606EB850559
:103BA000C5F8004109E0047804F01F050124AC4089
:103BB000044D0678761145F8264070BD0CED00E006
:103BC00000E400E080E100E002490143024A1160A4
:103BD000704700000000FA050CED00E0704700009F
:103BE00010B50348006810B101480068804710BD57
:103BF0004C00002070B5044600F0BCF80020454998
:103C000008704549087045490870454908604549AC
:103C1000086045490870454908704549087045499C
:103C200008604549086045490860454908704548AD
:103C300000680A21B0FBF1F043490860434800687E
:103C400058B14348056845B14048066803E0761E10
:103C5000002028602D1D002EF9D100203D4908606C
:103C60003D4908603D4908603D4908603D4908609C
:103C70003D4908603D4908603D49087001F040FE3B
:103C800001F07AFE204601F0C3FB208800B170BD30
:103C9000204601F023FC208800B1F8E7204601F01F
:103CA00029FC208800B1F2E7204601F08BFC208837
:103CB00000B1ECE7204601F053FE208800B1E6E7B2
:103CC000204601F0BBFF208800B1E0E7204602F06B
:103CD0008BFA208800B1DAE7204601F0C7FB208884
:103CE00000B1D4E7204602F00DFF208800B1CEE7F6
:103CF000204602F0BDF9208800B1C8E7204602F056
:103D000071FF208800B1C2E701F0ACFAFFF766FF4F
:103D100000BFBCE76000002061000020940000208C
:103D2000EC000020F00000207A0000207B00002042
:103D30007C000020880000208C00002090000020E3
:103D40009C0000203047010898000020004701082F
:103D5000FC460108400000204400002048000020EC
:103D60004C0000205000002054000020580000208B
:103D7000CA000020064800680649096800EB810077
:103D8000054908600846006820F007000860704791
:103D9000FC46010800470108F400002008480078AC
:103DA000012800D0704707480078FA2800DBF9E7BF
:103DB00004480078401C0349087000BFF2E7000087
:103DC000610000206000002010B500242D4800781C
:103DD000012800D010BD00BFFCF7F6F9044600BF73
:103DE0002948007828B900BF2046FCF7F1F900BF48
:103DF000F0E725480078401E2349087008460078FF
:103E0000002805DD00BF2046FCF7E2F900BFE1E72E
:103E10001E480078002805DD00BF2046FCF7D8F9D1
:103E200000BFD7E701F058FD19490870084600782F
:103E300000EB4000174951F8200017490860084678
:103E4000006816490968884205D100BF2046FCF782
:103E5000BFF900BFBEE710480068D0F89000401CD2
:103E60000D490968C1F890000D480068401C0C49D4
:103E70000860FCF7D9FD00BF2046FCF7A9F900BF98
:103E800000BFA7E761000020600000209400002030
:103E90007B000020E4C40020F0000020EC000020A3
:103EA000C000002010B500241F480078002800DD65
:103EB00010BD1E480078002800DDF9E700BFFCF7C0
:103EC00083F9044600BF01F007FD19490870084650
:103ED000007800EB4000174951F8200016490860AF
:103EE0000846006815490968884205D100BF204688
:103EF000FCF76EF900BFDBE70F480068D0F89000D0
:103F0000401C0D490968C1F890000D480068401C2C
:103F10000B490860FCF783FD00BF2046FCF758F909
:103F200000BF00BFC4E70000600000209400002034
:103F30007B000020E4C40020F0000020EC00002002
:103F4000C000002070B504460025184800780028FD
:103F500003DD46F66250208070BD154800780128C8
:103F600003D045F689602080F6E712480078FA28E9
:103F700003DB45F209202080EEE700BF00BFFCF71D
:103F800023F9054600BF00BF0A480078401C0949D4
:103F9000087001F0A7FD00BF00BF2846FCF718F924
:103FA00000BF00BF0020208000BFD5E760000020D8
:103FB00061000020940000202DE9F04105460C46E8
:103FC0001646002700BF00BFFCF7FEF8074600BFFB
:103FD00000BF012D03D000200D49087002E0012030
:103FE0000B49087014B10B48046006E00A480068E9
:103FF0000A21B0FBF1F00749086000BF00BF384656
:10400000FCF7E6F800BF00BF00203080BDE8F0817B
:104010009C000020980000203047010870B504463D
:10402000002520480078002803DD46F665502080F2
:1040300070BD1D480078012803D045F689602080B6
:10404000F6E71A48007818B946F664502080EFE782
:1040500000BF00BFFCF7B8F8054600BF00BF13481B
:104060000078401E114908700846007800280ADDD3
:1040700000BF00BF2846FCF7ABF800BF00BF46F604
:1040800063502080D4E701F03BFD00BF00BF28460D
:10409000FCF79EF800BF00BFFFF704FF0020208060
:1040A00000BFC5E7600000206100002094000020F0
:1040B0002DE9F04104460E4617461D464FF0000814
:1040C00018480078002804DD42F6E1602880BDE849
:1040D000F0811CB945F6C3502880F8E700BF00BF47
:1040E000FCF772F8804600BF00BF0F4820602762CF
:1040F00000206062666004F1080001F0F9FA2046D1
:1041000001F084FD09480088401C0849088000BF70
:1041100000BF4046FCF75CF800BF00BF00202880CD
:1041200000BFD4E76000002053454D41A4000020AB
:104130002DE9F04788B00646894690461C46109DFA
:104140004FF0000A60480078002806DD46F2AE1005
:104150002880002008B0BDE8F08726B945F6C35096
:1041600028800020F6E7B8F1000F03D0B8F5004F23
:1041700002D100E000BF04E045F625602880002061
:10418000E8E700BF51493068884204D045F6C45082
:1041900028800020DEE70CB10020206000BF00BFB7
:1041A000FCF712F8824600BF00BF306A88B1306A5F
:1041B000401E30620CB1706A2060376A00BF00BFD9
:1041C0005046FCF705F800BF00BF002028803846A5
:1041D000C0E718F4004F0CD0376A00BF00BF50464C
:1041E000FBF7F6FF00BF00BF46F2B010288038464C
:1041F000B0E73748007800280BDD00BF00BF50460D
:10420000FBF7E6FF00BF00BF46F6635028800020A2
:10421000A0E74B4606223146684601F0DFF900BFB1
:1042200000BF5046FBF7D4FF00BF00BFFFF73AFEC8
:1042300000BF00BFFBF7C8FF824600BF00BF254894
:10424000006890F8350030B101280CD002281AD04F
:10425000032821D110E01CB11E480068006C2060CA
:104260000020288024E01CB11A480068006C2060FF
:1042700046F2A91028801BE00CB10020206047F214
:10428000D920288014E01CB112480068006C20601E
:1042900045F6C25028800BE046F62E60288000BF0D
:1042A00000BF5046FBF794FF00BF00BF002051E75E
:1042B00000BF376A00BF00BF5046FBF789FF00BF51
:1042C00000BF384646E700006000002053454D41DE
:1042D00094000020EC0000202DE9F04105460E4638
:1042E00014462DB945F6C35020800020BDE8F0816A
:1042F0004EB1B6F5007F07D0B6F5004F05D0B6F544
:10430000024F04D102E000BF00BF00BF04E045F649
:10431000256020800020E9E700BF0A49286888421C
:1043200004D045F6C45020800020DFE7FDF746FFAB
:104330008046234642463146284601F08BFC07461C
:104340003846D3E753454D4110B50446124800782E
:10435000E8B901F0C1FA114908700846007810491F
:1043600008700E48007800EB40000E4951F820001C
:104370000D490860084600680C490860012006499C
:104380000870FCF73BFB43F69920208002E045F6DD
:104390008A60208010BD0000610000207B000020AA
:1043A0007A000020E4C40020F0000020EC0000208F
:1043B0002DE9F04107464FF0000800BF00BFFBF7B2
:1043C00003FF804600BF00BF00203C4908803C49F5
:1043D00008603C4908603C4908603C4908603C4929
:1043E000088100BF00BF4046FBF7F2FE00BF00BFE0
:1043F00000BF00BFFBF7E8FE804600BF00BF3548A6
:10440000046800BF00BF4046FBF7E2FE00BF00BFEC
:1044100024E000BF00BFFBF7D7FE804600BF00BF0F
:10442000002004F17804E06320602063A061A08292
:10443000E0826062A062FDF7C1FE2062A4F1780410
:1044400004F164064FF00000B081D4F8BC4000BF16
:1044500000BF4046FBF7BCFE00BF00BF002CD8D118
:1044600000BF00BFFBF7B0FE804600BF00BF1A4888
:10447000056800BF00BF4046FBF7AAFE00BF00BFB3
:1044800012E000BF00BFFBF79FFE804600BF00BFE9
:1044900005F120060020B081AD6900BF00BF404695
:1044A000FBF796FE00BF00BF002DEAD102F02CFA08
:1044B00002F094FC00203880BDE8F081AA000020C2
:1044C000BC000020D0000020DC0000208C00002078
:1044D000D8C40020C400002080000020F8B50446A5
:1044E00000266946324800F021FCBDF8000018B1F2
:1044F000BDF800002080F8BD6A460021022000F0CF
:1045000075FCBDF8000018B1BDF800002080F2E78E
:1045100000BF00BFFBF758FE064600BF00BF0020EB
:104520002449086000BF00BF3046FBF751FE00BFC2
:1045300000BF00252048006820490968884205D945
:104540001D4800681D490968B0FBF1F525B91A48F6
:1045500000680A21B0FBF1F56A460021284600F008
:1045600045FC6946124800F0CFF9BDF8000018B1CB
:10457000BDF800002080BEE700BF00BFFBF724FEAF
:10458000064600BF00BF00200D49086009480068CA
:104590000C49086001200C49087000BF00BF30467C
:1045A000FBF716FE00BF00BF0020208000BFA2E77F
:1045B0006CC90020AC0000203047010818470108F2
:1045C000BC000020B0000020B800002010B5034857
:1045D000006810B101480068804710BD50000020FD
:1045E0002DE9FF4F2DED028B85B004469046179FB5
:1045F000159E9DED1A8ADDE91B9500200290664804
:104600000078002807DD47F24A10288005B0BDEC8D
:10461000028BBDE8FF8F1CB947F2AD102880F5E78B
:10462000B8F1000F03D147F24F102880EEE71EB912
:1046300046F62F602880E9E758480068874203D291
:1046400046F630602880E1E71698B84203D346F674
:1046500031602880DAE71498402803D346F27320AB
:104660002880D3E714983F2806D14D48844203D0D0
:1046700046F273202880C9E7204601F0C5FD0020DE
:10468000288019F0010F10D019F0020F0DD0B34699
:10469000049007E00020CBF800000BF1040B049815
:1046A000401C04900498B842F4D3169806EB80009E
:1046B0000390CDE9007932464046039B0A9900F009
:1046C000DBFA8346C4F828809DED0A0A84ED0B0AC4
:1046D0009DED080A84ED080A149884F83700C4F8A0
:1046E00000B00398A0609DED190A84ED150A199891
:1046F00018B92C480068A06503E09DED190A84ED07
:10470000160A84ED018A6662A763A4F83C904FF014
:10471000000A08E0002104F17C0040F82A100AF1A8
:10472000010000F0FF0ABAF1000FF3D004F16400B9
:10473000189900F03FFF204600F03AF800BF00BF94
:10474000FBF742FD029000BF00BF94F83710084607
:1047500001F0E2F8204601F057F9204601F00AFD89
:1047600011480088401C1049088010480078012832
:1047700007D000BF00BF0298FBF72AFD00BF00BFB3
:1047800044E700BF00BF0298FBF722FD00BF00BF57
:10479000FFF788FB00BF39E7600000202C470108C5
:1047A00014C4002098000020C800002061000020F0
:1047B00010B504460348006818B12046014909684D
:1047C000884710BD4000002070B504460D46002605
:1047D00043480078002803DD47F24E10288070BD62
:1047E0004048844203D147F24C102880F7E77CB957
:1047F00000BF00BFFBF7E8FC064600BF00BF3A4819
:10480000046800BF00BF3046FBF7E2FC00BF00BFFA
:1048100000BF00BFFBF7D8FC064600BF00BF94F8FE
:10482000360008282DD2DFE800F004090E10080A2F
:104830000F11204601F028F92EE02DE000BF2046A0
:1048400002F046F828E000BF00BF00BF204602F09B
:104850003FF894F83400082810D2DFE800F004078D
:104860000508090A0B0600BF00BF08E000BF00BF33
:1048700000BF00BF204600F073FF00E000BF00BF94
:104880000AE000BF00BF3046FBF7A2FC00BF00BF3C
:1048900046F62D602880A2E700BF04F1640000F016
:1048A00067FE204600F024F8204601F07BFC0F480C
:1048B0000088401E0D490880204601F0A5FCFF201D
:1048C00084F8360000BF00BF3046FBF781FC00BF14
:1048D00000BF00202880FFF7E5FA00BF7FE7000057
:1048E0006000002014C40020EC000020C80000205C
:1048F00010B504460348006818B12046014909680C
:10490000884710BD4400002070B504460D460026BF
:1049100015480078002803DD47F25510288070BD47
:1049200000BF00BFFBF750FC064600BF00BF1CB134
:104930000E48006884420AD100BF00BF3046FBF732
:1049400047FC00BF00BF47F257102880E7E700BFD1
:1049500000BF3046FBF73CFC00BF00BF29462046A5
:1049600001F0CAFC00BFDAE760000020EC00002084
:1049700010B504460348006818B12046014909688B
:10498000884710BD480000202DE9F04780460E46BC
:1049900014461D464FF000096F480078002805DDD9
:1049A00046F2AE1028800020BDE8F0871EB1B6F5B3
:1049B000004F02D100E000BF04E045F625602880EA
:1049C0000020F1E700BF0CB10020206000BF00BF55
:1049D000FBF7FAFB814600BF00BF60480068406CEF
:1049E000A8B35E480068406C401E5C490968486492
:1049F0005A480068476C1CB158480068006C206039
:104A0000FDF7DCFB55490968096C401A53490968F0
:104A1000C1F8A40051480068D0F8A8004F490968BF
:104A2000D1F8A410884207D24C480068D0F8A400FE
:104A30004A490968C1F8A80000BF00BF4846FBF713
:104A4000C7FB00BF00BF002028803846ACE7FFE767
:104A500016F4004F0BD000BF00BF4846FBF7B8FB71
:104A600000BF00BF46F2B010288000209CE73C4801
:104A7000007800280BDD00BF00BF4846FBF7A8FB0D
:104A800000BF00BF46F66350288000208CE74346F5
:104A900007220021084600F0A1FD00BF00BF4846E4
:104AA000FBF796FB00BF00BFFFF7FCF900BF00BF9C
:104AB000FBF78AFB814600BF00BF2848006890F8DA
:104AC000350020B1012826D0032834D12CE0FCB1D8
:104AD00022480068006C2060FDF770FB1F490968E0
:104AE000096C401A1D490968C1F8A4001B480068F8
:104AF000D0F8A80019490968D1F8A410884207D253
:104B000016480068D0F8A40014490968C1F8A80044
:104B10000020288013E01CB110480068006C206061
:104B200046F2A91028800AE00CB10020206047F26C
:104B3000D920288003E046F62E60288000BF00BF01
:104B400006480068476C00BF00BF4846FBF740FBC3
:104B500000BF00BF384627E760000020EC000020BF
:104B6000940000202DE9F04106460D4614461DB183
:104B7000B5F5004F02D100E000BF05E045F6256025
:104B800020800020BDE8F08100BFFDF717FB8046C4
:104B9000234642462946304601F03AFC074638464D
:104BA000F0E700002DE9F04705460E4617461C4683
:104BB0004FF0000A2E480078002804DD47F2591013
:104BC0002080BDE8F0871EB946F2D5202080F8E7A6
:104BD0001FB946F2D5202080F3E700BF00BFFBF7E6
:104BE000F3FA824600BF00BF0DB922480568286865
:104BF00068B900BF00BF5046FBF7EAFA00BF00BF2C
:104C000000203060386047F252102080D9E7A88F2A
:104C100010F0010F0DD100BF00BF5046FBF7D8FACE
:104C200000BF00BF00203060386047F25410208081
:104C3000C7E700BF00BF5046FBF7CAFA00BF00BF7E
:104C40004FF00008D5F8249003E009F1040908F1B9
:104C50000108D9F800000028F7D0C6F80080A86B3A
:104C6000A0EB080038600020208000BFA9E700000A
:104C700060000020EC000020F0B50446DDE9055C92
:104C800002EB850020F007004FF08077061F3046CA
:104C90003760061F30463460234F061F30463760AA
:104CA0004FF01237061F304637604FF00337061FAC
:104CB000304637604FF00237061F30463760061F18
:104CC00030463360061F304631604FF01137061F03
:104CD000304637604FF01037061F304637604FF0D0
:104CE0000937061F304637604FF00837061F304639
:104CF00037604FF00737061F304637604FF00637F2
:104D0000061F304637604FF00537061F30463760C4
:104D10004FF00437061F304637606FF00207061F5A
:104D200030463760F0BD0000F963000870B50546F5
:104D30000C460A480078002803DD47F25D10208009
:104D400070BD0748854203D147F25B102080F7E72A
:104D50002146284601F03EFC00BFF1E7600000203C
:104D600014C4002010B51D48006810B11B4800682D
:104D70008047FDF723FA0446194800681949096875
:104D8000884215D016480068D0F89800201A1449B7
:104D90000968C1F8940012480068D0F89C001049D6
:104DA0000968D1F8941008440D490968C1F89C00BD
:104DB0000C480068C0F8984009480068D0F8B40072
:104DC00009490968884205D207480068044909680A
:104DD000C1F8B40000200449086010BD5400002050
:104DE000EC000020F0000020900000202DE9F041B0
:104DF00005460E46144600272A480078002804DDA0
:104E000047F275202080BDE8F0812748007800280F
:104E100003DD46F663502080F5E736B1022E05D05B
:104E2000042E0AD0082E09D101E000BF00BF1DB931
:104E300047F27E202080E6E704E003E045F62560A7
:104E40002080E0E700BF00BF00BFFBF7BDF90746C9
:104E500000BF00BF01201549096881F836002346CC
:104E6000324629461148006801F054FC208838B1C8
:104E700000BF00BF3846FBF7ABF900BF00BFC2E779
:104E80000A48006800F000FE00BF00BF3846FBF78C
:104E90009FF900BF00BFFFF705F80020208000BF8A
:104EA000B1E700006000002094000020EC0000202A
:104EB0002DE9FF5F05460E4617469846DDE90EA42C
:104EC000002000905D480078002804DD47F275203E
:104ED0002080BDE8FF9F5A480078002803DD46F691
:104EE00063502080F5E70AF00E0BBBF1000F09D0EC
:104EF000BBF1020F07D0BBF1040F10D0BBF1080FBC
:104F00000ED101E000BF00BFB8F1000F06D12FB9EC
:104F100026B91DB947F27E202080DAE704E003E0DD
:104F200045F625602080D4E700BF3AF01E0001D08E
:104F3000012000E0002003900398012803D145F6EA
:104F400025602080C5E7CAF300100290029801286E
:104F500018D0B8F57A7F03D347F27B202080B8E7DA
:104F60003B2F03DD47F27A202080B2E73B2E03DDA2
:104F700047F279202080ACE7632D12DD47F27820DC
:104F80002080A6E742F20F70864203DD47F27920C7
:104F900020809EE7B5F57A7F03DB47F278202080FA
:104FA00097E72848D0F800904FF4FA70B0FBF9F07A
:104FB000404400FB09F04FF47A71B0FBF1F14FF47B
:104FC00061606843C6EB061200EB8200384400FBC8
:104FD00009100190019860B300BF00BFFBF7F4F81F
:104FE000009000BF00BF01201749096881F8360012
:104FF00023465A4614480199006801F08BFB20882B
:1050000038B100BF00BF0098FBF7E2F800BF00BF57
:105010005FE70D48006800F037FD00BF00BF009853
:10502000FBF7D6F800BF00BFFEF73CFF0020208052
:1050300002E047F27E20208000BF4AE760000020A7
:105040009400002030470108EC00002070B50446B1
:10505000002600BF00BFFBF7B7F8064600BF00BF41
:105060000648056800BF00BF3046FBF7B1F800BF37
:1050700000BF00202080284670BD0000CC0000202A
:1050800070B504460D46002600BF00BFFBF79CF834
:10509000064600BF00BF0648046000BF00BF3046A0
:1050A000FBF796F800BF00BF0020288070BD00000D
:1050B000CC00002008B500F02BF86A4600210E480D
:1050C000FFF750FD0D49097801EB41010C4A02EB55
:1050D000810000F033FD0B480068401E094908605C
:1050E0000846006838B90848006808606A46002128
:1050F0000648FFF737FD08BDA8C800207A00002049
:10510000E4C40020E8000020E40000206CC9002076
:1051100010B50348006810B101480068804710BD11
:10512000580000202DE9F0472DED028B04468846FB
:1051300016461F46DDF828909DED0B8ADDED0C8AA2
:105140000D9D4FF0000A2A480078002806DD47F23E
:1051500043302880BDEC028BBDE8F0871CB945F6D2
:10516000C3502880F6E7B9F1010F08D0B9F1020F5A
:105170000BD11FB947F240302880EBE709E01EB998
:1051800047F23F302880E5E703E045F625602880B8
:10519000E0E700BF00BF00BFFBF716F8824600BF84
:1051A00000BF012084F82A0012482060C4F804805F
:1051B00026620020A061E0616762A4F8289084ED77
:1051C000028AC4ED038A20616061204601F0F6FC8A
:1051D00009480088401C0849088000BF00BF5046AD
:1051E000FAF7F6FF00BF00BF0020288000BFB1E73C
:1051F00060000020544D5220D800002010B500243B
:1052000000BF00BFFAF7E0FF044600BF00BF084838
:105210000078401C0649087000BF00BF2046FAF71E
:10522000D7FF00BF00BFFFF745FFFEF7CDFD10BD64
:105230006000002001464A1E4FF0E0235A61084AF0
:10524000106820F07F4000BF10601A46126942F0DB
:1052500005021A611A46126942F002021A61704789
:1052600020ED00E0244A2549254A264A2649274AB6
:105270002748284A284A294A294A2A482A482B4A9C
:105280002B482C4A2C482D4A2D482E482E482F4872
:105290002F4A304A304A3148314A324A324833483C
:1052A00033483448344835483548364A364A374A10
:1052B000374A384838483948394A3A4A3A4A3B48DE
:1052C0003B483C483C493D483D4A3E4A3E4A3F4AAD
:1052D0003F4A404A404A4148414A424A424843487C
:1052E000434A444A4448454A454A4648464847484E
:1052F00000BF00BF00BF704774470108DC480108C9
:105300007547010876470108784701087C4701087E
:10531000804701087D470108A8470108A9470108FF
:10532000AA470108AC470108AE470108B247010887
:10533000B4470108D4470108D6470108D8470108F7
:10534000DA470108DC470108DE470108E0470108A9
:105350000C4801080D4801080E48010810480108D2
:1053600012480108134801081448010816480108AA
:10537000184801081A4801081C4801081E4801087D
:1053800020480108504801085148010852480108C6
:105390005348010854480108564801085848010874
:1053A00080480108814801088248010883480108B3
:1053B0008448010886480108884801088C4801088B
:1053C0008D4801088E4801088F480108904801085F
:1053D000914801089248010893480108944801083F
:1053E0009648010897480108984801089A4801081A
:1053F0009C4801089D480108A0480108D4480108BC
:10540000D5480108D6480108D8480108DA480108FB
:105410000021034A1160034A118001807047000097
:105420006400002068000020002400BF19E000BFD5
:1054300000BFFAF7C9FE044600BF00BF0948006874
:10544000401C0849086008480068401C064908607C
:1054500000BF00BF2046FAF7BBFE00BF00BFFEF74B
:10546000BFFBE4E75C000020AC00002010B58AB070
:10547000044600200E4908600B2000210591CDE96B
:105480000704069108460B4909680B4A12680B4B42
:105490001B68CDE90132CDE903103F200023084A03
:1054A00008A100900C48FFF79BF80AB010BD00005F
:1054B0005C000020D8460108D4460108D046010807
:1054C0002954000875432F4F532D494949204964F9
:1054D0006C65205461736B0014C400200021034AE2
:1054E0001160034A11800180704700006C000020A9
:1054F0007000002070B501461A4D2D681DB945F2A7
:105500001E750D8070BD184D2D881DB945F21D7595
:105510000D80F7E7134D28682A681032124D2D8848
:105520006D1EACB2002308E00260002545600581D5
:10553000C560103010325D1CABB2A342F4DB002515
:10554000056045600581C560064D2D68074E3560D4
:10555000054D2D88B5800025F58035810D8000BF73
:10556000D0E700001047010808470108D8C4002010
:1055700010B5014648894B89002B17DD0A680C4B92
:105580001B6813600A4C4B6823602346DB884C89F8
:105590001B1B074CE38023469B884C892344044C07
:1055A000A38000234B818B810B604B6010BD0000FA
:1055B000D8C40020018100224281828102604260C1
:1055C000704700000021034A1160034A11800180E6
:1055D0007047000074000020780000202DE9F041A1
:1055E00005460C46164698461548006880F8346013
:1055F00000201349096881F83500414610480068C9
:1056000000F09CFD6CB104F10807EC600122294612
:105610000B48006800F016F82946384600F06DF88F
:1056200006E0002006490968C8870549096808633B
:1056300003480168204600F019F8BDE8F081000039
:10564000EC00002010B5C287016300230AE00024AB
:105650004C600C600C614C610C83CC618860203123
:105660005C1CA3B29342F2DB10BD000030B560B108
:10567000D0F804C0C1F8C0C000F1080422689368E3
:10568000D3F820C0C0F81CC013E091F83450022DAC
:1056900002D0072D08D103E006A5C1F8C05007E0ED
:1056A00006A5C1F8C05003E007A5C1F8C05000BF6F
:1056B00000BF30BD5461736B205100005461736BA7
:1056C0002053656D000000002000000030B507A5E4
:1056D000C1F8C05000F1080422681AB193681D6A2D
:1056E000C56101E001A5C56130BD000020000000DA
:1056F00000210160416001817047F0B58E6896F825
:10570000375007893FB90127078100274F600F6095
:105710000160416023E007897F1C0781026806E081
:10572000946894F83770AF4200DD02E05268002AB6
:10573000F6D100BF32B900274F6043680B60596053
:1057400041600CE017682FB9116000270F604A60B4
:10575000016004E013680B604A6059601160F0BD9D
:105760002DE9F0410446256BE68F0AE0D5F80C8060
:1057700008F108072946384600F00AF82035701E5F
:1057800086B2002EF2DC0020E0872063BDE8F081C5
:1057900010B50489012C03D100240460446011E099
:1057A0000C6824B94A680024146002600AE04C685E
:1057B00024B90B6800245C60436003E00B684A680E
:1057C0005A6013600489641E048100244C600C60DC
:1057D00010BDF0B52DED028B81B005460C46164686
:1057E0001F469DED088A94F83600082857D2DFE856
:1057F00000F00405080906072E2F00BF00BF00BFF8
:105800004EE000BF94F83400032808D18DED008AE3
:105810003B4632462146284600F047F804E0E6655C
:10582000A4F8607084ED108A35B12046FFF798FF28
:1058300021462846FFF74AFF204600F04FFD002092
:1058400004F13404A070607004F8340928E000BF4B
:1058500094F83400032808D18DED008A3B46324687
:105860002146284600F021F804E0E665A4F86070BF
:1058700084ED108A204601F02BF835B12046FFF761
:105880006FFF21462846FFF721FF042004F134046E
:10589000A0704FF00000607004F8340900E000BF11
:1058A00000BF01B0BDEC028BF0BD70B504469DEDAC
:1058B000040A086BCD8F0BE0C668A64205D10461CF
:1058C0004261038380ED070A04E020306E1EB5B20A
:1058D000002DF1DC00BF70BD70B50025074C03E062
:1058E00005F12000C5B2241D20680028F8D02068EA
:1058F000FAF775FC2844C5B2284670BD3800002070
:10590000002004E00021034A42F82010401C022835
:10591000F8D370473800002030B5420900F01F036B
:105920000121C3F11F04A140034C54F822400C4351
:10593000014D45F8224030BD3800002030B5420905
:1059400000F01F030121C3F11F04A140034C54F8D0
:1059500022408C43014D45F8224030BD38000020E4
:105960000021034A1160034A118001807047000042
:10597000800000208400002000210AE001EB4102A9
:10598000054B03EB820000220281026042604A1C48
:10599000D1B24029F2D37047E4C4002010B50446C8
:1059A00094F83700FFF7B8FF94F8370005490978F5
:1059B000884203D1204600F027F802E0204600F09C
:1059C00003F810BD7A00002010B590F8373003EBD3
:1059D00043030C4C04EB83010B893BB901230B817E
:1059E0000023C36003610860486009E00B895B1C09
:1059F0000B810B68C360002303610A6810610860B3
:105A000010BD0000E4C4002010B590F8373003EB5F
:105A100043030B4C04EB83010B893BB901230B813E
:105A20000023C36003610860486008E00B895B1CC9
:105A30000B810023C3604A680261D060486010BDDA
:105A4000E4C4002010B501460C8924B1012C03D018
:105A5000022C0CD101E000BF14E008684A68026122
:105A60000024C4601461D0600A6048600AE00868DD
:105A70004A68C36800241C61C4600261D0600B6086
:105A8000486000BF00BF10BD2DE9F041054695F804
:105A9000370000EB4000124901EB80042F69EE68EB
:105AA00087B946B9002020812060606095F83700F2
:105AB000FFF744FF0EE02089401E20810020306166
:105AC000266007E02089401E2081FE600EB96760D5
:105AD00000E0376100202861E860BDE8F081000047
