:020000040800F2
:1000000078EB002001000208FD5402080B470208AB
:10001000714C02084522020885BF0208000000005A
:10002000000000000000000000000000B1AF020866
:100030003D29020800000000AB0A0208C56D020855
:100040001B000208699202081B0002081B0002083C
:100050001B0002081B0002081B0002081B0002080C
:100060001B0002081B0002081B0002081B000208FC
:100070001B0002081B0002081B0002081B000208EC
:100080001B0002081B0002081B0002081B000208DC
:100090001B0002081B0002081B0002081B000208CC
:1000A0001B00020849B5020891B402081B000208AF
:1000B0001B0002081B0002081B0002081B000208AC
:1000C0001B0002081B0002081B000208A9AD020861
:1000D00019AE0208DDBA0208EDBA0208FDBA02083C
:1000E0001B0002081B0002081B0002081B0002087C
:1000F0001B0002081B0002081B0002081B0002086C
:100100001B0002086D9D02081B0002081B0002086C
:100110001B0002081B0002081B0002081B0002084B
:100120001B0002081B0002081B000208B926020877
:100130001B0002081B0002081B0002081B0002082B
:100140001B0002081B0002081B0002081B0002081B
:100150001B0002081B0002081B00020825BB020846
:100160001B0002081B0002081B0002081B000208FB
:100170001B0002081B0002081B0002081B000208EB
:100180001B0002081B000208DFF80CD000F006F884
:1001900000480047A528030878EB0020064C074DCF
:1001A00006E0E06840F0010394E807009847103447
:1001B000AC42F6D3FFF7ECFFE001000800020008B4
:1001C00002E008C8121F08C1002AFAD17047704720
:1001D000002001E001C1121F002AFBD1704700007E
:1001E0000002000800000020EC020000160A0208CD
:1001F00024020008EC0200208CE80000D001000876
:1002000001242D010203040405D4060708096A022B
:10021000010912FC018732A763E70303FF0F2701DF
:0402200037000000A3
:020000040802F0
:100000000648804706480047FEE7FEE7FEE7FEE7B2
:10001000FEE7FEE7FEE7FEE7FEE7FEE78DB002083B
:100020008901000872B6704762B67047EFF310801E
:1000300072B6704780F31088704730BF704720BF9A
:100040007047B0FA80F0704790FAA0F0B0FA80F0F4
:10005000704790FAA0F07047002800D1704700293F
:1000600000D17047002A00D170472DE9F81F00F039
:10007000030301F00304A34211D1C3F1040303F00D
:100080000303012B1DD3012A00D2F2E011F8014B2A
:1000900000F8014BA3F10103A2F10102F1E700F026
:1000A000010301F00104A34200D094E0012B44D3EA
:1000B00011F8014B00F8014BA3F10103A2F1010279
:1000C000F4E7B2F5B47F26D3B1E8F81FA0E8F81F33
:1000D000B1E8F81FA0E8F81FB1E8F81FA0E8F81F82
:1000E000B1E8F81FA0E8F81FB1E8F81FA0E8F81F72
:1000F000B1E8F81FA0E8F81FB1E8F81FA0E8F81F62
:10010000B1E8F81FA0E8F81FB1E8F81FA0E8F81F51
:10011000A2F5B472D5E7282A06D3B1E8F81FA0E803
:10012000F81FA2F12802F6E7042A06D351F8043B8F
:1001300040F8043BA2F10402F6E7202A42D331F84A
:10014000023B20F8023B31F8023B20F8023B31F839
:10015000023B20F8023B31F8023B20F8023B31F829
:10016000023B20F8023B31F8023B20F8023B31F819
:10017000023B20F8023B31F8023B20F8023B31F809
:10018000023B20F8023B31F8023B20F8023B31F8F9
:10019000023B20F8023B31F8023B20F8023B31F8E9
:1001A000023B20F8023B31F8023B20F8023B31F8D9
:1001B000023B20F8023B31F8023B20F8023BA2F15F
:1001C0002002BAE7022A06D331F8023B20F8023BAC
:1001D000A2F10202F6E7102A42D311F8013B00F81F
:1001E000013B11F8013B00F8013B11F8013B00F81D
:1001F000013B11F8013B00F8013B11F8013B00F80D
:10020000013B11F8013B00F8013B11F8013B00F8FC
:10021000013B11F8013B00F8013B11F8013B00F8EC
:10022000013B11F8013B00F8013B11F8013B00F8DC
:10023000013B11F8013B00F8013B11F8013B00F8CC
:10024000013B11F8013B00F8013B11F8013B00F8BC
:10025000013B11F8013B00F8013BA2F11002BAE7A3
:10026000012A06D311F8013B00F8013BA2F101027B
:10027000F6E7BDE8F81F70472DE9F05F054600205E
:1002800092469B4688460646814640241BE0284607
:1002900041464746224600F020F852465B46801A07
:1002A000994110D310461946224600F055FA2D1AEE
:1002B00067EB01084F4622460120002100F04CFA6E
:1002C00017EB00094E41201EA4F10104DFDC484673
:1002D00031462A464346BDE8F09F202A04DB203AF7
:1002E00021FA02F00021704721FA02F3D040C2F156
:1002F00020029140084319467047D2B201E000F84D
:10030000012B491EFBD270470022F6E710B50446C8
:100310000846114602462046FFF7EFFF204610BD73
:1003200030B50EE003460A4601E05B1C521C1C7807
:100330001578AC4201D1002CF7D115F0FF0F04D095
:10034000401C0278002AEDD1002030BD2DE9FE4F7F
:10035000074681EA0300C00F0E46019021F00041DC
:1003600023F00044B81AA14105D238463146174659
:100370001E460B46024623F00040104304D1384687
:10038000314603B0BDE8F08F350DC5F30A00C3F365
:100390000A510290401A0090402868DAC3F3130013
:1003A00040F4801B0198924620B10023D2EB030A4F
:1003B00063EB0B0B00985946C0F14002504600F029
:1003C000CBF980460C4650465946009A00F0D3F9C6
:1003D000C0197141EF1785EA11533B4340D0019A90
:1003E00052B3009A012A11DC0022801A4FF0004318
:1003F00061EB055103EA05538018CDE9002341F56F
:1004000080114246234600F00BFABAE72E0500257C
:10041000401B61EB0601401941F580120018524162
:100420002818A6F5001343EB020140EAD4702943D3
:1004300018EB0808644113E064084FEA38084FF0ED
:10044000000244EAC0744FEA0553801A61EB0301CD
:10045000801841F5801149084FEA30008018594151
:100460004246234603B0BDE8F04F00F0CCB90198F6
:10047000012240000023D0EB020263EBE0730198FD
:100480004FEAE074381A66EB0401EBE783F00043AF
:100490005CE781F0004159E72DE9FE4F81EA030452
:1004A00021F0004504F0004423F000414FF0000A21
:1004B000009450EA050302D052EA010304D100205F
:1004C000014603B0BDE8F08FC1F30A53C5F30A54E7
:1004D0001C44A0FB02B3C5F3130545F4801CC1F313
:1004E000130141F480180CFB023300FB083EA4F218
:1004F000F334810A930A41EA8C5143EA8853019408
:10050000A1FB03474FEA9C2505FB03734FEA98269E
:1005100001FB06373D05260545EA1435BBEB060110
:100520006EEB0503850E920E45EA8C1542EA8812A1
:10053000A5FB0206261E67EB00070C0D44EA0334F8
:10054000A41947EB1350C1F313064FF000031946EB
:100550004FEA033343EA165343EA0403019CE5FBE5
:100560000201A4F10C040294009C4FEA0632CDE98A
:1005700000A400F055F9A4E72DE9F04D81EA030449
:1005800004F0004B21F0004714464FF0000A23F01E
:10059000004150EA070220D054EA01021DD0C1F305
:1005A0000A550246C1F31300C7F30A56C7F31303F3
:1005B00040F4801143F48013A6EB0508101BD646C7
:1005C00008F2FD3873EB010002D308F1010801E0E5
:1005D00092185B41B8F1000F03DA00200146BDE834
:1005E000F08D00204FF48015064607460EE0B2EB72
:1005F000040C73EB010C04D3121B064363EB0103E1
:100600002F436D084FEA300092185B4150EA050C09
:10061000EDD152EA030012D082EA040083EA010518
:10062000284303D100224FF0004308E0101B8B4108
:1006300002D20122002302E06FF0010253101AEBF4
:10064000060047EB085110EB0A0041EB0B01BDE837
:10065000F04D00F0D8B80EB5C10F80EAE070084444
:10066000CA07002140F233438DE80E000A460B46CC
:1006700000F0D6F803B000BD0EB540F23341029150
:100680000021CDE900110A460B4600F0C9F803B07D
:1006900000BD70B5C1F30A5201F000450024C1F35A
:1006A000130140F2FF3341F480119A4201DA002035
:1006B00070BD40F233439A42A2F2334203DC52420D
:1006C000FFF70BFE00E090402C43F1D0404270BD9C
:1006D00030B5002904DB4FF00044404264EB0101D7
:1006E000002B04DB4FF00044524264EB03038B42C7
:1006F00008BF824230BD000030B5002904DB4FF056
:100700000044404264EB0101002B04DB4FF0004445
:10071000524264EB0303994208BF904230BD00008F
:1007200001F0004230B421F0004150EA010306D04C
:100730000B0DA3F56073C1F31301002B02DC30BC79
:1007400000207047440F44EAC104C100A01830BC27
:1007500000EBC35000F021B8202A04DB203A00FA55
:1007600002F1002070479140C2F1200320FA03F308
:10077000194390407047202A06DBCB17203A41FAF4
:1007800002F043EAE071704741FA02F3D040C2F14F
:10079000200291400843194670470029A8BF7047BE
:1007A000401C490008BF20F00100704710B4B0FAA7
:1007B00080FC00FA0CF050EA010404BF10BC704742
:1007C00049B1CCF1200421FA04F411FA0CF118BF5C
:1007D000012121430843A3EB0C01CB1D0106000AB4
:1007E000002BBEBF002010BC704700EBC35010446C
:1007F0000029A4BF10BC7047401C490008BF20F06E
:10080000010010BC704710B5002B08DA401C41F104
:10081000000192185B411A4301D120F0010010BD84
:100820002DE9F04D92469B4611B1B1FA81F202E0FA
:10083000B0FA80F220329046FFF78EFF06460F4650
:1008400040EA0A0041EA0B0152465B46084303D1E5
:1008500030463946BDE8F08D194652EA010015D000
:10086000C8F140025046FFF738FD04460D46504699
:1008700059464246FFF770FF084301D0012000E0CF
:100880000020044345EAE07526432F430A984FEAC7
:10089000D625A0EB08000A304FEA46534FF000027D
:1008A00045EA47554FEAD72402D500200146D1E753
:1008B000010550196141DDE9084500196941BDE8AC
:1008C000F04DA0E770B521F0004303430CD0C1F315
:1008D0000A540026D4EB060566EB0603D417AD1ABE
:1008E000A34102DB0020014670BD001C41EB025118
:1008F00070BD2DE9F04D00231A461B1A8A4103DB17
:1009000000200146BDE8F08DC1F30A52C1F3130186
:1009100041F480154FF0000BD10702D100186D4152
:10092000521E0026044640F2FF11304601EB620AD7
:1009300037468046024600204FF48011FFF7CDFC79
:1009400080197941331847EB0102B4EB030C75EBC6
:10095000020C04D3E41A65EB020506460F4624197F
:1009600008F101006D4180463428E3DDB11947EB01
:100970000700091BA84103D24FF0FF32134601E0E4
:10098000002213461BEB060047EB0A51BDE8F04D71
:10099000FFF739BF2DE9FE4FC3F30A5801F00045B8
:1009A0000024C1F30A56C3F31303C1F3130143F444
:1009B000801312EB020CA64641F48011924600957A
:1009C00043EB0307A8F1010B13E0B0EB0C00B941B6
:1009D00007D54FF00008D0EB080085F0004568EB24
:1009E0000101BAEB000273EB0102EED3761E001890
:1009F00049415E45F5DA50EA010204D100992046EA
:100A000003B0BDE8F08FCDE900E500221346029661
:100A1000FFF706FFF4E770B501EB020410F8015B85
:100A200015F0070301D110F8013B2A1106D110F887
:100A3000012B03E010F8016B01F8016B5B1EF9D18B
:100A40002B0705D40023521E0FD401F8013BFAE70F
:100A500010F8013B02F10202A1EB030303E013F8DB
:100A6000015B01F8015B521EF9D5A142D6D30020EB
:100A700070BD000021484FF0FF010170002080F39D
:100A800009881F48016881F308881E484FF080518B
:100A9000016062B6FEE71B484FF08051016070476D
:100AA00018484FF080510160704772B6EFF309802B
:100AB00050B11EF0100F08BF20ED108A734620E9D8
:100AC000F80F11490968086000B5104880475DF8C3
:100AD00004EB0F480F490A7802700B480E490A6868
:100AE00002601068B0E8F80F9E461EF0100F08BFB5
:100AF000B0EC108A80F3098862B6704722ED00E0FE
:100B0000F000002004ED00E0E80000207967020812
:100B10007600002077000020EC00002010B58AB09D
:100B2000002407E09FED3C0B3D4800EBC40080ED46
:100B3000000B641C032CF5DB002407E09FED360B53
:100B4000384800EBC40080ED000B641C032CF5DB7F
:100B50009FED310B344880ED000B9FED340B80EDA1
:100B6000020B9FED340B354880ED000B9FED310BF0
:100B7000334880ED000B01203249087000203249D3
:100B800008703249087032490860324908603249B9
:100B900008609FED320B334880ED000B0020324996
:100BA000087032490870324908709FED320B3348A3
:100BB00080ED000B9FED320B334880ED000B9FED75
:100BC000330B344880ED000B002033490870334963
:100BD0000870334908703349087033490870334945
:100BE00008703349087040F2DF70099003200890C4
:100BF0001C200790002006900590049004A805A9E9
:100C000006AA07ABCDE90021029008AA09A9294844
:100C100016F016FC0AB010BD000000000000000035
:100C200088A8002000A9002048A90020F4FB7CD35C
:100C30005E16D33F000000000000F03FB00200202D
:100C4000B8020020A0020020A1020020A202002081
:100C5000A4020020A8020020AC0200200000000036
:100C6000000000409002002000020020C40200208A
:100C700001020020613255302AA9333F480200208A
:100C8000FA7E6ABC7493783F600200207B14AE4702
:100C9000E17AB43F78020020580200207002002060
:100CA00088020020890200208B0200208D02002093
:100CB0008F020020D002002001F0A8FE07F0D2FF32
:100CC000642001F08FFA1FE0002417E0012001F0FA
:100CD000B9FE012001F086FA022001F0B3FE2021C6
:100CE0000A4800F017F8012001F07CFA07F0C8FF6D
:100CF0001021074800F00EF8601CC4B2102CE5DB90
:100D00004FF47A7001F06EFADEE70000D8A30020FD
:100D1000B89A0020F0B502460B46002046E000EBF2
:100D2000400732F8274000EB400732F827500026F2
:100D300000212BE000EB400702EB870737F811702A
:100D4000A74206DD00EB400702EB870737F811C02A
:100D500000E0A446644600EB400702EB870737F843
:100D60001170AF4206DA00EB400702EB870737F855
:100D700011C000E0AC46654600EB400702EB870778
:100D800037F811703744BEB24F1CF9B20529D1DBD8
:100D9000371B7F1B4FF0030C97FBFCF700EB400C5D
:100DA00002EB8C0CACF80A70471CF8B29842B6DB28
:100DB000F0BD000010B512A20021144801F0D7F9CF
:100DC00013A20021154801F0D2F915A200211848FC
:100DD00001F0CDF917A200211A4801F0C8F91AA2B2
:100DE00000211D4801F0C3F91CA200211F4801F099
:100DF000BEF91FA20021224801F0B9F910BD000080
:100E000053454D5F4750535F53544F008C70002043
:100E100053454D5F54454C5F53544F00B470002010
:100E200053454D5F504C4F41445F53544F000000B9
:100E3000DC70002053454D5F4359435F494E464F98
:100E400000000000E8A6002053454D5F4D41475F7C
:100E5000444F545F444D500010A7002053454D5F50
:100E60005049545F464C545F434F4D0038A7002013
:100E700053454D5F4154545F5354415F43544C00BC
:100E800060A700202DED108BAEB09FEDD30B8DED44
:100E90001A0B9FEDD30BB0EE40EAF0EE60EA9FED47
:100EA000D20BB0EE40FAF0EE60FA9FEDD10B8DED73
:100EB000180B90E10021D04801F078F9CF4890ED6F
:100EC000001BB0EE410AF0EE610A9FEDCD1B53EC22
:100ED000112B51EC100BFFF7DFFA41EC100BB0EEC9
:100EE00040BAF0EE60BA9FEDC80B53EC102B51ECFA
:100EF0001B0BFFF741FB41EC180BC04890ED021BA8
:100F0000B0EE410AF0EE610A9FEDBD1B53EC112BD0
:100F100051EC100BFFF7C0FA41EC100BB0EE40BAE9
:100F2000F0EE60BA9FEDB80B53EC102B51EC1B0B9D
:100F3000FFF722FB41EC190BB5480068012806DADF
:100F400003230122B34928A811F057FD0DE0032027
:100F5000012328AAAF49009022A811F0BBFF032368
:100F60000122AC4928A811F048FD53EC192BAA48DE
:100F700090ED000B51EC100BFFF78EFA41EC100BCB
:100F8000B0EE40CAF0EE60CAA44890ED000B51EC00
:100F9000100B81F0004141EC100BB0EE40BAF0EEC6
:100FA00060BA53EC182B51EC1B0BFFF775FA41ECB0
:100FB000100BB0EE40DAF0EE60DA53EC1C2B51EC83
:100FC0001D0BFFF763FA41EC1A0B9FED950B8DEDAE
:100FD000100B8DED12AB9FED920B8DED140B0120DC
:100FE0001AAACDE90020032302468A4902901CA8D0
:100FF00011F084FE03211CA811F0BEFFB0EE40BA30
:10100000F0EE60BA53EC1B2B9FED870B51EC100BED
:10101000FFF7B2FA41EC100B8DED160B9DED160BA0
:1010200053EC102B9DED160B51EC100BFFF734FA1F
:1010300041EC100B8DED160B10AA1CA97C480AF090
:10104000A3FF012016AACDE9002003230246784918
:101050000290084611F052FE9DED241BB0EE410AAD
:10106000F0EE610A734890ED001B53EC112B51EC2C
:10107000100BFFF70BFA41EC100BB0EE40BAF0EE9C
:1010800060BA6D4890ED000B51EC100B81F00041FF
:1010900041EC100BB0EE40CAF0EE60CA53EC1B2BD3
:1010A00051EC1C0BFFF7F8F941EC100B604880ED98
:1010B000020B002432E05E4800EBC40090ED001B00
:1010C000B0EE410AF0EE610A9FED5C1B53EC112B70
:1010D00051EC100BFFF7FCFA06D29FED580B544869
:1010E00000EBC40080ED000B514800EBC40090ED14
:1010F000001BB0EE410AF0EE610A9FED521B53EC6B
:10110000112B51EC100BFFF7F7FA06D29FED4F0BA6
:10111000474800EBC40080ED000B641C032CCADBC5
:10112000434890ED001BB0EE410AF0EE610A53EC2B
:101130001E2B51EC100BFFF7AFF941EC100B8DEDAE
:101140000A0B3B4890ED021BB0EE410AF0EE610A3B
:1011500053EC1F2B51EC100BFFF79EF941EC100BD9
:101160008DED0C0B324890ED041BB0EE410AF0EE11
:10117000610A9DED181B53EC112B51EC100BFFF77E
:101180008BF941EC100B8DED0E0B032301220AA904
:10119000304811F032FC1E480068401C1C490860B1
:1011A000002511E02C4800EBC40090ED000B04A8D2
:1011B00000EBC40080ED000B9FED190B264800EBFF
:1011C000C40080ED000B6D1C032DEBDB04AA23494A
:1011D0000A4812F007F96DE695D626E80B2E113E67
:1011E00039183558CD5CDC3FAF3DAC39AE02DD3F40
:1011F0009F910416B960DE3F60A7002018A9002067
:101200000000000000806640182D4454FB21094076
:10121000AC020020D0A8002060020020480200207C
:101220000000000000000000000000000000F03F8F
:10123000E8A8002098020020780200209A99999945
:101240009999C9BF00000000000000409A9999993F
:101250009999C93FB8A7002000A9002028A900201B
:1012600000B58BB00AA8032100220592CDE9062122
:101270000890012080210C22B94BCDE90132CDE943
:10128000031003200023B74AB7A10090BA4804F026
:10129000B1FE0AA8032100220592CDE9062108909B
:1012A000022080210C22B54BCDE90132CDE903109B
:1012B00004200023B24AB3A10090B64804F09AFE7D
:1012C0000AA8032100220592CDE9062108901046C4
:1012D00080210C22B04BCDE90132CDE9031005206D
:1012E0000023AE4AAEA10090B14804F083FE0AA8E4
:1012F000032100220823CDE90532CDE9071010466D
:1013000099013322AB4BCDE90132CDE90310062020
:101310000023A94AA9A10090AC4804F06BFE0AA8DA
:10132000032100220823CDE90532CDE9071010463C
:1013300080210C22A64BCDE90132CDE90310072014
:101340000023A44AA4A10090A74804F053FE0AA8D1
:10135000032100220823CDE90532CDE9071010460C
:1013600080210C22A14BCDE90132CDE903100820E8
:1013700000239F4A9FA10090A24804F03BFE0AA8C8
:10138000032100220823CDE90532CDE907101046DC
:1013900080210C229C4BCDE90132CDE903100920BC
:1013A00000239A4A9AA100909D4804F023FE0AA8BF
:1013B000032100220823CDE90532CDE907101046AC
:1013C00080210C22974BCDE9013200230092CDE918
:1013D0000310954A95A19A4804F00CFE0AA803212F
:1013E00000220823CDE90532CDE9071010468021FF
:1013F0000C22944BCDE90132CDE9031002200023E9
:10140000914A92A10090944804F0F4FD0AA80321A7
:1014100000220823CDE90532CDE9071010468021CE
:101420000C228E4BCDE90132CDE9031002200023BE
:101430008B4A8CA100908E4804F0DCFD0AA80321A1
:1014400000220823CDE90532CDE90710104680219E
:101450000C22884BCDE90132CDE903100D20002389
:10146000854A86A10090894804F0C4FD0AA803219A
:1014700000220823CDE90532CDE90710104680216E
:101480000C22834BCDE90132CDE903100B20002360
:10149000804A81A10090834804F0ACFD0AA8032192
:1014A00000220592CDE90621089010464FF4806194
:1014B00066227D4BCDE90132CDE9031012200023D5
:1014C0007A4A7BA100907E4804F094FD0AA803218B
:1014D00000220592CDE90621089010464FF4806164
:1014E0006622784BCDE90132CDE9031013200023A9
:1014F000754A76A100907A4804F07CFD0AA8032181
:1015000000220592CDE90621089010464FF4806133
:101510006622744BCDE90132CDE90310142000237B
:10152000714A72A10090764804F064FD0AA8032174
:1015300000220592CDE90621089010464FF4806103
:101540006622704BCDE90132CDE90310162000234D
:101550006D4A6EA10090724804F04CFD0BB000BDC6
:1015600010070020A53302084750535F53544F5FC4
:101570005441534B000000004C060020D4090020C9
:10158000113302084750535F5245565F5441534B45
:101590000000000010090020980C0020F5B002089F
:1015A00054454C5F53414D5F5441534B0000000084
:1015B000D40B00205C0F002035B1020854454C5F6D
:1015C00053544F5F5441534B00000000980E0020CD
:1015D00020180020A18D0208504C4F41445F534118
:1015E0004D5F5441534B00005C170020E41A00206B
:1015F0005D920208504C4F41445F53544F5F544139
:10160000534B0000201A0020A81D00207DAF0208C7
:1016100053544F5F5550444154455F5441534B0020
:10162000E41C00206C2000206FAF020853544F5F71
:101630004D4F4E49544F525F5441534B00000000F0
:10164000A81F002030230020B92B02084641554C2A
:10165000545F5441534B00006C220020B8280020F6
:10166000E58A02084F55545055545F5441534B007E
:10167000F42700207C2B0020B90C02084144435F72
:1016800053414D504C455F5441534B00B82A002004
:10169000F425002069B10208544553545F54415366
:1016A0004B00000030250020402E0020FD1B0208CA
:1016B000417070205461736B2053656E47657400F0
:1016C0007C2D0020043F0020251702084170702067
:1016D0005461736B204D6167446F74446D700000FA
:1016E000403E0020C84F0020691902084170702058
:1016F0005461736B20506974466C74436F6D0000C5
:10170000044F00208C600020850E0208417070207C
:101710005461736B2041747453746143746C0000A2
:10172000C85F00202DED088B94B040F6B7359FEDD3
:10173000750BB0EE409AF0EE609A9FED740BB0EE30
:1017400040AAF0EE60AA9FED730BB0EE40BAF0EE47
:1017500060BAD6E00021714800F028FD70480068AA
:10176000FEF779FF41EC100BB0EE408AF0EE608A94
:101770009FED6C0B53EC102B51EC180BFEF7A8FFF0
:1017800012D20323012269490EA811F036F9002470
:1017900007E09FED670B684800EBC40080ED000B8D
:1017A000641C032CF5DB67E0032001230EAA5F49CC
:1017B000009008A811F08EFB032301225B490EA8BC
:1017C00011F01BF9002455E008A800EBC40003C881
:1017D00041EC100B53EC102B9FED581B51EC110BEF
:1017E000FEF75AFE41EC100BB0EE408AF0EE608A34
:1017F000544890ED000B53EC102B51EC180BFEF7F6
:10180000BBFE41EC100B4C4800EBC40080ED000B1C
:10181000494800EBC40003C841EC100B9FED4A1B84
:1018200053EC112BFEF768FF07D29FED470B4248A0
:1018300000EBC40080ED000B1BE03F4800EBC40050
:1018400003C841EC100B9FED421B53EC112BFEF72C
:101850003FFF07D29FED3E0B374800EBC40080ED01
:10186000000B06E09FED320B334800EBC40080ED27
:10187000000B641C032CA7DB2F4803C841EC100BA2
:1018800053EC192BFEF708FE41EC100B8DED020B0B
:101890002948C168806841EC100B53EC1A2BFEF705
:1018A000FBFD41EC100B8DED040B234841690069F1
:1018B00041EC100B53EC1B2BFEF7EEFD41EC100B33
:1018C0008DED060B0323012202A9234811F095F8A0
:1018D000032301221549214811F08FF82048007890
:1018E00078B90F480068401C0D4908601D48007811
:1018F000012806D108460068A84202DD01201849E7
:10190000087027E739183558CD5CDC3FAF3DAC395E
:10191000AE02DD3F9F910416B960DE3F10A70020A4
:10192000A40200209A9999999999B93FD0A80020CA
:101930000000000000000000E8A8002000000000F7
:1019400080842EC1900200209A9999999999C93F53
:101950009A9999999999C9BFB8A70020F8A700202A
:10196000A1020020000200202DED0A8BC4B09FEDE3
:10197000850BB0EE408AF0EE608A02E100218348D8
:1019800000F014FC01A805F06BF8814908600846D6
:101990000068FEF771FE41EC100BB0EE40BAF0EEBD
:1019A00060BA9FED7C0B53EC102B51EC1B0BFEF738
:1019B00073FD41EC100BB0EE40AAF0EE60AA9FED73
:1019C000770B53EC102B51EC1A0BFEF7D5FD41ECC5
:1019D000100BB0EE409AF0EE609A9FED720B53EC54
:1019E000102B51EC190BFEF7C7FD41EC100BB0EEBC
:1019F00040CAF0EE60CA6D4890ED000B53EC102B1E
:101A000051EC1C0BFEF7A2FC41EC100B684880ED7A
:101A1000000B6848007801280CD1002408E06648D3
:101A200000EBC40003C8654A02EBC40203C2641C95
:101A3000062CF4DB062301226049614810F0DDFF2B
:101A40005B4932A80EF0A2FD5C4A32A92CA811F025
:101A5000B5FD2CA928A810F077F822AA32A91CA855
:101A600003F0DEF855490AA803F03EF91CAA0AA9BA
:101A700004A803F0EDF85348C168806841EC100BEE
:101A8000DDE9060141EC110B53EC102BFEF7FEFCD7
:101A900041EC100B4C4880ED000B4A48DDE9041284
:101AA00006C00838DDE90612C0E90212DDE90812B5
:101AB000C0E90412454A04A902A810F003FE4448F4
:101AC000006828B902AA4349434811F09BFA04E090
:101AD00002AA4049404811F0F5FA53EC182B9DED4D
:101AE000020B51EC100BFEF7D7FC41EC100B3B48FE
:101AF00080ED000B022301223749394810F07DFFA9
:101B0000374803C841EC100B53EC182BFEF7C4FC0C
:101B100041EC100B324880ED000BC168806841EC4D
:101B2000100B53EC182BFEF7B7FC41EC100B2C48B4
:101B300080ED020B0323012222A92A4810F05DFF49
:101B4000032301222149284810F057FF204800684C
:101B5000401C1F4908602548007858B908460068AD
:101B60001E2807DB01202149087000202049087049
:101B7000204908601D480078012802D11E4800F065
:101B800007FBFBE6F8C1631ADCA54C4038A7002030
:101B9000E0020020000000000000F03F0000000014
:101BA00000408F40000000000018F540D0020020E7
:101BB000D8020020C4020020A0A8002058A80020BD
:101BC00088A7002010A8002098020020D0A800209C
:101BD000A802002028A9002018A90020E001002068
:101BE000D0A70020E0A70020F8A70020A202002034
:101BF000A0020020A402002060A700202DED088B89
:101C00009EB04FF4B465C8E10021E44800F0CEFA7C
:101C1000E3480078012810D10020E1490870012034
:101C2000E04908700020E0490870E0490870E04988
:101C30000860E0490860E04908601CA804F010FF53
:101C4000DE49086008460068FEF716FD41EC100BFF
:101C5000B0EE409AF0EE609A9FEDD90B53EC102B4A
:101C600051EC190BFEF718FC41EC100BB0EE40AA3A
:101C7000F0EE60AA9FEDD40B53EC102B51EC1A0B35
:101C8000FEF77AFC41EC100BB0EE40BAF0EE60BA11
:101C90009FEDCF0B53EC102B51EC1B0BFEF76CFCA4
:101CA00041EC100BB0EE408AF0EE608ACA4890ED2D
:101CB000000B53EC102B51EC180BFEF747FB41ECDB
:101CC000100BC64880ED000BC5480078012833D1C1
:101CD0000020C34908700120C2490870C24806C8E4
:101CE000C24806C0C24806C8C048183006C0C1482D
:101CF00006C8BE48083006C0BF4806C8BB482030EA
:101D000006C0BE4806C8B948083806C0BC4806C860
:101D1000B648D83800F5807006C0BA4806C8B3483F
:101D2000D83800F5847006C0B74806C8AF481030F0
:101D300006C00020B5490860B5480078012827D1C1
:101D4000B44908700020B2490870002411E0B2487C
:101D500000EBC40006C816A800EBC40006C0AE49DC
:101D6000E01C01EBC00006C810A800EBC40006C0D0
:101D7000641C032CEBDB994B10AA16A9A74811F0A1
:101D80002DFC0120A64908700020A649086093E0B8
:101D900094480078012842D19E4908702846FEF7F1
:101DA0005AFC41EC100BB0EE408AF0EE608A8F488E
:101DB000083803C841EC100B53EC102B874890ED0A
:101DC000001B51EC110BFEF761FB41EC100BB0EE68
:101DD000409AF0EE609A53EC182B51EC190BFEF779
:101DE0005BFB41EC100B8DED0C0B8848006818B9BB
:101DF0007E48D83813F0D6FA84480068401C8349DE
:101E000008600CAB794AD83A694606A811F07CFD07
:101E1000724B6A4606A9844811F067FC4CE0804882
:101E20000078012845D17F48006838B96B4A7B4962
:101E30007E4801F0BDFA7D4813F0B4FA7948006895
:101E4000FEF709FC41EC100BB0EE408AF0EE608A20
:101E5000774890ED000B53EC102B51EC180BFEF76C
:101E60001BFB41EC100B8DED0C0B9FED720B53EC3B
:101E7000102B9DED0C0B51EC100BFEF729FC14D22E
:101E80000120644908700CAB684A694606A811F045
:101E90003BFD0EAB6A4606A9634811F026FC61487B
:101EA0000068401C5F49086006E000205C4908703B
:101EB00002E000205749087060480078012806D1E8
:101EC0005F4806C85F4806C000205C4908705E484D
:101ED0000078012806D15D4806C85D4806C000208C
:101EE000594908705B480078012806D15A4806C84D
:101EF0005A4806C000205749087059480078012800
:101F000006D15848007827490870002054490870C5
:101F100055480078012806D15448007822490870B5
:101F200000205149087052480078012806D15148D4
:101F300000781E49087000204D4908703548007827
:101F400010B9002018490870012016490870084689
:101F50000078012802D1484800F01AF912480078A8
:101F6000012802D1454800F013F90E480078444991
:101F700008700F480068434908600B4800784249E0
:101F800008700C48006841490860084800784049DA
:101F90000870094800683F49086035E6E8A6002057
:101FA00089020020A0020020A1020020A20200203D
:101FB000A4020020A8020020AC020020E0020020C1
:101FC000000000000000F03F0000000000408F40D3
:101FD000000000000018F540D0020020D8020020C8
:101FE00001020020020200200802002030AA002086
:101FF00010020020180200202002002028020020E9
:10200000300200203802002040020020C0020020E0
:10201000C40200200002002028A80020A0A8002060
:10202000C5020020C802002058A8002068AA00208D
:1020300090020020000000000018E5405802002037
:102040005002002048020020700200206802002098
:102050006002002088020020800200207802002018
:102060008B0200208A0200208D0200208C020020BA
:102070008F0200208E02002010A7002038A7002029
:10208000E8010020EC010020F0010020F401002014
:10209000F8010020FC01002008B50CF04DFD00F017
:1020A000D3F800F0C1F8684603F022FF00F00AF808
:1020B000FEF780FEFFF7D4F803E04FF4FA6000F07B
:1020C00091F8FAE700B585B004A800210123CDE915
:1020D00000310A46CDE9021010A1144804F02CFD8D
:1020E00004A80021124A0123CDE90032CDE90210F3
:1020F0000B4614220FA1134804F01EFD04A8002172
:10210000114A0123CDE90032CDE902100B46142219
:102110000EA1124804F010FD05B000BD455053203B
:102120004F7665722054696D65720000EC020020E4
:10213000B1250208434F4D204F7665722054696DDA
:102140006572000020030020DD3202084750532052
:102150004F7665722054696D65720000540300204B
:102160001FB5684607F026F9019804B010BDF8B510
:1021700006460C4615466B4622462946304603F075
:10218000A1FCBDF8000008B10020F8BD0120FCE76B
:1021900038B504466A460021204603F0A7FDBDF885
:1021A000000008B1002038BD0120FCE77CB50546E1
:1021B0000C464FF47A70604309490968B0FBF1F6A8
:1021C00001A800231A4631460090284603F0BAFCC5
:1021D000BDF8040008B100207CBD0120FCE7000030
:1021E000A4780308FEB5044642F21070844200D978
:1021F0000446B4F57A7F0BD34FF47A70B4FBF0F059
:1022000086B24FF47A70B4FBF0F100FB114501E0A7
:10221000A5B2002602A800212B463246CDE90010C7
:10222000084604F04FFBFEBD70B5FFF799FF04466A
:1022300003480068B4FBF0F5284604F0DFFD70BDEC
:10224000A478030800BFFEE710B500F01FF800F007
:1022500019F810BD10B5002400BF00BFFDF7E6FE61
:10226000044600BF00BF1021054802F003FD00BF77
:1022700000BF2046FDF7DEFE00BF00BF10BD00001E
:10228000747D002010B5FFF7E5FF10BD10B50020EC
:102290000249086000F00AF810BD0000300000207C
:1022A00001490860704700003000002010B5FFF7BA
:1022B00057FF04460848006840F0807006490860EF
:1022C0000020064948600846006840F001000860A8
:1022D0002046FFF7E5FF10BDFCED00E0001000E038
:1022E0000149486870470000001000E070B5002503
:1022F0004FF4803400E0641E24B1802007F00EFD0E
:102300000028F8D014B90325284670BD40F2FF50CC
:1023100007F0C0FC2846F8E72DE9F0410646002703
:102320004748056801E04648056815F0450FFAD0B2
:1023300015F0040F06D00327042007F0ABFC384645
:10234000BDE8F08115F0010F05D00127012007F04D
:10235000A1FC3846F4E707F0DBFCB04202D01027BE
:102360003846EDE740F2FF5007F094FC002007F0FC
:10237000F5FC04463348044201D13846E0E714F046
:10238000004F01D01C20DBE714F0804F01D0092062
:10239000D6E714F0005F01D00A20D1E714F0805F87
:1023A00001D00B20CCE714F0006F01D00C20C7E760
:1023B00014F0806F01D00D20C2E714F0807F01D0AF
:1023C0000E20BDE714F4000F01D00F20B8E714F47D
:1023D000800F01D01020B3E714F4001F01D01120AA
:1023E000AEE714F4801F01D01220A9E714F4002FE7
:1023F00001D01320A4E714F4802F01D014209FE70C
:1024000014F4003F01D015209AE714F4803F01D066
:10241000162095E714F4004F01D0172090E714F42C
:10242000804F01D018208BE714F4005F01D01920F1
:1024300086E714F0080F01D01A2081E738467FE7BD
:10244000342C014008E0FFFD70B500250F480468FA
:1024500001E00E48046814F0450FFAD014F0040FA0
:1024600005D00325042007F015FC284670BD14F0A4
:10247000010F05D00125012007F00CFC2846F5E7E7
:1024800040F2FF5007F006FC2846EFE7342C0140ED
:1024900070B500250B48046801E00A48046814F090
:1024A000450FFAD014F0040F05D00325042007F0DF
:1024B000F1FB284670BD40F2FF5007F0EBFB2846C9
:1024C000F8E70000342C01402DE9F04106460F46A4
:1024D0004FF000082248056801E02148056815F022
:1024E000450FFAD015F0040F07D04FF00308042071
:1024F00007F0D0FB4046BDE8F08115F0010F06D093
:102500004FF00108012007F0C5FB4046F3E707F054
:10251000FFFBB04203D04FF010084046EBE740F21B
:10252000FF5007F0B7FB002007F018FC044614F436
:10253000604F03D1200C38804046DCE714F4005F84
:1025400001D01320D7E714F4804F01D01020D2E738
:1025500014F4004F01D00F20CDE74046CBE7000038
:10256000342C014070B500264FF480350F480468C4
:1025700002E06D1E0D48046814F0450F01D1002DD6
:10258000F7D115B114F0040F05D00326042007F08D
:1025900081FB304670BD14F0400F05D0002640206E
:1025A00007F078FB3046F5E73046F3E7342C01407E
:1025B0000022124B1A70124B1A701A46127822B16E
:1025C000012A09D0022A15D10DE00E4A127842F0F4
:1025D00040020C4B1A700EE00A4A127842F02002B8
:1025E000084B1A7007E0074A127842F01002054BB8
:1025F0001A7000E000BF00BF704700001C010020FF
:10260000160100201A010020014609B90B48704745
:10261000012901D10A48FAE7022901D10948F6E760
:10262000032901D10020F2E7042901D10020EEE7BF
:10263000052901D10448EAE70020E8E7D471002029
:10264000FC730020247600204C7B002008B54FF45A
:10265000E06002F0C3FF25208DF8000000208DF817
:10266000020001208DF80300684602F07BFF26205F
:102670008DF8000001208DF802008DF803006846F7
:1026800002F070FF27208DF8000002208DF8020074
:1026900001208DF80300684602F064FF47208DF8A2
:1026A000000005208DF8020001208DF80300684627
:1026B00002F058FF08BD000010B5002400BF00BFA5
:1026C000FDF7B4FC044600BF00BF08480078401C7A
:1026D0000649087000BF00BF2046FDF7ABFC00BFF5
:1026E00000BF08F063F803F079F810BD5C0000202B
:1026F0000246094B9A4201D2084801E006481038C8
:1027000011F0005F03D0064B0B40C36002E0044BA6
:102710000B4083607047000010640240006002407C
:102720007D0F7D0F21B1026842F00102026003E0DB
:10273000026822F00102026070470000016821F087
:10274000010101600021016041608160C16001619F
:10275000212141614A49884204D13D21484A103A29
:1027600091608CE046491831884205D14FF474617C
:10277000434A103A916082E041493031884205D1A4
:102780004FF474113E4A103A916078E03C49483168
:10279000884205D14FF07461394A103A91606EE079
:1027A00037496031884204D13649354A103AD16000
:1027B00065E033497831884204D13349304A103AD0
:1027C000D1605CE02E499031884204D12F492C4AD7
:1027D000103AD16053E02A49A831884205D14FF020
:1027E0003D51274A103AD16049E02949884204D135
:1027F0003D21274A083A116041E0254918318842B5
:1028000005D14FF47461224A083A116037E020493B
:102810003031884205D14FF474111D4A083A1160D5
:102820002DE01B494831884205D14FF07461184AA8
:10283000083A116023E016496031884204D11149F9
:10284000134A121F11601AE011497831884204D1ED
:102850000D490F4A121F116011E00D499031884255
:1028600004D10A490A4A121F116008E00849A83138
:10287000884204D14FF03D51054A121F1160704744
:10288000106002403D000020400F002000003D206D
:102890001064024021B1026842F02002026003E0AD
:1028A000026822F020020260704710B511F0800F1C
:1028B00009D022B1436943F08003436103E04369D7
:1028C00023F08003436180290BD02AB1036801F013
:1028D0001E042343036004E0036801F01E04A343C5
:1028E000036010BD10B500220268134B1A40CC687B
:1028F0000B6823434C6923438C692343CC692343EE
:102900000C6A23434C6A23438C6A23434C6B234356
:102910008C6B23431A430260426922F00702D1E91B
:102920000B3423431A4342610B6943604B68836055
:102930008B68C36010BD00003F801CF07047000032
:1029400010B54FF4C0720021054802F09CF9202216
:102950000021044802F097F900200349087010BDD7
:10296000D8A3002058A5002072010020014908606A
:1029700070470000143C0140002123498279002A5D
:102980003AD00A46126803689A430B461A600A1D39
:10299000126803689A430B1D1A60027911440A6891
:1029A00003681A430A60184A0832126803689A4397
:1029B000154B08331A601A1D126803689A43124BAC
:1029C0000C331A604279102A0ED11A1F126803685C
:1029D0001A430D4B08331A601A1D126803681A4314
:1029E000094B0C331A600DE00749427911440A681B
:1029F00003681A430A6005E0027911440A68036813
:102A00009A430A6070470000003C014010B548F24C
:102A1000B0340121204600F077F800BF00BF00BFAE
:102A200001214FF6FF7000F06FF80221204600F000
:102A30006BF800BF00BF00BF02214FF6FF7000F02F
:102A400063F810BD70B504462146002000F05CF824
:102A500005462146284600F003F8002070BD00001E
:102A600070B503468C461913C3F30B02BCF1020F79
:102A700002D101F11004E1B240F6FF74A2421DDA66
:102A8000102A1BDD002010E001EB41041C4D05EB7A
:102A90008405441C35F8144001EB4105184E06EB43
:102AA000850525F81040441CE0B20428ECDB01EB5E
:102AB0004104134D05EB840422811FE0002010E047
:102AC00001EB41040E4D05EB8405441C35F8144020
:102AD00001EB41050A4E06EB850525F81040441C24
:102AE000E0B20428ECDB01EB4104054D05EB840466
:102AF0002281044C645C641C024D6C5470BD000067
:102B0000D8A3002058A5002070B506460C46002525
:102B10000EE000BF00BF00BF28466D1C214988425F
:102B200006D921480078401C1F490870012070BD5B
:102B300002211E4808F0BEF90028EAD0012C03D17A
:102B400010201B49488304E0022C02D1A00318493D
:102B500048833146154808F0EAF90EE000BF00BF8F
:102B600000BF28466D1C0F49884206D911480078DD
:102B7000401C104908700120D9E701210B4808F0DA
:102B800099F90028EAD0012C03D1102008490883C4
:102B900004E0022C02D1A00305490883034808F091
:102BA000C3F9C4E7400D03004B0100200030014091
:102BB000000002404C01002003E04FF47A70FFF760
:102BC00011FBFAE751B14FF0204252F8202042F0B9
:102BD00001024FF0204343F8202009E04FF020424B
:102BE00052F82020034B1A404FF0204343F8202096
:102BF00070470000FEFF0F00D0E901121143C268C8
:102C00001143026911434269114382691143C26948
:102C10001143026A1143426A1143826A1143C26A34
:102C20001143026B11434FF02043026843F8221016
:102C30008168082908D11A46016852F8211041F02C
:102C40004001026843F82210416B0968426B5268E8
:102C500041EA0211426B926841EA0221426BD2685A
:102C600041EA0241426B126941EA0251426B5269E8
:102C700041EA0261426B926911430268521C4FF0B3
:102C8000204343F82210C16AB1F5804F1AD1816BFD
:102C90000968826B526841EA0211826B926841EACC
:102CA0000221826B126941EA0251826B526941EA48
:102CB0000261826B92691143026803EB8202C2F8DF
:102CC000041108E06FF070414FF02043026803EBFD
:102CD0008202C2F8041170472DE9FC4107460D46F7
:102CE0000026002400200090019008205A49086026
:102CF00010204860402088600020C8604FF4806049
:102D00000861084607F09AF81020FFF705FB044613
:102D100014B12046BDE8FC815048006800044E49CB
:102D2000086037204860402088600020C8604FF469
:102D300080600861084607F081F83720FFF7ECFA59
:102D400004460CB12046E5E74FF0FF3044490860E7
:102D500008204860302088600220C8600020086198
:102D600001204861084606F0ADFF00203A4908609E
:102D700033204860402088600020C8604FF48060A5
:102D80000861084607F05AF83320FFF7C5FA0446F1
:102D90000CB12046BEE709E04FF4001006F0BEFF7C
:102DA00020B107F045F84DF82600761C2D48006844
:102DB00040F22A610842EFD0082006F0AFFF28B1A8
:102DC000082006F067FF04242046A3E7022006F04F
:102DD000A5FF28B1022006F05DFF0224204699E7F6
:102DE000202006F09BFF28B1202006F053FF062488
:102DF00020468FE74FF4007006F090FF30B14FF49B
:102E0000007006F047FF0724204683E740F2FF509A
:102E100006F040FF00980006009901F47F4140EA67
:102E20000120009901F47F0140EA1120009940EA55
:102E30001160686001980006019901F47F4140EA41
:102E40000120019901F47F0140EA1120019940EA33
:102E50001160286020465DE7A87100200400002072
:102E6000BC710020342C014038B5044620787E28FF
:102E70000BD02748007818B901202549087038BDC3
:102E80000020234908700320F9E701226946204603
:102E90000BF01CFDA078204400799DF800108842BA
:102EA0000BD01B48007818B9012019490870E6E7D3
:102EB0000020174908700320E1E76078022804D059
:102EC000032804D004281AD100E01DE01CE020797A
:102ED000012802D0207902280FD10E48007801285D
:102EE00004D100200B4908700320C8E70948007886
:102EF000401C084908700220C1E70320BFE72046B4
:102F000000F05AF80420BAE700BF0020B7E700003D
:102F1000FB000020D801002070B506460C4615467F
:102F200004EBC4000F4901EB800080F8205004EB53
:102F3000C4010C4A02EB81002022002101F0A3FE13
:102F400004EBC401074A02EB81002A463146FDF733
:102F500083F80A2004EBC401024A02EB8101488491
:102F6000002070BD78A5002010B507A009F058F822
:102F70004FF4B8720D490E4800680CF051FB002068
:102F80000C49087010BD00005265616420466970EC
:102F9000657820436F6D6D616E642066726F6D2081
:102FA00043505520466C6173680D0A0078A50020D7
:102FB0006C010020D90100202DE9F8430546AF78C7
:102FC000E819441D2E48807804F8010B2D4800783C
:102FD00004F8010B2B48407804F8010B294880784D
:102FE00004F8010B4FF0000806E0FF2004F8010B85
:102FF00008F1010000F0FF08B8F1140FF5DB0B2217
:1030000021A125480EF0FEFA064626B123A009F0BC
:1030100007F8BDE8F8832848016828A009F000F8FF
:10302000254801681C480EF063F9064636B129A010
:1030300008F0F6FF18480EF04BF9EAE7A8781C30C4
:10304000C7B26B463A46691C13480EF0FEFB009867
:10305000874206D026A008F0E3FF0F480EF038F9AB
:10306000D7E70D480EF034F9064616B927A008F048
:10307000D7FF1148006838440F49086000BFC8E70F
:103080004601002042010020303A2F6669706578C1
:103090002E62696E000000000C9E0020303A2F6600
:1030A000697065782E62696E206F70656E2065723A
:1030B000726F720D0A000000D4010020303A2F66B2
:1030C000697065782E6673697A653A20256C640D9F
:1030D0000A000000303A2F66697065782E62696ECA
:1030E000206C7365656B206572726F720D0A00004B
:1030F000303A2F66697065782E62696E2077726942
:103100007465206572726F720D0A0000303A2F6686
:10311000697065782E62696E2073746F7265206FB6
:103120006B0D0A000120014908707047D901002089
:1031300000200449087004490870044908600449E3
:1031400008607047CB010020CA010020CC0100209C
:10315000D001002010B51D488078801DC2B200212A
:103160001A48FFF7D9FE1A488078801DC2B20121A3
:103170001748FFF7D1FE17488078801DC2B20221A0
:103180001448FFF7C9FE14488078801DC2B203219D
:103190001148FFF7C1FE11488078801DC2B204219A
:1031A0000E48FFF7B9FE0E488078801DC2B2052197
:1031B0000B48FFF7B1FE0B480B49C1F868011E2010
:1031C000A1F86C01062081F86E0110BD587A030841
:1031D0005E7A0308677A0308707A0308797A03082D
:1031E0007F7A0308C0BF561A78A5002070B50A463A
:1031F000002100238C4600BF3DE0012404FA01F3C6
:10320000146804EA030C9C4534D104684E0003257D
:10321000B540AC43046014794D00AC4005682C43C4
:1032200004601479012C02D01479022C16D1846820
:103230004E000325B540AC43846054794D00AC404A
:1032400085682C438460446801258D40AC4344600C
:10325000446895798D40ADB22C434460C4684E00FB
:103260000325B540AC43C460D4794D00AC40C5687B
:103270002C43C460491C1029BFD370BD70B5002316
:103280009C464C07E40E02FA04F3CD1000F1200432
:1032900054F825404D07EE0E0F25B540AC43CE1037
:1032A00000F1200545F82640CD1000F1200454F827
:1032B000254044EA030CCD1000F1200444F825C059
:1032C00070BD0246002053690B4201D0012000E08E
:1032D000002070474183704701837047704770B585
:1032E00004460D462946204601F0B6FE29462046F2
:1032F00001F022FE2946204601F052FE29462046D2
:1033000001F044FF2946204602F04CF870BD000051
:1033100008B5002240F225511E4808F04CFC01205F
:103320000CF079FC00201C49088032E042F2107059
:10333000FEF758FF01200CF06EFC002016490880B3
:10334000012240F22551134808F035FC12E008E054
:103350009DF8002010490888411C0F4B19800F4927
:103360000A54694601200CF064FC0028F0D10A20C0
:10337000FEF738FF08480088B0F5487FE7DB0022F9
:1033800040F22551034808F016FC04490448FFF7B1
:10339000A6FFCBE70044004022010020B8A0002097
:1033A00038A0002003E04FF47A70FEF71BFFFAE725
:1033B0002DE9F0472DED0E8BEAB004468846924683
:1033C00051462EA80CF088FC03222EA91CA80FF051
:1033D000DBFB4FF000090AE008EBC90090ED000BA1
:1033E00004A800EBC90080ED000B09F10109B9F157
:1033F000060FF1DB04A95EA800F0CAFA9FEDFE0BF0
:1034000084ED360B9DED620BB0EE401AF0EE601AC3
:103410009FEDFB0B53EC102B51EC110BFDF73CF81F
:1034200041EC100BB0EE40BAF0EE60BA9FEDF60B37
:1034300053EC102B51EC1B0BFDF79EF841EC100BDD
:1034400084ED380B9DED640BB0EE401AF0EE601A7F
:103450009FEDEB0B53EC102B51EC110BFDF71CF80F
:1034600041EC100BB0EE40BAF0EE60BA9FEDE60B07
:1034700053EC102B51EC1B0BFDF77EF841EC100BBD
:1034800084ED3A0B61996098C4E93C019DED660BAF
:10349000B0EE401AF0EE601A9FEDD90B53EC102BF2
:1034A00051EC110BFCF7F8FF41EC100BB0EE40BAF9
:1034B000F0EE60BA9FEDD40B53EC102B51EC1B0BCC
:1034C000FDF75AF841EC100B84ED3E0B9DED680BB7
:1034D000B0EE401AF0EE601A9FEDC90B53EC102BC2
:1034E00051EC110BFCF7D8FF41EC100BB0EE40BAD9
:1034F000F0EE60BA9FEDC40B53EC102B51EC1B0B9C
:10350000FDF73AF841EC100B84ED400B9DED5E0B9E
:10351000B0EE401AF0EE601A9DED5E0BB0EE402A60
:10352000F0EE602A53EC112B51EC120BFCF7B4FFB8
:1035300041EC100BB0EE40BAF0EE60BA9DED5E0BC0
:10354000B0EE401AF0EE601A53EC112B51EC1B0B4D
:10355000FCF7A2FF41EC100BB0EE40CAF0EE60CADF
:1035600053EC1C2BAA4890ED000B51EC100BFDF70F
:1035700003F841EC100BB0EE40DAF0EE60DA0AF03E
:10358000C3F9B0EE40EAF0EE60EA9FEDA20B53EC17
:10359000102B51EC1E0BFCF77FFF41EC100B84ED60
:1035A000420B9FED9E8B9FED9F9B9FEDA0ABDDE1BE
:1035B0009FED9E0B53EC102B51EC180BFCF7C6FE45
:1035C00041EC100BB0EE408AF0EE608A204611F01C
:1035D000E9FE002322464CA952A810F095F90120DB
:1035E000032152AA0B46CDE9002102900A461CA9EC
:1035F00016A80FF083FB012003214CAA0B46CDE94E
:10360000002102900A461CA910A80FF077FB0025A4
:1036100028E016A800EBC50090ED000BB0EE401AB4
:10362000F0EE601A08EBC50090ED000BB0EE402AFA
:10363000F0EE602A53EC112B51EC120BFCF726FF35
:1036400041EC100B40A800EBC50080ED000B40A83A
:1036500000EBC50090ED000B58A800EBC50080ED15
:10366000000B6D1C032DD4DB002620E010A800EB1E
:10367000C60090ED000BB0EE401AF0EE601AF01CA0
:1036800008EBC00090ED000BB0EE402AF0EE602A8F
:1036900053EC112B51EC120BFCF7F8FE41EC100B24
:1036A00040A9F01C01EBC00080ED000B761C032E3E
:1036B000DCDB032158A80FF05FFCB0EE40BAF0EE5F
:1036C00060BA9FED5C0B53EC102B51EC1B0BFCF71D
:1036D00053FF41EC100BB0EE40CAF0EE60CA0AF0A6
:1036E00013F9B0EE409AF0EE609A9FED540B53EC54
:1036F000102B51EC190BFCF7FFFF7BD89FED510B02
:1037000053EC102B51EC180BFCF7E2FFF5D8002717
:103710001FE040A800EBC70090ED000BB0EE401A90
:10372000F0EE601A04A800EBC70090ED000BB0EEBD
:10373000402AF0EE602A53EC112B51EC120BFCF7EF
:1037400005FE41EC100B04A800EBC70080ED000B58
:103750007F1C062FDDDB04A95EA800F019F99FEDA0
:10376000260B84ED360B9DED620BB0EE401AF0EEA9
:10377000601A9FED230B53EC102B51EC110BFCF74F
:103780008BFE41EC100BB0EE40BAF0EE60BA9FED4C
:103790001E0B53EC102B51EC1B0BFCF7EDFE41EC18
:1037A000100B84ED380B9DED640BB0EE401AF0EE7B
:1037B000601A9FED130B53EC102B51EC110BFCF71F
:1037C0006BFE41EC100BB0EE40BAF0EE60BA9FED2C
:1037D0000E0B53EC102B51EC1B0BFCF7CDFE41EC08
:1037E000100B84ED3A0B61996098C4E93C019DEDA2
:1037F000660B2BE0B4E000002D431CEBE2362A3FC1
:10380000182D4454FB210940000000000080664050
:10381000907A03080000000000004E400000000005
:1038200000000000000000000088C340000000000D
:103830000000F03F00000000000008407B14AE478D
:10384000E17A843F0000000000003440B0EE401AEE
:10385000F0EE601A1FED160B53EC102B51EC110B10
:10386000FCF71AFE41EC100BB0EE40BAF0EE60BA75
:103870001FED1B0B53EC102B51EC1B0BFCF77CFECC
:1038800041EC100B84ED3E0B9DED680BB0EE401A41
:10389000F0EE601A1FED260B53EC102B51EC110BC0
:1038A000FCF7FAFD41EC100BB0EE40BAF0EE60BA56
:1038B0001FED2B0B53EC102B51EC1B0BFCF75CFE9C
:1038C00041EC100B84ED400B9DED5E0BB0EE401A09
:1038D000F0EE601A9DED5E0BB0EE402AF0EE602A2D
:1038E00053EC112B51EC120BFCF7D6FD41EC100BF5
:1038F000B0EE40BAF0EE60BA9DED5E0BB0EE401A4D
:10390000F0EE601A53EC112B51EC1B0BFCF7C4FDCD
:1039100041EC100BB0EE40CAF0EE60CA53EC1C2B29
:103920001A4890ED000B51EC100BFCF725FE41EC12
:10393000100BB0EE40DAF0EE60DA09F0E5FFB0EE21
:1039400040EAF0EE60EA1FED4D0B53EC102B51EC0A
:103950001E0BFCF7A1FD41EC100B84ED420B05E0C2
:103960001FED520BB0EE40AAF0EE60AA1FED550B12
:1039700053EC102B51EC1A0BFCF7AAFE7FF418AE97
:103980006AB0BDEC0E8BBDE8F0870000907A0308AA
:1039900003B5EFB0002017902FE01799709800EB57
:1039A000C10068AB06C8179803EBC00006C09DEDC8
:1039B000680B8DED5C0B9DED6A0B8DED5A0B9DED4B
:1039C0006C0B8DED580B1798C01C709901EBC00063
:1039D00060A90CC8179801EBC0000CC09DED600BEE
:1039E0008DED560B9DED620B8DED540B9DED640B33
:1039F0008DED520B1798401C179017980328CCDBBD
:103A0000032168A80FF0B8FA8DED660B032160A8BA
:103A10000FF0B2FA8DED5E0B60AA68A94CA808F011
:103A2000B3FA9DED5E0B53EC102B9DED660B51EC44
:103A3000100BFCF731FD41EC100B8DED0A0B9DEDE9
:103A40005E0B53EC102B9DED0A0B51EC100BFCF7A9
:103A500023FD41EC100B8DED0E0BFE4890ED000B9D
:103A600053EC102B9FEDFC0B51EC100BFCF714FDED
:103A700041EC100B8DED0C0B9DED0E0B53EC102B50
:103A80009DED0C0B51EC100BFCF700FD41EC100B05
:103A90008DED120B9DED660B53EC102BED4890ED68
:103AA000000B51EC100BFCF7F7FC41EC100B8DED0B
:103AB000100B9DED120B53EC102B9DED100B51ECE8
:103AC000100BFCF759FD41EC100B8DED440B9DEDF7
:103AD000520B53EC102B9DED580B51EC100BFCF7D7
:103AE000DBFC41EC100B8DED0E0B9DED540B53ECFC
:103AF000102B9DED5A0B51EC100BFCF7CDFC41EC5B
:103B0000100B8DED0A0B9DED560B53EC102B9DED1C
:103B10005C0B51EC100BFCF7BFFC41EC100B8DED76
:103B2000080B9DED0A0B53EC102B9DED080B51EC8F
:103B3000100BFCF70BFC41EC100B8DED0C0B9DED0D
:103B40000E0B53EC102B9DED0C0B51EC100BFCF7F6
:103B5000FDFB41EC100B8DED120B9DED440B53EC76
:103B6000102BBC4890ED000B51EC100BFCF794FCB3
:103B700041EC100B8DED0C0B9DED0C0B53EC102B51
:103B80009FEDB70B51EC100BFCF7F6FC41EC100B62
:103B90008DED0E0B9DED0E0B09F0B6FE8DED100BAD
:103BA0009DED120B53EC102B9DED100B51EC100BF7
:103BB000FCF772FC41EC100B8DED4A0B9DED440BB4
:103BC00053EC102B9DED660B51EC100BFCF7D4FC65
:103BD00041EC100B8DED120B9FEDA10B53EC102B54
:103BE0009DED120B51EC100BFCF753FC41EC100B4C
:103BF0008DED480B9DED480B53EC102B9DED4A0BC2
:103C000051EC100BFCF7B8FC41EC100B8DED0E0BDA
:103C10009DED0E0B08F0D4FB8DED100B9FED920B7C
:103C200053EC102B9DED100B51EC100BFCF734FCFA
:103C300041EC100B8DED120B9FED8D0B53EC102B07
:103C40009DED120B51EC100BFCF796FC41EC100BA8
:103C50008DED460B9FED880B53EC102B9DED4A0B21
:103C600051EC100BFCF748FD19D29FED830B53EC80
:103C7000102B9DED480B51EC100BFCF729FD0ED2DB
:103C80009FED790B53EC102B9DED460B51EC100B77
:103C9000FCF75CFB41EC100B8DED460B48E09FED13
:103CA000760B53EC102B9DED4A0B51EC100BFCF7EF
:103CB0000FFD19D29FED700B53EC102B9DED480BAF
:103CC00051EC100BFCF718FD0ED29FED6D0B53EC71
:103CD000102B9DED460B51EC100BFCF737FB41EC24
:103CE000100B8DED460B23E09FED630B53EC102B77
:103CF0009DED4A0B51EC100BFCF7EAFC18D29FED3E
:103D00005E0B53EC102B9DED480B51EC100BFCF7A8
:103D1000DFFC0DD29FED540B53EC102B9DED460BA9
:103D200051EC100BFCF712FB41EC100B8DED460B28
:103D30009FED4F0B53EC102B9DED460B51EC100BF0
:103D4000FCF7AAFB41EC100B8DED0C0B9FED460B25
:103D500053EC102B9DED0C0B51EC100BFCF70CFCF5
:103D600041EC100B8DED0E0B9DED0E0B08F090FD50
:103D70008DED120B9DED440B53EC102B9DED660B5E
:103D800051EC100BFCF7F8FB41EC100B8DED0E0B1A
:103D90009FED330B53EC102B9DED0E0B51EC100BE4
:103DA000FCF777FB41EC100B8DED100B9DED120B2A
:103DB00053EC102B9DED100B51EC100BFCF7DCFBC2
:103DC00041EC100B8DED420B9DED420B53EC102B93
:103DD0009DED420B51EC100BFCF75EFB41EC100B20
:103DE0008DED020B9FED1E0B53EC102B9DED020B86
:103DF00051EC100BFCF74DFB41EC100B8DED060B5D
:103E00009DED440B53EC102B124890ED000B51EC40
:103E1000100BFCF741FB41EC100B8DED040B9DEDFD
:103E2000060B53EC102B9DED040B51EC100BFCF723
:103E300033FB41EC100B8DED080B9DED080B09F0E9
:103E400063FD8DED0C0B9DED560B53EC102B9DED92
:103E50005A0B19E0907A03080000000000000040AF
:103E6000000000000000F03F0000000000806640FD
:103E7000182D4454FB210940000000000000000000
:103E8000000000000080764051EC100BFCF704FBB2
:103E900041EC100B8DED080B9DED540B53EC102BEA
:103EA0009DED5C0B51EC100BFCF7F6FA41EC100B9E
:103EB0008DED060B9DED080B53EC102B9DED060BC5
:103EC00051EC100BFCF7E2FA41EC100B8DED0A0BF4
:103ED0009DED0C0B53EC102B9DED0A0B51EC100BD0
:103EE000FCF74AFB41EC100B8DED0E0B9DED0E0B1C
:103EF00008F0BEF88DED100B1FED250B53EC102BC9
:103F00009DED100B51EC100BFCF7C6FA41EC100BB9
:103F10008DED120B1FED2A0B53EC102B9DED120BA8
:103F200051EC100BFCF728FB41EC100B8DED400B16
:103F30001FED2F0B8DED2E0B1FED310B8DED300B8B
:103F40001FED390B8DED320B4CAA2EA928A808F0D5
:103F50001BF8032128A80FF00FF88DED260B002089
:103F600016901CE028A9169801EBC00090ED000BFC
:103F70008DED120B9DED260B53EC102B9DED120BCE
:103F800051EC100BFCF7F8FA41EC100B28A916982D
:103F900001EBC00080ED000B1698401C169016989F
:103FA0000328DFDB9DED280B8DED0E0B9DED0E0B39
:103FB00008F05EF88DED100B1FED550B53EC102B38
:103FC0009DED100B51EC100BFCF766FA41EC100B59
:103FD0008DED120B1FED5A0B53EC102B9DED120BB8
:103FE00051EC100BFCF7C8FA41EC100B8DED3E0BB9
:103FF0009DED2A0B8DED0E0B9DED0E0B08F038F8A4
:104000008DED100B1FED680B53EC102B9DED100B7D
:1040100051EC100BFCF740FA41EC100B8DED120B3C
:104020001FED6D0B53EC102B9DED120B51EC100B93
:10403000FCF7A2FA41EC100B8DED3C0B1FED720B5F
:1040400053EC102B9DED3C0B51EC100BFCF754FB8B
:104050000FD89FEDFE0B53EC102B9DED3C0B51EC5C
:10406000100BFCF735FB04D89DED3E0B8DED3E0BA0
:1040700023E09FEDF60B53EC102B9DED3C0B51EC28
:10408000100BFCF739FB18D21FED890B53EC102BEA
:104090009DED3C0B51EC100BFCF71AFB0DD89DED80
:1040A0003E0B53EC102B1FED8A0B51EC100BFCF761
:1040B000EDF941EC100B8DED3E0B28AA4CA920A880
:1040C00007F062FF032120A80EF056FF8DED1E0BB6
:1040D000002015901CE020A9159801EBC00090ED80
:1040E000000B8DED120B9DED1E0B53EC102B9DED77
:1040F000120B51EC100BFCF73FFA41EC100B20A90E
:10410000159801EBC00080ED000B1598401C159030
:1041100015980328DFDB9DED2C0B8DED060B9DED37
:104120006C0B8DED040B9DED060B53EC102B9DEDF0
:10413000040B51EC100BFCF7AFF941EC100B8DEDBB
:104140000A0B9DED2A0B8DED020B9DED6A0B8DED9B
:10415000000B9DED020B53EC102B9DED000B51EC71
:10416000100BFCF799F941EC100B8DED060B9DED52
:10417000280B8DED020B9DED680B8DED000B9DED79
:10418000020B53EC102B9DED000B51EC100BFCF7C8
:1041900083F941EC100B8DED040B9DED060B53ECF8
:1041A000102B9DED040B51EC100BFCF7CFF841ECFC
:1041B000100B8DED080B9DED0A0B53EC102B9DEDB4
:1041C000080B51EC100BFCF7C1F841EC100B8DED16
:1041D0000C0B9DED660B53EC102B9DED0C0B51EC75
:1041E000100BFCF7C9F941EC100B8DED0E0B9DED9A
:1041F0000E0B07F03DFF8DED100B1FEDE50B53ECA3
:10420000102B9DED100B51EC100BFCF745F941EC18
:10421000100B8DED120B1FEDEA0B53EC102B9DEDE7
:10422000120B51EC100BFCF7A7F941EC100B8DEDC4
:104230003A0B9DED240B8DED060B9DED6C0B8DED7A
:10424000040B9DED060B53EC102B9DED040B51EC74
:10425000100BFCF721F941EC100B8DED0A0B9DEDD5
:10426000220B8DED020B9DED6A0B8DED000B9DED8C
:10427000020B53EC102B9DED000B51EC100BFCF7D7
:104280000BF941EC100B8DED060B9DED200B8DED28
:10429000020B9DED680B8DED000B9DED020B53ECB9
:1042A000102B9DED000B51EC100BFCF7F5F841ECD9
:1042B000100B8DED040B9DED060B53EC102B9DEDBB
:1042C000040B51EC100BFCF741F841EC100B8DED99
:1042D000080B9DED0A0B53EC102B9DED080B51ECD8
:1042E000100BFCF733F841EC100B8DED0C0B9DED32
:1042F000660B53EC102B9DED0C0B51EC100BFCF7E7
:104300003BF941EC100B8DED0E0B9DED0E0B07F004
:10431000AFFE8DED100B9FED4F0B53EC102B9DED71
:10432000100B51EC100BFCF7B7F841EC100B8DEDB6
:10433000120B9FED4A0B53EC102B9DED120B51EC21
:10434000100BFCF719F941EC100B8DED380B9FEDBC
:10435000450B53EC102B9DED380B51EC100BFCF77B
:10436000CBF90FD89FED390B53EC102B9DED380B8B
:1043700051EC100BFCF7ACF904D89DED3A0B8DED28
:104380003A0B23E09FED310B53EC102B9DED380BD6
:1043900051EC100BFCF7B0F918D29FED2E0B53EC3B
:1043A000102B9DED380B51EC100BFCF791F90DD84B
:1043B0009DED3A0B53EC102B9FED2C0B51EC100B99
:1043C000FCF764F841EC100B8DED3A0B9FED230BDD
:1043D00053EC102B9DED460B51EC100BFCF75CF8E9
:1043E00041EC100B8DED120B9FED200B53EC102BBD
:1043F0009DED120B51EC100BFCF7BEF841EC100BCD
:104400008DED1C0B9DED1C0B09F0BAFA8DED100B18
:104410009DED420B53EC102B9FED160B51EC100B46
:10442000FCF734F841EC100B8DED0A0B9DED420BBF
:1044300053EC102B9FED0F0B51EC100BFBF786FF8D
:1044400041EC100B8DED080B18E00000000000009F
:10445000008056400000000000806640182D445443
:10446000FB210940000000000000000000000000E7
:1044700000807640000000000000F03F9DED0A0B38
:1044800053EC102B9DED080B51EC100BFCF774F85E
:1044900041EC100B8DED0C0B9DED0C0B09F034FA7B
:1044A0008DED0E0B9DED100B53EC102B9DED0E0BB7
:1044B00051EC100BFBF7F0FF41EC100B8DED120BE4
:1044C0009DED120B07F07CFF8DED1A0B9FED850B18
:1044D00053EC102B9DED1C0B51EC100BFCF70CF961
:1044E00018D21FED220B53EC102B9DED1C0B51EC41
:1044F000100BFCF7EDF80DD21FED280B53EC102B31
:104500009DED1A0B51EC100BFBF720FF41EC100B4B
:104510008DED1A0B9DED1A0B53EC102B9FED730BC9
:1045200051EC100BFBF7B8FF41EC100B8DED100BAD
:104530001FED380B53EC102B9DED100B51EC100BB5
:10454000FBF7AAFF41EC100B8DED120B1FED3D0B9D
:1045500053EC102B9DED120B51EC100BFCF70CF8EB
:1045600041EC100B8DED180B9DED180B53EC102B3F
:104570009DED3A0B51EC100BFBF788FF41EC100B53
:104580008DED360B1FED490B53EC102B9DED360BCB
:1045900051EC100BFCF79CF80DD21FED4C0B53ECBB
:1045A000102B9DED360B51EC100BFBF7CFFE41ECC1
:1045B000100B8DED360B1FED570B53EC102B9DEDB3
:1045C000460B51EC100BFBF767FF41EC100B8DED28
:1045D000060B1FED600B53EC102B9DED060B51EC01
:1045E000100BFBF7C9FF41EC100B8DED080B9DED97
:1045F000080B09F01DF98DED0A0B9DED420B53ECF4
:10460000102B9DED0A0B51EC100BFBF745FF41EC15
:10461000100B8DED0E0B1FED6F0B53EC102B9DED62
:10462000460B51EC100BFBF737FF41EC100B8DEDF7
:104630000A0B1FED780B53EC102B9DED0A0B51EC80
:10464000100BFBF799FF41EC100B8DED0C0B9DED62
:104650000E0B53EC102B9DED0C0B51EC100BFBF7DC
:1046600015FF41EC100B8DED100B1FED860B53EC7D
:10467000102B9DED100B51EC100BFBF70DFF41ECD7
:10468000100B8DED120B1FED8B0B53EC102B9DEDD2
:10469000120B51EC100BFBF76FFF41EC100B8DED83
:1046A000340B9DED440B6F9880ED000B9DED420B9C
:1046B0006F9880ED020B9DED400B6F9880ED040B21
:1046C0009DED3E0B6F9880ED060B9DED360B6F98C0
:1046D00080ED080B9DED340B6F9880ED0A0B71B0E7
:1046E00000BD0000182D4454FB21F93F00000000DC
:1046F0000000004008B5694605200BF09AFA18B191
:104700009DF8000007F078F908BD00BFFEE710B57E
:1047100000F002F810BD00004AF6AA200149086026
:10472000704700000030004000B587B00121022032
:1047300004F0E0FD0121102004F01CFE07220621F8
:104740009C48FEF79BFD072211469A48FEF796FD0E
:1047500000208DF81A0001208DF81B0002208DF832
:1047600018004020059002208DF8190005A99148F5
:10477000FEF73CFD02208DF818008020059005A969
:104780008C48FEF733FD4FF4E13001900020ADF886
:104790000800ADF80A00ADF80C00ADF810000C20D0
:1047A000ADF80E0001A9844807F02AFA012240F270
:1047B0002551814807F0FFF901217F4807F0C3F92F
:1047C00040217D4807F0B6F90121084604F092FD2A
:1047D0000121480404F0BEFD072203217748FEF7BB
:1047E0004DFD00208DF81A0001208DF81B000220DD
:1047F0008DF818008DF818000820059002208DF81B
:10480000190005A96D48FEF7F1FC4FF4E130019065
:104810000020ADF80800ADF80A00ADF80C00ADF8C6
:1048200010000420ADF80E0001A9654807F0E8F972
:10483000012240F22551624807F0BDF9012160488C
:1048400007F081F940215E4807F074F90121022048
:1048500004F050FD01208DF8180000208DF81A009A
:104860008DF81B0003208DF819000420059005A980
:104870005048FEF7BBFC0121022004F03BFD012162
:10488000880404F067FD07220A214A48FEF7F6FC77
:1048900007220B214748FEF7F1FC00208DF81A0093
:1048A00001208DF81B0002208DF8180040020590B1
:1048B00002208DF8190005A93E48FEF797FC02205A
:1048C0008DF818008002059005A93A48FEF78EFC85
:1048D0004FF4165001900020ADF80800ADF80A0022
:1048E000ADF80C00ADF810000C20ADF80E0001A9D9
:1048F000344807F085F9012240F22551314807F08C
:104900005AF901212F4807F01EF940212D4807F0E0
:1049100011F90121042004F0EDFC0121202004F014
:1049200029FD082206212848FEF7A8FC08220721B5
:104930002548FEF7A3FC00208DF81A0001208DF811
:104940001B0002208DF818008DF8180040200590FB
:1049500005A91D48FEF74AFC02208DF818008020AA
:10496000059005A91848FEF741FC4FF4E13001908D
:104970000020ADF80800ADF80A00ADF80C004FF4C7
:104980004070ADF810000C20ADF80E0001A90F48E2
:1049900007F036F9012240F225510C4807F00BF9D7
:1049A00001210A4807F0CFF84021084807F0C2F873
:1049B00007B000BD000402400010014000000240AA
:1049C000004400400048004000080240001401403C
:1049D00000B587B01222002102A800F054F9042289
:1049E000002101A800F04FF90121080304F0C2FCE6
:1049F00000211F4806F048FA0020ADF808004FF4E7
:104A00008270ADF80A004FF40060ADF80C0002208F
:104A1000ADF80E000020ADF810004FF40070ADF8B6
:104A200012003820ADF814000020ADF81600072061
:104A3000ADF8180002A90E4806F07BFA01225021B9
:104A40000B4806F05CFA0121094806F01DFA232004
:104A50008DF8040002208DF8050000208DF8060076
:104A600001208DF8070001A800F07CFD07B000BD13
:104A7000003001401CB508220021684600F003F90F
:104A80000121084604F036FC0121022004F032FC2A
:104A9000052211462F48FEF7F1FB052206212D487D
:104AA000FEF7ECFB052207212A48FEF7E7FB022070
:104AB0008DF804008DF8050000208DF80600022016
:104AC0008DF80700E020009069462248FEF78EFB33
:104AD00001208DF8040000208DF8060002208DF8DA
:104AE000050000208DF807000220009069461A4852
:104AF000FEF77CFB01208DF8040000208DF80600F5
:104B000002208DF8050000208DF80700102000908D
:104B100069461048FEF76AFB01208DF8040000206A
:104B20008DF8060002208DF8050000208DF80700A2
:104B30004FF40040009069460648FEF757FB0220FC
:104B4000054918310880102002490883C0020883F3
:104B50001CBD0000000002400004024010B50446E5
:104B60002078042819D006DC012809D0022812D0A8
:104B7000032815D110E0052810D0122810D10EE01E
:104B800001200949087009480088401C074908802D
:104B900000F018F805E004E003E002E001E000E0C6
:104BA00000BF00BF002010BD1B0100201801002025
:104BB00010B503E0445C63404C1EE1B20029F9D11A
:104BC000137010BD1FB50020019002900390A52026
:104BD0008DF804005A208DF8050030208DF806006D
:104BE00002208DF807000D480088C0B28DF808003B
:104BF0000A480088000A8DF809009DF807106A46E7
:104C000002A8FFF7D5FF9DF800008DF80A000722E3
:104C100001A905200BF01CF81FBD000018010020A1
:104C200070B596B005460E46144603231A46314623
:104C300004A80EF082F9012003210B460A46CDE9B3
:104C40000041029004A928460EF058F816B070BD35
:104C5000FEB505460E461446012003210B460A46C2
:104C6000CDE900410290314628460EF047F8FEBDDE
:104C700000BFFEE730B505460C4622460021284617
:104C800000F001F830BD2DE9F04103460C4617460F
:104C90000FB9BDE8F08103B9FBE70025002202E06F
:104CA0002D022543521C042AFAD3384603F0030C84
:104CB0001946BCF1000F08D0624603E001F8014B31
:104CC000401E521C08B1042AF8D30E4601E020C64B
:104CD000001F0428FBD2314602E001F8014B401EC0
:104CE0000028FAD100BFD4E730B52DED028BB1B06A
:104CF00005460C46032120460EF03EF9B0EE408AF0
:104D0000F0EE608A53EC182B9FED780B51EC100BF2
:104D1000FBF732FC41EC100B8DED160B012016AAAF
:104D2000CDE9002003460322214602901EA80DF083
:104D3000E5FF032104F118000EF01EF9B0EE408AE1
:104D4000F0EE608A53EC182B9FED6A0B51EC100BC0
:104D5000FBF712FC41EC100B8DED160B012016AA8F
:104D6000CDE900200346032204F11801029018A89F
:104D70000DF0C4FF9FED610B8DED040BDDE9220109
:104D800041EC100B81F0004141EC100B8DED060B56
:104D9000DDE92001CDE90801DDE92201CDE90A01C3
:104DA0009FED560B8DED0C0BDDE91E0141EC100B58
:104DB00081F0004141EC100B8DED0E0BDDE920017F
:104DC00041EC100B81F0004141EC100B8DED100B0C
:104DD000DDE91E12CDE912129FED480B8DED140B8B
:104DE0000120032118AA0B46CDE9002102900A46B2
:104DF00004A924A80DF082FF032124A80EF0BCF81A
:104E0000B0EE408AF0EE608A53EC182B9FED390B20
:104E100051EC100BFBF7B0FB41EC100B8DED160BBA
:104E2000012016AACDE900200346032224A90290FE
:104E300024A80DF063FF9FED310B8DED040BDDE930
:104E4000280141EC100B81F0004141EC100B8DED7D
:104E5000060BDDE92601CDE90801DDE92801CDE9F0
:104E60000A019FED260B8DED0C0BDDE9240141ECD1
:104E7000100B81F0004141EC100B8DED0E0BDDE9C4
:104E8000260141EC100B81F0004141EC100B8DED3F
:104E9000100BDDE92412CDE912129FED180B8DEDF8
:104EA000140B012003211EAA0B46CDE9002102901C
:104EB0000A4604A92AA80DF021FF032301222AA9EA
:104EC00028460DF09AFD0323012224A905F11800BC
:104ED0000DF093FD032301221EA905F130000DF012
:104EE0008CFD31B0BDEC028B30BD00000000000035
:104EF0000000F0BF000000000000F03F00000000D4
:104F0000000000000246134610E010782A2805D061
:104F10001078202802DB10787A2801DDFF20704706
:104F200010782C2801D1481EC1B2521C0029ECD1A6
:104F3000D01AC0B2F3E70000F8B505460F4616A137
:104F40003846FBF7EDF9064606213046FFF7DAFF53
:104F50000446FF2C05D03019694600F05AFA85F84E
:104F6000610007213046FFF7CDFF0446FF2C05D036
:104F70003019694600F04DFA85F862000921304683
:104F8000FFF7C0FF0446FF2C04D03019694600F03B
:104F900040FAA867F8BD0000244750474741000089
:104FA0002DE9F8430546884629A14046FBF7B8F9A4
:104FB000064602213046FFF7A5FF0446FF2C05D028
:104FC0003019694600F025FA85F86F00002713E0D4
:104FD000F81CC1B23046FFF795FF0446FF2C08D0FD
:104FE0003019694600F015FAC1B205F16300C155E8
:104FF00000E003E0781CC7B20C2FE9DB00BF0F21F3
:105000003046FFF77FFF0446FF2C05D03019694674
:1050100000F0FFF9A5F8700010213046FFF772FF8D
:105020000446FF2C05D03019694600F0F2F9A5F8C6
:10503000720011213046FFF765FF0446FF2C05D0B2
:105040003019694600F0E5F9A5F87400BDE8F88369
:1050500024475047534100002DE9FC5F07468A462C
:105060004FF00008CDF804A046A10198FBF758F9CD
:105070000646F079303800F0FF0B03213046FFF789
:1050800041FF0546FF2D04D07019694600F0C1F9B3
:1050900038704FF0000970E03AA10198FBF740F931
:1050A0000646002460E0042000EB8400C1B23046D4
:1050B000FFF728FF0546FF2D0AD07019694600F05A
:1050C000A8F9C1B208EB4802B81C00F8121000E0C1
:1050D0004CE0052000EB8400C1B23046FFF712FF20
:1050E0000546FF2D0BD07019694600F092F9C1B248
:1050F00008EB4802B81C00EB4200417000E035E0CC
:10510000062000EB8400C1B23046FFF7FBFE0546E7
:10511000FF2D0BD07019694600F07BF981B208EBC6
:105120004802B81C00EB4200418000E01EE007206E
:1051300000EB8400C1B23046FFF7E4FE0546FF2DC8
:105140000BD07019694600F064F9C1B208EB48024F
:10515000B81C00EB4200017100E007E008F101001B
:1051600000F0FF08601CC4B2042C9CDB00BF701C64
:10517000019009F1010000F0FF09D9458CDBBDE881
:10518000FC9F000024475047535600002DE9F04390
:105190002DED028B81B0044688467FA14046FBF787
:1051A000BFF8074601213846FFF7ACFE0546FF2D44
:1051B00023D07819694600F02CF981469DF800103B
:1051C0000A2000F01BF9B9FBF0F642F21070B6FBB2
:1051D000F0F0C1B24E2001556420B6FBF0F064211E
:1051E000B0FBF1F201FB12014F2001556420B6FB28
:1051F000F0F100FB11615020015503213846FFF703
:1052000081FE0546FF2D3FD07819694600F001F96F
:1052100006469DF80000801CC1B20A2000F0EEF89E
:10522000B6FBF0F060659DF80000801CC1B20A205A
:1052300000F0E4F8B6FBF0F100FB116000EE100A9C
:10524000B8EE408A05210A2000F0D8F8616D484385
:1052500000EE100AF8EE400A9DF80000C0F10500CB
:10526000C1B20A2000F0CAF800EE100AB8EE400AF7
:1052700020EE080A9FED4A1AC0EE011A30EEA10A8C
:10528000BCEEC00A84ED150A04213846FFF73AFE49
:105290000546FF2D02D0785D84F858000521384678
:1052A000FFF730FE0546FF2D41D07819694600F022
:1052B000B0F806469DF80000801CC1B20A2000F03C
:1052C0009DF8B6FBF0F0E0659DF80000801CC1B2CF
:1052D0000A2000F093F8B6FBF0F100FB116000EE3D
:1052E000100AB8EE400AB0EE408A05210A2000F00C
:1052F00085F8E16D484300EE100AF8EE400A9DF88B
:105300000000C0F10500C1B20A2000F077F800EEFD
:10531000100AB8EE400A20EE080A9FED211AC0EEEE
:10532000011A30EEA10ABCEEC00A84ED170A06216C
:105330003846FFF7E7FD0546FF2D02D0785D84F87B
:10534000600009213846FFF7DDFD0546FF2D1ED020
:105350007819694600F05DF8064642F21070B6FB17
:10536000F0F0C1B24D2001556420B6FBF0F064218D
:10537000B0FBF1F201FB12014C2001556420B6FB99
:10538000F0F100FB116000F5FA60A4F84A0001B0EA
:10539000BDEC028BBDE8F083244750524D43000022
:1053A00000007042F8B504460F4612A13846FAF7DD
:1053B000B7FF054607212846FFF7A4FD0646FF2E46
:1053C00016D0A819694600F024F8A4F87C009DF8CE
:1053D000000003280CDA9DF80000C0F10300C1B200
:1053E0000A2000F00BF8B4F87C104843A4F87C00C5
:1053F000F8BD0000244750565447000010B502463F
:10540000012000E050430B00A1F10104E1B2F9D109
:1054100010BD2DE9F34F81B007463C4600200090B7
:10542000834681460026804628E020782D2802D138
:1054300048F00208641C20782C2802D020782A2802
:1054400000D11CE020782E2803D148F00108641C0C
:1054500009E02078392802DC2078302803DA4FF080
:10546000000900260BE018F0010F02D0701CC6B234
:1054700003E009F1010000F0FF09641CD5E700BF5B
:1054800018F0020F00D07F1C00250EE0A9F10100EA
:10549000401BC1B20A20FFF7B1FF795D3039009A95
:1054A00000FB01200090681CC5B24D45EEDB052EC7
:1054B00000DD05260298067000250EE0701E401BD8
:1054C000C1B20A20FFF79AFF09F101012944795C72
:1054D000303900FB01BB681CC5B2B542EEDB31467A
:1054E0000A20FFF78BFF009901FB00BA18F0020FAA
:1054F00001D0CAF1000A5046BDE8FE8F7047000097
:1055000030B5AA24124D2C805524124D2C809024A5
:105510000F4D2C804FF0C8442488E1B24FF0C844AE
:105520006488E2B24FF0C844A48BE3B24FF0C844A1
:10553000E48B04F0FF0C0C0644EA024444EA032422
:1055400044EA0C00F0244FF0C8452C8030BD000028
:10555000AA0A00645405006410B54FF4407000F0CE
:105560003DF810BD70B5002100230F22C47824B38C
:10557000174C246804F4E064C4F5E064C4F3072124
:10558000C1F10404E3B20A4144789C40E1B284785A
:10559000144021430C07210E0E4C05786155047808
:1055A00004F01F050124AC4005786D114FF0E02692
:1055B00006EB8505C5F8004109E0047804F01F05F5
:1055C0000124AC40044D0678761145F8264070BDA4
:1055D0000CED00E000E400E080E100E0024901435E
:1055E000024A1160704700000000FA050CED00E06F
:1055F0007047000010B50348006810B1014800680A
:10560000804710BD4800002070B5044600F0BCF88B
:1056100000204549087045490870454908704549CA
:105620000860454908604549087045490870454982
:105630000870454908604549086045490860454982
:105640000870454800680A21B0FBF1F04349086042
:105650004348006858B14348056845B1404806686A
:1056600003E0761E002028602D1D002EF9D10020B9
:105670003D4908603D4908603D4908603D49086072
:105680003D4908603D4908603D4908603D49087052
:1056900001F01AFF01F054FF204601F09DFC208824
:1056A00000B170BD204601F0FDFC208800B1F8E794
:1056B000204601F003FD208800B1F2E7204601F00A
:1056C00065FD208800B1ECE7204601F02DFF208821
:1056D00000B1E6E7204602F095F8208800B1E0E747
:1056E000204602F065FB208800B1DAE7204601F091
:1056F000A1FC208800B1D4E7204602F0E7FF208813
:1057000000B1CEE7204602F097FA208800B1C8E742
:10571000204603F04BF8208800B1C2E701F086FB79
:10572000FFF766FF00BFBCE75C0000205D000020C3
:1057300090000020E8000020EC000020760000200F
:1057400077000020780000208400002088000020DE
:105750008C00002098000020A4780308940000200A
:1057600074780308707803083C0000204000002093
:1057700044000020480000204C0000205000002081
:1057800054000020C6000020064800680649096849
:1057900000EB8100054908600846006820F007001A
:1057A000086070477078030874780308F0000020E0
:1057B00008480078012800D0704707480078FA2888
:1057C00000DBF9E704480078401C0349087000BF7B
:1057D000F2E700005D0000205C00002010B500240E
:1057E0002D480078012800D010BD00BFFAF71EFC3C
:1057F000044600BF2948007828B900BF2046FAF7C0
:1058000019FC00BFF0E725480078401E23490870C6
:1058100008460078002805DD00BF2046FAF70AFC9C
:1058200000BFE1E71E480078002805DD00BF2046E4
:10583000FAF700FC00BFD7E701F032FE1949087003
:105840000846007800EB4000174951F8200017493E
:1058500008600846006816490968884205D100BFFB
:105860002046FAF7E7FB00BFBEE710480068D0F813
:105870009000401C0D490968C1F890000D4800686F
:10588000401C0C490860FBF70BF900BF2046FAF7F3
:10589000D1FB00BF00BFA7E75D0000205C00002037
:1058A00090000020770000209C910020EC00002058
