:020000040800F2
:10000000C0D10120F5720208615202086352020851
:100010006552020867520208695202080000000097
:100020000000000000000000000000006B52020809
:100030006D52020800000000E3D20008FBBE000879
:10004000C5750208C9750208CD750208D175020888
:10005000D5750208D9750208DD750208E175020838
:10006000E5750208E9750208ED750208F1750208E8
:10007000F5750208F9750208FD7502080176020897
:1000800005760208097602080D7602081176020844
:1000900015760208197602081D76020821760208F4
:1000A00025760208297602082D76020831760208A4
:1000B00035760208397602083D7602084176020854
:1000C00045760208497602084D7602085176020804
:1000D00055760208597602085D76020861760208B4
:1000E00065760208697602086D7602087176020864
:1000F00075760208797602087D7602088176020814
:10010000857602086F5202088D7602089176020801
:1001100095760208997602089D760208A176020873
:10012000A5760208A9760208AD7602089352020865
:10013000B5760208B9760208BD760208C1760208D3
:10014000C5760208C9760208CD760208D176020883
:10015000D5760208D9760208DD760208E176020833
:10016000E5760208E9760208ED760208F1760208E3
:10017000F5760208F9760208FD7602080177020892
:10018000057702080977020880B500208DF8000085
:1001900001F006FD01F006FC01F01CFD00F087F8FF
:1001A0008DF800009DF80000002802D09DF80000A6
:1001B00045E000F0A6F98DF800009DF80000002849
:1001C00002D09DF800003AE0DFF8E80B002101754D
:1001D000DFF8E00B00210160DFF8D80B002141605F
:1001E000DFF8D00B00218160DFF8C80B0021C1606F
:1001F000DFF8C00B00210161DFF8B80B01F0F6FC5D
:10020000DFF84C0C00F04EFA8DF800009DF800006D
:10021000002808D1DFF8380CB0F85400000400F0D2
:100220008EFC8DF800009DF80000002805D14FF4E9
:10023000006000F020FC8DF800009DF8000002BD79
:1002400010B5042400F00DF80400E4B2042C01D130
:10025000002005E0E4B2FF2C01D1022000E00120E3
:1002600010BD80B50020009000F010F801280BD1DF
:1002700000A800F097FF002801D0FF2005E00098BB
:10028000400A10F00F0000E0FF2002BD80B5012001
:100290008DF800000421DFF8E00C01F0AEFD00282D
:1002A00002D000208DF800009DF8000002BDF8B5D6
:1002B00000208DF800000024002500260027DFF82C
:1002C000F40A76210175DFF8EC0A00210160DFF8FD
:1002D000E40A00214160DFF8DC0A00218160DFF8D8
:1002E000D40A0021C160DFF8CC0A00210161DFF8E7
:1002F000C40A01F07BFC032001F091FC012001F015
:100300008AFCDFF8500B00210160DFF8480B002168
:100310004160DFF8400B00218160DFF8380B0021DD
:10032000C160DFF8300B4FF480610161DFF8240B0E
:1003300001F07DFC00F0D6FF8DF800009DF8000074
:10034000002802D09DF80000DAE0DFF8080B4FF437
:10035000D5710160DFF8FC0A08214160DFF8F40A7A
:1003600040218160DFF8EC0A0021C160DFF8E40A77
:100370004FF480610161DFF8DC0A01F058FC00F005
:10038000CDFF8DF800009DF80000002807D1DFF8B0
:10039000EC0B012101605FF0804007001DE0DFF8F9
:1003A000B40A00210160DFF8AC0A37214160DFF8B0
:1003B000A40A40218160DFF89C0A0021C160DFF8B7
:1003C000940A4FF480610161DFF8880A01F02FFC84
:1003D000372000F0DDFF8DF80000DFF8780A0021FB
:1003E0000160DFF8700A37214160DFF8680A4021B8
:1003F0008160DFF8600A0021C160DFF8580A4FF41D
:1004000080610161DFF84C0A01F011FC372000F037
:10041000BFFF8DF800009DF8000000286ED1002E6F
:100420005AD14FF6FF70854256D2DFF8280A0021D4
:100430000160DFF8200A37214160DFF8180A402107
:100440008160DFF8100A0021C160DFF8080A4FF46C
:1004500080610161DFF8FC0901F0E9FB372000F061
:1004600097FF8DF800009DF80000002802D09DF84D
:10047000000045E0DFF8080B3843DFF8D8190860C2
:10048000DFF8D00929214160DFF8C80940218160E7
:10049000DFF8C0090021C160DFF8B8094FF48061BE
:1004A0000161DFF8B00901F0C2FB00F0FEFF8DF83A
:1004B00000009DF80000002802D09DF800001FE019
:1004C000002001F0CCFB0400E00F012801D101263F
:1004D00000E000266D1CA2E74FF6FF70854205D3B1
:1004E0001B208DF800009DF8000009E014F0804406
:1004F000002C03D0DFF8840A022101609DF800007F
:10050000F2BD10B582B000240120ADF8000001F06A
:1005100089FB002804D1252004002000C0B2C0E0DF
:10052000DFF8580A0068042839D0DFF828090021CC
:100530000160DFF8200902214160DFF81809C021BD
:100540008160DFF810090021C160DFF808094FF46D
:1005500080610161DFF8FC0801F069FB00F0C6FF73
:100560000400E4B2002C02D02000C0B299E00020C8
:1005700001F075FBDFF8D81B0860042001F06FFB69
:10058000DFF8CC1B4860082001F069FBDFF8C01BD6
:1005900088600C2001F063FBDFF8B41BC860DFF853
:1005A000DC09006800280ED0DFF8D00900680128B7
:1005B00009D0DFF8C8090068062804D0DFF8BC09B4
:1005C0000068022823D1DFF88C0800210160DFF8E1
:1005D000840803214160DFF87C0840218160DFF856
:1005E00074080021C160DFF86C084FF4806101617C
:1005F000DFF8600801F01BFB00A9032000F0A2FF58
:100600000400E4B2002C02D02000C0B249E0DFF8C0
:100610006C090068042840D0DFF83C0BBDF80010DE
:100620000160BDF800000004DFF828180860DFF85A
:10063000240809214160DFF81C08C0218160DFF82F
:1006400014080021C160DFF80C084FF480610161DB
:10065000DFF8000801F0EBFA00F048FF0400E4B214
:10066000002C02D02000C0B21BE0002001F0F7FAFD
:10067000DFF82C1B0860042001F0F1FADFF8201BE2
:100680004860082001F0EBFADFF8141B88600C20AA
:1006900001F0E5FADFF8081BC86000200400200024
:1006A000C0B216BD2DE9F003010000200022DFF8E2
:1006B000CC381B6881F85630DFF89C3A1B68A1F8EB
:1006C0005430DFF8DC3A1B681B0E1A00D2B29309D3
:1006D0000B70C2F383034B7012F003038B70DFF8CF
:1006E000C03A1B681B0C1A00CA70DFF8B43A1B68CA
:1006F0001B0A1A000A71DFF8A83A1B681A004A712F
:10070000DFF89C3A5B681B0E1A00D2B21301CB8053
:10071000DFF88C3A5B681B0C1A00CB88D2B2140944
:10072000E4B22343CB8012F00F030B72DFF8703A70
:100730005B681B0A1A00D2B2D3094B72C2F3801352
:100740008B72C2F34013CB72C2F300130B730023FE
:100750004B73DFF828381B68002B04D0DFF81C38F7
:100760001B68012B5ED1D2B212F003039B020B6116
:10077000DFF82C3A5B681A000B69D2B253EA8203A5
:100780000B61DFF81C3A9B681B0E1A000B69D2B292
:100790009409E4B223430B61C2F3C2030B7512F058
:1007A00007034B75DFF8F8399B681B0C1A00D2B2AF
:1007B00053098B75C2F38203CB7512F003035B0000
:1007C0000B76DFF8DC399B681B0A1A000B7ED2B26D
:1007D00053EAD2130B760B695C1C0025C1E9124564
:1007E000D1E9126701230C7EA41C13FA04F4E51767
:1007F000A4FB068904FB079905FB0699C1E9128948
:10080000012391F90840A3400B65D1E912670C6DF3
:100810000025A4FB068904FB079905FB0699C1E99D
:10082000128930E0DFF854371B68022B2BD1DFF838
:1008300070395B681A00D2B212F03F031B040B61DF
:10084000DFF85C399B681B0E1A000B69D2B253EAC1
:1008500002230B61DFF848399B681B0C1A000B69F7
:10086000D2B213430B61DFF838399B681B0A1A00B8
:100870000B695B1C5FF40024A4FB0345C1E912452E
:100880004FF400730B65C2F380134B7612F03F03F5
:100890005B008B76DFF808399B681A008B7ED2B23A
:1008A00053EAD2138B7612F07F03CB76DFF8F03861
:1008B000DB681B0E1A00D2B2D3090B77C2F34113C7
:1008C0004B77C2F382038B7712F003039B00CB7745
:1008D000DFF8CC38DB681B0C1A00CB7FD2B253EAAE
:1008E0009213CB77C2F3401381F82030002381F8B4
:1008F000213012F0010381F82230DFF8A438DB68E0
:100900001B0A1A00D2B2D30981F82330C2F3801334
:1009100081F82430C2F3401381F82530C2F300136C
:1009200081F82630C2F3810381F8273012F00303E7
:1009300081F82830DFF86838DB681A00D2B2530833
:1009400081F82930012381F82A30DFF804381B6848
:100950001B0E1A0081F82C20DFF8F4371B681B0CE3
:100960001A00D2B21302CB85DFF8E4371B681B0AEA
:100970001A00CB8DD2B21343CB85DFF8D4371B6876
:100980001A00D2B213060B63DFF8C4375B681B0E84
:100990001A000B6BD2B253EA02430B63DFF8B03795
:1009A0005B681B0C1A000B6BD2B253EA02230B6379
:1009B000DFF89C375B681B0A1A000B6BD2B213433B
:1009C0000B63DFF88C375B681A0081F83420DFF89E
:1009D00080379B681B0E1A0081F83520DFF87037CE
:1009E0009B681B0C1A00D2B213068B63DFF86037CA
:1009F0009B681B0A1A008B6BD2B253EA02438B63CB
:100A0000DFF84C379B681A008B6BD2B253EA022393
:100A10008B63DFF83C37DB681B0E1A008B6BD2B29E
:100A200013438B63DFF82837DB681B0C1A0091F83F
:100A30003C30D2B253EA121381F83C30D2B212F0F9
:100A40000F031B02CB87DFF80837DB681B0A1A008D
:100A5000CB8FD2B21343CB87DFF8F436DB681A00B2
:100A6000D2B2530881F84030012381F84130C0B23E
:100A7000BDE8F003704738B504000025DFF8FC043A
:100A80000068032804D1272005002800C0B255E0E3
:100A9000DFF8E8040068002809D0DFF8E004006807
:100AA000012804D0DFF8D4040068022844D1B4F54A
:100AB000805F04D1272005002800C0B23EE0B4F5D5
:100AC000006F1DD1012000F09BFD0500EDB2002D4F
:100AD00032D1B84800210175B64800210160B548FF
:100AE00000214160B34800218160B2484FF40061A9
:100AF000C160B04800210161AE4801F077F81BE009
:100B0000002000F07DFD0500EDB2002D14D1A948B4
:100B100000210175A74800210160A648002141601D
:100B2000A44800218160A3480021C160A1480021A0
:100B30000161A04801F05AF82800C0B232BD38B5B2
:100B400004000025C3480460C24807214160C14831
:100B500040218160BF480021C160BE484FF48061E0
:100B60000161BC4801F063F8072000F011FC0500AA
:100B70002800C0B232BDF8B504000D0016000027F1
:100B8000DFF8F80700210170DFF8F40700210160A9
:100B9000DFF8F00700210160DFF8EC0700210160B9
:100BA000DFF8D8030068022803D14FF40070060074
:100BB0006D0AA848B6B20660A64810214160A54853
:100BC00040218160A3480021C160A2484FF48061A8
:100BD0000161A04801F02BF8102000F0D9FB0700BC
:100BE000FFB2002F02D03800C0B247E0DFF89C0708
:100BF0005FF0FF310160DFF89407B6B24660DFF8BE
:100C00008C0790218160DFF884070221C160DFF842
:100C10007C0700210161DFF8740701214161DFF8E1
:100C20006C0701F027F88B4805608A481121416064
:100C300088484021816087480021C16085484FF481
:100C400080610161834800F0F2FF112000F0A0FBF9
:100C50000700FFB2002F02D03800C0B20EE0012121
:100C600040F22A3001F024F8012001F01DF8B6B25C
:100C70003100200000F03AFF3800C0B2F2BD2DE98B
:100C8000F04104000D0016001F005FF00008DFF8BF
:100C9000EC0600210170DFF8E80600210160DFF8B2
:100CA000E40601210160DFF8E00600210160B3489D
:100CB0000068022803D14FF4007006006D0ADFF8C7
:100CC0003409B6B20660DFF82C0910214160DFF864
:100CD000240940218160DFF81C090021C160DFF890
:100CE00014094FF480610161DFF8080900F09FFFEB
:100CF000102000F04DFB80465FFA88F8B8F1000F35
:100D000002D04046C0B252E0DFF880065FF0FF310B
:100D10000160B6B206FB07F0DFF870164860DFF836
:100D20006C0690218160DFF864060221C160DFF863
:100D30005C0600210161DFF8540601214161DFF802
:100D40004C0600F097FFDFF8AC080560DFF8A40858
:100D500012214160DFF89C0840218160DFF894088F
:100D60000021C160DFF88C084FF480610161DFF879
:100D7000840800F05CFF122000F00AFB80465FFA56
:100D800088F8B8F1000F02D04046C0B20FE0012150
:100D900040F22A3000F08CFF012000F085FFB6B24F
:100DA00006FB07F1200000F0A1FE4046C0B2BDE8FE
:100DB000F0810000748F012038B500245FF0FF300F
:100DC0000500DFF83408006800280DD1DFF8B00511
:100DD0000068002808D1DFF8A4050078002803D1B6
:100DE000002D01D06D1EECE7DFF80C08002101603A
:100DF0005FF0FF300500DFF804080068800403D5C9
:100E0000002D01D06D1EF6E7DFF878050068012897
:100E100006D100F0A3F90400DFF8680500210160A5
:100E2000002D04D1E4B2002C01D10420040040F2D2
:100E3000FF5000F059FFDFF844050078002803D088
:100E4000DFF83805007801E02000C0B232BD0000B4
:100E5000708C0120BC8F0120F8B504000D00160035
:100E60000027DFF8180500210170DFF814050021C4
:100E70000160DFF8100500210160DFF80C0500219A
:100E800001603E480068022803D14FF4007006005C
:100E90006D0ADFF86007B6B20660DFF85807102168
:100EA0004160DFF8500740218160DFF848070021EA
:100EB000C160DFF840074FF480610161DFF834075B
:100EC00000F0B5FE102000F063FA0700FFB2002F1B
:100ED00002D03800C0B24DE0DFF818070560DFF837
:100EE000140718214160DFF80C0740218160DFF80A
:100EF00004070021C160DFF8FC064FF48061016146
:100F0000DFF8F00600F093FE182000F041FA070029
:100F1000FFB2002F02D03800C0B22BE0DFF86C0423
:100F20005FF0FF310160DFF86404B6B24660DFF8BD
:100F30005C0490218160DFF854040021C160DFF877
:100F40004C0400210161DFF8440401214161DFF814
:100F50003C0400F08FFE012140F22A3000F0A8FE90
:100F6000B6B23100200000F07BFD012000F09CFEB5
:100F70003800C0B2F2BD000000100240D490012041
:100F8000000010802DE9F04104000D0016001F0044
:100F90005FF00008DFF8E40300210170DFF8E003F0
:100FA00000210160DFF8DC0301210160DFF8D803D4
:100FB0000021016067480068022803D14FF40070E7
:100FC00006006D0ADFF82C06B6B20660DFF82406CC
:100FD00010214160DFF81C0640218160DFF8140613
:100FE0000021C160DFF80C064FF480610161DFF879
:100FF000040600F01CFE102000F0CAF980465FFADB
:1010000088F8B8F1000F02D04046C0B29DE05248C7
:1010100000680004DFF8DC150860DFF8D805372128
:101020004160DFF8D00540218160DFF8C80500216C
:10103000C160DFF8C0054FF480610161DFF8B405DD
:1010400000F0F5FD372000F0A3F980465FFA88F83C
:10105000B8F1000F02D04046C0B276E0DFF8940548
:101060000760DFF8900517214160DFF8880540210F
:101070008160DFF880050021C160DFF878054FF45A
:1010800080610161DFF86C0500F0D1FD172000F0F0
:101090007FF980465FFA88F8B8F1000F02D0404629
:1010A000C0B252E0DFF84C050560DFF848051921B1
:1010B0004160DFF8400540218160DFF838050021FC
:1010C000C160DFF830054FF480610161DFF824056D
:1010D00000F0ADFD192000F05BF980465FFA88F85A
:1010E000B8F1000F02D04046C0B22EE0DFF89C02FB
:1010F0005FF0FF310160B6B206FB07F0DFF88C123B
:101100004860DFF8880290218160DFF880020021CA
:10111000C160DFF8780200210161DFF8700201216F
:101120004161DFF8680200F0A5FD012140F22A309C
:1011300000F0BEFD012000F0B7FDB6B206FB07F1DE
:10114000200000F08DFC4046C0B2BDE8F0810000F8
:101150002C900120D4900120D890012010B50024BB
:10116000DFF8900400210160DFF888040C21416061
:10117000DFF8800440218160DFF878040021C1603D
:10118000DFF870044FF480610161DFF8680400F05B
:101190004EFD0C2000F0FCF804002000C0B210BD91
:1011A0001C90012038B504000025002C04D1262015
:1011B00005002800C0B22BE0DFF8E4070068000457
:1011C000DFF830140860DFF82C040D214160DFF8EF
:1011D000240440218160DFF81C040021C160DFF895
:1011E00014044FF480610161DFF8080400F01FFD72
:1011F0000D2000F0CDF80500EDB2002D02D0280042
:10120000C0B205E0002000F02AFD20602800C0B236
:1012100032BD80B54FF4807000F069FD00280AD01F
:101220005648002101704FF4807000F06DFD544865
:10123000012101603CE0022000F059FD002806D0A9
:10124000022000F061FD4D480221017030E00820CD
:1012500000F04DFD002806D0082000F055FD47485D
:101260000421017024E0202000F041FD002806D078
:10127000202000F049FD41480621017018E01020AF
:1012800000F035FD002806D0102000F03DFD3B4861
:10129000052101700CE04FF4007000F028FD0028DB
:1012A00006D04FF4007000F02FFD34480721017084
:1012B00000214CF23A3000F0FBFC3048007802BDCF
:1012C00080B5DFF8B808006810F0C05F08D0CA48E1
:1012D000012101605FF0C251DFF8A40800F0C0FEF8
:1012E00001BD000038B500245FF480300500002DFA
:1012F00006D0802000F0EBFC002801D16D1EF6E73F
:10130000002D04D1032004002000C0B205E040F20B
:10131000FF5000F0E9FC2000C0B232BD70B50024DF
:101320005FF48035DFF850080068060016F04500CD
:10133000002807D1002D05D06D1EDFF83C0800689D
:101340000600F3E7002D02D03000400707D5032048
:101350000400042000F0C8FC2000C0B20CE0300003
:10136000400607D500200400402000F0BDFC20000E
:10137000C0B201E02000C0B270BD0000AB910120FE
:10138000E0900120DC9001202C2C01408C8F01206A
:10139000F8B50400002599480068060016F04500DD
:1013A000002803D1954800680600F7E730004007A1
:1013B00007D503200500042000F096FC2800C0B2E9
:1013C00072E03000C00707D501200500012000F0C1
:1013D0008BFC2800C0B267E000F03DFCE4B2A04204
:1013E00004D0102005002800C0B25DE040F2FF509C
:1013F00000F07AFC002000F032FC0700DFF88407E0
:10140000074202D12800C0B24EE0002F01D51C20B7
:101410004AE0780001D5092046E0B80001D50A204D
:1014200042E0F80001D50B203EE0380101D50C2048
:101430003AE0780101D50D2036E0F80101D50E2003
:1014400032E0380201D50F202EE0780201D51020BD
:101450002AE0B80201D5112026E0F80201D51220B9
:1014600022E0380301D513201EE0780301D51420B3
:101470001AE0B80301D5152016E0F80301D51620AF
:1014800012E0380401D517200EE0780401D51820A9
:101490000AE0B80401D5192006E03800000701D59C
:1014A0001A2001E02800C0B2F2BD38B50024DFF8F0
:1014B000C8060068050015F04500002804D1DFF8D3
:1014C000B80600680500F6E72800400707D50320A6
:1014D0000400042000F008FC2000C0B205E040F247
:1014E000FF5000F001FC2000C0B232BD38B500242E
:1014F000DFF884060068050015F04500002804D1D7
:10150000DFF8740600680500F6E72800400707D5F5
:1015100003200400042000F0E7FB2000C0B210E02C
:101520002800C00707D501200400012000F0DCFBE3
:101530002000C0B205E040F2FF5000F0D5FB2000D3
:10154000C0B232BD2DE9F04104000D000026DFF8E5
:1015500028060068070017F04500002804D1DFF8CE
:10156000180600680700F6E73800400707D5032093
:101570000600042000F0B8FB3000C0B238E03800AC
:10158000C00707D501200600012000F0ADFB3000A8
:10159000C0B22DE000F05FFBE4B2A04204D0102006
:1015A00006003000C0B223E040F2FF5000F09CFB88
:1015B000002000F054FB80464FF4604018EA000F12
:1015C00005D15FEA184028803000C0B210E05FEA21
:1015D000884001D513200BE05FEA484001D5102078
:1015E00006E05FEA084001D50F2001E03000C0B2FC
:1015F000BDE8F081BC8F0120E4900120342C014033
:1016000030B583B00400002500A80021002206C0E8
:101610000838002000F023FB800104D50E200500CF
:101620002800C0B2B7E000A9DFF87403006880B2F8
:1016300000F0B2F80500EDB2002D02D02800C0B2D3
:10164000A9E0E4B2012C53D1019840034BD5DFF857
:10165000500300680004DFF830150860DFF8280543
:1016600037214160DFF8200540218160DFF818054F
:101670000021C160DFF810054FF480610161DFF8DF
:10168000080500F0D4FA3720FFF782FE0500EDB21E
:10169000002D02D02800C0B27DE0DFF8EC0402216A
:1016A0000160DFF8E40406214160DFF8DC0440213A
:1016B0008160DFF8D4040021C160DFF8CC044FF46E
:1016C00080610161DFF8C00400F0B1FA0620FFF785
:1016D0005FFE0500EDB2002D02D02800C0B25AE036
:1016E0002800C0B257E0252005002800C0B252E013
:1016F0000198C0034BD5DFF8A80200680004DFF8AA
:1017000088140860DFF8800437214160DFF878042E
:1017100040218160DFF870040021C160DFF86804B7
:101720004FF480610161DFF8600400F080FA372037
:10173000FFF72EFE0500EDB2002D02D02800C0B24A
:1017400029E0DFF8440400210160DFF83C040621B1
:101750004160DFF8340440218160DFF82C0400216F
:10176000C160DFF824044FF480610161DFF81804E0
:1017700000F05DFA0620FFF70BFE0500EDB2002D2C
:1017800002D02800C0B206E02800C0B203E0252045
:1017900005002800C0B23EBDF0B583B004000D00C6
:1017A0000026002700A80021002206C00838DFF824
:1017B000D80308210160DFF8D00310214160DFF871
:1017C000C80340218160DFF8C0030021C160DFF859
:1017D000B8034FF480610161DFF8AC0300F027FA31
:1017E0001020FFF7D5FD0700FFB2002F02D0380010
:1017F000C0B2D3E06A4800680004DFF88C130860C8
:10180000DFF8840337214160DFF87C0340218160E9
:10181000DFF874030021C160DFF86C034FF48061CE
:101820000161DFF8640300F002FA3720FFF7B0FD32
:101830000700FFB2002F02D03800C0B2AEE0DFF8E0
:101840004C035FF0FF310160DFF840030821416085
:10185000DFF8380330218160DFF830030221C160F6
:10186000DFF8280300210161DFF820030121416135
:10187000DFF8180300F0FEF9DFF80C030021016027
:10188000DFF8040333214160DFF8FC02402181606E
:10189000DFF8F4020021C160DFF8EC024FF4806150
:1018A0000161DFF8E40200F0C2F93320FFF770FDB8
:1018B0000700FFB2002F02D03800C0B26EE0AE4881
:1018C000006840F22A6108420CD15FF4001000F079
:1018D000FEF90028F3D000F0E4F900A941F8260051
:1018E000761CECE7082000F0F2F9002807D0082069
:1018F00000F0FAF9042007003800C0B24EE00220E0
:1019000000F0E5F9002807D0022000F0EDF90220F0
:1019100007003800C0B241E0202000F0D8F90028CC
:1019200007D0202000F0E0F9062007003800C0B200
:1019300034E04FF4007000F0CAF9002808D04FF4EA
:10194000007000F0D1F9072007003800C0B225E090
:1019500040F2FF5000F0C8F90098009911F47F415F
:10196000090251EA00600099090A11F47F41084315
:10197000009950EA116068600198019911F47F4163
:10198000090251EA00600199090A11F47F410843F4
:10199000019950EA116028603800C0B2FEBD000015
:1019A000D890012000B583B001211C2000F043FC39
:1019B0000C220821764800F02FFA0C2209217448E5
:1019C00000F02AFA0C220A21714800F025FA0C22B4
:1019D0000B216F4800F020FA0C220C216C4800F01B
:1019E0001BFA0C2202216B4800F016FA4FF47060CB
:1019F000009001208DF8050002208DF804000020E1
:101A00008DF8060001208DF8070000A9604800F05D
:101A10009FF90420009000A95E4800F099F94FF466
:101A20008050009000208DF8070000A9584800F071
:101A30008FF90420009000208DF8040001208DF81B
:101A4000070000A9544800F083F901214FF4006019
:101A500000F00FFC01215FF4800000F0ECFB07BDFB
:101A600030B58FB004000D005FF0FA51444800F02B
:101A7000F7FA0021424800F0DAFA414800F00AFA89
:101A80005FF0006000904548019002944020039070
:101A900000200490002005904FF4806006904FF4E1
:101AA0008050079000200890002009905FF440309B
:101AB0000A9004200B9003200C905FF400000D901E
:101AC0005FF400100E9000A92D4800F084FA012266
:101AD00010212B4800F0D6FA2021294800F0B4FA52
:101AE0000121274800F0A3FA0FB030BD30B58FB008
:101AF00004000D005FF0FA51214800F0B1FA002116
:101B00001F4800F094FA1E4800F0C4F95FF000602E
:101B1000009022480190029400200390002004903D
:101B2000002005904FF4806006904FF4805007909D
:101B300000200890002009905FF440300A900420B3
:101B40000B9003200C905FF400000D905FF40010E8
:101B50000E9000A90A4800F03EFA01221021084820
:101B600000F090FA2021064800F06EFA01210448A6
:101B700000F05DFA0FB030BD342C0140006402402B
:101B80005864024008E0FFFDBC8F01208C8F0120CB
:101B900000080240000C024000100240802C01406E
:101BA00080B531208DF8000000208DF80100002064
:101BB0008DF8020001208DF8030000A800F08FFBD3
:101BC0003B208DF8000001208DF8010000A800F0F6
:101BD00086FB01BD80B501214FF4006000F058FB89
:101BE00000214FF4006000F053FB01BD0021484A82
:101BF00012681100474A1140027D83681A43436806
:101C00001A43C3681A4303681A4303691A4311430A
:101C10003F4A116070474049C0B2086070473F4971
:101C2000086070473D48006810F0030070470021CD
:101C30003B4A036813603B4A12681100C90AC90293
:101C4000426883681A43C3681A4303691A431143FD
:101C5000344A1160704734480068C0B2704781B0A0
:101C60000100002000903148401800900098006862
:101C700001B0704700212E4A0368136042682D4B63
:101C80001A602D4A1268110031F0F7018268C368AA
:101C90001A4303691A4343691A431143264A1160E0
:101CA00070472648006870472549C0B208607047F1
:101CB000C9B2002905D0234A12680243214B1A6099
:101CC00004E0204A126882431E4B1A6070470100EC
:101CD00000201D4A12680A4202D00122100001E0D1
:101CE00000221000C0B27047184908607047010018
:101CF0000020154A12680A4202D00122100001E0B9
:101D000000221000C0B27047104908607047000000
:101D1000042C01400081FFFFA0802542002C0140DF
:101D2000082C01400C2C0140102C0140142C0140C7
:101D3000242C0140282C01402C2C0140802C0140F7
:101D40008C8525423C2C0140342C0140382C01402C
:101D5000F0B400220023002400252A00102A4AD2D1
:101D6000012595402B000D681D402C009C4240D160
:101D7000056803261700FFB27F00BE40B54305602B
:101D800005680E791700FFB27F00BE40354305603D
:101D90000D79012D02D00D79022D1AD18568032607
:101DA0001700FFB27F00BE40B543856085684E795D
:101DB0001700FFB27F00BE403543856045680126AD
:101DC0009640B543456045688E799640B6B2354336
:101DD0004560C56803261700FFB27F00BE40B543CB
:101DE000C560C568CE791700FFB27F00BE4035439D
:101DF000C560521CB2E7F0BC7047020000201369B6
:101E00009BB20B4202D00123180001E0002318000E
:101E1000C0B2704701837047F0B400230024D2B2EF
:101E200011F00705EDB2AD0012FA05F52B0089B2ED
:101E3000CD1010EB850589B2CE1010EB8606366A00
:101E40000F2711F0070C5FFA8CFC5FEA8C0C17FA75
:101E50000CF7BE432E6289B2CD1010EB85052D6ABA
:101E60001D432C0089B2CD1010EB85052C62F0BC0F
:101E7000704750F8041B61B150F8042BD30744BFDE
:101E8000A9F101039A18002342F8043B091FFAD173
:101E9000EFE77047016849084900016000210160CF
:101EA00000214160002181600021C16000210161A9
:101EB00021214161DFF81012884204D1DFF80C12B1
:101EC0003D220A6086E0DFF80812884205D1DFF87B
:101ED000FC114FF474620A607CE0DFF8F81188426C
:101EE00005D1DFF8E8115FF474120A6072E0DFF8E0
:101EF000E811884205D1DFF8D4115FF074620A60FE
:101F000068E0DFF8D811884205D1DFF8D411DFF896
:101F1000D4210A605EE0DFF8D011884205D1DFF8F5
:101F2000C011DFF8C8210A6054E0DFF8C41188420C
:101F300005D1DFF8AC11DFF8BC210A604AE0DFF818
:101F4000B811884205D1DFF898115FF03D520A6060
:101F500040E0DFF8A811884204D1DFF8A4113D2247
:101F60000A6037E0DFF89C11884205D1DFF8901154
:101F70004FF474620A602DE0DFF88C11884205D1BD
:101F8000DFF87C115FF474120A6023E05F49884235
:101F900004D15B495FF074620A601BE05C498842CF
:101FA00003D15C494F4A0A6014E05B49884203D17F
:101FB00058494E4A0A600DE05849884203D15549B4
:101FC0004C4A0A6006E05649884203D151495FF005
:101FD0003D520A60704710B4002203681A00514B4A
:101FE0001A400B68CC6823434C6923438C69234314
:101FF000CC6923430C6A23434C6A23438C6A2343F2
:102000004C6B23438C6B23431A43026043691A00D1
:10201000D208D200CB6A0C6B23431A4342610B698E
:1020200043604B6883608B68C36010BC7047C9B263
:10203000002904D0026852F00102026003E0026845
:102040005208520002607047002904D0026852F022
:102050002002026003E0026832F020020260704752
:10206000264B984202D2304B1A0001E02F4B1A0047
:102070008B0003D52E4B0B40D36002E02C4B0B4062
:102080009360704710B40B001B060BD5D2B2002A28
:1020900004D0436953F08003436103E0436933F0A4
:1020A0008003436180290DD0D2B2002A05D0036895
:1020B00011F01E042343036004E0036811F01E04C2
:1020C000A343036010BC70471060024008600240E8
:1020D0002860024040600240586002407060024048
:1020E0000C6002403D00002088600240400F00204C
:1020F000A060024000003D20B86002401064024031
:10210000086402402864024040640240586402406F
:10211000706402400C64024088640240A064024083
:10212000B86402403F801CF000600240006402403E
:102130007D0F7D0FF0B40021002200230224002532
:102140000226DFF86C713F6817F00C0739000F00AA
:10215000002F04D0042F06D0082F08D03CE0DFF871
:10216000587107603BE0DFF85471076037E0DFF833
:1021700044713F68C7F380573D00DFF838713F680E
:1021800017F03F073E00002D0DD0DFF83071B7FB90
:10219000F6F7DFF820C1DCF800C0CCF3881C0CFB9C
:1021A00007F73B000CE0DFF81071B7FBF6F7DFF83C
:1021B00004C1DCF800C0CCF3881C0CFB07F73B0023
:1021C000DFF8F0703F68C7F301477F1C7F003C00D9
:1021D000B3FBF4F7076002E0DFF8DC700760DFF8BC
:1021E000D0703F6817F0F00739000909DFF8D070A8
:1021F000CF5D3A000768D7404760DFF8B4703F68AA
:1022000017F4E0573900890ADFF8B470CF5D3A005F
:102210004768D7408760DFF898703F6817F46047D9
:102220003900490BDFF89870CF5D3A004768D74016
:10223000C760F0BC7047C9B2002905D0214A1268B6
:102240000243204B1A6004E01E4A126882431D4B71
:102250001A607047C9B2002905D01B4A12680243B0
:10226000194B1A6004E0184A12688243164B1A6030
:102270007047C9B2002905D0144A12680243134BB3
:102280001A6004E0114A12688243104B1A607047CA
:10229000C9B2002905D00E4A126802430C4B1A60DD
:1022A00004E00B4A12688243094B1A607047000031
:1022B00008380240043802400024F40040787D01D0
:1022C0000C060020303802403838024044380240C2
:1022D000243802401C4901431C4A11607047F0B485
:1022E000002300210F22C478002C21D0174C246831
:1022F00014F4E064D4F5E064240A2300D3F1040468
:102300002100D2B21A4144788C40230084781440D2
:1023100023431B0104780E4D6355047864110D4D61
:102320000126077817F01F07BE4045F8246009E032
:1023300004786411084D0126077817F01F07BE4086
:1023400045F82460F0BC70470000FA050CED00E091
:1023500000E400E000E100E080E100E090F885109A
:1023600041F00101A6E138B5044604F1440594F8B2
:102370008500C0070ED5606C01F00EFF009001F0E3
:10238000BBFFE88001F071FA94F8850000F0FE00D0
:1023900084F88500E88832BD1CB50C4600A901F020
:1023A000B8FFBDF90400BDF90010401A94F8871079
:1023B000A0EB4100401E16BD70B5044682B0606CB3
:1023C0000D46002601F0E8FE0090B4F84C1002F033
:1023D00030F800994018854204D2411B284602F08B
:1023E0003AF8064601F041FA304676BDF4B50D469E
:1023F000FFF7D2FF044695F8840005F184068006B5
:1024000029D500992846FFF7D7FF074600F028F89E
:102410000546BD4222DB307A18B9009801F06CFF06
:102420001BE000983D46394602F086F806460098C3
:10243000394601F0FEFF00994018009000A801F015
:10244000E7FF58B12A2002F044F986190DB1B442D1
:1024500004DB6D1CF2E700F003F805462846F2BDE8
:10246000327A0098214602F0B3B9F8B50D46044619
:1024700095F8840016461946800612D5314628463E
:10248000FFF79AFF0746324629462046FFF7AEFF80
:1024900001F0E0F9BC420BDA815D0A2908D1401C49
:1024A000F2BD95F88C203046BDE8F84002F0BCB98A
:1024B000F2BD70B504460D461646FFF76DFF0346A4
:1024C000324629462046BDE87040CEE738B504467E
:1024D0000D46FFF771FF94F88410890602D508B9FC
:1024E0002A2002E0284601F071FFBDE8324002F0E8
:1024F000F0B82DE9F84389468046D9F844001646DD
:102500001C4601F049FE0746276009F14404A08BF0
:10251000B04214D004D2618BA683CD19361A08E0DC
:102520003D46A68305E02A4649464046FFF7C1FFDF
:1025300045193046461E0028F5D1E81B6083608BA4
:10254000C019BDE8F28300F25E0100224A80A0F8C3
:102550005E20CA808A8070472DE9F84580468A4609
:1025600016461946002701F0CBFABAF85E10841916
:10257000814204DABAF860708E1900E007463078BC
:10258000C8B1A64217D2324651464046FFF72EFF49
:1025900001F0B5FA8519324651464046FFF789FFEA
:1025A0008619781CA542E9D3AC4208BFB54202D1D6
:1025B000317801B107463846BDE8F2852DE9FC4F78
:1025C0000C4604F184058046687883B004F1440623
:1025D000000762D50027F06BBB4602F02FF9606C54
:1025E000002850D001F0D8FD0090B18A0818019061
:1025F00000A8B6F810B001F0DAFD02AB5A46214649
:102600004046FFF776FF009094F8840080060FD5CF
:1026100000980199884234D201462046FFF756FFC0
:10262000C719009801F0C8FE009940180090EFE724
:1026300021464046FFF7B0FEDDF800A0814605E0E8
:102640007F1C01F0B9FE0099401800900098019994
:102650008842F5D3524621464046FFF7C7FE04465E
:1026600022463946504602F02AF90746708C012866
:1026700007D109EB07082146504601F05DFFA8EBA2
:10268000000700F04EFBF78202F018F81BFB00F089
:102690003083687800F0F70068700399B6F9160087
:1026A00008600499308B086001F017BA90F8851023
:1026B00041F0080180F88510704770B588B000F0CF
:1026C0002CF9009000F1680268CA04A9743068C14E
:1026D0002CC801A900A82CC101F069FD01AA04A918
:1026E000204602F07AFA08B070BD10B584B000F050
:1026F00014F900F0CBFA00F0C4FA019991FBF0F064
:1027000001900146009800230022683002F024FB6B
:102710000098B0F86600012806D100992046FFF71E
:102720003BFE0299401A02901E23009802991E2235
:10273000743002F011FB01F098F82046FFF7BDFF5E
:102740001FBD2DE9F84F0D4605F1840681467078CE
:1027500005F14407400739D50020B881686C88B37B
:10276000F86B02F06BF8686C01F016FD0090804683
:1027700000F02FF8834695F884000024C2468006B6
:102780000ED55FEA0B00ABF1010B0ED05146284687
:10279000FFF79CFE0419504601F00EFE8244F0E75C
:1027A0005946504601F0C8FE0446B889A042B8BF59
:1027B000BC8100F056F8804498F800000028D7D17A
:1027C00001F053F8707800F0FB007070B889BDE834
:1027D000F28F42462946484608E61CB50C4600A939
:1027E00001F097FDD4F8800002F0D8FABDF9061088
:1027F000BDF90220891A491C91FBF0F016BD2DE9A4
:10280000F8430D46814695F8850005F1440680079A
:1028100024D5686C0027C8B101F0BEFC009080464A
:10282000F06B02F00BF8FFF7D4FF0146404601F0D1
:1028300000FE404401F0CAFD040018BF7F1C00F0F8
:1028400010F88044002CEED101F00FF8781C708154
:1028500095F8850000F0FD0085F885007089BDE8D9
:10286000F28342462946484623E690F8851041F017
:1028700002011FE790F8851041F004011AE710B536
:1028800082B000F04AF8009001462046FFF7B7FFFB
:102890000099886620460099FFF79FFF0099086716
:1028A00020460099FFF74DFF0099486720460099A0
:1028B000FFF772FD0099C86700F0D7FF2046FFF7C9
:1028C00014FF13BD38B500F028F8009090F884008C
:1028D00000071FD500992046FFF77FFF05460099A6
:1028E0002046FFF78CFF8542B4BF0125002500F08C
:1028F000BCFF2946204602F07FFAA8420CD001F026
:1029000037F90090FFF7B1FF01F0EAF800F09FFF00
:1029100000F05FFB00F0A9FF31BD044601F03CBCB4
:1029200038B50446FFF7CEFF01F022F9009090F889
:102930008400C00618D500992046FFF72DFD0546F6
:1029400000992046FFF7FDFE8542B4BF0125002512
:1029500000F08BFF2946204602F044FAA84205D039
:102960002046FFF7AFFF01E000F07FFF2046FFF7B2
:1029700086FF31BD10B50446FFF7D2FF2046BDE803
:10298000104002F079BD1CB50446FFF7C9FF00A94D
:10299000204601F0BEFC00A9204602F02DFD13BD2B
:1029A00070B582B004000D46164611D003F0EEFA61
:1029B00001F0DEF80090002D90F8840014BF304341
:1029C000B043009900F04FFF01F0ECF803F0D6FAA5
:1029D00073BD2DE9FE4F8B468146DBF844009046DF
:1029E0001E46002853D001F0D7FB00905846FFF751
:1029F000BAFC0BF14407014638898045B8BF8046D0
:102A00004145D8BF88460098414601F012FD00F0CC
:102A100040F882460098251802AB5246594648466F
:102A2000FFF767FD854227D200210191798A414550
:102A3000B8BF054610DB01ABAAF101025946484672
:102A4000FFF757FD07463A465946FFF7C4FE0146D1
:102A5000384601F0EEFCC5190098291A01F0FBFC7C
:102A60008046019808B100F0FBFE0098414601F055
:102A7000E0FC00F00EF8824600F053F900F0F5FE9D
:102A800006B134600C9808B1C0F800A04046BDE81B
:102A9000FE8F0446009A4346594648465CE530B5E9
:102AA00085B004460D4601F077FB019002A8009026
:102AB00003AB01992A462046FFF78BFF0199543159
:102AC0004A8882420FD0039A8A80488001980299EE
:102AD000A0F854100198FFF7E9FD00F0C1FE204670
:102AE000FFF703FE01E000F0BBFE05B030BD70B59E
:102AF00082B004460E4600251CB303F047FA01F0ED
:102B000037F8009090F88C50B54216D080F88C6061
:102B100000F05FFA01F026F800F0E2FF00F0A5FEF9
:102B200001F040F801F024F800904FF6FF72B0F881
:102B30005610A0F8562001F055F800F096FE03F06C
:102B40001DFA284676BD2DE9F04F9146002483B04A
:102B500080460D461E46A246B9F1000F58BF002E12
:102B600060D4686C00285AD005F14404E06B01F091
:102B700065FE01F0A3FD96FBF0F201AB294640464D
:102B8000FFF7B7FC0646686C01F006FB0090324682
:102B900029464046FFF72AFC0746394600F0B0FFB9
:102BA000DFF8541B801909680968884795F8842064
:102BB000791C920601D558B909E0002818BF0A28E7
:102BC00005D0202804BF95F88C00012800D10F46BD
:102BD000608C012810D129464046FFF7DDFB834673
:102BE0003946304601F0A8FCA9EB0B014018616B97
:102BF000B0EB410948BFD14695F88400800617D450
:102C00000098311A01F027FC05463A4649463046FD
:102C100001F05BFE441900F023FE00F026FE214681
:102C200000F091FDBDE8F78F304601F0C5FB861935
:102C30007F1E012F0BDB304601F0C8FB04463146F6
:102C40002846FFF743FC82440CB1D145ECDA0098EA
:102C5000311A01F000FC0446DDE710B584B0FFF73F
:102C60005CFE00F013F800F00CF801994018019098
:102C70000346009900222046FFF765FF00F0F5FDAE
:102C80001FBD0098D0F8800002F088B8009001467F
:102C900001AB02AA204691E4FEB50546002401F0EE
:102CA0007BFA0190406C002837D0019991F884108C
:102CB000490732D401F070FA029006460198019952
:102CC000B0F85470019800940023B0F85600421CEC
:102CD0002846FFF77EFE0346019932462846FFF755
:102CE0003BFC05460198B0F85800801901F06EFBD6
:102CF000064600F016F886B1AF420DD0019890F864
:102D00008400800608D40A2E07D0202E04D1019812
:102D100090F88C00022800D1012400F0A1FD20468B
:102D2000FEBD02A801F043BAF8B50D46164605F1FE
:102D30004404DFF8C879FFF7AFFF60B3DFF8C019CC
:102D4000686C0968012917D195F88410890615D493
:102D500001F022FADFF8AC390090628AE1881B6842
:102D60009847628AE1883B6805460098984730603A
:102D7000284601F0AEFC09E00021316001F00CFAB8
:102D80000090A18A09182846FFF7A0FB044600F02E
:102D90006CFD2046F2BDDFF86809006801280AD101
:102DA000686C01F0F9F90090628AE1883B68984705
:102DB000306000F05AFD0220F2BD7CB506460C469C
:102DC00001F0EAF90090456CB0F8520014FA80F472
:102DD00000F04BFD2146284603F058F9050016D0B7
:102DE000304601F0D9F90090406C38B9284601F01E
:102DF000D3F901900021017000F032FD0098A0F895
:102E000052400098456400F030FD012076BD00205E
:102E100076BD7CB504460D46002601F0BDF9009054
:102E2000406C30B101F0B8F9019003F05DF900F0A9
:102E300016FD00997019B1F85210401C451A00F0A7
:102E400014FD012D05DB05F110012046FFF7B5FF4C
:102E500000B1012076BD38B50C46012501F09CF982
:102E60000090012C10DBB0F8480068B100990020F8
:102E7000496C11B10098FFF776FA00990019B1F882
:102E800048108142B8BF002500F0EFFC284632BD53
:102E9000FEB5FFF742FD0090406C002856D001F0CF
:102EA0007BF901900098B0F85850019803F01CF994
:102EB000854249D201982D1800980146B0F8542057
:102EC00002AB2046FFF715FB064600993246204626
:102ED000FFF78CFA00F013FE87190099324620465E
:102EE000FFF7E7FABD4202D18019C61B03E028466E
:102EF00001F062FA0646FFF714FF3146284601F05A
:102F0000AAFA07467119284603F00AF900F0ADFC49
:102F100000F05BF800F02CFE0090B0F84A00009939
:102F2000C01B00F01DFE00F0DBFD00F090FC00F087
:102F300050F80098019AB0F8563001462046FFF745
:102F40000BFB0099A1F8540000F08AFC00F08DFC06
:102F5000F7BDF0B50D4683B004460121FFF77BFFB6
:102F6000002830D0284601F04FFA06463146204668
:102F7000FFF74FFF38B300F0FBFD00F079FC00993C
:102F80000190B1F858100F18384603F0ADF8421C04
:102F90003946F01903F0E6F82946384601F024FADC
:102FA00000F05EFC00980099B0F84A00401C00F068
:102FB000D7FD00F095FD00F00CF800F056FC00F095
:102FC00004F80120FEBD0020FEBD0521204603F0CF
:102FD00005B90098FFF7B7BA2DE9FF410446002074
:102FE000019000F0C5FD00F000FE05460098866FD8
:102FF000C76E204603F0FCF880B300980099C06AC1
:1030000091F8871000684118A1EB060805FB170727
:10301000009902AB03AA2046FFF7D0FA009901AA53
:103020002046FFF781FE01460398019A404402B111
:10303000401A09184A1E0299009C79186B18B4F8B6
:1030400066405B1E012C03D110EB460012EB4602DA
:103050001BB212B209B200B203F0DAF800F005FCBC
:10306000BDE8FF812DE9F14F8A460AF12C058AB0AF
:10307000686D01F0E3FB01F021FB0990E86C04901E
:10308000DAF82C002E6CD0F800900AF18400C07899
:1030900003909AF8840000F001000AEB8007786B37
:1030A00003F00CFCF86B03F00DFC03F059FC0398E3
:1030B000ADF81A9000EB09040A98ADF8184003F037
:1030C000EFFCA0EB09000399401A401EADF81C006C
:1030D0000A9803F0F5FCA0EB0900401EADF81E00B5
:1030E00006A803F005FD0890A869002800F0978065
:1030F0000A9800275146FFF74FF983460A98514630
:10310000FFF76BFB0590A86901F046F80290804636
:1031100004980399ADF80290201AADF8000009EB6D
:103120000B000818401EADF80400BAF80600BAF803
:103130000210401A401CADF80600E88E864203DB00
:10314000298F09B188440746688F01280BD1BDF843
:10315000000004990818ADF80000BDF804000499B7
:103160000818ADF80400E88EB04207D0B74205D188
:103170000298A8EB00002887EE8601E0B7423DDB0D
:10318000B91B0598884239DB0A9842465146FFF739
:103190002DF981469AF88400800623D50024414603
:1031A0005046FFF709F98346D945B4BFCB46A9EB92
:1031B0000B045B46002200A9404603F049FD594636
:1031C000404601F0B9F99CB1BDF80010BDF90220EC
:1031D000411809B22A2003F0ADFD611E2A2003F038
:1031E000BDFD05E06A8F4B4600A9404603F030FD67
:1031F000BDF8020009990818ADF8020042460A9885
:103200005146FFF756F980447F1C404601F0DEF836
:1032100018B10598B91B8842A5DAFFF782FD0A9814
:1032200003F0A6FD40B10A98FFF7D6FE0AF184002C
:103230000021406803F02EFE089803F059FC504628
:1032400001F05AFD0BB0BDE8F08F2DE9F843D668C8
:1032500080460D460EB3307AE8B1E86A05F12C04D9
:1032600007683068E16C081895F88710C01BA0EB60
:103270000109606D01F092FD7168226C00FB021083
:10328000C31B4A4629464046FFF75DFC4046FFF710
:1032900071FB012102E0022100E003214046BDE86C
:1032A000F44302F09BBF2DE9F24F90B08046002618
:1032B000002703F05DFD98B9BDF84000112802D049
:1032C000132803D00FE2DFF8405401E0DFF83C544C
:1032D0002800F7D0404603F02CFEA847012003E267
:1032E00000F04EFA00F0C4FADFF8141407900098CA
:1032F00009684C30002903BFB0F90E10C26A8D1A5C
:1033000000250099B1F84C10ADF82410406B01F085
:1033100043FD009958318A88496900FB112A00F061
:103320001AFA01F0D6F90A900098C06E0F90009832
:103330006C30C1680E910099B1F856100691009951
:10334000B1F84E10ADF82610009991F88C100C9140
:10335000047E00994046FFF71FF80B90431B00F0D6
:1033600001FA834607A800F022FF0A9810B900F07E
:1033700002FA0A9000F079FA0698411E00F101095C
:10338000BDF84000082867D00D2800F0888010287C
:103390003BD011280FD0122831D013281DD0172868
:1033A0004AD0182837D01B2800F09F801D2863D0F2
:1033B0001E285BD083E000F0E3F900F0BCF900F0D8
:1033C000AEF90599049A081A059000F0BFF900F0CB
:1033D00047FA00F08CF910D15FE000F0D1F900F06D
:1033E000A3F900F09CF90499059A4018049000F0A4
:1033F000ADF900F035FA00F07AF975D14DE000F042
:10340000A1F900F074F96FD147E000F09CF900F0E9
:103410006EF969D141E000F0B3F900F08CF9059B39
:10342000019947F6FF724046FFF78DFB00F018FA4E
:1034300000F05DF958D130E000F0A2F900F074F925
:10344000049B019900224046FFF77DFB00F008FA3B
:1034500000F04DF948D120E0E00746D4BDF8240043
:10346000069A904240DA00F06EF901E0E0073CD4A1
:103470004046FFF70DFD37E000F082F9009061074C
:1034800090F88400009954BF40F0040000F0FB0065
:1034900000F0E9F99A48006830BB012624E0E00713
:1034A00009D40A214046FFF754FDE8B1A00619D41B
:1034B0000C98012816D04046FFF7CFFB14E0E00738
:1034C00013D4BDF8400020280FD34046FFF7E4FB9B
:1034D00010B14046FFF7DCFCBDF840104046FFF756
:1034E00038FD08B100F02EF901274046FFF718FA21
:1034F00002A9404600F00DFF00F042F900F0B8F9D3
:10350000079000982C30B0F92E1008910099048E85
:10351000C96A09680491418CADF82410009991F8AA
:1035200087100591406D01F037FC089A814600989C
:1035300000F15801086A121A0692496901910E9920
:10354000884202BF01980F9988420CBF01220022D5
:103550006B480168002947D1164245D000F0FBF8BE
:1035600001F0B7F808B900F006F906998D42B4BF2A
:10357000ADF80850ADF80810049A059BBDF8081086
:103580009A185118ADF80810069940180A99491967
:10359000401E491E8842B4BFADF80C10ADF80C00B7
:1035A0000499BDF80C0059180818ADF80C000198E2
:1035B00009FB10408245B4BFADF80AA0ADF80A007F
:1035C000BDF80A10049A5118ADF80A105045B4BF5E
:1035D0000AEB09004844401EADF80E00BDF80E008D
:1035E0001018ADF80E0075E0002A73D0A2450498BB
:1035F000B4BF50440019049AADF80A000598101899
:10360000ADF80800002965D10B980699431A00F01F
:10361000A9F808998D42D8BF29460C9A1AB1022AF6
:1036200010D01DD356E0BDF84000082803D00D2867
:1036300050D01E2833D1BDF82600BDF8242090427A
:1036400048D12CE0BDF840200D2A43D01E2A02D1DB
:1036500058453FDA17E0584508BF54453AD11EE0B7
:10366000BDF84020082A04D00D2A05D01E2A0ED00D
:103670001BE008998D4202DA54452BD11AE05845D7
:1036800008BF544526D1BDF80A00089909E05845FD
:1036900002DA544503DA1DE008BF54451AD1BDF8DB
:1036A0000A0000F035F8081812E0544512D10899C4
:1036B000A94206DABDF80A00A0EB0900ADF80A003D
:1036C00008E0834506D1BDF80A0000F021F828186B
:1036D000ADF8080007A800F06AFD00F0C6F802A9DE
:1036E000404601F089FE384611B0BDE8F08F04482D
:1036F0000068002870470000200600207C9101200F
:103700007491012078910120B5920008BB920008C5
:103710004844401EADF80E00BDF8080070470198FF
:10372000D0F8800001F03ABB0190014604AB05AA35
:103730004046FEF743BF0190014605AB04AA404650
:10374000FEF73CBF49464046FFF7A9B90346019939
:103750004046FFF7F8B900980799B0F858004018AC
:1037600000F034BE00980799B0F85800421800994C
:103770004046FEF77ABE00990DAA4046FFF7D4BA3C
:10378000404600F009BD2DE9FC4781460D4600F09A
:1037900003FD00900027B0F84CA0406C0024B84610
:1037A0003E4670B100F0F8FC04460194514600F02A
:1037B00040FE0619304600F09FFD00F04BF800F087
:1037C0004EF845B1284600F097FD07463946284691
:1037D00000F02FFE804600F048F8391B4846FFF7FE
:1037E0003AFB002831D0A8EB06014846FFF711FB51
:1037F00058B3484600F0D0FC00F03AF8074601976D
:10380000514600F016FEC21925B12946104602F0B5
:1038100087FC01E00020107000F022F800F025F88D
:1038200051464846FFF73BF9484600F0B5FC00908A
:10383000FEF794FD00F096F900F052F900F007F859
:1038400000F013F84846FFF79EF8BDE8F3870098AC
:10385000FEF72CBF04462146304600F0EABD06467E
:1038600001A800F0A4BC81F8840000A800F09FBC6F
:103870000090406C00F090BC7FB50446214665681E
:10388000284601F010F948B3284600F085FC009066
:103890002068052831D00B287BD00C2873D00E2847
:1038A0007CD00F2868D0252819D0262833D040F2A4
:1038B000131188420BD1284601F002FF2846FFF77A
:1038C0008BFB00980021D0F8880003F0E3FA009801
:1038D00008B1FFF7CAFF204602F0A4FA7FBDFFF748
:1038E000B6FF00F03FF900F0FBF8FFF772FBFFF7BF
:1038F000BCFF2846FEF7C3FFE9E7FFF7A8FF00F08B
:1039000031F900F0EDF8FFF764FBFFF7AEFF284652
:10391000FFF730F8DBE7E068052802D0062825D05D
:10392000D5E7284603F005FBA268824210D101A921
:10393000104603F00DFB00980299C166FFF795FF52
:10394000284601F099FD0A21284602F047FCBEE70F
:10395000284603F0DFFA0146A0688842B7D101A9E2
:1039600003F0F6FA009802998167E7E7FFF77DFF19
:103970002846FEF7A2FEAAE728460099FFF772FB49
:10398000FFF773FF7FBD009922462846FFF75DFCD5
:103990009DE70098443000F08FFC98E7E0684168AC
:1039A000012909DB0668FFF760FFB1B22846FFF77F
:1039B0007AFC002892D18AE7009890F88400C0072A
:1039C00085D4DDE72DE9F04F85B0119DDDF84CB0D1
:1039D000DDF850A006460F469046994602F0D6FA0A
:1039E00049EA08000E9C3043384311D100A9204613
:1039F00003F0C9FABDF90400BDF90010401A00F146
:103A00000108BDF90600BDF90210401A00F10109D4
:103A10000AF1640003904B462648029042460F98F4
:103A2000019000943946304601F028FD060051D03F
:103A300000F0B2FB00901022294601F02EF81E483B
:103A4000009902684A630099826834318A6042684A
:103A50004A60C068C8601948C8640098109980F826
:103A6000841000210098A0F856100098A0F8581073
:103A70000121009880F8871000210098443081804F
:103A80000181C18100984164FFF7EFFE129D012D75
:103A900019DB284603F09AFA0700304610D000F0F0
:103AA0007BFB0090A0F8525000984764FFF7DDFEC2
:103AB00009E000BF793800082C060020787701085B
:103AC00001F083FD00265946304600F00CF83046E0
:103AD000FEF726FF02F052FA304605B0BDE8F08F3F
:103AE0000098FEF7C7BE38B504000D4606D002F0B8
:103AF0004DFA29462046FFF746FE56E031BD014605
:103B0000304600F096BC0121FEF7F1BF0122FEF71E
:103B100047BF0822FEF744BF1022FEF741BF38B569
:103B200004000D461BD002F031FA00F021F800909D
:103B3000D0F88000A8420ED00098C0F88050FFF75F
:103B400094FE00F02FF800F013F800F00EF800F0EB
:103B500009F8FFF7C5FFFFF788FE02F00FFA31BD45
:103B6000A1F84A000098FEF780BE0090FEF79EBDC7
:103B7000204600F011BB70B582B004000D46164619
:103B80000FD0022D0DD202F001FAFFF7F1FF0090E5
:103B900000EB85004663FFF768FE00F003F802F0D3
:103BA000EDF973BD2046FEF7EEBEBDE8314002F0F0
:103BB000E5B970B582B004000D46164610D0022D4E
:103BC0000ED202F0E3F9FFF7D3FF009000EB85007F
:103BD000C663FFF74AFE204601F04EFC02F0CEF924
:103BE00073BD29462046FEF75ABF0090D0F88000EA
:103BF00001F0D2B80F21DFF8F42602EBC103DB6B32
:103C0000984201D2491EF8D50846704701604260CB
:103C100083600061101840F8042C704710B504460A
:103C20006068FFF7E7FFDFF8C41663680A68D21A16
:103C30000A6001EBC00004F1080140300A684968DD
:103C400002B1516009B10A6010BD026010BDF8B543
:103C5000DFF8984605460E46606BA1680818AA1959
:103C6000401E904206D3106820B95068451910468E
:103C7000FFF7D4FF606BB0420AD256F8040C371A33
:103C8000386828B9786845193846FFF7C7FF3E46B7
:103C90002846FFF7AFFF04EBC0072A463B6C002124
:103CA0003046FFF7B3FF07F1400006F10801026854
:103CB00002B151600A6000224A6001602068281841
:103CC00020602846F2BD2DE9FD49DFF82046656BEE
:103CD000A06882B04019401E01902846D0F804B078
:103CE000016891BB019A0BEB050191422DD20E4662
:103CF0000091D6F80480316839B3226B12F8312074
:103D0000012A22D1A26A91420CBF01270027FFF7A6
:103D100085FF3068216B01EBC000424645603146AB
:103D2000284602F01FFA27B1206B0099401A281884
:103D3000206308EB05015846FFF789FF029919B186
:103D4000884201D3002005E0C34601985D448542C6
:103D5000C3D3012005B0BDE8F089F0B50024FF23EE
:103D60000546002609E0A719B7FBF3FCCCEB0C2CA9
:103D7000A7EB0C0745F8047B761CB6EB910FF2D34A
:103D80000646002500E06D1CB5EB910F0DD204EB4B
:103D9000050CBCFBF3FE56F8047BCEEB0E2EACEB11
:103DA0000E0C6745EFD00320F0BD641C022CD7D366
:103DB00000240546002609E0A719B7FBF3FCCCEB6D
:103DC0000C2CA7EB0C0725F8027B761CB6EB510FE9
:103DD000F2D30646002500E06D1CB5EB510F0FD263
:103DE00004EB050CBCFBF3FECEEB0E2E36F8027B8B
:103DF000ACEB0E0C1FFA8CFC6745EDD00220F0BD39
:103E0000641C022CD5D300240246002508E0661964
:103E1000B6FBF3F7C7EB0727F61B02F8016B6D1C27
:103E20008D42F4D30246002500E06D1C8D420AD27B
:103E30006719B7FBF3FC12F8016B6744FFB2BE428F
:103E4000F3D00120F0BD641C022CDDD309B103F0D6
:103E5000D5F80020F0BD10B5DFF89044002084F8BC
:103E600024008022002104F13C0003F0CAF8BC22A7
:103E70000021204603F0C5F8BDE810400C220021C7
:103E8000DFF86C0403F0BDB82DE9F041DFF85C44C5
:103E9000A06A40B9DFF85804416880680830B1FB77
:103EA000F0F0851C03E0E06800EBD000051DE800A1
:103EB00000F08FF85FEA000827D0216BA76A01EBBA
:103EC000C800406800F10806E068C200304603F010
:103ED000D3F8E0682663C4F828806A1E01E0401C1D
:103EE000486006EBC0019042F9D300204860E068CA
:103EF000E1682062E56060682818401A606017B1C8
:103F0000384600F0C2F9002000E00120BDE8F08151
:103F100070B5DFF8D84394F82400002848D1DFF8C2
:103F2000D0630120716884F82400B1F5205F88BF58
:103F30004FF420513068FFF710FFB06810B9706877
:103F40008008B060DFF8AC03F06006F10C0002F00E
:103F50007CFD201D5A2181610021102304EBC10248
:103F60008B40491CD3631029F7D33168726852180B
:103F700004F12405143AEA6002237268836029611F
:103F80004260002105E0EB684A1C03EBC1014A6076
:103F900011468268521E9142F5D30121C1612969FF
:103FA00040686260FFF753FEFFF76EFF0120A860D4
:103FB00070BD10B5DFF834134A680C6A521C4A60B1
:103FC0000A6B02EBC0035C60002302F83030086229
:103FD00010BD2DE9F0410546FFF79AFFDFF80C43CD
:103FE000E06B854202D3E81C8008800000F10C05DC
:103FF0002068A8421BD3E06A6168884207D3401E4C
:10400000E062FFF741FFE16A491CE16278B960684C
:10401000D4F82080401E6060206B00EBC801496826
:104020002162012100F83810B8F1000F01D1002001
:1040300040E000262846FFF7DDFD01E00026401C99
:10404000102812D204EBC001096C0029F6D08E684A
:104050007168A94209D2B1680029EFD08E687168F1
:10406000A94202D2002EF6D1E9E746B92846FFF769
:104070002AFE0028DDD04046FFF79BFFD7E7776890
:10408000E16B781B0C31884238BF3D463046FFF764
:10409000C5FD206B00EBC800002346602A46414660
:1040A0003046FFF7B3FDBD4203DAA919781BFFF7CD
:1040B000CEFD4046BDE8F08128B18C498A6B026094
:1040C00002B15060886370472DE9F8430446FFF75A
:1040D0001FFFE01C80088000844C061DE06B8642B8
:1040E00038BF0646A56B00E02D6895B155F8040C65
:1040F000B042F9D16DB1286808B16968416068685B
:1041000008B129680160A06BA8422ED12868A0637D
:104110002BE0606BA16801EB0008A8F10409D9F855
:104120000000A8EB0007386830B10020FFF7CBFD96
:10413000D9F80000A8EB00073868B0B97868B04239
:1041400013DB7142C0190818051D3846FFF766FDDC
:10415000A068801BA060394620693018206178680B
:10416000801BFFF774FD45F8046C2846BDE8F28318
:1041700010B5040001D1002010BD01F007FF20465A
:10418000FFF727FF044654E028B15849096B01EBBB
:10419000C00040680830704754498A69521C8A61DF
:1041A000096B01EBC0010A78521C0A70ECE7026847
:1041B0004E4952F8082C0B6B03EBC2021378022B0A
:1041C00003D38B690BB15B1E8B611178491E117093
:1041D000002101600020704710B50024FFF798FE11
:1041E0000F20424901EBC001096C09B1896803E065
:1041F000401EF6D508E0816831B14868844238BF76
:10420000044688680028F6D1A4F10C0010BD10B552
:1042100001F0BCFEFFF7E0FF34496422C969B0F544
:10422000800F87BF90FBF2F001FB00F44843B0FB26
:10423000F2F401F0A3FE204610BD2C484169491C50
:104240004161704729484169491E41617047284AC8
:10425000106088088000506070472549112805D3F8
:104260004A685208904202D3104600E0102088604D
:104270007047002138B11D49096B01EBC00040684F
:104280004068A0F10C010846704710B5040012D038
:1042900001F07CFE1548006B10F8341051B1022972
:1042A00008D200EBC40041684868FFF7D0FC204604
:1042B000FFF77FFE09E010BD10B5044601F066FE71
:1042C0002068FFF7E2FF00202060BDE8104001F009
:1042D00055BE70B504460D46002604E004EB86008A
:1042E000FFF7EAFF761CAE42F8DB70BDA089012023
:1042F000E48F0120573E000811B581B0002430B191
:1043000000E0641C01A800F083F80028F9D12046E1
:1043100016BDF0B587B006000C4618BF002C3BD088
:10432000FF2102F0F4FE0546FE21304602F0EFFECA
:10433000074602A9304602F0FBFE04A9304602F00F
:104340000BFF8FB100A9384602F0F2FE00F026F80C
:10435000384602F00BFF00F08200822804D1BDF83D
:104360000000401EADF8140095B100A9284602F0E7
:10437000DFFE00F013F8284602F0F8FE00F481702A
:10438000B0F5817F04D1BDF80200401EADF81600E3
:10439000DDE90401C4E9000107B0F0BDBDF90A0080
:1043A0004242BDF90800414200A802F0EDBE026899
:1043B000531C03601170704710B5044601F0E6FD10
:1043C0002E49204609684968884708E010B5044628
:1043D00001F0DCFD29492046096809688847044640
:1043E00001F0CCFD204610BD38B504460D4601F065
:1043F000CDFD224A294612682046D26890470446DD
:1044000001F0BCFD204632BD1C4909688968084797
:10441000F8B51A4E04463168256809682846884769
:104420003168074649682846884740192060384661
:10443000F2BDF8B504460D460026104F05E0396878
:10444000204649688847041986192846451E0028D1
:10445000F5D13046F2BD2DE9F041044688460026EC
:104460000027064D05E02968381949688847C719AB
:10447000761C4745F7DB3046BDE8F081200600207A
:10448000704733B51546674A81B0126802A9904754
:10449000654C01902068406918B1294602F082FEFF
:1044A00000B3012002F0E8FE2068C069426992B1C1
:1044B000029901989268904711E001A8FFF7A8FFC0
:1044C00021680546C9690968884758480168080095
:1044D0001CBF284688470298401E0290EDD5002058
:1044E00002F0CAFE37BD31B50C460025A0B14E48DA
:1044F0000068C069406930B14268100003D000987C
:10450000904732BD6D1CA54206DA00A8FFF780FF78
:10451000002818BF0A28F5D1284632BD10B582B050
:1045200000210091002400A900F0DDF800998842E4
:10453000B8BF0C1A204616BD33B53A4A81B012688E
:1045400002A9904701900024D8B13748002500689F
:10455000C069406968B1026810000AD002990198E8
:1045600090473EBD01A8FFF753FF054600F0B1F8A4
:1045700004190298401E0290F4D52846FFF7CEFF9A
:10458000041920463EBD7CB5044629480D46006806
:1045900070B1002001F072F9002842D000AA29462B
:1045A0002046FFF76EFF01F04EF90028F6D173BDEB
:1045B0001D4ED2E90001CDE900013068BDF80020B0
:1045C000C16C8A18ADF80020006DBDF80220821879
:1045D000ADF80220BDF804208918ADF80410BDF82C
:1045E00006104018ADF8060000A801F047F978B1B0
:1045F0003068BDF80010418400AABDF80210818423
:1046000029462046FFF73DFF01F01DF90028EFD1B4
:104610003068418CC26C891A4184818C026D891A80
:10462000818473BD240700202806002058910120B2
:104630005C91012080B501F0A9FC00F03FF8314900
:1046400009688A8C80188884088C4884BDE80140F9
:1046500001F094BC10B504460A2C04BFBDE810401C
:10466000FFF7E8BF0D2C11D001F090FC2549204642
:104670000968C969096888472348016808001CBFA0
:1046800020468847BDE8104001F078BC10BD10B549
:10469000002401F07BFC1B48006890F82C1001F00E
:1046A0000C01042906D0082911BF0C29C069007E1D
:1046B000440802E0C069007E441E06E010B501F027
:1046C00065FC10480068C069447E01F057FC204634
:1046D00010BD10B5044601F059FC0A4A002100F053
:1046E00015F80446F1E738B504460D4601F04EFCD6
:1046F000044A294600F00AF8044601F03FFC20462F
:1047000032BD000028060020589101201268204682
:10471000D2695268104720002DE9F94B4FF0000B89
:104720005D46884614460026A9462F4600E0761CC2
:1047300000A8FFF76DFE07B9074620B10A2802D08E
:10474000202802D104E035460BE0202F01D10027BC
:104750003546FFF7BEFF8146CB44D845E7DA002E49
:10476000E5D005B9354614B1ABEB09002060284609
:10477000BDE8F68BF1B50C460025002600E0761C5E
:1047800000A8FFF745FE070007D0FFF7A2FF451975
:104790000EB1AC4201DB0A2FF1D13046F2BD10B5AB
:1047A0000A4C012A02D0022A05D008E01A462368E2
:1047B000BDE8104018476268BDE810401047BDE8EA
:1047C000104047F6FF71FFF78EBE0000E80600209C
:1047D0000023E4E771B581B00C46164600ABFFF745
:1047E000DEFF054601982946FFF723FE0199401890
:1047F000019001A8FFF70CFE0A2808BF6D1C11D01C
:10480000012E08BF20280DD1FFF763FF0646009850
:10481000844207DB301800906D1C01A8FFF7F8FDFB
:104820002028F4D0284676BD10B50446FFF7D2FF05
:1048300001462046BDE81040FFF7FBBD38B50446F1
:1048400001F0A4FB04480068C56904B1C46101F02B
:1048500095FB284632BD00BF2806002031B514461E
:10486000002505E000A8FFF7D3FDFFF732FF45194B
:104870002046441E0028F5D1284632BD2DE9F843D4
:1048800004460D4690460027264603E02046FFF7E3
:1048900093FD04196D1E012D0BDB2046FFF796FDDD
:1048A0008146FFF716FFC719B9F1000F01D0B845CF
:1048B000ECDAA11B3046BDE8F443FFF7CCBD13464C
:1048C0000A461946044B1B68184713460A46194600
:1048D000024B1B68184700001C070020200700201F
:1048E00030B50C46C16AD0E9022383B00D68CDE92A
:1048F000002300A902F0CAFCB4F90010BDF90000C1
:1049000005FA81F18842A1BFB4F90400401BBDF94A
:10491000041088420DDBB4F90210BDF902006918D9
:104920008842A1BFB4F90600401BBDF906108842B9
:1049300001DA01203EBD00203EBD30B5B0F9045083
:10494000B0F90000B2F90030B2F90440281AD58855
:10495000451B0D805288801A88804B80CC8030BDEA
:104960001CB590F832000C4600070FD500A802F0E5
:1049700017FBBDF802002080BDF80600A080BDF83E
:1049800000006080BDF80400E08013BD204602F006
:1049900007FB13BD80B502F083FC02F08EFC6FF0C4
:1049A0007041884204BFBDE8014002F095BC02BDE1
:1049B00038B504460D4600F013FDE06A294602684A
:1049C0002846BDE8384002F004BD90F832100907CF
:1049D00047BFB0F90610B0F90200B0F90410B0F901
:1049E00000000BE090F83210090747BFB0F904103F
:1049F000B0F90000B0F90610B0F90200081A401C26
:104A0000704738B504460D4601F0C0FA00F028F8AA
:104A10000090408E854203D00098458600F03AF819
:104A200000F003F801F0AAFA31BD00A8FFF7BFBB00
:104A300038B504000D4612D001F0A8FA00F010F8C5
:104A40000090408E05EA00018D4204D00099284371
:104A5000488600F01FF8FFF7E8FF01F08FFA31BD3C
:104A60002046FFF799BB38B504000D4611D001F080
:104A70008DFAFFF7F5FF0090408E20EA050188428D
:104A800003D00098418600F005F8FFF7CEFF01F053
:104A900075FA31BD204600F0EFBCA64B1B68C3621F
:104AA00042860186704770B50446012684B00D46E3
:104AB000002C00F08C80FFF76FFB019028680D2818
:104AC00040D011282FD0142878D0152827D01628A8
:104AD00045D01E2847D01F2868D0B0F5407F72D13E
:104AE00001980199C06AEA680068CA620199C96AB6
:104AF0000968451A00F06EF801F048FAFFF7B0FFB8
:104B00006942029000952B460A4602F06FFC02A80B
:104B1000FFF74DFB01F032FAFFF7BCFF52E00198BE
:104B2000B0F9300048E0019890F83200C0064AD54C
:104B3000E868007A002846D000F04CF8204602F0E1
:104B4000BFFC40E0E868C06800281CBF007A00286D
:104B500039D000F03FF8204602F002FD32E0019823
:104B6000E96801862EE00198E968408E01290BD1A1
:104B7000C10606D540F001012046FFF742FF082696
:104B800008E04FF0FF3605E020F001012046FFF776
:104B900038FF092600F01EF8002E05D431462046C5
:104BA00001F01CFB002007E0012005E00198408E89
:104BB0000006000F00F00100E86003E0E9680198DA
:104BC000FFF7F6FE0026019808B100F003F8304622
:104BD00004B070BD01A8FFF7EABA70B50D460446EF
:104BE0001646FE2102F093FA294602F0F7FCFF2157
:104BF000204602F08CFA3146BDE8704002F0EEBC6F
:104C00001CB50B4690F832101446090704D51A4615
:104C100000A9FFF792FE00AB2146184602F0ECFC1B
:104C200013BD1FB500F01BF812D5ADF80210ADF89A
:104C30000620ADF80040ADF8044000AA02A9FFF735
:104C40007CFEBDF90C20BDF90810BDF90A0003E097
:104C5000204602F023FD1FBD02F04AFD1FBD0C4699
:104C600011461A4690F832301B07704700B590F88D
:104C7000322083B0120704D50A4600A9FFF75DFE73
:104C800000A9084602F060FD07BDF8B590F83200B3
:104C9000069F0C4615461E46000710D5002E10D460
:104CA0007219A91B204602F023FD761E3C19F5E778
:104CB0007219A91B204602F0F1FC761E3C19002E49
:104CC000F6D5F1BD30B583B004460D0003D100A880
:104CD00002F066F900AD94F83200000702D500F04A
:104CE00022F800AD29462046FFF7FAFD18B1E16A27
:104CF00028460969884737BD0021E3E730B50446F7
:104D000083B094F832000D46000702D500F00BF88E
:104D100000AD29462046FFF7E3FD18B1E16A2846B9
:104D20008968884737BD2A4600A9204605E601481C
:104D3000006870471807002001688268891A48BF18
:104D400000214268002A44BF00224260426891422A
:104D5000C8BF11464160704770B504466568A068D9
:104D60004619761E8E4203DA081A1818401C606035
:104D700060688142BCBF881A60602046FFF7DCFF94
:104D80006068401B70BD38B5044665686160FFF718
:104D9000D3FF6068401B32BD017E00E0417EC07ED3
:104DA00010FB01F07047F8B50D46044611461E464B
:104DB00002F0ADF9074635B167B93146204602F039
:104DC000DBFC0020F2BD002FFBD002F0EFFC3846E8
:104DD00000F074FF0120F2BD0823FE22E3E7002368
:104DE000FF22E0E738B504460D4601F0CFF829462A
:104DF0002046FFF7F4FF08E038B504460D4601F001
:104E0000C5F829462046FFF7E7FF044601F0B6F84B
:104E1000204632BDDFF86C2C0021136A984201D184
:104E200008467047526A01219042F9D04FF0FF3096
:104E3000704710B50446DFF8500C84B00168486C28
:104E400018B9204602F0CEFC1FBDD0E90023DFF8E0
:104E5000340CCDE90123C06D00B9886CFFF79CF9D3
:104E6000009001A900F01CF900F0ACFB214601A85C
:104E700002F0D0FC01A802F0B5FC1FBD70B50446DD
:104E80000D4616462846FFF77FF9806AC0034CBFDF
:104E90004FF480432023324629462046BDE8704027
:104EA00064E1FEB506460C461546FFF76DF9009025
:104EB000876AB80735D5204600F0A6F900281EBF3E
:104EC00040F60100384001282BD000F06EFA009027
:104ED0000246214600F0F3F901A800F095F9F0B17F
:104EE000009844F22001806A084207D0009800F13F
:104EF000080101AA083002F0ADFC10E00098DDE9DD
:104F00000123C0E9022300980099806A284388623F
:104F1000DFF8700B818B491C818302F0C7FC00F025
:104F200051FBF7BD2022BCE738B504460D4602E030
:104F3000054600F047FB2846FFF72EF900F011F96F
:104F400003D400F03FFB002032BD0099204602F060
:104F500061FC009880690028EAD100F033FB284604
:104F6000FFF758FFC043C00F32BD10B5DFF8180B74
:104F7000DFF8104B006884B090F8541021B104F1B0
:104F80000800FFF756FF1FBD00F022FE009000F062
:104F90009AF900F017FBE16D11B101A8FFF7C4FF0A
:104FA00001A8FFF746FF1FBD70B584B004460D0091
:104FB00044D0FFF7F1F8009000210162009885616C
:104FC0002846FFF7E9F80290009890F8280000F0D2
:104FD00008050298C66926B9C46100F0F3FA02A870
:104FE0002AE000F0E2F901906DB990F8280000077E
:104FF00009D5009806620298C46100F0E3FA00F057
:105000001FFC01A818E000F01BFC00F03FFD00F0C1
:10501000C9F901900198066A0EB904620BE000F02C
:10502000C1F9002DF5D190F828100907F1D50198A4
:1050300004620098066200A8FFF7B9F87FBD70B55A
:105040000446FFF7A1F80546A869A0B1FFF79CF850
:105050000646F169A14205D10846FFF795F8006AB6
:10506000F06170BD39B10846FFF78EF8016AA142C0
:10507000F8D1296A016270BD10B582B00446FFF70D
:105080008BF80090816941B1026A00F0A7F82046D0
:10509000FFF7D5FF00980021816100F093FA13BD5E
:1050A0000B46B0F90220B0F90010184602F06CB8B7
:1050B00010B50446DFF8CC09C06B02E0FFF764F8D6
:1050C000406910B1A042F9D1012010BD10B582B0E5
:1050D00004001BD0FFF760F800F043F814D50098E7
:1050E000406A20B102F090FC009800214162204605
:1050F00002F078FD044605E02046FFF7E7FF00F0E8
:1051000080F8046A002CF7D100F05CFA13BD70B58A
:1051100084B004000D46164622D0FFF73DF800F09B
:1051200020F804D5009A294600F0C9F810B900F01B
:1051300049FA7FBD00F046FA324601A92046FFF742
:10514000B0FE204602F04EFD044607E0324601A9BB
:105150002046FFF7DCFF00F054F8046A002CF5D17C
:105160007FBD009090F82800800770472DE9F0413E
:1051700084B006460F00144698462DD000F0CFFCB0
:105180000090856AA80725D5009A314600F097F867
:1051900000B340F601002840012807D10098026AB8
:1051A0008169434601A8FFF7E1FF04E0424601A9F7
:1051B0003846FFF776FE0098C66907E0424601A927
:1051C0003046FFF7A4FF00F0EDF8066A002E18BF86
:1051D000A642F3D100F0F6F9BDE8FF812023C5E730
:1051E00038B50446DFF89C08C06B48B1FEF7CCFF29
:1051F00005466869A042F8D100F003F8406968618B
:1052000031BD2046FEF7C0BFB0F90410B0F9002050
:105210009142A2BFB0F90610B0F90200814201DA52
:10522000002070470120704770B584B006460C46D8
:1052300015460BE001AA21463046FFF7F5FF00F0C6
:10524000B1F8066A002EF5D100F0BAF9002E33D07D
:1052500000F0ABF80090866AB007F5D515B100F004
:105260002CF801E000F02EF800F06AF80028EBD0EE
:10527000F0071ED40098002DB0F9020004D0B5F953
:1052800002108142A8BF0846B4F90210814209DA2F
:10529000BDF90600B4F90620411E9142D4DA401E41
:1052A000E080D1E7BDF90A00B4F906108842CBDAF4
:1052B000F6E70098C669C5E77FBD00992A4601A8B0
:1052C00002F09DBC0098D0E90023CDE9012370478E
:1052D000FEB507460C461546002610E001AA2146F9
:1052E0003846FFF7F5FF00B101263846FEF74CFFC0
:1052F000076A002FF2D10098076A00F063F9EFB156
:1053000000F00DFC0090876AB807F4D515B1FFF7DF
:10531000D4FF04E0009AD2E90001CDE9010100F0D8
:105320000FF80028E7D0F80705D4BDF80800401CA6
:1053300020800126DFE70098C769DAE73046FEBD26
:1053400001A9204601F02EBF70B584B006460C4678
:1053500015460BE001AA21463046FFF7F5FF00F0A5
:1053600021F8066A002EF5D100F02AF9CEB100F03E
:105370001CF80090866AB007F6D515B1FFF79DFFBF
:1053800001E0FFF79FFFFFF7DBFF0028ECD0F007FD
:1053900004D4BDF80400401EA080E5E70098C6696B
:1053A000E0E77FBD3046FEF7EFBE3046FEF7F4BEC5
:1053B00038B504000D4609D000F0E8FD2946204626
:1053C00002F04EFCBDE8314000F0D8BD31BD00B563
:1053D00085B00091019000A902F042FC05B000BD2B
:1053E00000224A800A8082880388D21A8A80C28872
:1053F0004088101AC880704770B586B004000D460A
:1054000038D000F0C3FD2046FEF7C6FE0090866A45
:10541000B0072BD50098D0E90023CDE90123F00394
:1054200044BF2046FFF752FE5DB1D5E90001CDE94A
:105430000301009803A9FFF733FE03A901A802F0B6
:10544000E9F9214601A8FFF76FFD78B140F60100A8
:105450003040012806D10098026A816901A8FFF74F
:10546000BDFE03E001A92046FFF75CFD00F0AAF8AD
:1054700000F084FD06B070BD0021BDE72DE9F04FBE
:1054800083B00D9DDDF83CB00746884691469A46AC
:1054900000F07CFDDFF8A04A0C9EE06C054346B9A5
:1054A000608B48B3DFF8E0050068407C04EB8000C7
:1054B000066A16F1010F08BF00261DD0E6B1FFF7FE
:1054C00074FF0190B0F90010B0F90200CF198044C8
:1054D000B9F1000F05D1019AB2F90420511A01F176
:1054E0000109BAF1000F05D10199B1F90610081AA6
:1054F00000F1010A00F0CAFA0BF12C0001F066FD80
:105500005FEA000B57D0608B401C60835846FEF763
:1055100043FE009007800098A0F8028009EB070086
:105520000099401E88800AEB08000099401EC88040
:1055300000980E9901610098DFF8001A806A2940EE
:1055400008430099886200F03DF8E06B50B1FEF727
:105550001BFE07465846FEF717FE79694161C7F8FA
:1055600014B001E0C4F83CB031465846FFF71CFDCA
:10557000A80644BF584600F0A3F8E80702D5A06D7E
:10558000401CA065680644BF584602F089FBA80786
:105590000DD55846FEF700FE0090806A009940F055
:1055A0000200886200F00EF85846FFF765FF0121FF
:1055B0005846FFF70CFF00F0E1FC5846BDE8FE8FAF
:1055C0000098066A00A8FEF7F2BDF8B5040060D0A6
:1055D00000F0DCFC2046FFF76BFD002857D020468A
:1055E00000F058F805460B212046FFF7F0FE204654
:1055F00001F0DEFB2046FEF7CFFD0090406A08B1C7
:1056000002F002FADFF8306900203066B06B06EB7A
:105610008000016BA14204BF00210163816AA142A5
:1056200004BF00218162306C05E04168A14204BFE3
:105630000021416000680028F7D10721204600F0D2
:10564000CDFD009FF869FFF7C0FFF8690028F9D188
:105650002046FFF711FD2046FFF7C2FD0098806A43
:10566000C10702D5B16D491EB165800602D5B08B68
:10567000401EB083FFF7A6FF708B401E708320464C
:10568000FEF703FE06EB8500006A00F019F800F053
:1056900075FCF1BD10B50446FEF776FD8069002863
:1056A000F9D12046BDE81040FFF7B4BB80B5FFF745
:1056B000F1FF00285CBFBDE8024002F037BB01BD2E
:1056C00070B5044600F062FCDFF8BC532868866CB5
:1056D00014B9DFF86418CC6B84642046FFF7E6FF4A
:1056E00001F078F8FFF78DFD2968B0F90020CA6451
:1056F000B0F90200086500F041FC304670BDDFF8EB
:1057000040080068806C704770B5DFF82C4884B0A2
:10571000D4E90201CDE90001206920B92088ADF863
:105720000000608811E0A089401CADF8000060898D
:10573000BDF90010ADF80200B4F90400884206DAA1
:105740002088ADF80000E089401CADF80200B4F9F3
:105750000600BDF90210884264DBDFF8E45700F070
:1057600036FAB4F900100290BDF90000884217D152
:10577000E088ADF80600A088ADF804002868806CC9
:1057800008E0FEF701FD06460022306A00A9FFF797
:105790004BFDB0690028F4D100F04DF8FFF744FD4F
:1057A000BDF80000ADF804002868806C0AE0FEF740
:1057B000EBFC06460022306A00A9FFF789FD0028AD
:1057C000EED1B0690028F2D100F035F8FFF780FD86
:1057D0000028E5D1B4F90400BDF90010ADF80400CB
:1057E000884206DADDE90001C4E9020100F028F888
:1057F000A6E72868806C08E0FEF7C6FC0546002294
:10580000286A00A9FFF7A0FDA8690028F4D100F0DC
:1058100012F8FFF799FD00F013F8206944F62161B2
:10582000884201DB002004E0DDE90001C4E9020157
:10583000012004B070BD02980022C06900A9704721
:1058400002A8FEF7B4BC9048006890F8540000B974
:10585000704710B5DFF8E0466069022805DA206974
:10586000401C2061FFF750FF20B96069401E606155
:10587000002010BDFFF779FB012010BD70B5824CF0
:105880000646206886B090F8541011B9FFF76DFBFA
:1058900006E0DFF8A4566969491C6961022901DB49
:1058A000012055E000F094F900904FF0FF3028619E
:1058B000287E0028009823D0D0E90223CDE90223D6
:1058C0001EB1314602A801F0A5FF2068406C28B344
:1058D00000990191D0E90023CDE90423E86D28B1B6
:1058E00000F0D4F8E86DFEF757FC0190019804A988
:1058F000FFF7D6FB04A902A801F08CFF01A80EE077
:1059000090F82800800703D50098D0E90023D5E758
:105910006869401E6861FFF755FE11E000A8FEF7B8
:1059200046FCE96D19B102A8FFF7FEFA28B120681C
:10593000816C02A8FFF7F8FA20B96869401E686117
:10594000002005E0DDE90201C5E90001FFF77BFF6A
:1059500006B070BD80B502F045FADFF8E40500211D
:105960000068416401BD70B588B00446FEF714FCC0
:105970000090D0E90223866A0569CDE90123FFF78B
:1059800021FE45B3B00726D52E21204602F04AFA63
:10599000DFF8A455287E401C2876F00406D500F0D8
:1059A0001CF803A9204602F05BF90DE001A8FFF7FF
:1059B00065FF48B100F011F803A9204602F050F944
:1059C000FFF741FF0028F5D1287E401E28762F21C1
:1059D000204602F027FA08B070BD0F20039001A8FE
:1059E00004940690B6E710B50446FEF7CDFB806A36
:1059F000C0034CBFDFF84C15DFF84C152046BDE85E
:105A0000104008472DE9FC411F4D804600F0DFF8AB
:105A100001904046FEF7C0FB009001460198083017
:105A200001F0C0FB28B32868C66C076D0198009987
:105A300000F1080201F1080002F0E1F800F026F898
:105A4000DFF8F44400992868C4F85C80B1F90010CC
:105A5000C1640099B1F902100165FFF7B3FD40463A
:105A6000FFF7C1FF0020E0652868C66407650120D4
:105A700004E000F00BF8FFF7A5FD0020BDE8F6817B
:105A800000000000FC8B01202806002001A8FEF782
:105A90008EBBF0B583B00646FEF77EFBFFF761FBD9
:105AA0003AD50098C76935E000F039F8019090F8D0
:105AB000280000F00300032828D1009800F1080115
:105AC000019801F06FFB08B30098D0E90245FFF799
:105AD00079FDFFF7DBFF3846FFF794FF68B13846E2
