:020000040800F2
:1000000080EB002001000208D15902082F480208A5
:1000100045510208692302084DC40208000000008F
:1000200000000000000000000000000079B4020899
:10003000612A020800000000CF0B02089972020832
:100040001B0002083D9702081B0002081B00020863
:100050001B0002081B0002081B0002081B0002080C
:100060001B0002081B0002081B0002081B000208FC
:100070001B0002081B0002081B0002081B000208EC
:100080001B0002081B0002081B0002081B000208DC
:100090001B0002081B0002081B0002081B000208CC
:1000A0001B00020811BA020859B902081B00020815
:1000B0001B0002081B0002081B0002081B000208AC
:1000C0001B0002081B0002081B0002087DB2020888
:1000D000EDB20208A5BF0208B5BF0208C5BF0208FD
:1000E0001B0002081B0002081B0002081B0002087C
:1000F0001B0002081B0002081B0002081B0002086C
:100100001B00020841A202081B0002081B00020893
:100110001B0002081B0002081B0002081B0002084B
:100120001B0002081B0002081B000208DD27020852
:100130001B0002081B0002081B0002081B0002082B
:100140001B0002081B0002081B0002081B0002081B
:100150001B0002081B0002081B000208EDBF02087A
:100160001B0002081B0002081B0002081B000208FB
:100170001B0002081B0002081B0002081B000208EB
:100180001B0002081B000208DFF80CD000F006F884
:1001900000480047E92D030880EB0020064C074D7E
:1001A00006E0E06840F0010394E807009847103447
:1001B000AC42F6D3FFF7ECFFE001000800020008B4
:1001C00002E008C8121F08C1002AFAD17047704720
:1001D000002001E001C1121F002AFBD1704700007E
:1001E0000002000800000020F40200003C0B02089E
:1001F00024020008F40200208CE80000D00100086E
:1002000001242D010203040405D4060708096A022B
:10021000010912FC018F32A763E70303FF0F2701D7
:0402200037000000A3
:020000040802F0
:100000000648804706480047FEE7FEE7FEE7FEE7B2
:10001000FEE7FEE7FEE7FEE7FEE7FEE755B502086E
:100020008901000872B6704762B67047EFF310801E
:1000300072B6704780F31088704730BF704720BF9A
:100040007047B0FA80F0704790FAA0F0B0FA80F0F4
:10005000704790FAA0F07047002800D1704700293F
:1000600000D17047002A00D170472DE9F81F00F039
:10007000030301F00304A34211D1C3F1040303F00D
:100080000303012B1DD3012A00D2F2E011F8014B2A
:1000900000F8014BA3F10103A2F10102F1E700F026
:1000A000010301F00104A34200D094E0012B44D3EA
:1000B00011F8014B00F8014BA3F10103A2F1010279
:1000C000F4E7B2F5B47F26D3B1E8F81FA0E8F81F33
:1000D000B1E8F81FA0E8F81FB1E8F81FA0E8F81F82
:1000E000B1E8F81FA0E8F81FB1E8F81FA0E8F81F72
:1000F000B1E8F81FA0E8F81FB1E8F81FA0E8F81F62
:10010000B1E8F81FA0E8F81FB1E8F81FA0E8F81F51
:10011000A2F5B472D5E7282A06D3B1E8F81FA0E803
:10012000F81FA2F12802F6E7042A06D351F8043B8F
:1001300040F8043BA2F10402F6E7202A42D331F84A
:10014000023B20F8023B31F8023B20F8023B31F839
:10015000023B20F8023B31F8023B20F8023B31F829
:10016000023B20F8023B31F8023B20F8023B31F819
:10017000023B20F8023B31F8023B20F8023B31F809
:10018000023B20F8023B31F8023B20F8023B31F8F9
:10019000023B20F8023B31F8023B20F8023B31F8E9
:1001A000023B20F8023B31F8023B20F8023B31F8D9
:1001B000023B20F8023B31F8023B20F8023BA2F15F
:1001C0002002BAE7022A06D331F8023B20F8023BAC
:1001D000A2F10202F6E7102A42D311F8013B00F81F
:1001E000013B11F8013B00F8013B11F8013B00F81D
:1001F000013B11F8013B00F8013B11F8013B00F80D
:10020000013B11F8013B00F8013B11F8013B00F8FC
:10021000013B11F8013B00F8013B11F8013B00F8EC
:10022000013B11F8013B00F8013B11F8013B00F8DC
:10023000013B11F8013B00F8013B11F8013B00F8CC
:10024000013B11F8013B00F8013B11F8013B00F8BC
:10025000013B11F8013B00F8013BA2F11002BAE7A3
:10026000012A06D311F8013B00F8013BA2F101027B
:10027000F6E7BDE8F81F70472DE9F05F054600205E
:1002800092469B4688460646814640241BE0284607
:1002900041464746224600F020F852465B46801A07
:1002A000994110D310461946224600F0A7FA2D1A9C
:1002B00067EB01084F4622460120002100F09EFA1C
:1002C00017EB00094E41201EA4F10104DFDC484673
:1002D00031462A464346BDE8F09F202A04DB203AF7
:1002E00021FA02F00021704721FA02F3D040C2F156
:1002F00020029140084319467047000038B5D0E904
:100300000221491E01EB410102EBC1014268C1EB30
:10031000011102EB81010268C1EB011102EB8103C3
:10032000D0E9042101EB410102EB8101A1F55271F9
:10033000302491FBF4F2154D04FB1211554303EBED
:10034000C51300931A2902DB114A1A4400920C23A8
:1003500091FBF3F20F4C009D544303FB121105EB8C
:10036000C4140D4A009408E0491E40F2A324535CD3
:100370006343009C04EBC31300930029F4DC0146A3
:10038000684600F05DFA009838BD00003F0C0F0091
:100390008051010067C2030058810308D2B201E016
:1003A00000F8012B491EFBD270470022F6E710B57A
:1003B00004460846114602462046FFF7EFFF204656
:1003C00010BD30B50EE003460A4601E05B1C521C2E
:1003D0001C781578AC4201D1002CF7D115F0FF0F35
:1003E00004D0401C0278002AEDD1002030BD2DE958
:1003F000FE4F074681EA0300C00F0E46019021F030
:10040000004123F00044B81AA14105D238463146D4
:1004100017461E460B46024623F00040104304D107
:100420003846314603B0BDE8F08F350DC5F30A00FC
:10043000C3F30A510290401A0090402868DAC3F3CF
:10044000130040F4801B0198924620B10023D2EBA8
:10045000030A63EB0B0B00985946C0F1400250466B
:1004600000F0CCF980460C4650465946009A00F000
:10047000D4F9C0197141EF1785EA11533B4340D0BD
:10048000019A52B3009A012A11DC0022801A4FF01F
:10049000004361EB055103EA05538018CDE90023C1
:1004A00041F580114246234600F04DFABAE72E0589
:1004B0000025401B61EB0601401941F58012001830
:1004C00052412818A6F5001343EB020140EAD4700C
:1004D000294318EB0808644113E064084FEA380820
:1004E0004FF0000244EAC0744FEA0553801A61EBF2
:1004F0000301801841F5801149084FEA3000801847
:1005000059414246234603B0BDE8F04F00F00EBA11
:100510000198012240000023D0EB020263EBE0735C
:1005200001984FEAE074381A66EB0401EBE783F0B8
:1005300000435CE781F0004159E72DE9FE4F81EA75
:10054000030421F0004504F0004423F000414FF083
:10055000000A009450EA050302D052EA010304D1D4
:100560000020014603B0BDE8F08FC1F30A53C5F384
:100570000A541C44A0FB02B3C5F3130545F4801CC8
:10058000C1F3130141F480180CFB023300FB083E59
:10059000A4F2F334810A930A41EA8C5143EA885366
:1005A0000194A1FB03474FEA9C2505FB03734FEA27
:1005B000982601FB06373D05260545EA1435BBEBB9
:1005C00006016EEB0503850E920E45EA8C1542EA94
:1005D0008812A5FB0206261E67EB00070C0D44EAF5
:1005E0000334A41947EB1350C1F313064FF0000373
:1005F00019464FEA033343EA165343EA0403019CC6
:10060000E5FB0201A4F10C040294009C4FEA0632BF
:10061000CDE900A400F097F9A4E72DE9F04D81EAB7
:10062000030404F0004B21F0004714464FF0000A89
:1006300023F0004150EA070220D054EA01021DD005
:10064000C1F30A550246C1F31300C7F30A56C7F3B4
:10065000130340F4801143F48013A6EB0508101B2C
:10066000D64608F2FD3873EB010002D308F1010809
:1006700001E092185B41B8F1000F03DA0020014657
:10068000BDE8F08D00204FF48015064607460EE0C9
:10069000B2EB040C73EB010C04D3121B064363EBA7
:1006A00001032F436D084FEA300092185B4150EA76
:1006B000050CEDD152EA030012D082EA040083EA6D
:1006C0000105284303D100224FF0004308E0101B2E
:1006D0008B4102D20122002302E06FF0010253108D
:1006E0001AEB060047EB085110EB0A0041EB0B0137
:1006F000BDE8F04D00F01AB90EB5C10F80EAE07008
:100700000844CA07002140F233438DE80E000A4630
:100710000B4600F018F903B000BD0EB540F23341AE
:1007200002910021CDE900110A460B4600F00BF9B9
:1007300003B000BD70B5C1F30A5201F000450024BA
:10074000C1F3130140F2FF3341F480119A4201DA00
:10075000002070BD40F233439A42A2F2334203DCE0
:100760005242FFF7BAFD00E090402C43F1D04042E6
:1007700070BD000030B5002904DB4FF0004440425A
:1007800064EB0101002B04DB4FF00044524264EBA8
:1007900003038B4208BF824230BD000030B5002900
:1007A00004DB4FF00044404264EB0101002B04DB0A
:1007B0004FF00044524264EB0303994208BF904259
:1007C00030BD000001F0004230B421F0004150EA99
:1007D000010306D00B0DA3F56073C1F31301002BC9
:1007E00002DC30BC00207047440F44EAC104C10061
:1007F000A01830BC00EBC35000F062B8202A04DB24
:10080000203A00FA02F1002070479140C2F1200323
:1008100020FA03F3194390407047202A06DBCB17D8
:10082000203A41FA02F043EAE071704741FA02F3DC
:10083000D040C2F1200291400843194670470000A1
:1008400030B50246084613683C22B3FBF2F102FBC6
:1008500011330360B1FBF2F302FB13111824416062
:10086000B3FBF4F104FB113282600A1D0723B2FBD3
:10087000F3F403FB1422890001F66C3140F2B55504
:10088000B1FBF5F405FB1411826104F144028908FF
:100890004261C1613B2902D3920700D0491C00226A
:1008A000064C13460261E25C8A4203D8891A5B1C3B
:1008B0000361F8E7491CC16030BD0000F082030805
:1008C0000029A8BF7047401C490008BF20F0010064
:1008D000704710B4B0FA80FC00FA0CF050EA010442
:1008E00004BF10BC704749B1CCF1200421FA04F4D4
:1008F00011FA0CF118BF012121430843A3EB0C01AD
:10090000CB1D0106000A002BBEBF002010BC7047A3
:1009100000EBC35010440029A4BF10BC7047401C1A
:10092000490008BF20F0010010BC704710B5002B33
:1009300008DA401C41F1000192185B411A4301D1D1
:1009400020F0010010BD2DE9F04D92469B4611B1FB
:10095000B1FA81F202E0B0FA80F220329046FFF75D
:100960004DFF06460F4640EA0A0041EA0B01524697
:100970005B46084303D130463946BDE8F08D194641
:1009800052EA010015D0C8F140025046FFF7A5FC1D
:1009900004460D46504659464246FFF72FFF08438E
:1009A00001D0012000E00020044345EAE075264321
:1009B0002F430A984FEAD625A0EB08000A304FEAE9
:1009C00046534FF0000245EA47554FEAD72402D577
:1009D00000200146D1E7010550196141DDE90845D4
:1009E00000196941BDE8F04DA0E770B521F0004362
:1009F00003430CD0C1F30A540026D4EB060566EB82
:100A00000603D417AD1AA34102DB0020014670BDD6
:100A1000001C41EB025170BD2DE9F04D00231A4638
:100A20001B1A8A4103DB00200146BDE8F08DC1F3AB
:100A30000A52C1F3130141F480154FF0000BD107A6
:100A400002D100186D41521E0026044640F2FF11EB
:100A5000304601EB620A37468046024600204FF4DA
:100A60008011FFF73AFC80197941331847EB0102F6
:100A7000B4EB030C75EB020C04D3E41A65EB02052E
:100A800006460F46241908F101006D4180463428BE
:100A9000E3DDB11947EB0700091BA84103D24FF072
:100AA000FF32134601E0002213461BEB060047EB22
:100AB0000A51BDE8F04DFFF739BF2DE9FE4FC3F3F2
:100AC0000A5801F000450024C1F30A56C3F313038A
:100AD000C1F3130143F4801312EB020CA64641F458
:100AE00080119246009543EB0307A8F1010B13E038
:100AF000B0EB0C00B94107D54FF00008D0EB08006F
:100B000085F0004568EB0101BAEB000273EB0102CE
:100B1000EED3761E001849415E45F5DA50EA01022F
:100B200004D10099204603B0BDE8F08FCDE900E57F
:100B3000002213460296FFF706FFF4E770B501EBBB
:100B4000020410F8015B15F0070301D110F8013B16
:100B50002A1106D110F8012B03E010F8016B01F8FF
:100B6000016B5B1EF9D12B0705D40023521E0FD455
:100B700001F8013BFAE710F8013B02F10202A1EB98
:100B8000030303E013F8015B01F8015B521EF9D582
:100B9000A142D6D3002070BD21484FF0FF01017063
:100BA000002080F309881F48016881F308881E48E7
:100BB0004FF08051016062B6FEE71B484FF0805154
:100BC0000160704718484FF080510160704772B65D
:100BD000EFF3098050B11EF0100F08BF20ED108A0E
:100BE000734620E9F80F11490968086000B51048FC
:100BF00080475DF804EB0F480F490A7802700B48F4
:100C00000E490A6802601068B0E8F80F9E461EF0B0
:100C1000100F08BFB0EC108A80F3098862B67047E5
:100C200022ED00E0F000002004ED00E0E8000020EC
:100C30004D6C02087600002077000020EC000020B8
:100C400010B58AB0002407E09FED3C0B3D4800EB57
:100C5000C40080ED000B641C032CF5DB002407E0CE
:100C60009FED360B384800EBC40080ED000B641C90
:100C7000032CF5DB9FED310B344880ED000B9FED2D
:100C8000340B80ED020B9FED340B354880ED000BEB
:100C90009FED310B334880ED000B01203249087085
:100CA00000203249087032490870324908603249E0
:100CB0000860324908609FED320B334880ED000B2D
:100CC00000203249087032490870324908709FED9F
:100CD000320B334880ED000B9FED320B334880ED33
:100CE000000B9FED330B344880ED000B002033499F
:100CF0000870334908703349087033490870334924
:100D00000870334908703349087040F2DF70099069
:100D1000032008901C200790002006900590049066
:100D200004A805A906AA07ABCDE90021029008AAEC
:100D300009A9294816F026FE0AB010BD00000000DF
:100D40000000000090A8002008A9002050A9002061
:100D5000F4FB7CD35E16D33F000000000000F03FA0
:100D6000B8020020C0020020A8020020A902002032
:100D7000AA020020AC020020B0020020B402002031
:100D8000000000000000004098020020080200203F
:100D9000CC02002009020020613255302AA9333FDD
:100DA00050020020FA7E6ABC7493783F68020020EB
:100DB0007B14AE47E17AB43F80020020600200203D
:100DC000780200209002002091020020930200206F
:100DD0009502002097020020D802002001F0A8FE12
:100DE00008F0AAF9642001F08FFA1FE0002417E050
:100DF000012001F0B9FE012001F086FA022001F085
:100E0000B3FE20210A4800F017F8012001F07CFA17
:100E100008F0A0F91021074800F00EF8601CC4B2D9
:100E2000102CE5DB4FF47A7001F06EFADEE700007B
:100E3000E0A30020C09A0020F0B502460B46002037
:100E400046E000EB400732F8274000EB400732F85D
:100E50002750002600212BE000EB400702EB87071C
:100E600037F81170A74206DD00EB400702EB870759
:100E700037F811C000E0A446644600EB400702EBDF
:100E8000870737F81170AF4206DA00EB400702EB34
:100E9000870737F811C000E0AC46654600EB400715
:100EA00002EB870737F811703744BEB24F1CF9B216
:100EB0000529D1DB371B7F1B4FF0030C97FBFCF799
:100EC00000EB400C02EB8C0CACF80A70471CF8B23B
:100ED0009842B6DBF0BD000010B512A20021144804
:100EE00001F0D7F913A20021154801F0D2F915A29B
:100EF0000021184801F0CDF917A200211A4801F08D
:100F0000C8F91AA200211D4801F0C3F91CA2002152
:100F10001F4801F0BEF91FA20021224801F0B9F9D3
:100F200010BD000053454D5F4750535F53544F0071
:100F30009470002053454D5F54454C5F53544F000F
:100F4000BC70002053454D5F504C4F41445F53549B
:100F50004F000000E470002053454D5F4359435F4C
:100F6000494E464F00000000F0A6002053454D5F5B
:100F70004D41475F444F545F444D500018A7002037
:100F800053454D5F5049545F464C545F434F4D00AD
:100F900040A7002053454D5F4154545F5354415F77
:100FA00043544C0068A700202DED108BAEB09FED90
:100FB000D30B8DED1A0B9FEDD30BB0EE40EAF0EEA4
:100FC00060EA9FEDD20BB0EE40FAF0EE60FA9FEDD2
:100FD000D10B8DED180B90E10021D04801F078F98C
:100FE000CF4890ED001BB0EE410AF0EE610A9FED94
:100FF000CD1B53EC112B51EC100BFFF79EFA41EC7B
:10100000100BB0EE40BAF0EE60BA9FEDC80B53EC97
:10101000102B51EC1B0BFFF700FB41EC180BC048E9
:1010200090ED021BB0EE410AF0EE610A9FEDBD1B90
:1010300053EC112B51EC100BFFF77FFA41EC100B26
:10104000B0EE40BAF0EE60BA9FEDB80B53EC102B47
:1010500051EC1B0BFFF7E1FA41EC190BB5480068A6
:10106000012806DA03230122B34928A811F067FFFB
:101070000DE00320012328AAAF49009022A812F016
:10108000CBF903230122AC4928A811F058FF53ECF7
:10109000192BAA4890ED000B51EC100BFFF74DFAFD
:1010A00041EC100BB0EE40CAF0EE60CAA44890EDDF
:1010B000000B51EC100B81F0004141EC100BB0EE35
:1010C00040BAF0EE60BA53EC182B51EC1B0BFFF753
:1010D00034FA41EC100BB0EE40DAF0EE60DA53EC8B
:1010E0001C2B51EC1D0BFFF722FA41EC1A0B9FED64
:1010F000950B8DED100B8DED12AB9FED920B8DEDE1
:10110000140B01201AAACDE90020032302468A49C4
:1011100002901CA812F094F803211CA812F0CEF93A
:10112000B0EE40BAF0EE60BA53EC1B2B9FED870B8C
:1011300051EC100BFFF771FA41EC100B8DED160B13
:101140009DED160B53EC102B9DED160B51EC100B77
:10115000FFF7F3F941EC100B8DED160B10AA1CA94B
:101160007C480BF075F9012016AACDE90020032375
:10117000024678490290084612F062F89DED241B61
:10118000B0EE410AF0EE610A734890ED001B53EC9B
:10119000112B51EC100BFFF7CAF941EC100BB0EE1C
:1011A00040BAF0EE60BA6D4890ED000B51EC100BB8
:1011B00081F0004141EC100BB0EE40CAF0EE60CA85
:1011C00053EC1B2B51EC1C0BFFF7B7F941EC100B48
:1011D000604880ED020B002432E05E4800EBC40062
:1011E00090ED001BB0EE410AF0EE610A9FED5C1B32
:1011F00053EC112B51EC100BFFF7BCFA06D29FED0C
:10120000580B544800EBC40080ED000B514800EB34
:10121000C40090ED001BB0EE410AF0EE610A9FEDB4
:10122000521B53EC112B51EC100BFFF7B7FA06D2FF
:101230009FED4F0B474800EBC40080ED000B641C92
:10124000032CCADB434890ED001BB0EE410AF0EEE0
:10125000610A53EC1E2B51EC100BFFF76EF941ECB9
:10126000100B8DED0A0B3B4890ED021BB0EE410ACE
:10127000F0EE610A53EC1F2B51EC100BFFF75DF9F8
:1012800041EC100B8DED0C0B324890ED041BB0EED1
:10129000410AF0EE610A9DED181B53EC112B51EC45
:1012A000100BFFF74AF941EC100B8DED0E0B0323E9
:1012B00001220AA9304811F042FE1E480068401C75
:1012C0001C490860002511E02C4800EBC40090ED9B
:1012D000000B04A800EBC40080ED000B9FED190B80
:1012E000264800EBC40080ED000B6D1C032DEBDBEA
:1012F00004AA23490A4812F017FB6DE695D626E8A2
:101300000B2E113E39183558CD5CDC3FAF3DAC3962
:10131000AE02DD3F9F910416B960DE3F68A7002052
:1013200020A900200000000000806640182D4454D1
:10133000FB210940B4020020D8A800206802002048
:10134000500200200000000000000000000000002B
:101350000000F03FF0A80020A00200208002002042
:101360009A9999999999C9BF00000000000000401E
:101370009A9999999999C93FC0A7002008A9002076
:1013800030A9002000B58BB00AA8032100220592E5
:10139000CDE906210890012080210C22B94BCDE92E
:1013A0000132CDE9031003200023B74AB7A1009012
:1013B000BA4805F089F80AA8032100220592CDE970
:1013C00006210890022080210C22B54BCDE9013284
:1013D000CDE9031004200023B24AB3A10090B6481F
:1013E00005F072F80AA8032100220592CDE9062132
:1013F0000890104680210C22B04BCDE90132CDE996
:10140000031005200023AE4AAEA10090B14805F0BC
:101410005BF80AA8032100220823CDE90532CDE9B3
:101420000710104699013322AB4BCDE90132CDE9CB
:10143000031006200023A94AA9A10090AC4805F09A
:1014400043F80AA8032100220823CDE90532CDE99B
:101450000710104680210C22A64BCDE90132CDE9C0
:10146000031007200023A44AA4A10090A74805F078
:101470002BF80AA8032100220823CDE90532CDE983
:101480000710104680210C22A14BCDE90132CDE995
:101490000310082000239F4A9FA10090A24805F056
:1014A00013F80AA8032100220823CDE90532CDE96B
:1014B0000710104680210C229C4BCDE90132CDE96A
:1014C0000310092000239A4A9AA100909D4804F035
:1014D000FBFF0AA8032100220823CDE90532CDE94C
:1014E0000710104680210C22974BCDE901320023D2
:1014F0000092CDE90310954A95A19A4804F0E4FFC3
:101500000AA8032100220823CDE90532CDE90710FE
:10151000104680210C22944BCDE90132CDE9031015
:1015200002200023914A92A10090944804F0CCFF3D
:101530000AA8032100220823CDE90532CDE90710CE
:10154000104680210C228E4BCDE90132CDE90310EB
:10155000022000238B4A8CA100908E4804F0B4FF37
:101560000AA8032100220823CDE90532CDE907109E
:10157000104680210C22884BCDE90132CDE90310C1
:101580000D200023854A86A10090894804F09CFF25
:101590000AA8032100220823CDE90532CDE907106E
:1015A000104680210C22834BCDE90132CDE9031096
:1015B0000B200023804A81A10090834804F084FF1F
:1015C0000AA8032100220592CDE9062108901046C1
:1015D0004FF4806166227D4BCDE90132CDE90310E5
:1015E000122000237A4A7BA100907E4804F06CFF11
:1015F0000AA8032100220592CDE906210890104691
:101600004FF480616622784BCDE90132CDE90310B9
:1016100013200023754A76A100907A4804F054FF05
:101620000AA8032100220592CDE906210890104660
:101630004FF480616622744BCDE90132CDE903108D
:1016400014200023714A72A10090764804F03CFFF8
:101650000AA8032100220592CDE906210890104630
:101660004FF480616622704BCDE90132CDE9031061
:10167000162000236D4A6EA10090724804F024FFEA
:101680000BB000BD18070020C93402084750535F53
:1016900053544F5F5441534B000000005406002048
:1016A000DC090020353402084750535F5245565F2D
:1016B0005441534B0000000018090020A00C0020EA
:1016C000BDB5020854454C5F53414D5F5441534BE7
:1016D00000000000DC0B0020640F0020FDB50208B4
:1016E00054454C5F53544F5F5441534B000000002E
:1016F000A00E00202818002075920208504C4F417F
:10170000445F53414D5F5441534B00006417002028
:10171000EC1A002031970208504C4F41445F53545B
:101720004F5F5441534B0000281A0020B01D002089
:1017300051B4020853544F5F5550444154455F54CF
:1017400041534B00EC1C00207420002043B40208DD
:1017500053544F5F4D4F4E49544F525F5441534B7A
:1017600000000000B01F002038230020DD2C0208FC
:101770004641554C545F5441534B000074220020A5
:10178000C0280020B98F02084F55545055545F545B
:1017900041534B00FC270020842B0020DD0D020864
:1017A0004144435F53414D504C455F5441534B00BE
:1017B000C02A0020FC25002031B6020854455354AD
:1017C0005F5441534B00000038250020482E002074
:1017D000211D0208417070205461736B2053656EA7
:1017E00047657400842D00200C3F00204918020832
:1017F000417070205461736B204D6167446F744475
:101800006D700000483E0020D04F00208D1A020865
:10181000417070205461736B20506974466C74433E
:101820006F6D00000C4F002094600020A90F02088B
:10183000417070205461736B204174745374614320
:10184000746C0000D05F00202DED088B94B040F642
:10185000B7359FED750BB0EE409AF0EE609A9FEDB4
:10186000740BB0EE40AAF0EE60AA9FED730BB0EEE1
:1018700040BAF0EE60BAD6E00021714800F028FDD1
:1018800070480068FEF738FF41EC100BB0EE408A5C
:10189000F0EE608A9FED6C0B53EC102B51EC180BA3
:1018A000FEF768FF12D20323012269490EA811F046
:1018B00046FB002407E09FED670B684800EBC4007F
:1018C00080ED000B641C032CF5DB67E00320012393
:1018D0000EAA5F49009008A811F09EFD0323012283
:1018E0005B490EA811F02BFB002455E008A800EB83
:1018F000C40003C841EC100B53EC102B9FED581B98
:1019000051EC110BFEF719FE41EC100BB0EE408AC2
:10191000F0EE608A544890ED000B53EC102B51EC24
:10192000180BFEF77AFE41EC100B4C4800EBC4009C
:1019300080ED000B494800EBC40003C841EC100BDC
:101940009FED4A1B53EC112BFEF728FF07D29FEDAA
:10195000470B424800EBC40080ED000B1BE03F4802
:1019600000EBC40003C841EC100B9FED421B53EC8D
:10197000112BFEF7FFFE07D29FED3E0B374800EB21
:10198000C40080ED000B06E09FED320B334800EB06
:10199000C40080ED000B641C032CA7DB2F4803C898
:1019A00041EC100B53EC192BFEF7C7FD41EC100B6B
:1019B0008DED020B2948C168806841EC100B53EC97
:1019C0001A2BFEF7BAFD41EC100B8DED040B2348EA
:1019D0004169006941EC100B53EC1B2BFEF7ADFD88
:1019E00041EC100B8DED060B0323012202A92348C5
:1019F00011F0A5FA032301221549214811F09FFA9D
:101A00002048007878B90F480068401C0D490860EC
:101A10001D480078012806D108460068A84202DD6A
:101A200001201849087027E739183558CD5CDC3F8C
:101A3000AF3DAC39AE02DD3F9F910416B960DE3F89
:101A400018A70020AC0200209A9999999999B93F5A
:101A5000D8A800200000000000000000F0A800202E
:101A60000000000080842EC1980200209A99999964
:101A70009999C93F9A9999999999C9BFC0A7002086
:101A800000A80020A9020020080200202DED0A8BEA
:101A9000C4B09FED850BB0EE408AF0EE608A02E1A3
:101AA0000021834800F014FC01A805F043FA8149A5
:101AB000086008460068FEF730FE41EC100BB0EEFF
:101AC00040BAF0EE60BA9FED7C0B53EC102B51EC5A
:101AD0001B0BFEF732FD41EC100BB0EE40AAF0EE0E
:101AE00060AA9FED770B53EC102B51EC1A0BFEF70D
:101AF00094FD41EC100BB0EE409AF0EE609A9FED31
:101B0000720B53EC102B51EC190BFEF786FD41ECD8
:101B1000100BB0EE40CAF0EE60CA6D4890ED000BBD
:101B200053EC102B51EC1C0BFEF761FC41EC100B3D
:101B3000684880ED000B6848007801280CD100242B
:101B400008E0664800EBC40003C8654A02EBC40223
:101B500003C2641C062CF4DB0623012260496148A1
:101B600011F0EDF95B4932A80EF0B2FF5C4A32A9E0
:101B70002CA811F0C5FF2CA928A810F087FA22AADA
:101B800032A91CA803F0B6FA55490AA803F016FBBF
:101B90001CAA0AA904A803F0C5FA5348C1688068C2
:101BA00041EC100BDDE9060141EC110B53EC102B5D
:101BB000FEF7BDFC41EC100B4C4880ED000B4A4891
:101BC000DDE9041206C00838DDE90612C0E9021298
:101BD000DDE90812C0E90412454A04A902A811F07F
:101BE00013F84448006828B902AA4349434811F051
:101BF000ABFC04E002AA4049404811F005FD53EC5B
:101C0000182B9DED020B51EC100BFEF796FC41ECEE
:101C1000100B3B4880ED000B022301223749394865
:101C200011F08DF9374803C841EC100B53EC182B19
:101C3000FEF783FC41EC100B324880ED000BC168CD
:101C4000806841EC100B53EC182BFEF776FC41EC4E
:101C5000100B2C4880ED020B0323012222A92A48F5
:101C600011F06DF9032301222149284811F067F989
:101C700020480068401C1F4908602548007858B972
:101C8000084600681E2807DB012021490870002053
:101C900020490870204908601D480078012802D1B9
:101CA0001E4800F007FBFBE6F8C1631ADCA54C40B8
:101CB00040A70020E8020020000000000000F03FE4
:101CC0000000000000408F40000000000018F540B8
:101CD000D8020020E0020020CC020020A8A80020AA
:101CE00060A8002090A7002018A80020A0020020D3
:101CF000D8A80020B002002030A9002020A9002090
:101D0000E8010020D8A70020E8A7002000A80020B4
:101D1000AA020020A8020020AC02002068A7002030
:101D20002DED088B9EB04FF4B465C8E10021E44866
:101D300000F0CEFAE3480078012810D10020E149F4
:101D400008700120E04908700020E0490870E0496F
:101D50000870E0490860E0490860E04908601CA894
:101D600005F0E8F8DE49086008460068FEF7D5FC93
:101D700041EC100BB0EE409AF0EE609A9FEDD90B5B
:101D800053EC102B51EC190BFEF7D7FB41EC100B69
:101D9000B0EE40AAF0EE60AA9FEDD40B53EC102BEE
:101DA00051EC1A0BFEF739FC41EC100BB0EE40BAC7
:101DB000F0EE60BA9FEDCF0B53EC102B51EC1B0BE8
:101DC000FEF72BFC41EC100BB0EE408AF0EE608A7F
:101DD000CA4890ED000B53EC102B51EC180BFEF79A
:101DE00006FB41EC100BC64880ED000BC54800789F
:101DF000012833D10020C34908700120C24908706E
:101E0000C24806C8C24806C0C24806C8C048183002
:101E100006C0C14806C8BE48083006C0BF4806C84C
:101E2000BB48203006C0BE4806C8B948083806C0BE
:101E3000BC4806C8B648D83800F5807006C0BA4815
:101E400006C8B348D83800F5847006C0B74806C83D
:101E5000AF48103006C00020B5490860B54800788A
:101E6000012827D1B44908700020B2490870002425
:101E700011E0B24800EBC40006C816A800EBC4008D
:101E800006C0AE49E01C01EBC00006C810A800EB7C
:101E9000C40006C0641C032CEBDB994B10AA16A9E6
:101EA000A74811F03DFE0120A64908700020A64970
:101EB000086093E094480078012842D19E49087058
:101EC0002846FEF719FC41EC100BB0EE408AF0EE0C
:101ED000608A8F48083803C841EC100B53EC102B74
:101EE000874890ED001B51EC110BFEF720FB41ECF5
:101EF000100BB0EE409AF0EE609A53EC182B51ECB8
:101F0000190BFEF71AFB41EC100B8DED0C0B8848FA
:101F1000006818B97E48D83813F0E6FC8448006899
:101F2000401C834908600CAB794AD83A694606A838
:101F300011F08CFF724B6A4606A9844811F077FEB7
:101F40004CE080480078012845D17F48006838B9C6
:101F50006B4A7B497E4801F0BDFA7D4813F0C4FC12
:101F600079480068FEF7C8FB41EC100BB0EE408AE0
:101F7000F0EE608A774890ED000B53EC102B51EC9B
:101F8000180BFEF7DAFA41EC100B8DED0C0B9FED00
:101F9000720B53EC102B9DED0C0B51EC100BFEF75C
:101FA000E9FB14D20120644908700CAB684A694609
:101FB00006A811F04BFF0EAB6A4606A9634811F064
:101FC00036FE61480068401C5F49086006E000205A
:101FD0005C49087002E000205749087060480078AA
:101FE000012806D15F4806C85F4806C000205C494A
:101FF00008705E480078012806D15D4806C85D4833
:1020000006C00020594908705B480078012806D1B5
:102010005A4806C85A4806C000205749087059480F
:102020000078012806D15848007827490870002018
:102030005449087055480078012806D15448007862
:102040002249087000205149087052480078012840
:1020500006D1514800781E49087000204D4908708B
:102060003548007810B90020184908700120164939
:10207000087008460078012802D1484800F01AF993
:1020800012480078012802D1454800F013F90E48A3
:102090000078444908700F480068434908600B48BD
:1020A0000078424908700C480068414908600848B7
:1020B000007840490870094800683F49086035E6E3
:1020C000F0A6002091020020A8020020A902002012
:1020D000AA020020AC020020B0020020B4020020BE
:1020E000E8020020000000000000F03F00000000B7
:1020F00000408F40000000000018F540D80200208A
:10210000E0020020090200200A0200201002002044
:1021100038AA0020180200202002002028020020F7
:102120003002002038020020400200204802002037
:10213000C8020020CC0200200802002030A80020A5
:10214000A8A80020CD020020D002002060A8002016
:1021500070AA002098020020000000000018E5404E
:102160006002002058020020500200207802002067
:1021700070020020680200209002002088020020E7
:10218000800200209302002092020020950200208D
:1021900094020020970200209602002018A7002039
:1021A00040A70020F0010020F4010020F8010020E9
:1021B000FC010020000200200402002008B50CF001
:1021C0001FFF00F0D3F800F0C1F8684604F0FAF8F9
:1021D00000F00AF8FEF780FEFFF7D4F803E04FF4B2
:1021E000FA6000F091F8FAE700B585B004A8002184
:1021F0000123CDE900310A46CDE9021010A11448AF
:1022000004F004FF04A80021124A0123CDE90032A2
:10221000CDE902100B4614220FA1134804F0F6FE7C
:1022200004A80021114A0123CDE90032CDE90210B2
:102230000B4614220EA1124804F0E8FE05B000BDC2
:10224000455053204F7665722054696D65720000C9
:10225000F4020020D5260208434F4D204F766572C8
:102260002054696D657200002803002001340208C3
:10227000475053204F7665722054696D6572000097
:102280005C0300201FB5684607F0FEFA019804B011
:1022900010BDF8B506460C4615466B462246294643
:1022A000304603F079FEBDF8000008B10020F8BD0B
:1022B0000120FCE738B504466A460021204603F0B9
:1022C0007FFFBDF8000008B1002038BD0120FCE709
:1022D0007CB505460C464FF47A706043094909689D
:1022E000B0FBF1F601A800231A46314600902846BB
:1022F00003F092FEBDF8040008B100207CBD01206F
:10230000FCE70000E87D0308FEB5044642F21070C9
:10231000844200D90446B4F57A7F0BD34FF47A7027
:10232000B4FBF0F086B24FF47A70B4FBF0F100FB2E
:10233000114501E0A5B2002602A800212B46324635
:10234000CDE90010084604F027FDFEBD70B5FFF78B
:1023500099FF044603480068B4FBF0F5284604F0F2
:10236000B7FF70BDE87D030800BFFEE710B500F0C1
:102370001FF800F019F810BD10B5002400BF00BF11
:10238000FDF754FE044600BF00BF1021054802F0CF
:10239000DBFE00BF00BF2046FDF74CFE00BF00BFC4
:1023A00010BD00007C7D002010B5FFF7E5FF10BDDB
:1023B00010B500200249086000F00AF810BD0000C6
:1023C0003000002001490860704700003000002004
:1023D00010B5FFF757FF04460848006840F08070CA
:1023E000064908600020064948600846006840F039
:1023F000010008602046FFF7E5FF10BDFCED00E09E
:10240000001000E00149486870470000001000E03B
:1024100070B500254FF4803400E0641E24B18020A4
:1024200007F0E6FE0028F8D014B90325284670BD51
:1024300040F2FF5007F098FE2846F8E72DE9F041FA
:10244000064600274748056801E04648056815F03C
:10245000450FFAD015F0040F06D00327042007F02B
:1024600083FE3846BDE8F08115F0010F05D0012745
:10247000012007F079FE3846F4E707F0B3FEB042DA
:1024800002D010273846EDE740F2FF5007F06CFE0F
:10249000002007F0CDFE04463348044201D13846FF
:1024A000E0E714F0004F01D01C20DBE714F0804F70
:1024B00001D00920D6E714F0005F01D00A20D1E74F
:1024C00014F0805F01D00B20CCE714F0006F01D036
:1024D0000C20C7E714F0806F01D00D20C2E714F084
:1024E000807F01D00E20BDE714F4000F01D00F2033
:1024F000B8E714F4800F01D01020B3E714F4001FE4
:1025000001D01120AEE714F4801F01D01220A9E7FA
:1025100014F4002F01D01320A4E714F4802F01D06D
:1025200014209FE714F4003F01D015209AE714F41B
:10253000803F01D0162095E714F4004F01D01720FA
:1025400090E714F4804F01D018208BE714F4005F5B
:1025500001D0192086E714F0080F01D01A2081E776
:1025600038467FE7342C014008E0FFFD70B50025B8
:102570000F48046801E00E48046814F0450FFAD0D3
:1025800014F0040F05D00325042007F0EDFD2846C4
:1025900070BD14F0010F05D00125012007F0E4FD06
:1025A0002846F5E740F2FF5007F0DEFD2846EFE74A
:1025B000342C014070B500250B48046801E00A483E
:1025C000046814F0450FFAD014F0040F05D0032569
:1025D000042007F0C9FD284670BD40F2FF5007F007
:1025E000C3FD2846F8E70000342C01402DE9F041F6
:1025F00006460F464FF000082248056801E02148D2
:10260000056815F0450FFAD015F0040F07D04FF00C
:102610000308042007F0A8FD4046BDE8F08115F04E
:10262000010F06D04FF00108012007F09DFD404644
:10263000F3E707F0D7FDB04203D04FF01008404653
:10264000EBE740F2FF5007F08FFD002007F0F0FDB0
:10265000044614F4604F03D1200C38804046DCE778
:1026600014F4005F01D01320D7E714F4804F01D099
:102670001020D2E714F4004F01D00F20CDE74046E0
:10268000CBE70000342C014070B500264FF48035B4
:102690000F48046802E06D1E0D48046814F0450FF1
:1026A00001D1002DF7D115B114F0040F05D0032688
:1026B000042007F059FD304670BD14F0400F05D0DE
:1026C0000026402007F050FD3046F5E73046F3E79E
:1026D000342C01400022124B1A70124B1A701A4609
:1026E000127822B1012A09D0022A15D10DE00E4A32
:1026F000127842F040020C4B1A700EE00A4A12782F
:1027000042F02002084B1A7007E0074A127842F0A4
:102710001002054B1A7000E000BF00BF70470000B8
:102720001D010020160100201A010020014609B9F0
:102730000B487047012901D10A48FAE7022901D163
:102740000948F6E7032901D10020F2E7042901D165
:102750000020EEE7052901D10448EAE70020E8E778
:10276000DC710020047400202C760020547B0020B3
:1027700008B54FF4E06003F09BF925208DF80000C8
:1027800000208DF8020001208DF80300684603F058
:1027900053F926208DF8000001208DF802008DF8F5
:1027A0000300684603F048F927208DF80000022056
:1027B0008DF8020001208DF80300684603F03CF913
:1027C00047208DF8000005208DF8020001208DF8CB
:1027D0000300684603F030F908BD000010B500247E
:1027E00000BF00BFFDF722FC044600BF00BF084841
:1027F0000078401C0649087000BF00BF2046FDF766
:1028000019FC00BF00BF08F03BFA03F051FA10BDFD
:102810005C0000200246094B9A4201D2084801E0C0
:102820000648103811F0005F03D0064B0B40C36020
:1028300002E0044B0B4083607047000010640240CC
:10284000006002407D0F7D0F21B1026842F001025D
:10285000026003E0026822F001020260704700009B
:10286000016821F001010160002101604160816087
:10287000C1600161212141614A49884204D13D2161
:10288000484A103A91608CE046491831884205D197
:102890004FF47461434A103A916082E0414930310B
:1028A000884205D14FF474113E4A103A916078E0A5
:1028B0003C494831884205D14FF07461394A103A99
:1028C00091606EE037496031884204D13649354A1B
:1028D000103AD16065E033497831884204D13349F8
:1028E000304A103AD1605CE02E499031884204D1E0
:1028F0002F492C4A103AD16053E02A49A831884226
:1029000005D14FF03D51274A103AD16049E029499D
:10291000884204D13D21274A083A116041E0254907
:102920001831884205D14FF47461224A083A116087
:1029300037E020493031884205D14FF474111D4AE7
:10294000083A11602DE01B494831884205D14FF00B
:102950007461184A083A116023E0164960318842D0
:1029600004D11149134A121F11601AE0114978313C
:10297000884204D10D490F4A121F116011E00D4920
:102980009031884204D10A490A4A121F116008E0B6
:102990000849A831884204D14FF03D51054A121F21
:1029A00011607047106002403D000020400F002081
:1029B00000003D201064024021B1026842F0200274
:1029C000026003E0026822F020020260704710B546
:1029D00011F0800F09D022B1436943F080034361B5
:1029E00003E0436923F08003436180290BD02AB1BF
:1029F000036801F01E042343036004E0036801F050
:102A00001E04A343036010BD10B500220268134BDF
:102A10001A40CC680B6823434C6923438C692343D9
:102A2000CC6923430C6A23434C6A23438C6A2343B7
:102A30004C6B23438C6B23431A430260426922F0A0
:102A40000702D1E90B3423431A4342610B69436007
:102A50004B6883608B68C36010BD00003F801CF032
:102A60007047000010B54FF4C0720021054802F015
:102A700074FB20220021044802F06FFB0020034970
:102A8000087010BDE0A3002060A500207A0100209E
:102A90000149086070470000143C014000212349AF
:102AA0008279002A3AD00A46126803689A430B4694
:102AB0001A600A1D126803689A430B1D1A60027996
:102AC00011440A6803681A430A60184A08321268F7
:102AD00003689A43154B08331A601A1D126803687D
:102AE0009A43124B0C331A604279102A0ED11A1FE6
:102AF000126803681A430D4B08331A601A1D1268D6
:102B000003681A43094B0C331A600DE007494279F8
:102B100011440A6803681A430A6005E00279114407
:102B20000A6803689A430A6070470000003C01404D
:102B300010B548F2B0340121204600F077F800BF0C
:102B400000BF00BF01214FF6FF7000F06FF80221B7
:102B5000204600F06BF800BF00BF00BF02214FF617
:102B6000FF7000F063F810BD70B5044621460020E8
:102B700000F05CF805462146284600F003F80020E6
:102B800070BD000070B503468C461913C3F30B02E9
:102B9000BCF1020F02D101F11004E1B240F6FF7462
:102BA000A2421DDA102A1BDD002010E001EB4104D7
:102BB0001C4D05EB8405441C35F8144001EB410520
:102BC000184E06EB850525F81040441CE0B2042899
:102BD000ECDB01EB4104134D05EB840422811FE083
:102BE000002010E001EB41040E4D05EB8405441C70
:102BF00035F8144001EB41050A4E06EB850525F832
:102C00001040441CE0B20428ECDB01EB4104054D0C
:102C100005EB84042281044C645C641C024D6C54FA
:102C200070BD0000E0A3002060A5002070B506463E
:102C30000C4600250EE000BF00BF00BF28466D1CFB
:102C40002149884206D921480078401C1F49087054
:102C5000012070BD02211E4808F096FB0028EAD032
:102C6000012C03D110201B49488304E0022C02D11F
:102C7000A003184948833146154808F0C2FB0EE00E
:102C800000BF00BF00BF28466D1C0F49884206D90F
:102C900011480078401C104908700120D9E7012133
:102CA0000B4808F071FB0028EAD0012C03D110205A
:102CB0000849088304E0022C02D1A00305490883D7
:102CC000034808F09BFBC4E7400D030051010020BE
:102CD00000300140000002405201002003E04FF4A8
:102CE0007A70FFF711FBFAE751B14FF0204252F82A
:102CF000202042F001024FF0204343F8202009E059
:102D00004FF0204252F82020034B1A404FF020434E
:102D100043F8202070470000FEFF0F00D0E90112A9
:102D20001143C26811430269114342691143826928
:102D30001143C2691143026A1143426A1143826A14
:102D40001143C26A1143026B11434FF020430268E2
:102D500043F822108168082908D11A46016852F800
:102D6000211041F04001026843F82210416B0968CC
:102D7000426B526841EA0211426B926841EA0221B9
:102D8000426BD26841EA0241426B126941EA025148
:102D9000426B526941EA0261426B926911430268D7
:102DA000521C4FF0204343F82210C16AB1F5804F06
:102DB0001AD1816B0968826B526841EA0211826BF9
:102DC000926841EA0221826B126941EA0251826BE8
:102DD000526941EA0261826B92691143026803EB16
:102DE0008202C2F8041108E06FF070414FF02043F6
:102DF000026803EB8202C2F8041170472DE9FC411E
:102E000007460D460026002400200090019008206F
:102E10005A49086010204860402088600020C8603F
:102E20004FF480600861084607F072FA1020FFF73F
:102E300005FB044614B12046BDE8FC8150480068FB
:102E400000044E4908603720486040208860002018
:102E5000C8604FF480600861084607F059FA3720CF
:102E6000FFF7ECFA04460CB12046E5E74FF0FF30DF
:102E70004449086008204860302088600220C8600B
:102E80000020086101204861084607F085F900200C
:102E90003A49086033204860402088600020C860BC
:102EA0004FF480600861084607F032FA3320FFF7DC
:102EB000C5FA04460CB12046BEE709E04FF4001005
:102EC00007F096F920B107F01DFA4DF82600761CA0
:102ED0002D48006840F22A610842EFD0082007F030
:102EE00087F928B1082007F03FF904242046A3E71A
:102EF000022007F07DF928B1022007F035F90224FD
:102F0000204699E7202007F073F928B1202007F028
:102F10002BF9062420468FE74FF4007007F068F97C
:102F200030B14FF4007007F01FF90724204683E703
:102F300040F2FF5007F018F900980006009901F4DC
:102F40007F4140EA0120009901F47F0140EA11200D
:102F5000009940EA1160686001980006019901F447
:102F60007F4140EA0120019901F47F0140EA1120EC
:102F7000019940EA1160286020465DE7B0710020A9
:102F800004000020C4710020342C014038B50446F0
:102F900020787E280BD02748007818B901202549D1
:102FA000087038BD0020234908700320F9E701228A
:102FB000694620460BF0EEFEA078204400799DF88B
:102FC000001088420BD01B48007818B9012019491D
:102FD0000870E6E70020174908700320E1E76078F1
:102FE000022804D0032804D004281AD100E01DE0F0
:102FF0001CE02079012802D0207902280FD10E4848
:103000000078012804D100200B4908700320C8E78C
:1030100009480078401C084908700220C1E70320D5
:10302000BFE7204600F05AF80420BAE700BF0020AE
:10303000B7E70000FB000020E001002070B5064665
:103040000C46154604EBC4000F4901EB800080F8E4
:10305000205004EBC4010C4A02EB81002022002125
:1030600002F07BF804EBC401074A02EB81002A4618
:103070003146FCF7F1FF0A2004EBC401024A02EBDF
:1030800081014884002070BD80A5002010B507A0F4
:1030900009F02AFA4FF4B8720D490E4800680CF096
:1030A00051FD00200C49087010BD0000526561649C
:1030B00020466970657820436F6D6D616E6420668F
:1030C000726F6D2043505520466C6173680D0A0085
:1030D00080A5002074010020E10100202DE9F843C3
:1030E0000546AF78E819441D2E48807804F8010B96
:1030F0002D48007804F8010B2B48407804F8010BA8
:103100002948807804F8010B4FF0000806E0FF2002
:1031100004F8010B08F1010000F0FF08B8F1140FEA
:10312000F5DB0B2221A125480EF00EFD064626B147
:1031300023A009F0D9F9BDE8F8832848016828A040
:1031400009F0D2F9254801681C480EF073FB0646C9
:1031500036B129A009F0C8F918480EF05BFBEAE780
:10316000A8781C30C7B26B463A46691C13480EF06B
:103170000EFE0098874206D026A009F0B5F90F4848
:103180000EF048FBD7E70D480EF044FB064616B993
:1031900027A009F0A9F91148006838440F490860D0
:1031A00000BFC8E74601002042010020303A2F66E8
:1031B000697065782E62696E00000000149E002020
:1031C000303A2F66697065782E62696E206F70657F
:1031D0006E206572726F720D0A000000DC01002023
:1031E000303A2F66697065782E6673697A653A2081
:1031F000256C640D0A000000303A2F66697065780E
:103200002E62696E206C7365656B206572726F72D9
:103210000D0A0000303A2F66697065782E62696E7B
:10322000207772697465206572726F720D0A0000F2
:10323000303A2F66697065782E62696E2073746FFC
:103240007265206F6B0D0A000120014908707047FC
:10325000E101002000200449087004490870044975
:103260000860044908607047D3010020D2010020A3
:10327000D4010020D801002010B51D488078801DA1
:10328000C2B200211A48FFF7D9FE1A488078801D83
:10329000C2B201211748FFF7D1FE17488078801D80
:1032A000C2B202211448FFF7C9FE14488078801D7D
:1032B000C2B203211148FFF7C1FE11488078801D7A
:1032C000C2B204210E48FFF7B9FE0E488078801D77
:1032D000C2B205210B48FFF7B1FE0B480B49C1F8FC
:1032E00068011E20A1F86C01062081F86E0110BD56
:1032F0009C7F0308A27F0308AB7F0308B47F030809
:10330000BD7F0308C37F0308C0BF561A80A50020F5
:1033100070B50A46002100238C4600BF3DE0012421
:1033200004FA01F3146804EA030C9C4534D10468E0
:103330004E000325B540AC43046014794D00AC4009
:1033400005682C4304601479012C02D01479022CF6
:1033500016D184684E000325B540AC43846054798F
:103360004D00AC4085682C438460446801258D4045
:10337000AC434460446895798D40ADB22C434460C1
:10338000C4684E000325B540AC43C460D4794D00F9
:10339000AC40C5682C43C460491C1029BFD370BD24
:1033A00070B500239C464C07E40E02FA04F3CD10DE
:1033B00000F1200454F825404D07EE0E0F25B540CE
:1033C000AC43CE1000F1200545F82640CD1000F1A9
:1033D000200454F8254044EA030CCD1000F12004E9
:1033E00044F825C070BD0246002053690B4201D04D
:1033F000012000E00020704741837047018370473F
:10340000704770B504460D462946204602F08EF8F6
:103410002946204601F0FAFF2946204602F02AF804
:103420002946204602F01CF92946204602F024FADB
:1034300070BD000008B5002240F225511E4808F07A
:103440001EFE01200CF089FE00201C49088032E09D
:1034500042F21070FEF758FF01200CF07EFE0020B3
:1034600016490880012240F22551134808F007FE52
:1034700012E008E09DF8002010490888411C0F4B1D
:1034800019800F490A54694601200CF074FE002887
:10349000F0D10A20FEF738FF08480088B0F5487FD1
:1034A000E7DB002240F22551034808F0E8FD04491B
:1034B0000448FFF7A6FFCBE70044004022010020AC
:1034C000C0A0002040A0002003E04FF47A70FEF777
:1034D0001BFFFAE72DE9F0472DED0E8BEAB004460D
:1034E0008846924651462EA80CF098FE03222EA93B
:1034F0001CA80FF0EBFD4FF000090AE008EBC90033
:1035000090ED000B04A800EBC90080ED000B09F161
:103510000109B9F1060FF1DB04A95EA800F0CAFAAF
:103520009FEDFE0B84ED360B9DED620BB0EE401A65
:10353000F0EE601A9FEDFB0B53EC102B51EC110BCE
:10354000FCF7FBFF41EC100BB0EE40BAF0EE60BAB6
:103550009FEDF60B53EC102B51EC1B0BFDF75DF8B8
:1035600041EC100B84ED380B9DED640BB0EE401A6E
:10357000F0EE601A9FEDEB0B53EC102B51EC110B9E
:10358000FCF7DBFF41EC100BB0EE40BAF0EE60BA96
:103590009FEDE60B53EC102B51EC1B0BFDF73DF8A8
:1035A00041EC100B84ED3A0B61996098C4E93C0141
:1035B0009DED660BB0EE401AF0EE601A9FEDD90B50
:1035C00053EC102B51EC110BFCF7B7FF41EC100B37
:1035D000B0EE40BAF0EE60BA9FEDD40B53EC102B76
:1035E00051EC1B0BFDF719F841EC100B84ED3E0B71
:1035F0009DED680BB0EE401AF0EE601A9FEDC90B1E
:1036000053EC102B51EC110BFCF797FF41EC100B16
:10361000B0EE40BAF0EE60BA9FEDC40B53EC102B45
:1036200051EC1B0BFCF7F9FF41EC100B84ED400B48
:103630009DED5E0BB0EE401AF0EE601A9DED5E0B54
:10364000B0EE402AF0EE602A53EC112B51EC120B35
:10365000FCF773FF41EC100BB0EE40BAF0EE60BA2D
:103660009DED5E0BB0EE401AF0EE601A53EC112B9C
:1036700051EC1B0BFCF761FF41EC100BB0EE40CAA4
:10368000F0EE60CA53EC1C2BAA4890ED000B51ECF5
:10369000100BFCF7C2FF41EC100BB0EE40DAF0EE7D
:1036A00060DA0AF095FBB0EE40EAF0EE60EA9FEDDA
:1036B000A20B53EC102B51EC1E0BFCF73EFF41EC20
:1036C000100B84ED420B9FED9E8B9FED9F9B9FED1A
:1036D000A0ABDDE19FED9E0B53EC102B51EC180BD2
:1036E000FCF785FE41EC100BB0EE408AF0EE608AEC
:1036F000204612F0F9F8002322464CA952A810F0F7
:10370000A5FB0120032152AA0B46CDE9002102901E
:103710000A461CA916A80FF093FD012003214CAA0C
:103720000B46CDE9002102900A461CA910A80FF013
:1037300087FD002528E016A800EBC50090ED000BE2
:10374000B0EE401AF0EE601A08EBC50090ED000BE9
:10375000B0EE402AF0EE602A53EC112B51EC120B24
:10376000FCF7E5FE41EC100B40A800EBC50080ED36
:10377000000B40A800EBC50090ED000B58A800EB33
:10378000C50080ED000B6D1C032DD4DB002620E06E
:1037900010A800EBC60090ED000BB0EE401AF0EE62
:1037A000601AF01C08EBC00090ED000BB0EE402A50
:1037B000F0EE602A53EC112B51EC120BFCF7B7FE24
:1037C00041EC100B40A9F01C01EBC00080ED000B98
:1037D000761C032EDCDB032158A80FF06FFEB0EE41
:1037E00040BAF0EE60BA9FED5C0B53EC102B51EC3D
:1037F0001B0BFCF712FF41EC100BB0EE40CAF0EED1
:1038000060CA0AF0E5FAB0EE409AF0EE609A9FEDD9
:10381000540B53EC102B51EC190BFCF7BFFF7BD86A
:103820009FED510B53EC102B51EC180BFCF7A2FF42
:10383000F5D800271FE040A800EBC70090ED000B73
:10384000B0EE401AF0EE601A04A800EBC70090ED4D
:10385000000BB0EE402AF0EE602A53EC112B51EC35
:10386000120BFCF7C4FD41EC100B04A800EBC700E1
:1038700080ED000B7F1C062FDDDB04A95EA800F0A5
:1038800019F99FED260B84ED360B9DED620BB0EE22
:10389000401AF0EE601A9FED230B53EC102B51EC05
:1038A000110BFCF74AFE41EC100BB0EE40BAF0EE03
:1038B00060BA9FED1E0B53EC102B51EC1B0BFCF769
:1038C000ACFE41EC100B84ED380B9DED640BB0EEBB
:1038D000401AF0EE601A9FED130B53EC102B51ECD5
:1038E000110BFCF72AFE41EC100BB0EE40BAF0EEE3
:1038F00060BA9FED0E0B53EC102B51EC1B0BFCF739
:103900008CFE41EC100B84ED3A0B61996098C4E990
:103910003C019DED660B2BE0B4E000002D431CEB59
:10392000E2362A3F182D4454FB21094000000000D4
:1039300000806640D87F03080000000000004E4071
:103940000000000000000000000000000088C340EC
:10395000000000000000F03F0000000000000840F0
:103960007B14AE47E17A843F000000000000344041
:10397000B0EE401AF0EE601A1FED160B53EC102B50
:1039800051EC110BFCF7D9FD41EC100BB0EE40BA35
:10399000F0EE60BA1FED1B0B53EC102B51EC1B0B20
:1039A000FCF73BFE41EC100B84ED3E0B9DED680BEC
:1039B000B0EE401AF0EE601A1FED260B53EC102B00
:1039C00051EC110BFCF7B9FD41EC100BB0EE40BA15
:1039D000F0EE60BA1FED2B0B53EC102B51EC1B0BD0
:1039E000FCF71BFE41EC100B84ED400B9DED5E0BD4
:1039F000B0EE401AF0EE601A9DED5E0BB0EE402A7C
:103A0000F0EE602A53EC112B51EC120BFCF795FDF4
:103A100041EC100BB0EE40BAF0EE60BA9DED5E0BDB
:103A2000B0EE401AF0EE601A53EC112B51EC1B0B68
:103A3000FCF783FD41EC100BB0EE40CAF0EE60CA1B
:103A400053EC1C2B1A4890ED000B51EC100BFCF7BB
:103A5000E4FD41EC100BB0EE40DAF0EE60DA0AF073
:103A6000B7F9B0EE40EAF0EE60EA1FED4D0B53EC13
:103A7000102B51EC1E0BFCF760FD41EC100B84ED9C
:103A8000420B05E01FED520BB0EE40AAF0EE60AA2B
:103A90001FED550B53EC102B51EC1A0BFCF76AFE83
:103AA0007FF418AE6AB0BDEC0E8BBDE8F087000065
:103AB000D87F030803B5EFB0002017902FE01799C7
:103AC000709800EBC10068AB06C8179803EBC00004
:103AD00006C09DED680B8DED5C0B9DED6A0B8DEDC9
:103AE0005A0B9DED6C0B8DED580B1798C01C7099FF
:103AF00001EBC00060A90CC8179801EBC0000CC016
:103B00009DED600B8DED560B9DED620B8DED540B15
:103B10009DED640B8DED520B1798401C1790179874
:103B20000328CCDB032168A80FF0C8FC8DED660BE1
:103B3000032160A80FF0C2FC8DED5E0B60AA68A99E
:103B40004CA808F085FC9DED5E0B53EC102B9DED11
:103B5000660B51EC100BFCF7F0FC41EC100B8DEDFB
:103B60000A0B9DED5E0B53EC102B9DED0A0B51ECF7
:103B7000100BFCF7E2FC41EC100B8DED0E0BFE4838
:103B800090ED000B53EC102B9FEDFC0B51EC100B48
:103B9000FCF7D3FC41EC100B8DED0C0B9DED0E0BE7
:103BA00053EC102B9DED0C0B51EC100BFCF7BFFCF4
:103BB00041EC100B8DED120B9DED660B53EC102BB1
:103BC000ED4890ED000B51EC100BFCF7B6FC41EC0E
:103BD000100B8DED100B9DED120B53EC102B9DED8A
:103BE000100B51EC100BFCF718FD41EC100B8DED98
:103BF000440B9DED520B53EC102B9DED580B51ECEB
:103C0000100BFCF79AFC41EC100B8DED0E0B9DEDAB
:103C1000540B53EC102B9DED5A0B51EC100BFCF791
:103C20008CFC41EC100B8DED0A0B9DED560B53EC0B
:103C3000102B9DED5C0B51EC100BFCF77EFC41EC66
:103C4000100B8DED080B9DED0A0B53EC102B9DED29
:103C5000080B51EC100BFCF7CAFB41EC100B8DED7F
:103C60000C0B9DED0E0B53EC102B9DED0C0B51EC42
:103C7000100BFCF7BCFB41EC100B8DED120B9DED16
:103C8000440B53EC102BBC4890ED000B51EC100B87
:103C9000FCF753FC41EC100B8DED0C0B9DED0C0B68
:103CA00053EC102B9FEDB70B51EC100BFCF7B5FC50
:103CB00041EC100B8DED0E0B9DED0E0B0AF088F80C
:103CC0008DED100B9DED120B53EC102B9DED100B99
:103CD00051EC100BFCF731FC41EC100B8DED4A0B55
:103CE0009DED440B53EC102B9DED660B51EC100B2E
:103CF000FCF793FC41EC100B8DED120B9FEDA10B2B
:103D000053EC102B9DED120B51EC100BFCF712FC39
:103D100041EC100B8DED480B9DED480B53EC102B37
:103D20009DED4A0B51EC100BFCF777FC41EC100BAE
:103D30008DED0E0B9DED0E0B08F0A6FD8DED100B1D
:103D40009FED920B53EC102B9DED100B51EC100BD3
:103D5000FCF7F3FB41EC100B8DED120B9FED8D0B7F
:103D600053EC102B9DED120B51EC100BFCF755FC96
:103D700041EC100B8DED460B9FED880B53EC102B97
:103D80009DED4A0B51EC100BFCF708FD19D29FED8D
:103D9000830B53EC102B9DED480B51EC100BFCF7F3
:103DA000E9FC0ED29FED790B53EC102B9DED460BE9
:103DB00051EC100BFCF71BFB41EC100B8DED460B8F
:103DC00048E09FED760B53EC102B9DED4A0B51EC28
:103DD000100BFCF7CFFC19D29FED700B53EC102B9E
:103DE0009DED480B51EC100BFCF7D8FC0ED29FED6B
:103DF0006D0B53EC102B9DED460B51EC100BFCF7AB
:103E0000F6FA41EC100B8DED460B23E09FED630BB2
:103E100053EC102B9DED4A0B51EC100BFCF7AAFC58
:103E200018D29FED5E0B53EC102B9DED480B51EC1F
:103E3000100BFCF79FFC0DD29FED540B53EC102B95
:103E40009DED460B51EC100BFCF7D1FA41EC100B39
:103E50008DED460B9FED4F0B53EC102B9DED460B5C
:103E600051EC100BFCF769FB41EC100B8DED0C0BCA
:103E70009FED460B53EC102B9DED0C0B51EC100BF2
:103E8000FCF7CBFB41EC100B8DED0E0B9DED0E0BFB
:103E900008F062FF8DED120B9DED440B53EC102BDF
:103EA0009DED660B51EC100BFCF7B7FB41EC100BD2
:103EB0008DED0E0B9FED330B53EC102B9DED0E0B88
:103EC00051EC100BFCF736FB41EC100B8DED100B99
:103ED0009DED120B53EC102B9DED100B51EC100BC4
:103EE000FCF79BFB41EC100B8DED420B9DED420B63
:103EF00053EC102B9DED420B51EC100BFCF71DFB0E
:103F000041EC100B8DED020B9FED1E0B53EC102BB3
:103F10009DED020B51EC100BFCF70CFB41EC100B70
:103F20008DED060B9DED440B53EC102B124890EDDC
:103F3000000B51EC100BFCF700FB41EC100B8DED6E
:103F4000040B9DED060B53EC102B9DED040B51EC77
:103F5000100BFCF7F2FA41EC100B8DED080B9DED08
:103F6000080B09F035FF8DED0C0B9DED560B53EC56
:103F7000102B9DED5A0B19E0D87F030800000000BC
:103F800000000040000000000000F03F00000000C2
:103F900000806640182D4454FB21094000000000B9
:103FA00000000000000000000080764051EC100B83
:103FB000FCF7C3FA41EC100B8DED080B9DED540B93
:103FC00053EC102B9DED5C0B51EC100BFCF7B5FA8C
:103FD00041EC100B8DED060B9DED080B53EC102BF7
:103FE0009DED060B51EC100BFCF7A1FA41EC100B08
:103FF0008DED0A0B9DED0C0B53EC102B9DED0A0B78
:1040000051EC100BFCF709FB41EC100B8DED0E0B86
:104010009DED0E0B08F090FA8DED100B1FED250BAA
:1040200053EC102B9DED100B51EC100BFCF785FAA7
:1040300041EC100B8DED120B1FED2A0B53EC102BE6
:104040009DED120B51EC100BFCF7E7FA41EC100B55
:104050008DED400B1FED2F0B8DED2E0B1FED310B5A
:104060008DED300B1FED390B8DED320B4CAA2EA9C7
:1040700028A808F0EDF9032128A80FF01FFA8DED0C
:10408000260B002016901CE028A9169801EBC00012
:1040900090ED000B8DED120B9DED260B53EC102BCC
:1040A0009DED120B51EC100BFCF7B7FA41EC100B25
:1040B00028A9169801EBC00080ED000B1698401C53
:1040C000169016980328DFDB9DED280B8DED0E0B67
:1040D0009DED0E0B08F030FA8DED100B1FED550B1A
:1040E00053EC102B9DED100B51EC100BFCF725FA47
:1040F00041EC100B8DED120B1FED5A0B53EC102BF6
:104100009DED120B51EC100BFCF787FA41EC100BF4
:104110008DED3E0B9DED2A0B8DED0E0B9DED0E0BE7
:1041200008F00AFA8DED100B1FED680B53EC102B05
:104130009DED100B51EC100BFCF7FFF941EC100B4F
:104140008DED120B1FED6D0B53EC102B9DED120B33
:1041500051EC100BFCF761FA41EC100B8DED3C0BB0
:104160001FED720B53EC102B9DED3C0B51EC100B23
:10417000FCF714FB0FD89FEDFE0B53EC102B9DEDBD
:104180003C0B51EC100BFCF7F5FA04D89DED3E0BFF
:104190008DED3E0B23E09FEDF60B53EC102B9DEDC8
:1041A0003C0B51EC100BFCF7F9FA18D21FED890B00
:1041B00053EC102B9DED3C0B51EC100BFCF7DAFA95
:1041C0000DD89DED3E0B53EC102B1FED8A0B51ECDF
:1041D000100BFCF7ACF941EC100B8DED3E0B28AA4F
:1041E0004CA920A808F034F9032120A80FF066F9A3
:1041F0008DED1E0B002015901CE020A9159801EBF9
:10420000C00090ED000B8DED120B9DED1E0B53ECDD
:10421000102B9DED120B51EC100BFCF7FEF941EC4D
:10422000100B20A9159801EBC00080ED000B15982C
:10423000401C159015980328DFDB9DED2C0B8DEDB0
:10424000060B9DED6C0B8DED040B9DED060B53ECF9
:10425000102B9DED040B51EC100BFCF76EF941ECAB
:10426000100B8DED0A0B9DED2A0B8DED020B9DEDD4
:104270006A0B8DED000B9DED020B53EC102B9DEDA9
:10428000000B51EC100BFCF758F941EC100B8DEDC5
:10429000060B9DED280B8DED020B9DED680B8DED52
:1042A000000B9DED020B53EC102B9DED000B51EC20
:1042B000100BFCF742F941EC100B8DED040B9DED5A
:1042C000060B53EC102B9DED040B51EC100BFCF77F
:1042D0008EF841EC100B8DED080B9DED0A0B53ECA5
:1042E000102B9DED080B51EC100BFCF780F841EC06
:1042F000100B8DED0C0B9DED660B53EC102B9DED13
:104300000C0B51EC100BFCF788F941EC100B8DED08
:104310000E0B9DED0E0B08F00FF98DED100B1FED40
:10432000E50B53EC102B9DED100B51EC100BFCF733
:1043300004F941EC100B8DED120B1FEDEA0B53EC61
:10434000102B9DED120B51EC100BFCF766F941ECB4
:10435000100B8DED3A0B9DED240B8DED060B9DEDB5
:104360006C0B8DED040B9DED060B53EC102B9DEDAE
:10437000040B51EC100BFCF7E0F841EC100B8DED49
:104380000A0B9DED220B8DED020B9DED6A0B8DED61
:10439000000B9DED020B53EC102B9DED000B51EC2F
:1043A000100BFCF7CAF841EC100B8DED060B9DEDE0
:1043B000200B8DED020B9DED680B8DED000B9DED3F
:1043C000020B53EC102B9DED000B51EC100BFCF786
:1043D000B4F841EC100B8DED040B9DED060B53EC86
:1043E000102B9DED040B51EC100BFCF700F841EC89
:1043F000100B8DED080B9DED0A0B53EC102B9DED72
:10440000080B51EC100BFBF7F2FF41EC100B8DED9C
:104410000C0B9DED660B53EC102B9DED0C0B51EC32
:10442000100BFCF7FAF841EC100B8DED0E0B9DED27
:104430000E0B08F081F88DED100B9FED4F0B53EC38
:10444000102B9DED100B51EC100BFCF776F841ECA6
:10445000100B8DED120B9FED4A0B53EC102B9DEDC5
:10446000120B51EC100BFCF7D8F841EC100B8DED52
:10447000380B9FED450B53EC102B9DED380B51EC99
:10448000100BFCF78BF90FD89FED390B53EC102B69
:104490009DED380B51EC100BFCF76CF904D89DED39
:1044A0003A0B8DED3A0B23E09FED310B53EC102BC3
:1044B0009DED380B51EC100BFCF770F918D29FED05
:1044C0002E0B53EC102B9DED380B51EC100BFCF721
:1044D00051F90DD89DED3A0B53EC102B9FED2C0BA1
:1044E00051EC100BFCF723F841EC100B8DED3A0B5F
:1044F0009FED230B53EC102B9DED460B51EC100B55
:10450000FCF71BF841EC100B8DED120B9FED200B0F
:1045100053EC102B9DED120B51EC100BFCF77DF8BA
:1045200041EC100B8DED1C0B9DED1C0B09F08CFC70
:104530008DED100B9DED420B53EC102B9FED160BE8
:1045400051EC100BFBF7F3FF41EC100B8DED0A0B58
:104550009DED420B53EC102B9FED0F0B51EC100B0C
:10456000FBF745FF41EC100B8DED080B18E0000048
:1045700000000000008056400000000000806640FF
:10458000182D4454FB2109400000000000000000E9
:104590000000000000807640000000000000F03FB6
:1045A0009DED0A0B53EC102B9DED080B51EC100BFD
:1045B000FCF733F841EC100B8DED0C0B9DED0C0B63
:1045C00009F006FC8DED0E0B9DED100B53EC102B3E
:1045D0009DED0E0B51EC100BFBF7AFFF41EC100BF8
:1045E0008DED120B9DED120B08F04EF98DED1A0BAF
:1045F0009FED850B53EC102B9DED1C0B51EC100B1C
:10460000FCF7CCF818D21FED220B53EC102B9DEDCC
:104610001C0B51EC100BFCF7ADF80DD21FED280B65
:1046200053EC102B9DED1A0B51EC100BFBF7DFFE3A
:1046300041EC100B8DED1A0B9DED1A0B53EC102B6A
:104640009FED730B51EC100BFBF777FF41EC100B58
:104650008DED100B1FED380B53EC102B9DED100B57
:1046600051EC100BFBF769FF41EC100B8DED120BB9
:104670001FED3D0B53EC102B9DED120B51EC100B6D
:10468000FBF7CBFF41EC100B8DED180B9DED180BDC
:1046900053EC102B9DED3A0B51EC100BFBF747FF41
:1046A00041EC100B8DED360B1FED490B53EC102B2D
:1046B0009DED360B51EC100BFCF75CF80DD21FEDA5
:1046C0004C0B53EC102B9DED360B51EC100BFBF704
:1046D0008EFE41EC100B8DED360B1FED570B53EC9E
:1046E000102B9DED460B51EC100BFBF726FF41EC18
:1046F000100B8DED060B1FED600B53EC102B9DED99
:10470000060B51EC100BFBF788FF41EC100B8DED05
:10471000080B9DED080B09F0EFFA8DED0A0B9DEDEE
:10472000420B53EC102B9DED0A0B51EC100BFBF7D9
:1047300004FF41EC100B8DED0E0B1FED6F0B53ECD6
:10474000102B9DED460B51EC100BFBF7F6FE41ECE8
:10475000100B8DED0A0B1FED780B53EC102B9DED1C
:104760000A0B51EC100BFBF758FF41EC100B8DEDD1
:104770000C0B9DED0E0B53EC102B9DED0C0B51EC27
:10478000100BFBF7D4FE41EC100B8DED100B1FED61
:10479000860B53EC102B9DED100B51EC100BFBF71F
:1047A000CCFE41EC100B8DED120B1FED8B0B53EC7F
:1047B000102B9DED120B51EC100BFBF72EFF41EC73
:1047C000100B8DED340B9DED440B6F9880ED000BBD
:1047D0009DED420B6F9880ED020B9DED400B6F98A5
:1047E00080ED040B9DED3E0B6F9880ED060B9DED6B
:1047F000360B6F9880ED080B9DED340B6F9880EDB4
:104800000A0B71B000BD0000182D4454FB21F93F84
:10481000000000000000004008B5694605200BF0CC
:10482000AAFC18B19DF8000007F04AFB08BD00BFC4
:10483000FEE710B500F002F810BD00004AF6AA200D
:1048400001490860704700000030004000B587B0A3
:104850000121022004F0B8FF0121102004F0F4FF30
:10486000072206219C48FEF79BFD072211469A4825
:10487000FEF796FD00208DF81A0001208DF81B0030
:1048800002208DF818004020059002208DF81900B4
:1048900005A99148FEF73CFD02208DF81800802004
:1048A000059005A98C48FEF733FD4FF4E1300190E7
:1048B0000020ADF80800ADF80A00ADF80C00ADF826
:1048C00010000C20ADF80E0001A9844807F0FCFB95
:1048D000012240F22551814807F0D1FB01217F4898
:1048E00007F095FB40217D4807F088FB0121084631
:1048F00004F06AFF0121480404F096FF0722032117
:104900007748FEF74DFD00208DF81A0001208DF844
:104910001B0002208DF818008DF818000820059063
:1049200002208DF8190005A96D48FEF7F1FC4FF43F
:10493000E13001900020ADF80800ADF80A00ADF8B4
:104940000C00ADF810000420ADF80E0001A9654878
:1049500007F0BAFB012240F22551624807F08FFBB5
:104960000121604807F053FB40215E4807F046FBF9
:104970000121022004F028FF01208DF818000020FA
:104980008DF81A008DF81B0003208DF81900042003
:10499000059005A95048FEF7BBFC0121022004F058
:1049A00013FF0121880404F03FFF07220A214A482F
:1049B000FEF7F6FC07220B214748FEF7F1FC00202A
:1049C0008DF81A0001208DF81B0002208DF81800C8
:1049D0004002059002208DF8190005A93E48FEF717
:1049E00097FC02208DF818008002059005A93A482E
:1049F000FEF78EFC4FF4165001900020ADF8080031
:104A0000ADF80A00ADF80C00ADF810000C20ADF8C0
:104A10000E0001A9344807F057FB012240F225514E
:104A2000314807F02CFB01212F4807F0F0FA402114
:104A30002D4807F0E3FA0121042004F0C5FE01210E
:104A4000202004F001FF082206212848FEF7A8FCD8
:104A5000082207212548FEF7A3FC00208DF81A0044
:104A600001208DF81B0002208DF818008DF8180029
:104A70004020059005A91D48FEF74AFC02208DF84C
:104A800018008020059005A91848FEF741FC4FF456
:104A9000E13001900020ADF80800ADF80A00ADF853
:104AA0000C004FF44070ADF810000C20ADF80E0073
:104AB00001A90F4807F008FB012240F225510C48DC
:104AC00007F0DDFA01210A4807F0A1FA4021084861
:104AD00007F094FA07B000BD000402400010014046
:104AE000000002400044004000480040000802402E
:104AF0000014014000B587B01222002102A800F086
:104B00002CFB0422002101A800F027FB012108034F
:104B100004F09AFE00211F4806F020FC0020ADF8AA
:104B200008004FF48270ADF80A004FF40060ADF851
:104B30000C000220ADF80E000020ADF810004FF47C
:104B40000070ADF812003820ADF814000020ADF868
:104B500016000720ADF8180002A90E4806F053FC15
:104B6000012250210B4806F034FC0121094806F0CF
:104B7000F5FB23208DF8040002208DF805000020AD
:104B80008DF8060001208DF8070001A800F054FF01
:104B900007B000BD003001401CB508220021684666
:104BA00000F0DBFA0121084604F00EFE012102208C
:104BB00004F00AFE052211462F48FEF7F1FB0522FC
:104BC00006212D48FEF7ECFB052207212A48FEF7B7
:104BD000E7FB02208DF804008DF8050000208DF819
:104BE000060002208DF80700E02000906946224868
:104BF000FEF78EFB01208DF8040000208DF80600E2
:104C000002208DF8050000208DF80700022000909A
:104C100069461A48FEF77CFB01208DF8040000204D
:104C20008DF8060002208DF8050000208DF80700A1
:104C30001020009069461048FEF76AFB01208DF8AD
:104C4000040000208DF8060002208DF805000020E9
:104C50008DF807004FF40040009069460648FEF7C3
:104C600057FB0220054918310880102002490883AB
:104C7000C00208831CBD0000000002400004024086
:104C800038B5044661786A46A01C00F0FBF96078EC
:104C9000801C205C9DF80010884206D0F248007805
:104CA000401CF1490870012038BD2078452879D290
:104CB000DFE800F078232E363C4248505878787868
:104CC00078787878606C7985919DA9B5C1CDF0FC34
:104CD000EDECEBEAE9E8E7E6E5E4E3E2787878781A
:104CE0007878787878E1E0DFDEDD78787878787841
:104CF0007878787878DCDBDAD9000120DB49087035
:104D0000DB480088401CDA49088000F0C5F9A8E1BA
:104D1000D7480088401CD649088000F0BDF9A0E1C2
:104D2000D3480088401CD24908809AE1D0480088C6
:104D3000401CCF49088094E1CD480088401CCC49F4
:104D400008808EE1CA480088401CC949088000F0EC
:104D5000A3F986E1C6480088401CC549088000F0D8
:104D60009BF97EE1C2480088401CC149088000F0E0
:104D700093F976E10221BF48FEF740FBBC4800886A
:104D8000401CBB49088000F087F96AE10221B9485C
:104D9000FEF732FBB6480088401CB549088000F099
:104DA0007BF95EE15CE14021B248FEF727FBB048A9
:104DB0000088401CAE49088000F06EF951E14021A6
:104DC000AC48FEF719FBAA480088401CA849088097
:104DD00000F062F945E10421A648FEF70FFBA44864
:104DE0000088401CA249088000F056F939E10421EE
:104DF000A048FEF701FB9E480088401C9C490880A3
:104E000000F04AF92DE101219A48FEF7F7FA984897
:104E10000088401C9649088000F03EF921E10121FC
:104E20009448FEF7E9FA92480088401C90490880AF
:104E300000F032F915E110218F48FEF7DFFA8C48B7
:104E40000088401C8A49088000F026F909E11021F9
:104E50008948FEF7D1FA86480088401C84490880BA
:104E600000F01AF9FDE0F3E0EAE0E1E0D8E0CFE09D
:104E7000C6E0BDE0B4E0ABE0A2E099E090E087E0FE
:104E800079E06BE05EE051E043E035E027E019E0D7
:104E90000CE0FFE708217848FEF7B0FA7448008874
:104EA000401C7349088000F0F7F8DAE008217248E6
:104EB000FEF7A2FA6E480088401C6D49088000F099
:104EC000EBF8CEE04FF480416C48FEF797FA684863
:104ED0000088401C6649088000F0DEF8C1E04FF40D
:104EE00080416648FEF788FA61480088401C6049A6
:104EF000088000F0D1F8B4E04FF400415F48FEF7BD
:104F00007DFA5B480088401C5949088000F0C4F8CD
:104F1000A7E04FF400415948FEF76EFA5448008864
:104F2000401C5349088000F0B7F89AE00821544823
:104F3000FEF764FA4E480088401C4D49088000F096
:104F4000ABF88EE008214E48FEF756FA4848008834
:104F5000401C4749088000F09FF882E04FF48071C0
:104F60004648FEF74BFA42480088401C40490880FA
:104F700000F092F875E04FF480714048FEF73CFA7B
:104F80003B480088401C3A49088000F085F868E0FA
:104F900037480088401C3649088000F07DF860E002
:104FA00033480088401C3249088000F075F858E00A
:104FB0002F480088401C2E49088000F06DF850E012
:104FC0002B480088401C2A49088000F065F848E01A
:104FD00027480088401C2649088000F05DF840E022
:104FE00023480088401C2249088000F055F838E02A
:104FF0001F480088401C1E49088000F04DF830E032
:105000001B480088401C1A49088000F045F828E039
:1050100017480088401C1649088000F03DF820E041
:1050200013480088401C1249088000F035F818E049
:105030000F480088401C0E49088000F02DF810E051
:105040000B480088401C0A49088000F025F808E059
:1050500007480088401C0649088000F01DF800E061
:1050600000BF00BF00201FE61C0100201B01002024
:105070001801002000100240000402400018024005
:10508000000C024010B503E04C1EE1B2445C6340EA
:105090000029F9D1137010BD1FB5002001900290B6
:1050A0000390A5208DF804005A208DF805003020CB
:1050B0008DF8060002208DF807000D480088C0B268
:1050C0008DF808000A480088000A8DF809009DF84C
:1050D00007106A4602A8FFF7D5FF9DF800008DF87B
:1050E0000A00072201A905200BF054F81FBD00009B
:1050F0001801002070B596B005460E4614460323ED
:105100001A46314604A80EF0BAF9012003210B46D5
:105110000A46CDE90041029004A928460EF090F815
:1051200016B070BDFEB505460E461446012003219B
:105130000B460A46CDE900410290314628460EF062
:105140007FF8FEBD00BFFEE730B505460C4622469F
:105150000021284600F001F830BD2DE9F04103465A
:105160000C4617460FB9BDE8F08103B9FBE70025EF
:10517000002202E02D022543521C042AFAD33846AD
:1051800003F0030C1946BCF1000F08D0624603E09F
:1051900001F8014B401E521C08B1042AF8D30E46F8
:1051A00001E020C6001F0428FBD2314602E001F8CE
:1051B000014B401E0028FAD100BFD4E730B52DEDD9
:1051C000028BB1B005460C46032120460EF076F95D
:1051D000B0EE408AF0EE608A53EC182B9FED780B0E
:1051E00051EC100BFBF719FA41EC100B8DED160B7F
:1051F000012016AACDE90020034603222146029091
:105200001EA80EF01DF8032104F118000EF056F947
:10521000B0EE408AF0EE608A53EC182B9FED6A0BDB
:1052200051EC100BFBF7F9F941EC100B8DED160B5F
:10523000012016AACDE900200346032204F118013B
:10524000029018A80DF0FCFF9FED610B8DED040B93
:10525000DDE9220141EC100B81F0004141EC100B23
:105260008DED060BDDE92001CDE90801DDE9220124
:10527000CDE90A019FED560B8DED0C0BDDE91E010A
:1052800041EC100B81F0004141EC100B8DED0E0B49
:10529000DDE9200141EC100B81F0004141EC100BE5
:1052A0008DED100BDDE91E12CDE912129FED480BBA
:1052B0008DED140B0120032118AA0B46CDE9002126
:1052C00002900A4604A924A80DF0BAFF032124A8DD
:1052D0000EF0F4F8B0EE408AF0EE608A53EC182B32
:1052E0009FED390B51EC100BFBF797F941EC100BCC
:1052F0008DED160B012016AACDE9002003460322EE
:1053000024A9029024A80DF09BFF9FED310B8DED99
:10531000040BDDE9280141EC100B81F0004141EC68
:10532000100B8DED060BDDE92601CDE90801DDE965
:105330002801CDE90A019FED260B8DED0C0BDDE96F
:10534000240141EC100B81F0004141EC100B8DED7C
:105350000E0BDDE9260141EC100B81F0004141EC20
:10536000100B8DED100BDDE92412CDE912129FED2B
:10537000180B8DED140B012003211EAA0B46CDE95D
:10538000002102900A4604A92AA80DF059FF032320
:1053900001222AA928460DF0D2FD0323012224A9C7
:1053A00005F118000DF0CBFD032301221EA905F124
:1053B00030000DF0C4FD31B0BDEC028B30BD0000FB
:1053C000000000000000F0BF000000000000F03FFF
:1053D00000000000000000000246134610E01078B4
:1053E0002A2805D01078202802DB10787A2801DDE1
:1053F000FF20704710782C2801D1481EC1B2521CE2
:105400000029ECD1D01AC0B2F3E70000F8B5054688
:105410000F4616A13846FAF7D4FF06460621304655
:10542000FFF7DAFF0446FF2C05D03019694600F07B
:105430005AFA85F8610007213046FFF7CDFF044690
:10544000FF2C05D03019694600F04DFA85F862004E
:1054500009213046FFF7C0FF0446FF2C04D0301965
:10546000694600F040FAA867F8BD0000244750479D
:10547000474100002DE9F8430546884629A14046EA
:10548000FAF79FFF064602213046FFF7A5FF0446C4
:10549000FF2C05D03019694600F025FA85F86F0019
:1054A000002713E0F81CC1B23046FFF795FF044611
:1054B000FF2C08D03019694600F015FAC1B205F189
:1054C0006300C15500E003E0781CC7B20C2FE9DB94
:1054D00000BF0F213046FFF77FFF0446FF2C05D0A9
:1054E0003019694600F0FFF9A5F870001021304628
:1054F000FFF772FF0446FF2C05D03019694600F013
:10550000F2F9A5F8720011213046FFF765FF044655
:10551000FF2C05D03019694600F0E5F9A5F87400B4
:10552000BDE8F88324475047534100002DE9FC5F54
:1055300007468A464FF00008CDF804A046A101981E
:10554000FAF73FFF0646F079303800F0FF0B0321F1
:105550003046FFF741FF0546FF2D04D0701969461C
:1055600000F0C1F938704FF0000970E03AA10198DD
:10557000FAF727FF0646002460E0042000EB8400D1
:10558000C1B23046FFF728FF0546FF2D0AD070193B
:10559000694600F0A8F9C1B208EB4802B81C00F84F
:1055A000121000E04CE0052000EB8400C1B2304650
:1055B000FFF712FF0546FF2D0BD07019694600F06A
:1055C00092F9C1B208EB4802B81C00EB42004170EE
:1055D00000E035E0062000EB8400C1B23046FFF762
:1055E000FBFE0546FF2D0BD07019694600F07BF9D4
:1055F00081B208EB4802B81C00EB4200418000E099
:105600001EE0072000EB8400C1B23046FFF7E4FE45
:105610000546FF2D0BD07019694600F064F9C1B240
:1056200008EB4802B81C00EB4200017100E007E003
:1056300008F1010000F0FF08601CC4B2042C9CDBE0
:1056400000BF701C019009F1010000F0FF09D9456D
:105650008CDBBDE8FC9F00002447504753560000F8
:105660002DE9F0432DED028B81B0044688467FA1E1
:105670004046FAF7A6FE074601213846FFF7ACFE82
:105680000546FF2D23D07819694600F02CF9814694
:105690009DF800100A2000F01BF9B9FBF0F642F269
:1056A0001070B6FBF0F0C1B24E2001556420B6FB7D
:1056B000F0F06421B0FBF1F201FB12014F20015523
:1056C0006420B6FBF0F100FB11615020015503216D
:1056D0003846FFF781FE0546FF2D3FD07819694611
:1056E00000F001F906469DF80000801CC1B20A20B6
:1056F00000F0EEF8B6FBF0F060659DF80000801C4D
:10570000C1B20A2000F0E4F8B6FBF0F100FB116032
:1057100000EE100AB8EE408A05210A2000F0D8F801
:10572000616D484300EE100AF8EE400A9DF8000053
:10573000C0F10500C1B20A2000F0CAF800EE100A5C
:10574000B8EE400A20EE080A9FED4A1AC0EE011A90
:1057500030EEA10ABCEEC00A84ED150A04213846D9
:10576000FFF73AFE0546FF2D02D0785D84F8580019
:1057700005213846FFF730FE0546FF2D41D0781948
:10578000694600F0B0F806469DF80000801CC1B2E2
:105790000A2000F09DF8B6FBF0F0E0659DF80000EF
:1057A000801CC1B20A2000F093F8B6FBF0F100FBB8
:1057B000116000EE100AB8EE400AB0EE408A0521F2
:1057C0000A2000F085F8E16D484300EE100AF8EE7B
:1057D000400A9DF80000C0F10500C1B20A2000F0A7
:1057E00077F800EE100AB8EE400A20EE080A9FEDA6
:1057F000211AC0EE011A30EEA10ABCEEC00A84EDF7
:10580000170A06213846FFF7E7FD0546FF2D02D0AF
:10581000785D84F8600009213846FFF7DDFD054614
:10582000FF2D1ED07819694600F05DF8064642F259
:105830001070B6FBF0F0C1B24D2001556420B6FBEC
:10584000F0F06421B0FBF1F201FB12014C20015594
:105850006420B6FBF0F100FB116000F5FA60A4F8DB
:105860004A0001B0BDEC028BBDE8F08324475052E2
:105870004D43000000007042F8B504460F4612A1E7
:105880003846FAF79EFD054607212846FFF7A4FD96
:105890000646FF2E16D0A819694600F024F8A4F891
:1058A0007C009DF8000003280CDA9DF80000C0F190
