:020000040800F2
:10000000381401209D0100086F2900085F260008B0
:10001000F7280008E51F0008B1780008000000007C
:10002000000000000000000000000000516D00080A
:100030005921000800000000F7080008DD41000811
:10004000B7010008D1610008B7010008B701000836
:10005000B7010008B7010008B7010008B7010008A0
:10006000B7010008B7010008B7010008B701000890
:10007000B7010008B7010008B7010008B701000880
:10008000B7010008B7010008B7010008B701000870
:10009000B7010008B7010008B7010008B701000860
:1000A000B7010008B7010008B7010008B701000850
:1000B000B7010008B7010008B7010008B701000840
:1000C000B7010008B7010008B7010008496B000834
:1000D000B96B000811750008B7010008B7010008E6
:1000E000B7010008B7010008B7010008B701000810
:1000F000B7010008B7010008B7010008B701000800
:10010000B70100081D6A0008B7010008B701000820
:10011000B7010008B7010008B7010008B7010008DF
:10012000B7010008B7010008B7010008ED2000087A
:10013000B7010008B7010008B7010008B7010008BF
:10014000B7010008B7010008B7010008B7010008AF
:10015000B7010008B7010008B7010008B70100089F
:10016000B7010008B7010008B7010008B70100088F
:10017000B7010008B7010008B7010008B70100087F
:10018000B7010008B7010008DFF80CD000F038FB19
:100190000048004745B7000838140120064880474A
:1001A00006480047FEE7FEE7FEE7FEE7FEE7FEE75C
:1001B000FEE7FEE7FEE7FEE72D6E00088901000876
:1001C00072B6704762B67047EFF3108072B6704730
:1001D00080F31088704730BF704720BF7047B0FA77
:1001E00080F0704790FAA0F0B0FA80F0704790FA73
:1001F000A0F07047202A04DB203A21FA02F0002107
:10020000704721FA02F3D040C2F120029140084326
:10021000194670472DE9FE4F074681EA0300C00FDB
:100220000E46019021F0004123F00044B81AA1418C
:1002300005D23846314617461E460B46024623F085
:100240000040104304D13846314603B0BDE8F08F7A
:10025000350DC5F30A00C3F30A510290401A00900D
:10026000402868DAC3F3130040F4801B01989246DB
:1002700020B10023D2EB030A63EB0B0B0098594625
:10028000C0F14002504600F091F980460C465046BD
:100290005946009A00F099F9C0197141EF1785EAA3
:1002A00011533B4340D0019A52B3009A012A11DC0A
:1002B0000022801A4FF0004361EB055103EA055319
:1002C0008018CDE9002341F580114246234600F015
:1002D0009BF9BAE72E050025401B61EB060140198A
:1002E00041F58012001852412818A6F5001343EB7F
:1002F000020140EAD470294318EB0808644113E076
:1003000064084FEA38084FF0000244EAC0744FEA2C
:100310000553801A61EB0301801841F580114908EB
:100320004FEA3000801859414246234603B0BDE8E9
:10033000F04F00F05CB90198012240000023D0EB9F
:10034000020263EBE07301984FEAE074381A66EB3F
:100350000401EBE783F000435CE781F0004159E7DB
:100360002DE9FE4F81EA030421F0004504F000442A
:1003700023F000414FF0000A009450EA050302D038
:1003800052EA010304D10020014603B0BDE8F08F1A
:10039000C1F30A53C5F30A541C44A0FB02B3C5F3CE
:1003A000130545F4801CC1F3130141F480180CFBC4
:1003B000023300FB083EA4F2F334810A930A41EAB7
:1003C0008C5143EA88530194A1FB03474FEA9C25D3
:1003D00005FB03734FEA982601FB06373D0526050A
:1003E00045EA1435BBEB06016EEB0503850E920E54
:1003F00045EA8C1542EA8812A5FB0206261E67EB29
:1004000000070C0D44EA0334A41947EB1350C1F361
:1004100013064FF0000319464FEA033343EA16531D
:1004200043EA0403019CE5FB0201A4F10C040294DD
:10043000009C4FEA0632CDE900A400F0E5F8A4E7FD
:100440002DE9F04D81EA030404F0004B21F0004750
:1004500014464FF0000A23F0004150EA070220D072
:1004600054EA01021DD0C1F30A550246C1F313003C
:10047000C7F30A56C7F3130340F4801143F4801303
:10048000A6EB0508101BD64608F2FD3873EB0100F9
:1004900002D308F1010801E092185B41B8F1000FA6
:1004A00003DA00200146BDE8F08D00204FF48015EE
:1004B000064607460EE0B2EB040C73EB010C04D3C6
:1004C000121B064363EB01032F436D084FEA300014
:1004D00092185B4150EA050CEDD152EA030012D0AC
:1004E00082EA040083EA0105284303D100224FF089
:1004F000004308E0101B8B4102D20122002302E0DE
:100500006FF0010253101AEB060047EB085110EB95
:100510000A0041EB0B01BDE8F04D00F068B80EB5E4
:10052000C10F80EAE0700844CA07002140F233435B
:100530008DE80E000A460B4600F066F803B000BDD9
:100540000EB540F2334102910021CDE900110A4677
:100550000B4600F059F803B000BD000030B500298B
:1005600004DB4FF00044404264EB0101002B04DB4C
:100570004FF00044524264EB03038B4208BF8242B7
:1005800030BD000030B5002904DB4FF0004440428C
:1005900064EB0101002B04DB4FF00044524264EB9A
:1005A0000303994208BF904230BD0000202A04DBBB
:1005B000203A00FA02F1002070479140C2F1200376
:1005C00020FA03F3194390407047202A06DBCB172B
:1005D000203A41FA02F043EAE071704741FA02F32F
:1005E000D040C2F12002914008431946704710B52F
:1005F000002B08DA401C41F1000192185B411A43BC
:1006000001D120F0010010BD2DE9F04D92469B462E
:1006100011B1B1FA81F202E0B0FA80F220329046D4
:10062000FFF7C4FF06460F4640EA0A0041EA0B0105
:1006300052465B46084303D130463946BDE8F08D4B
:10064000194652EA010015D0C8F140025046FFF7A2
:10065000D1FD04460D46504659464246FFF7A6FFD7
:10066000084301D0012000E00020044345EAE07582
:1006700026432F430A984FEAD625A0EB08000A30FC
:100680004FEA46534FF0000245EA47554FEAD72458
:1006900002D500200146D1E7010550196141DDE98D
:1006A000084500196941BDE8F04DA0E770B521F09B
:1006B000004303430CD0C1F30A540026D4EB0605D3
:1006C00066EB0603D417AD1AA34102DB00200146F6
:1006D00070BD001C41EB025170BD2DE9F04D0023AF
:1006E0001A461B1A8A4103DB00200146BDE8F08D43
:1006F000C1F30A52C1F3130141F480154FF0000B0E
:10070000D10702D100186D41521E0026044640F266
:10071000FF11304601EB620A374680460246002050
:100720004FF48011FFF766FD80197941331847EBCC
:100730000102B4EB030C75EB020C04D3E41A65EB75
:10074000020506460F46241908F101006D41804656
:100750003428E3DDB11947EB0700091BA84103D298
:100760004FF0FF32134601E0002213461BEB060058
:1007700047EB0A51BDE8F04DFFF739BF2DE9FE4FB9
:10078000C3F30A5801F000450024C1F30A56C3F32D
:100790001303C1F3130143F4801312EB020CA646BA
:1007A00041F480119246009543EB0307A8F1010B39
:1007B00013E0B0EB0C00B94107D54FF00008D0EBC7
:1007C000080085F0004568EB0101BAEB000273EB0D
:1007D0000102EED3761E001849415E45F5DA50EA73
:1007E000010204D10099204603B0BDE8F08FCDE9A5
:1007F00000E5002213460296FFF706FFF4E700002B
:10080000064C074D06E0E06840F0010394E807005D
:1008100098471034AC42F6D3FFF7BAFC70FF0008DB
:1008200090FF000870B5C1F30A5201F000450024A2
:10083000C1F3130140F2FF3341F480119A4201DA0F
:10084000002070BD40F233439A42A2F2334203DCEF
:100850005242FFF7CFFC00E090402C43F1D04042E1
:1008600070BD70B501EB020410F8015B15F00703D1
:1008700001D110F8013B2A1106D110F8012B03E039
:1008800010F8016B01F8016B5B1EF9D12B0705D441
:100890000023521E0FD401F8013BFAE710F8013B88
:1008A00002F10202A1EB030303E013F8015B01F87C
:1008B000015B521EF9D5A142D6D3002070BD0000C5
:1008C00021484FF0FF010170002080F309881F4884
:1008D000016881F308881E484FF08051016062B6BC
:1008E000FEE71B484FF080510160704718484FF0F9
:1008F00080510160704772B6EFF3098050B11EF06D
:10090000100F08BF20ED108A734620E9F80F114937
:100910000968086000B5104880475DF804EB0F488F
:100920000F490A7802700B480E490A680260106885
:10093000B0E8F80F9E461EF0100F08BFB0EC108A0A
:1009400080F3098862B6704722ED00E0F0000020D5
:1009500004ED00E0E8000020913B00087600002054
:1009600077000020EC000020002007E09FED370B0F
:10097000384901EBC00181ED000B401C0328F5DB79
:10098000002007E09FED310B334901EBC00181ED01
:10099000000B401C0328F5DB9FED2C0B2F4981ED4C
:1009A000000B9FED2F0B81ED020B9FED2F0B3049BC
:1009B00081ED000B9FED2C0B2E4981ED000B0121E9
:1009C0002D4A117000212D4A11702D4A11702D4AA7
:1009D00011602D4A11602D4A11609FED2D0B2E499B
:1009E00081ED000B00212D4A11702D4A11702D4A06
:1009F00011709FED2D0B2E4981ED000B9FED2D0BFE
:100A00002E4981ED000B9FED2E0B2F4981ED000B40
:100A10009FED2E0B2F4981ED000B00212E4A117006
:100A20002E4A11702E4A11702E4A11702E4A1170E2
:100A30002E4A11702E4A11702E4A11702E4A1170D2
:100A40009FED2E0B2F4981ED000B70470000000039
:100A50000000000058D20020D0D2002018D300207F
:100A6000F4FB7CD35E16D33F000000000000F03F93
:100A7000A8020020B0020020980200209902002065
:100A80009A0200209C020020A0020020A402002064
:100A9000000000000000004078020020C801002093
:100AA000BC020020C9010020613255302AA9333F21
:100AB00010020020FA7E6ABC7493783F280200205E
:100AC0000000000000000840400200207B14AE47F8
:100AD000E17AB43F580200202002002038020020B2
:100AE0005002002068020020690200206A020020F3
:100AF0006C0200206E020020700200200000004006
:100B00005DBE4241C002002001F08EFB05F0B6FA46
:100B1000642001F037FA1FE0002417E0012001F003
:100B20009FFB012001F02EFA022001F099FB202109
:100B30000A4800F017F8012001F024FA05F0ACFA99
:100B40001021074800F00EF8601CC4B2102CE5DB41
:100B50004FF47A7001F016FADEE700009CCE002018
:100B6000FCC50020F0B502460B46002046E000EB35
:100B7000400732F8274000EB400732F827500026A4
:100B800000212BE000EB400702EB870737F81170DC
:100B9000A74206DD00EB400702EB870737F811C0DC
:100BA00000E0A446644600EB400702EB870737F8F5
:100BB0001170AF4206DA00EB400702EB870737F807
:100BC00011C000E0AC46654600EB400702EB87072A
:100BD00037F811703744BEB24F1CF9B20529D1DB8A
:100BE000371B7F1B4FF0030C97FBFCF700EB400C0F
:100BF00002EB8C0CACF80A70471CF8B29842B6DBDA
:100C0000F0BD000010B51CA200211F4801F07FF9C3
:100C10001EA20021204801F07AF920A200212248DA
:100C200001F075F921A20021244801F070F924A2F5
:100C30000021264801F06BF925A20021284801F087
:100C400066F928A200212B4801F061F92AA20021AF
:100C50002D4801F05CF92DA20021304801F057F930
:100C60002FA20021324801F052F932A2002135486A
:100C700001F04DF910BD000053454D5F54455854E7
:100C80005F52455600000000F4A2002053454D5F1E
:100C90004750535F53544F001CA3002053454D5FF2
:100CA00054454C5F53544F0044A3002053454D5FBF
:100CB000504C4F41445F53544F0000006CA3002040
:100CC00053454D5F4F52425F4445540040D0002091
:100CD00053454D5F4F52425F43414C435500000026
:100CE00068D0002053454D5F4359435F494E464FFE
:100CF0000000000090D0002053454D5F4D41475FFC
:100D0000444F545F444D5000B8D0002053454D5FD0
:100D10005049545F464C545F434F4D00E0D0002093
:100D200053454D5F5049545F464C545F50524F00FD
:100D300008D1002053454D5F4154545F5354415FE7
:100D400043544C0030D100202DED108BAAB09FED04
:100D5000CB0B8DED160B9FEDCB0BB0EE40EAF0EE1A
:100D600060EA9FEDCA0B8DED140B9FEDCA0B8DED64
:100D7000120B81E10021C94801F0E8F8C84890ED64
:100D8000001BB0EE410AF0EE610A9FEDC61B53EC6A
:100D9000112B51EC100BFFF7E3FA41EC100BB0EE06
:100DA00040BAF0EE60BA9FEDC10B53EC102B51EC42
:100DB0001B0BFFF745FB41EC180BB94890ED021BEC
:100DC000B0EE410AF0EE610A9FEDB61B53EC112B19
:100DD00051EC100BFFF7C4FA41EC100BB0EE40BA27
:100DE000F0EE60BA9FEDB10B53EC102B51EC1B0BE6
:100DF000FFF726FB41EC190BAE480068012806DA24
:100E000003230122AC4924A80AF005FD0DE00320CC
:100E1000012324AAA84900901EA80AF069FF032311
:100E20000122A54924A80AF0F6FC53EC192BA3488B
:100E300090ED000B51EC100BFFF792FA41EC100B08
:100E4000B0EE40BAF0EE60BA9D4890ED000B51EC68
:100E5000100B81F0004141EC100BB0EE40CAF0EEF7
:100E600060CA53EC182B51EC1C0BFFF779FA41ECDC
:100E7000100BB0EE40DAF0EE60DA53EC1B2B51ECC5
:100E80001D0BFFF767FA41EC1A0B9FED8E0B8DEDF2
:100E90000A0B8DED0CAB9FED8B0B8DED0E0B012036
:100EA00016AACDE90020032302468349029018A820
:100EB0000AF032FE032118A80AF06CFFB0EE40BA27
:100EC000F0EE60BA53EC1B2B9FED800B51EC100B36
:100ED000FFF7B6FA41EC100B8DED100B9DED100BEA
:100EE00053EC102B9DED100B51EC100BFFF738FA63
:100EF00041EC100B8DED100B0AAA18A9754806F0ED
:100F0000D9FC012010AACDE9002003230246714933
:100F1000029008460AF000FE9DED201BB0EE410A4B
:100F2000F0EE610A6C4890ED001B53EC112B51EC74
:100F3000100BFFF70FFA41EC100BB0EE40BAF0EED9
:100F400060BA664890ED000B51EC100B81F0004147
:100F500041EC100BB0EE40CAF0EE60CA53EC1B2B14
:100F600051EC1C0BFFF7FCF941EC100B594880EDDC
:100F7000020B002432E0574800EBC40090ED001B48
:100F8000B0EE410AF0EE610A9FED551B53EC112BB8
:100F900051EC100BFFF7E2FA06D29FED510B4D48D2
:100FA00000EBC40080ED000B4A4800EBC40090ED5C
:100FB000001BB0EE410AF0EE610A9FED4B1B53ECB3
:100FC000112B51EC100BFFF7DDFA06D29FED480B09
:100FD000404800EBC40080ED000B641C032CCADB0E
:100FE0003C4890ED001BB0EE410AF0EE610A53EC74
:100FF0001E2B51EC100BFFF7B3F941EC100B8DEDEC
:10100000040B344890ED021BB0EE410AF0EE610A89
:101010009DED141B53EC112B51EC100BFFF7A0F9B5
:1010200041EC100B8DED060B2A4890ED041BB0EE41
:10103000410AF0EE610A9DED121B53EC112B51ECAD
:10104000100BFFF78DF941EC100B8DED080B2A48C2
:1010500090ED000BB0EE40FAF0EE60FA274880ED1C
:1010600000FB0323012204A925480AF0D4FB114800
:101070000068401C0F4908607CE6000095D626E811
:101080000B2E113E39183558CD5CDC3FAF3DAC39E5
:10109000AE02DD3F9F910416B960DE3F30D10020E3
:1010A000E8D200200000000000806640182D445463
:1010B000FB210940A4020020A0D200202802002029
:1010C00010020020000000000000000000000000EE
:1010D0000000F03FB8D2002080020020580200201B
:1010E0009A9999999999C9BF0000000000000040A1
:1010F0009A9999999999C93F40020020A00100202E
:1011000088D100202DED088B92B04FF4B46489E0B3
:101110000021454800F01AFF10A802F0ADFE434937
:10112000086008460068FFF70BFA41EC100BB0EEC0
:10113000409AF0EE609A9FED3E0B53EC102B51EC71
:10114000190BFFF70DF941EC100BB0EE408AF0EEF1
:10115000608A9FED390B53EC102B51EC180BFFF705
:101160006FF941EC100BB0EE40BAF0EE60BA9FEDB3
:10117000340B53EC102B51EC1B0BFFF761F941ECD6
:10118000100BB0EE40AAF0EE60AA2F4890ED000BD5
:1011900053EC102B51EC1A0BFFF73CF841EC100B01
:1011A0002A4880ED000B2046FFF7B9F941EC100BFF
:1011B000B0EE408AF0EE608A254803C841EC100B7F
:1011C00053EC102B214890ED001B51EC110BFFF755
:1011D000C1F841EC100BB0EE409AF0EE609A53EC7F
:1011E000182B51EC190BFFF7BBF841EC100B8DEDF0
:1011F0000C0B1848006818B91548D0380CF0B8FC2A
:1012000014480068401C134908600CAB104AD03ADF
:10121000694606A80AF0B6FF0EAB6A4606A90E4854
:101220000AF071FF74E7000068D00020C8020020B7
:10123000000000000000F03F0000000000408F4070
:10124000000000000018F540C002002090020020BD
:10125000F8D30020B802002028D2002000B58BB0BF
:101260000AA8032100220592CDE906210890012059
:1012700080210C22DD4BCDE90132CDE903100320A2
:101280000023DB4ADBA10090DE4802F0BFF80AA889
:10129000032100220592CDE9062108900220802139
:1012A0000C22D94BCDE90132CDE9031004200023F3
:1012B000D64AD7A10090DA4802F0A8F80AA803217C
:1012C00000220592CDE906210890104680210C22CB
:1012D000D44BCDE90132CDE9031005200023D24AD9
:1012E000D2A10090D54802F091F80AA8032100226B
:1012F0000823CDE90532CDE90710104699013322C4
:10130000CF4BCDE90132CDE9031006200023CD4AB1
:10131000CDA10090D04802F079F80AA8032100225C
:101320000823CDE90532CDE90710104680210C22B3
:10133000CA4BCDE90132CDE9031007200023C84A8A
:10134000C8A10090CB4802F061F80AA8032100224E
:101350000823CDE90532CDE90710104680210C2283
:10136000C54BCDE90132CDE9031008200023C34A63
:10137000C3A10090C64802F049F80AA80321002240
:101380000823CDE90532CDE90710104680210C2253
:10139000C04BCDE90132CDE9031009200023BE4A3C
:1013A000BEA10090C14802F031F80AA80321002232
:1013B0000823CDE90532CDE90710104680210C2223
:1013C000BB4BCDE9013200230092CDE90310B94AAD
:1013D000B9A1BE4802F01AF80AA803210022082386
:1013E000CDE90532CDE90710104680210C22B84B1B
:1013F000CDE90132CDE9031002200023B54AB6A1A0
:101400000090B84802F002F80AA80321002208233D
:10141000CDE90532CDE90710104680210C22B24BF0
:10142000CDE90132CDE9031002200023AF4AB0A17B
:101430000090B24801F0EAFF0AA803210022082325
:10144000CDE90532CDE90710104680210C22AC4BC6
:10145000CDE90132CDE903100D200023A94AAAA14C
:101460000090AD4801F0D2FF0AA803210022082312
:10147000CDE90532CDE90710104680210C22A74B9B
:10148000CDE90132CDE903100B200023A44AA5A128
:101490000090A74801F0BAFF0AA803210022059294
:1014A000CDE90621089010464FF480616622A14BD9
:1014B000CDE90132CDE903100F2000239E4A9FA100
:1014C0000090A24801F0A2FF0AA803210022059281
:1014D000CDE90621089010464FF4806166229C4BAE
:1014E000CDE90132CDE9031011200023994A9AA1D8
:1014F00000909E4801F08AFF0AA80321002205926D
:10150000CDE90621089010464FF480616622984B81
:10151000CDE90132CDE9031012200023954A96A1AE
:101520000090994801F072FF0AA803210022059259
:10153000CDE90621089010464FF480616622934B56
:10154000CDE90132CDE9031013200023904A91A187
:101550000090954801F05AFF0AA803210022059245
:10156000CDE90621089010464FF4806166228F4B2A
:10157000CDE90132CDE90310142000238C4A8DA15E
:101580000090914801F042FF0AA803210022059231
:10159000CDE90621089010464FF4806166228B4BFE
:1015A000CDE90132CDE9031015200023884A89A135
:1015B00000908D4801F02AFF0AA80321002205921D
:1015C000CDE90621089010464FF480616622874BD2
:1015D000CDE90132CDE9031016200023844A85A10C
:1015E0000090894801F012FF0BB000BD2C070020CD
:1015F000192600084750535F53544F5F5441534BD3
:101600000000000068060020F0090020E92500081D
:101610004750535F5245565F5441534B0000000002
:101620002C090020B40C0020956E000854454C5F36
:1016300053414D5F5441534B00000000F00B00201C
:10164000780F0020D56E000854454C5F53544F5F0F
:101650005441534B00000000B40E00203C18002001
:10166000B9610008504C4F41445F53414D5F5441B4
:10167000534B000078170020001B0020C5610008B4
:10168000504C4F41445F53544F5F5441534B000003
:101690003C1A0020C41D00201D6D000853544F5FEC
:1016A0005550444154455F5441534B00001D0020A8
:1016B000882000200F6D000853544F5F4D4F4E4956
:1016C000544F525F5441534B00000000C41F002090
:1016D0004C230020D52300084641554C545F54410B
:1016E000534B000088220020D4280020FD5E000813
:1016F0004F55545055545F5441534B00102800200F
:10170000982B0020090B00084144435F53414D5082
:101710004C455F5441534B00D42A00201026002032
:10172000096F0008544553545F5441534B00000067
:101730004C2500205C2E0020711A0008417070209A
:101740005461736B204F726244657400982D0020C1
:10175000203F002005110008417070205461736B18
:101760002043616C63754F72620000005C3E002094
:10177000E44F0020D51B0008417070205461736B4A
:101780002053656E47657400204F0020A86000203C
:101790000D180008417070205461736B204D616713
:1017A000446F74446D700000E45F00206C71002091
:1017B000791B0008417070205461736B205069746C
:1017C000466C74436F6D0000A870002030820020CA
:1017D0007D1B0008417070205461736B2050697448
:1017E000466C7450726F00006C810020F4920020EF
:1017F000490D0008417070205461736B204174746E
:1018000053746143746C0000309200202DED0A8BFC
:1018100094B040F6B7359FED7A0BB0EE40AAF0EEEB
:1018200060AA9FED790BB0EE40BAF0EE60BA9FED82
:10183000780BB0EE40CAF0EE60CADFE000217648D7
:1018400000F084FB75480068FEF769FE41EC100B60
:10185000B0EE408AF0EE608A9FED710B53EC102BD6
:1018600051EC180BFEF77AFE12D2032301226E49C7
:101870000EA809F0D0FF002407E09FED6C0B6D4827
:1018800000EBC40080ED000B641C032CF5DB67E06B
:10189000032001230EAA6449009008A80AF028FA40
:1018A0000323012260490EA809F0B5FF002455E08A
:1018B00008A800EBC40003C841EC100B53EC102B3C
:1018C0009FED5D1B51EC110BFEF74AFD41EC100B37
:1018D000B0EE408AF0EE608A594890ED000B53EC70
:1018E000102B51EC180BFEF7ABFD41EC100B5148DF
:1018F00000EBC40080ED000B4E4800EBC40003C8B1
:1019000041EC100B9FED4F1B53EC112BFEF73AFEF1
:1019100007D29FED4C0B474800EBC40080ED000B55
:101920001BE0444800EBC40003C841EC100B9FEDE2
:10193000471B53EC112BFEF711FE07D29FED430B13
:101940003C4800EBC40080ED000B06E09FED370B38
:10195000384800EBC40080ED000B641C032CA7DBAF
:10196000344803C841EC100B53EC1A2BFEF7F8FC7B
:1019700041EC100B8DED020B2E48C168806841ECE4
:10198000100B53EC1B2BFEF7EBFC41EC100B8DED19
:10199000040B28484169006941EC100B53EC1C2BE7
:1019A000FEF7DEFC41EC100B8DED060B294890EDA7
:1019B000009B294880ED009B0323012202A92748B0
:1019C00009F029FF032301221749254809F023FFC5
:1019D0002448007890B911480068401C0F490860FD
:1019E00021480078012809D108460068A84205DD91
:1019F0001E48007810B901201A4908701EE700003F
:101A000039183558CD5CDC3FAF3DAC39AE02DD3F17
:101A10009F910416B960DE3FB8D000209C020020E0
:101A20009A9999999999B93FA0D200200000000095
:101A300000000000B8D200200000000080842EC109
:101A4000780200209A9999999999C93F9A999999F8
:101A50009999C9BF40020020A001002088D1002030
:101A6000C8D1002099020020C80100206A0200208D
:101A70002DED088B8EB066E00021334800F066FA49
:101A80000CA802F0F9F93149086008460068FEF731
:101A900057FD41EC100BB0EE40AAF0EE60AA9FEDAE
:101AA0002C0B53EC102B51EC1A0BFEF759FC41ECAC
:101AB000100BB0EE409AF0EE609A9FED270B53ECBE
:101AC000102B51EC190BFEF7BBFC41EC100BB0EEE8
:101AD000408AF0EE608A9FED220B53EC102B51EC04
:101AE000180BFEF7ADFC41EC100BB0EE40BAF0EE77
:101AF00060BA1D4890ED000B53EC102B51EC1B0B02
:101B0000FEF788FB41EC100B184880ED000B002419
:101B100011E0174800EBC40006C806A800EBC4009B
:101B200006C01349E01C01EBC00006C8684600EB84
:101B3000C40006C0641C032CEBDB0C4B6A4606A9F0
:101B40000C480AF059FA97E740D00020C80200205C
:101B5000000000000000F03F0000000000408F4047
:101B6000000000000018F540C00200209002002094
:101B7000F8D1002070D200207047000086B01CE031
:101B800000210E4800F0E2F900240FE00C4800EBC1
:101B9000C40003C86A4602EBC40203C29FED090BEE
:101BA000074800EBC40080ED000B641C032CEDDB48
:101BB0006A46064906480AF033F9E1E708D10020F1
:101BC000D0D200200000000000000000F8D2002069
:101BD000E8D20020CFE00021674800F0B7F967485D
:101BE0000078012810D10020644908700120644960
:101BF00008700020634908706349087063490860F1
:101C0000634908606349086063480078012801D18E
:101C10006249087062480078012832D15F49087033
:101C200000205F4908705F4806C85F4806C05F48EB
:101C300006C85D48183006C05D4806C85A480830D6
:101C400006C05C4806C85848203006C05A4806C836
:101C50005548083806C0594806C85348D83800F5D2
:101C6000807006C0564806C84F48D83800F58470C2
:101C700006C0544806C84C48103006C000205249DF
:101C8000086052480078012806D1514806C85148DA
:101C900006C000204D4908704F480078012806D141
:101CA0004E4806C84E4806C000204B4908704D48B3
:101CB0000078012806D14C4806C84C4806C00020D0
:101CC000484908704A480078012806D1494806C8A2
:101CD000494806C000204649087048480078012855
:101CE00006D147480078264908700020434908700B
:101CF00044480078012806D14348007821490870FB
:101D000000204049087041480078012806D1404829
:101D100000781D49087000203C4908701F48007871
:101D2000012802D13B4800F003F91548007801284A
:101D300002D1394800F0FCF812480078012802D19D
:101D4000364800F0F5F80E480078354908700F481D
:101D50000068344908600B480078334908700C4823
:101D6000006832490860084800783149087009481D
:101D70000068304908602EE790D0002069020020FA
:101D800098020020990200209A0200209C02002064
:101D9000A0020020A4020020BC020020C8010020F4
:101DA000C9010020D001002000D40020D80100206B
:101DB000E0010020E8010020F0010020F8010020EF
:101DC0000002002008020020B802002020020020AB
:101DD00018020020100200203802002030020020EB
:101DE000280200205002002048020020400200206B
:101DF0006802002060020020580200206C020020CF
:101E00006B0200206E0200206D0200207002002094
:101E10006F02002068D00020B8D00020E0D0002061
:101E2000B0010020B4010020B8010020BC01002056
:101E3000C0010020C401002008B507F076FC00F0C6
:101E4000D3F800F0C1F8684601F05EFA00F00AF835
:101E5000FEF7D8FEFFF702FA03E04FF4FA6000F055
:101E600091F8FAE700B585B004A800210123CDE977
:101E700000310A46CDE9021010A1144802F068F8BA
:101E800004A80021124A0123CDE90032CDE9021055
:101E90000B460A460FA1134802F05AF804A8002185
:101EA000114A0123CDE90032CDE902100B4614227C
:101EB0000EA1124802F04CF805B000BD4550532069
:101EC0004F7665722054696D65720000D40200205F
:101ED0008D200008434F4D204F7665722054696D68
:101EE0006572000008030020E525000847505320D4
:101EF0004F7665722054696D657200003C030020C6
:101F00001FB5684604F0FAF9019804B010BDF8B5A1
:101F100006460C4615466B4622462946304600F0DA
:101F2000DDFFBDF8000008B10020F8BD0120FCE78E
:101F300038B504466A460021204601F0E3F8BDF8B2
:101F4000000008B1002038BD0120FCE77CB5054643
:101F50000C464FF47A70604309490968B0FBF1F60A
:101F600001A800231A4631460090284600F0F6FFEB
:101F7000BDF8040008B100207CBD0120FCE7000092
:101F800074FB0008FEB5044642F21070844200D98A
:101F90000446B4F57A7F0BD34FF47A70B4FBF0F0BB
:101FA00086B24FF47A70B4FBF0F100FB114501E00A
:101FB000A5B2002602A800212B463246CDE900102A
:101FC000084601F08BFEFEBD70B5FFF799FF044691
:101FD00003480068B4FBF0F5284602F01BF970BD19
:101FE00074FB000800BFFEE710B500F01FF800F01A
:101FF00019F810BD10B5002400BF00BFFEF7E4F8CB
:10200000044600BF00BF1021054800F076FC00BF69
:1020100000BF2046FEF7DCF800BF00BF10BD000087
:10202000BCAB002010B5FFF7E5FF10BD10B50020D8
:102030000249086000F00AF810BD000030000020DE
:1020400001490860704700003000002010B5FFF71C
:1020500057FF04460848006840F080700649086051
:102060000020064948600846006840F0010008600A
:102070002046FFF7E5FF10BDFCED00E0001000E09A
:102080000149486870470000001000E070470000F8
:10209000014609B90B487047012901D11046FAE7FA
:1020A000022901D10020F6E7032901D10020F2E73F
:1020B000042901D10020EEE7052901D10020EAE73B
:1020C0000020E8E794A3002008B54FF4E06000F09A
:1020D00091FC25208DF8000000208DF802000120E1
:1020E0008DF80300684600F049FC08BD10B50024D7
:1020F00000BF00BFFEF768F8044600BF00BF0848F5
:102100000078401C0649087000BF00BF2046FEF75B
:102110005FF800BF00BF04F0ADFC00F06BFD10BD28
:102120005C0000200246094B9A4201D2084801E0B7
:102130000648103811F0005F03D0064B0B40C36017
:1021400002E0044B0B4083607047000010640240C3
:10215000006002407D0F7D0F7047000010B54FF406
:10216000C0720021054800F0D1FB20220021044864
:1021700000F0CCFB00200349087010BD9CCE00206D
:102180001CD000205E01002001490860704700005B
:10219000143C0140002123498279002A3AD00A46A2
:1021A000126803689A430B461A600A1D1268036896
:1021B0009A430B1D1A60027911440A6803681A4396
:1021C0000A60184A0832126803689A43154B0833AC
:1021D0001A601A1D126803689A43124B0C331A6076
:1021E0004279102A0ED11A1F126803681A430D4B48
:1021F00008331A601A1D126803681A43094B0C331E
:102200001A600DE00749427911440A6803681A43CD
:102210000A6005E0027911440A6803689A430A607B
:1022200070470000003C014010B548F2B034012175
:10223000204600F077F80A2007F057FA01214FF600
:10224000FF7000F06FF80221204600F06BF80A20C2
:1022500007F04BFA02214FF6FF7000F063F810BD53
:1022600070B504462146002000F05CF80546214682
:10227000284600F003F8002070BD000070B503464A
:102280008C461913C3F30B02BCF1020F02D101F10A
:102290001004E1B240F6FF74A2421DDA102A1BDDE1
:1022A000002010E001EB41041C4D05EB8405441CAB
:1022B00035F8144001EB4105184E06EB850525F86D
:1022C0001040441CE0B20428ECDB01EB4104134D48
:1022D00005EB840422811FE0002010E001EB4104A3
:1022E0000E4D05EB8405441C35F8144001EB410507
:1022F0000A4E06EB850525F81040441CE0B2042880
:10230000ECDB01EB4104054D05EB84042281044C18
:10231000645C641C024D6C5470BD00009CCE0020B7
:102320001CD0002070B506460C4600250EE00A20A1
:1023300007F0DBF928466D1C2149884206D921485F
:102340000078401C1F490870012070BD02211E4802
:1023500004F080FC0028EAD0012C03D110201B4996
:10236000488304E0022C02D1A00318494883314677
:10237000154804F0ACFC0EE00A2007F0B6F9284638
:102380006D1C0F49884206D911480078401C10493D
:1023900008700120D9E701210B4804F05BFC0028FC
:1023A000EAD0012C03D110200849088304E0022C54
:1023B00002D1A00305490883034804F085FCC4E763
:1023C000400D0300370100200030014000000240B2
:1023D0003801002003E04FF47A70FFF7D3FDFAE7ED
:1023E00051B14FF0204252F8202042F001024FF04C
:1023F000204343F8202009E04FF0204252F82020EB
:10240000034B1A404FF0204343F820207047000050
:10241000FEFF0F00D0E901121143C26811430269A7
:1024200011434269114382691143C2691143026A2F
:102430001143426A1143826A1143C26A1143026B1B
:1024400011434FF02043026843F8221081680829A5
:1024500008D11A46016852F8211041F04001026883
:1024600043F82210416B0968426B526841EA02113D
:10247000426B926841EA0221426BD26841EA024112
:10248000426B126941EA0251426B526941EA0261B0
:10249000426B926911430268521C4FF0204343F88B
:1024A0002210C16AB1F5804F1AD1816B0968826B25
:1024B000526841EA0211826B926841EA0221826B02
:1024C000126941EA0251826B526941EA0261826BF0
:1024D00092691143026803EB8202C2F8041108E01A
:1024E0006FF070414FF02043026803EB8202C2F8A4
:1024F0000411704770B50A46002100238C4600BFC6
:102500003DE0012404FA01F3146804EA030C9C453D
:1025100034D104684E000325B540AC4304601479FF
:102520004D00AC4005682C4304601479012C02D0A6
:102530001479022C16D184684E000325B540AC43B3
:10254000846054794D00AC4085682C4384604468B5
:1025500001258D40AC434460446895798D40ADB20F
:102560002C434460C4684E000325B540AC43C460AE
:10257000D4794D00AC40C5682C43C460491C102977
:10258000BFD370BD70B500239C464C07E40E02FA21
:1025900004F3CD1000F1200454F825404D07EE0E51
:1025A0000F25B540AC43CE1000F1200545F826407C
:1025B000CD1000F1200454F8254044EA030CCD105E
:1025C00000F1200444F825C070BD02460020536984
:1025D0000B4201D0012000E000207047418370478A
:1025E000018370477047000004A005F0AFF903E0D5
:1025F0004FF47A70FFF7C6FCFAE700005461736B82
:102600002047505320526563656976652072756E68
:102610006E696E67200D0A0004A005F097F903E0CB
:102620004FF47A70FFF7AEFCFAE700005461736B69
:10263000204750532053746F72652072756E6E6917
:102640006E67200D0A00000008B56946002007F0FB
:10265000CDFC18B19DF8000004F0E6FE08BD00BFF7
:10266000FEE710B500F002F810BD00004AF6AA20FF
:1026700001490860704700000030004000B587B095
:102680000121022003F0EAFD0121102003F026FEC3
:10269000072206212248FFF775FF0722114620482E
:1026A000FFF770FF00208DF81A0001208DF81B0045
:1026B00002208DF818004020059002208DF81900A6
:1026C00005A91748FFF716FF02208DF81800802093
:1026D000059005A91248FFF70DFF4FF4E130019076
:1026E0000020ADF80800ADF80A00ADF80C00ADF818
:1026F00010000C20ADF80E0001A90A4804F076FF86
:10270000012240F22551074804F04BFF0121054802
:1027100004F00FFF4021034804F002FF07B000BDA2
:10272000000402400010014000B587B012220021D1
:1027300002A800F0EBF80422002101A800F0E6F85E
:102740000121080303F0CAFD00211F4804F06CFAC0
:102750000020ADF808004FF48270ADF80A004FF485
:102760000060ADF80C000220ADF80E000020ADF8BE
:1027700010004FF40070ADF812003820ADF81400CE
:102780000020ADF816000720ADF8180002A90E4889
:1027900004F09FFA012250210B4804F080FA012135
:1027A000094804F041FA23208DF8040002208DF836
:1027B000050000208DF8060001208DF8070001A813
:1027C00000F0DCF807B000BD003001401CB5082265
:1027D0000021684600F09AF80121084603F03EFD0A
:1027E0000121022003F03AFD052211462F48FFF790
:1027F000C9FE052206212D48FFF7C4FE0522072148
:102800002A48FFF7BFFE02208DF804008DF805006E
:1028100000208DF8060002208DF80700E0200090CF
:1028200069462248FFF766FE01208DF8040000206B
:102830008DF8060002208DF8050000208DF80700B5
:102840000220009069461A48FFF754FE01208DF8D7
:10285000040000208DF8060002208DF805000020FD
:102860008DF807001020009069461048FFF742FEDF
:1028700001208DF8040000208DF8060002208DF85C
:10288000050000208DF807004FF4004000906946D5
:102890000648FFF72FFE0220054918310880102056
:1028A00002490883C00208831CBD000000000240EA
:1028B0000004024002461078132814D008DC0128D6
:1028C0000DD002280CD011280BD012280FD109E00E
:1028D000212809D0222808D0232808D106E007E0C3
:1028E00006E005E004E003E002E001E000E000BFF4
:1028F00000BF0020704700BFFEE730B505460C461C
:1029000022460021284600F001F830BD2DE9F041B3
:1029100003460C4617460FB9BDE8F08103B9FBE743
:102920000025002202E02D022543521C042AFAD37E
:10293000384603F0030C1946BCF1000F08D062467C
:1029400003E001F8014B401E521C08B1042AF8D3E1
:102950000E4601E020C6001F0428FBD2314602E0EB
:1029600001F8014B401E0028FAD100BFD4E77047A0
:1029700010B54FF4407000F03DF810BD70B5002167
:1029800000230F22C47824B3174C246804F4E064B5
:10299000C4F5E064C4F30721C1F10404E3B20A41C1
:1029A00044789C40E1B28478144021430C07210E06
:1029B0000E4C05786155047804F01F050124AC40E5
:1029C00005786D114FF0E02606EB8505C5F800414E
:1029D00009E0047804F01F050124AC40044D06789A
:1029E000761145F8264070BD0CED00E000E400E0F3
:1029F00080E100E002490143024A11607047000093
:102A00000000FA050CED00E07047000010B5034827
:102A1000006810B101480068804710BD48000020E0
:102A200070B5044600F0BCF80020454908704549DF
:102A3000087045490870454908604549086045499E
:102A4000087045490870454908704549086045497E
:102A500008604549086045490870454800680A21F2
:102A6000B0FBF1F0434908604348006858B143485F
:102A7000056845B14048066803E0761E00202860DE
:102A80002D1D002EF9D100203D4908603D49086008
:102A90003D4908603D4908603D4908603D4908607E
:102AA0003D4908603D49087001F01AFF01F054FFEC
:102AB000204601F09DFC208800B170BD204601F049
:102AC000FDFC208800B1F8E7204601F003FD2088D6
:102AD00000B1F2E7204601F065FD208800B1ECE787
:102AE000204601F02DFF208800B1E6E7204602F0E5
:102AF00095F8208800B1E0E7204602F065FB2088C9
:102B000000B1DAE7204601F0A1FC208800B1D4E74B
:102B1000204602F0E7FF208800B1CEE7204602F011
:102B200097FA208800B1C8E7204603F04BF82088C8
:102B300000B1C2E701F086FBFFF766FF00BFBCE70C
:102B40005C0000205D00002090000020E8000020D4
:102B5000EC000020760000207700002078000020A4
:102B600084000020880000208C00002098000020B5
:102B700074FB00089400002044FB000840FB0008A0
:102B80003C000020400000204400002048000020BD
:102B90004C0000205000002054000020C6000020FF
:102BA000064800680649096800EB8100054908608D
:102BB0000846006820F007000860704740FB0008E6
:102BC00044FB0008F000002008480078012800D0ED
:102BD000704707480078FA2800DBF9E704480078D6
:102BE000401C0349087000BFF2E700005D000020B0
:102BF0005C00002010B500242D480078012800D08A
:102C000010BD00BFFDF7E0FA044600BF2948007878
:102C100028B900BF2046FDF7DBFA00BFF0E72548E2
:102C20000078401E2349087008460078002805DD1A
:102C300000BF2046FDF7CCFA00BFE1E71E48007850
:102C4000002805DD00BF2046FDF7C2FA00BFD7E728
:102C500001F032FE194908700846007800EB400088
:102C6000174951F8200017490860084600681649BE
:102C70000968884205D100BF2046FDF7A9FA00BFC8
:102C8000BEE710480068D0F89000401C0D49096864
:102C9000C1F890000D480068401C0C490860FDF721
:102CA00025FE00BF2046FDF793FA00BF00BFA7E74F
:102CB0005D0000205C0000209000002077000020D4
:102CC000E4BF0020EC000020E8000020BC00002051
:102CD00010B500241F480078002800DD10BD1E48F4
:102CE0000078002800DDF9E700BFFDF76DFA044623
:102CF00000BF01F0E1FD194908700846007800EBBB
:102D00004000174951F8200016490860084600683D
:102D100015490968884205D100BF2046FDF758FAD9
:102D200000BFDBE70F480068D0F89000401C0D4959
:102D30000968C1F890000D480068401C0B49086004
:102D4000FDF7CFFD00BF2046FDF742FA00BF00BFF0
:102D5000C4E700005C000020900000207700002005
:102D6000E4BF0020EC000020E8000020BC000020B0
:102D700070B50446002518480078002803DD46F6A3
:102D80006250208070BD15480078012803D045F6B8
:102D900089602080F6E712480078FA2803DB45F2C4
:102DA00009202080EEE700BF00BFFDF70DFA0546C1
:102DB00000BF00BF0A480078401C0949087001F0B4
:102DC00081FE00BF00BF2846FDF702FA00BF00BF2A
:102DD0000020208000BFD5E75C0000205D000020BF
:102DE000900000202DE9F04105460C4616460027CC
:102DF00000BF00BFFDF7E8F9074600BF00BF012D87
:102E000003D000200D49087002E001200B49087032
:102E100014B10B48046006E00A4800680A21B0FBC0
:102E2000F1F00749086000BF00BF3846FDF7D0F950
:102E300000BF00BF00203080BDE8F0819800002076
:102E40009400002074FB000870B50446002520485B
:102E50000078002803DD46F66550208070BD1D48CF
:102E60000078012803D045F689602080F6E71A48EB
:102E7000007818B946F664502080EFE700BF00BF25
:102E8000FDF7A2F9054600BF00BF13480078401EB9
:102E9000114908700846007800280ADD00BF00BF0D
:102EA0002846FDF795F900BF00BF46F66350208025
:102EB000D4E701F015FE00BF00BF2846FDF788F9F2
:102EC00000BF00BFFFF704FF0020208000BFC5E760
:102ED0005C0000205D000020900000202DE9F04102
:102EE00004460E4617461D464FF000081848007865
:102EF000002804DD42F6E1602880BDE8F0811CB9BD
:102F000045F6C3502880F8E700BF00BFFDF75CF925
:102F1000804600BF00BF0F4820602762002060622B
:102F2000666004F1080001F0D3FB204601F05EFE6C
:102F300009480088401C0849088000BF00BF40467F
:102F4000FDF746F900BF00BF0020288000BFD4E78E
:102F50005C00002053454D41A00000202DE9F047C2
:102F600088B00646894690461C46109D4FF0000AE0
:102F700060480078002806DD46F2AE102880002068
:102F800008B0BDE8F08726B945F6C3502880002078
:102F9000F6E7B8F1000F03D0B8F5004F02D100E01A
:102FA00000BF04E045F6256028800020E8E700BF68
:102FB00051493068884204D045F6C450288000202A
:102FC000DEE70CB10020206000BF00BFFDF7FCF879
:102FD000824600BF00BF306A88B1306A401E30624E
:102FE0000CB1706A2060376A00BF00BF5046FDF721
:102FF000EFF800BF00BF002028803846C0E718F473
:10300000004F0CD0376A00BF00BF5046FDF7E0F814
:1030100000BF00BF46F2B01028803846B0E73748FE
:10302000007800280BDD00BF00BF5046FDF7D0F848
:1030300000BF00BF46F6635028800020A0E74B4643
:1030400006223146684601F0B9FA00BF00BF50467B
:10305000FDF7BEF800BF00BFFFF73AFE00BF00BF9C
:10306000FDF7B2F8824600BF00BF2548006890F81F
:10307000350030B101280CD002281AD0032821D104
:1030800010E01CB11E480068006C20600020288001
:1030900024E01CB11A480068006C206046F2A910B8
:1030A00028801BE00CB10020206047F2D920288046
:1030B00014E01CB112480068006C206045F6C25054
:1030C00028800BE046F62E60288000BF00BF5046E7
:1030D000FDF77EF800BF00BF002051E700BF376A50
:1030E00000BF00BF5046FDF773F800BF00BF384671
:1030F00046E700005C00002053454D419000002051
:10310000E80000202DE9F04105460E4614462DB991
:1031100045F6C35020800020BDE8F0814EB1B6F5E1
:10312000007F07D0B6F5004F05D0B6F5024F04D1A9
:1031300002E000BF00BF00BF04E045F6256020802C
:103140000020E9E700BF0A492868884204D045F614
:10315000C45020800020DFE7FEF792FF8046234620
:1031600042463146284601F065FD07463846D3E71A
:1031700053454D4110B5044612480078E8B901F0B6
:103180009BFB1149087008460078104908700E48EA
:10319000007800EB40000E4951F820000D4908600E
:1031A000084600680C490860012006490870FDF7D0
:1031B00087FB43F69920208002E045F68A60208054
:1031C00010BD00005D000020770000207600002088
:1031D000E4BF0020EC000020E80000202DE9F041D1
:1031E00007464FF0000800BF00BFFCF7EDFF804628
:1031F00000BF00BF00203C4908803C4908603C49B2
:1032000008603C4908603C4908603C49088100BFAF
:1032100000BF4046FCF7DCFF00BF00BF00BF00BF9F
:10322000FCF7D2FF804600BF00BF3548046800BFEE
:1032300000BF4046FCF7CCFF00BF00BF24E000BF4A
:1032400000BFFCF7C1FF804600BF00BF002004F1B3
:103250007804E06320602063A061A082E082606265
:10326000A062FEF70DFF2062A4F1780404F1640669
:103270004FF00000B081D4F8BC4000BF00BF404612
:10328000FCF7A6FF00BF00BF002CD8D100BF00BFD5
:10329000FCF79AFF804600BF00BF1A48056800BFD0
:1032A00000BF4046FCF794FF00BF00BF12E000BF24
:1032B00000BFFCF789FF804600BF00BF05F1200674
:1032C0000020B081AD6900BF00BF4046FCF780FF21
:1032D00000BF00BF002DEAD102F006FB02F06EFD38
:1032E00000203880BDE8F081A6000020B800002052
:1032F000CC000020D800002088000020D8BF00208B
:10330000C00000207C000020F8B504460026694675
:10331000324800F021FCBDF8000018B1BDF80000F3
:103320002080F8BD6A460021022000F075FCBDF83F
:10333000000018B1BDF800002080F2E700BF00BF18
:10334000FCF742FF064600BF00BF0020244908608A
:1033500000BF00BF3046FCF73BFF00BF00BF0025A9
:103360002048006820490968884205D91D4800683E
:103370001D490968B0FBF1F525B91A4800680A2112
:10338000B0FBF1F56A460021284600F045FC69468D
:10339000124800F0CFF9BDF8000018B1BDF80000E8
:1033A0002080BEE700BF00BFFCF70EFF064600BF4F
:1033B00000BF00200D490860094800680C490860FA
:1033C00001200C49087000BF00BF3046FCF700FF29
:1033D00000BF00BF0020208000BFA2E76CC4002017
:1033E000A800002074FB00085CFB0008B800002067
:1033F000AC000020B400002010B50348006810B1F4
:1034000001480068804710BD4C0000202DE9FF4FA7
:103410002DED028B85B004469046179F159E9DEDBD
:103420001A8ADDE91B950020029066480078002882
:1034300007DD47F24A10288005B0BDEC028BBDE8DD
:10344000FF8F1CB947F2AD102880F5E7B8F1000FE7
:1034500003D147F24F102880EEE71EB946F62F60E1
:103460002880E9E758480068874203D246F6306072
:103470002880E1E71698B84203D346F631602880E9
:10348000DAE71498402803D346F273202880D3E764
:1034900014983F2806D14D48844203D046F2732049
:1034A0002880C9E7204601F09FFE0020288019F0FF
:1034B000010F10D019F0020F0DD0B346049007E0B1
:1034C0000020CBF800000BF1040B0498401C049082
:1034D0000498B842F4D3169806EB80000390CDE927
:1034E000007932464046039B0A9900F0DBFA834696
:1034F000C4F828809DED0A0A84ED0B0A9DED080AA8
:1035000084ED080A149884F83700C4F800B00398D2
:10351000A0609DED190A84ED150A199818B92C4878
:103520000068A06503E09DED190A84ED160A84ED9C
:10353000018A6662A763A4F83C904FF0000A08E095
:10354000002104F17C0040F82A100AF1010000F08B
:10355000FF0ABAF1000FF3D004F16400189901F0EA
:1035600019F8204600F03AF800BF00BFFCF72CFE27
:10357000029000BF00BF94F83710084601F0BCF974
:10358000204601F031FA204601F0E4FD11480088A0
:10359000401C1049088010480078012807D000BF5F
:1035A00000BF0298FCF714FE00BF00BF44E700BF55
:1035B00000BF0298FCF70CFE00BF00BFFFF788FBBE
:1035C00000BF39E75C00002070FB000814BF00203A
:1035D00094000020C40000205D00002010B50446C7
:1035E0000348006818B1204601490968884710BDA2
:1035F0003C00002070B504460D4600264348007884
:10360000002803DD47F24E10288070BD40488442F8
:1036100003D147F24C102880F7E77CB900BF00BF08
:10362000FCF7D2FD064600BF00BF3A48046800BF61
:1036300000BF3046FCF7CCFD00BF00BF00BF00BF9D
:10364000FCF7C2FD064600BF00BF94F8360008280C
:103650002DD2DFE800F004090E10080A0F112046F1
:1036600001F002FA2EE02DE000BF204602F020F922
:1036700028E000BF00BF00BF204602F019F994F80F
:103680003400082810D2DFE800F004070508090A12
:103690000B0600BF00BF08E000BF00BF00BF00BFB7
:1036A000204601F04DF800E000BF00BF0AE000BF77
:1036B00000BF3046FCF78CFD00BF00BF46F62D6012
:1036C0002880A2E700BF04F1640000F041FF20461B
:1036D00000F024F8204601F055FD0F480088401EF8
:1036E0000D490880204601F07FFDFF2084F8360058
:1036F00000BF00BF3046FCF76BFD00BF00BF0020DD
:103700002880FFF7E5FA00BF7FE700005C0000209B
:1037100014BF0020E8000020C400002010B50446BB
:103720000348006818B1204601490968884710BD60
:103730004000002070B504460D460026154800786C
:10374000002803DD47F25510288070BD00BF00BF80
:10375000FCF73AFD064600BF00BF1CB10E480068EA
:1037600084420AD100BF00BF3046FCF731FD00BFE4
:1037700000BF47F257102880E7E700BF00BF304680
:10378000FCF726FD00BF00BF2946204601F0A4FD3E
:1037900000BFDAE75C000020E800002010B5044616
:1037A0000348006818B1204601490968884710BDE0
:1037B000440000202DE9F04780460E4614461D4681
:1037C0004FF000096F480078002805DD46F2AE1082
:1037D00028800020BDE8F0871EB1B6F5004F02D169
:1037E00000E000BF04E045F6256028800020F1E7F6
:1037F00000BF0CB10020206000BF00BFFCF7E4FC5C
:10380000814600BF00BF60480068406CA8B35E48B6
:103810000068406C401E5C49096848645A4800686A
:10382000476C1CB158480068006C2060FEF728FC0B
:1038300055490968096C401A53490968C1F8A40040
:1038400051480068D0F8A8004F490968D1F8A41081
:10385000884207D24C480068D0F8A4004A49096859
:10386000C1F8A80000BF00BF4846FCF7B1FC00BF8C
:1038700000BF002028803846ACE7FFE716F4004F71
:103880000BD000BF00BF4846FCF7A2FC00BF00BF42
:1038900046F2B010288000209CE73C4800780028C1
:1038A0000BDD00BF00BF4846FCF792FC00BF00BF25
:1038B00046F66350288000208CE74346072200210B
:1038C000084600F07BFE00BF00BF4846FCF780FCC6
:1038D00000BF00BFFFF7FCF900BF00BFFCF774FC9E
:1038E000814600BF00BF2848006890F8350020B12D
:1038F000012826D0032834D12CE0FCB122480068EE
:10390000006C2060FEF7BCFB1F490968096C401A77
:103910001D490968C1F8A4001B480068D0F8A80038
:1039200019490968D1F8A410884207D216480068DE
:10393000D0F8A40014490968C1F8A8000020288024
:1039400013E01CB110480068006C206046F2A9101A
:1039500028800AE00CB10020206047F2D92028809E
:1039600003E046F62E60288000BF00BF06480068CE
:10397000476C00BF00BF4846FCF72AFC00BF00BFF1
:10398000384627E75C000020E80000209000002077
:103990002DE9F04106460D4614461DB1B5F5004F20
:1039A00002D100E000BF05E045F625602080002040
:1039B000BDE8F08100BFFEF763FB80462346424628
:1039C0002946304601F014FD07463846F0E700006E
:1039D0002DE9F04705460E4617461C464FF0000AF3
:1039E0002E480078002804DD47F259102080BDE8F9
:1039F000F0871EB946F2D5202080F8E71FB946F2BD
:103A0000D5202080F3E700BF00BFFCF7DDFB824636
:103A100000BF00BF0DB922480568286868B900BF1B
:103A200000BF5046FCF7D4FB00BF00BF0020306051
:103A3000386047F252102080D9E7A88F10F0010FAC
:103A40000DD100BF00BF5046FCF7C2FB00BF00BF56
:103A500000203060386047F254102080C7E700BF74
:103A600000BF5046FCF7B4FB00BF00BF4FF000089A
:103A7000D5F8249003E009F1040908F10108D9F808
:103A800000000028F7D0C6F80080A86BA0EB080063
:103A900038600020208000BFA9E700005C00002003
:103AA000E8000020F0B50446DDE9055C02EB850086
:103AB00020F007004FF08077061F30463760061F62
:103AC00030463460234F061F304637604FF01237C0
:103AD000061F304637604FF00337061F3046376009
:103AE0004FF00237061F30463760061F30463360FE
:103AF000061F304631604FF01137061F30463760E1
:103B00004FF01037061F304637604FF00937061F59
:103B1000304637604FF00837061F304637604FF0A9
:103B20000737061F304637604FF00637061F30460E
:103B300037604FF00537061F304637604FF00437C7
:103B4000061F304637606FF00207061F30463760A9
:103B5000F0BD0000D953000870B505460C460A4870
:103B60000078002803DD47F25D10208070BD074813
:103B7000854203D147F25B102080F7E721462846B3
:103B800001F018FD00BFF1E75C00002014BF002029
:103B900010B51D48006810B11B4800688047FEF74B
:103BA0006FFA04461948006819490968884215D017
:103BB00016480068D0F89800201A14490968C1F81E
:103BC000940012480068D0F89C0010490968D1F8A8
:103BD000941008440D490968C1F89C000C4800681D
:103BE000C0F8984009480068D0F8B400094909684D
:103BF000884205D20748006804490968C1F8B40042
:103C000000200449086010BD50000020E80000209A
:103C1000EC0000208C0000202DE9F04105460E4606
:103C2000144600272A480078002804DD47F2752052
:103C30002080BDE8F08127480078002803DD46F6A3
:103C400063502080F5E736B1022E05D0042E0AD04D
:103C5000082E09D101E000BF00BF1DB947F27E2048
:103C60002080E6E704E003E045F625602080E0E7F9
:103C700000BF00BF00BFFCF7A7FA074600BF00BFA8
:103C800001201549096881F8360023463246294645
:103C90001148006801F02EFD208838B100BF00BF38
:103CA0003846FCF795FA00BF00BFC2E70A48006833
:103CB00000F0DAFE00BF00BF3846FCF789FA00BF0B
:103CC00000BFFFF705F80020208000BFB1E700002B
:103CD0005C00002090000020E80000202DE9FF5F3C
:103CE00005460E4617469846DDE90EA400200090D2
:103CF0005D480078002804DD47F275202080BDE88B
:103D0000FF9F5A480078002803DD46F66350208064
:103D1000F5E70AF00E0BBBF1000F09D0BBF1020F63
:103D200007D0BBF1040F10D0BBF1080F0ED101E09A
:103D300000BF00BFB8F1000F06D12FB926B91DB9D9
:103D400047F27E202080DAE704E003E045F62560B4
:103D50002080D4E700BF3AF01E0001D0012000E02F
:103D6000002003900398012803D145F625602080A8
:103D7000C5E7CAF3001002900298012818D0B8F5E0
:103D80007A7F03D347F27B202080B8E73B2F03DD07
:103D900047F27A202080B2E73B2E03DD47F27920FC
:103DA0002080ACE7632D12DD47F278202080A6E763
:103DB00042F20F70864203DD47F2792020809EE7B1
:103DC000B5F57A7F03DB47F27820208097E7284813
:103DD000D0F800904FF4FA70B0FBF9F0404400FBCB
:103DE00009F04FF47A71B0FBF1F14FF46160684370
:103DF000C6EB061200EB8200384400FB091001906C
:103E0000019860B300BF00BFFCF7DEF9009000BF6F
:103E100000BF01201749096881F8360023465A4639
:103E200014480199006801F065FC208838B100BF92
:103E300000BF0098FCF7CCF900BF00BF5FE70D485A
:103E4000006800F011FE00BF00BF0098FCF7C0F949
:103E500000BF00BFFEF73CFF0020208002E047F2D9
:103E60007E20208000BF4AE75C00002090000020F8
:103E700074FB0008E800002070B50446002600BF6F
:103E800000BFFCF7A1F9064600BF00BF0648056861
:103E900000BF00BF3046FCF79BF900BF00BF002009
:103EA0002080284670BD0000C800002070B5044680
:103EB0000D46002600BF00BFFCF786F9064600BF8E
:103EC00000BF0648046000BF00BF3046FCF780F921
:103ED00000BF00BF0020288070BD0000C800002087
:103EE00008B500F02BF86A4600210E48FFF750FD98
:103EF0000D49097801EB41010C4A02EB810000F009
:103F00000DFE0B480068401E09490860084600681D
:103F100038B90848006808606A4600210648FFF77B
:103F200037FD08BDA8C3002076000020E4BF0020B4
:103F3000E4000020E00000206CC4002010B503481D
:103F4000006810B101480068804710BD540000208F
:103F50002DE9F0472DED028B0446884616461F4694
:103F6000DDF828909DED0B8ADDED0C8A0D9D4FF05C
:103F7000000A2A480078002806DD47F243302880EE
:103F8000BDEC028BBDE8F0871CB945F6C350288014
:103F9000F6E7B9F1010F08D0B9F1020F0BD11FB943
:103FA00047F240302880EBE709E01EB947F23F3086
:103FB0002880E5E703E045F625602880E0E700BFBC
:103FC00000BF00BFFCF700F9824600BF00BF012020
:103FD00084F82A0012482060C4F804802662002079
:103FE000A061E0616762A4F8289084ED028AC4EDC4
:103FF000038A20616061204601F0D0FD09480088F5
:10400000401C0849088000BF00BF5046FCF7E0F89C
:1040100000BF00BF0020288000BFB1E75C00002087
:10402000544D5220D4000020F8B506460C462948CD
:104030000078002804DD47F2433020800020F8BDDE
:1040400026B947F2423020800020F8E72249306844
:10405000884204D045F6C45020800020EFE768462F
:10406000FEF786FE96F82A0000B3012812D0022837
:1040700002D0032822D10EE0304601F015FF0021C6
:10408000304601F033FE6846FEF7DEFE0020208059
:1040900001251BE000BF0021304601F027FE6846E5
:1040A000FEF7D2FE0020208001250FE06846FEF7D3
:1040B000CBFE47F23D302080002507E06846FEF742
:1040C000C3FE47F241302080002500BF00BF2846D4
:1040D000B5E700005C000020544D52202DE9F84364
:1040E0000546884691461C463A480078002805DD7A
:1040F00047F2433020800020BDE8F88325B947F21D
:10410000423020800020F7E733492868884204D0F5
:1041100045F6C45020800020EEE76846FEF728FEF2
:1041200095F82A00002841D0012837D0022802D073
:10413000032843D131E0284601F0B6FE002020805C
:10414000B8F1000F1AD0B8F1030F03D0B8F1040F83
:1041500015D109E0AE681EB12846E968B04702E013
:1041600047F24430208012E0AE681EB1494628462E
:10417000B04702E047F24430208008E007E068469C
:10418000FEF762FE45F6256020800020B4E700BF00
:104190006846FEF759FE012718E000BF6846FEF7A3
:1041A00053FE47F24930208001270FE06846FEF7B2
:1041B0004BFE47F23D302080002707E06846FEF7BF
:1041C00043FE47F241302080002700BF00BF384641
:1041D00092E700005C000020544D522010B50024EE
:1041E00000BF00BFFBF7F0FF044600BF00BF084858
:1041F0000078401C0649087000BF00BF2046FBF74E
:10420000E7FF00BF00BFFFF76BFEFEF7F3FC10BD3A
:104210005C00002001464A1E4FF0E0235A61084A24
:10422000106820F07F4000BF10601A46126942F00B
:1042300005021A611A46126942F002021A617047B9
:1042400020ED00E0244A2549254A264A2649274AE6
:104250002748284A284A294A294A2A482A482B4ACC
:104260002B482C4A2C482D4A2D482E482E482F48A2
:104270002F4A304A304A3148314A324A324833486C
:1042800033483448344835483548364A364A374A40
:10429000374A384838483948394A3A4A3A4A3B480E
:1042A0003B483C483C493D483D4A3E4A3E4A3F4ADD
:1042B0003F4A404A404A4148414A424A42484348AC
:1042C000434A444A4448454A454A4648464847487E
:1042D00000BF00BF00BF7047B8FB000820FD00080A
:1042E000B9FB0008BAFB0008BCFB0008C0FB0008D3
:1042F000C4FB0008C1FB0008ECFB0008EDFB000854
:10430000EEFB0008F0FB0008F2FB0008F6FB0008DB
:10431000F8FB000818FC00081AFC00081CFC000848
:104320001EFC000820FC000822FC000824FC0008F9
:1043300050FC000851FC000852FC000854FC000826
:1043400056FC000857FC000858FC00085AFC0008FE
:104350005CFC00085EFC000860FC000862FC0008D1
:1043600064FC000894FC000895FC000896FC00081A
:1043700097FC000898FC00089AFC00089CFC0008C8
:10438000C4FC0008C5FC0008C6FC0008C7FC000807
:10439000C8FC0008CAFC0008CCFC0008D0FC0008DF
:1043A000D1FC0008D2FC0008D3FC0008D4FC0008B3
:1043B000D5FC0008D6FC0008D7FC0008D8FC000893
:1043C000DAFC0008DBFC0008DCFC0008DEFC00086E
:1043D000E0FC0008E1FC0008E4FC000818FD00080F
:1043E00019FD00081AFD00081CFD00081EFD00084C
:1043F0000021034A1160034A1180018070470000C8
:104400006000002064000020002400BF19E000BF0D
:1044100000BFFBF7D9FE044600BF00BF0948006893
:10442000401C0849086008480068401C06490860AC
:1044300000BF00BF2046FBF7CBFE00BF00BFFEF76A
:10444000E5FAE4E758000020A800002010B58AB083
:10445000044600200E4908600B2000210591CDE99B
:104460000704069108460B4909680B4A12680B4B72
:104470001B68CDE90132CDE903103F200023084A33
:1044800008A100900C48FEF7C1FF0AB010BD000063
:10449000580000201CFB000818FB000814FB000853
:1044A0000944000875432F4F532D49494920496459
:1044B0006C65205461736B0014BF00200021034A17
:1044C0001160034A118001807047000068000020DD
:1044D0006C00002070B501461A4D2D681DB945F2DB
:1044E0001E750D8070BD184D2D881DB945F21D75C6
:1044F0000D80F7E7134D28682A681032124D2D8879
:104500006D1EACB2002308E0026000254560058105
:10451000C560103010325D1CABB2A342F4DB002545
:10452000056045600581C560064D2D68074E356004
:10453000054D2D88B5800025F58035810D8000BFA3
:10454000D0E7000054FB00084CFB0008D8BF002057
:1045500010B5014648894B89002B17DD0A680C4BC2
:104560001B6813600A4C4B6823602346DB884C8928
:104570001B1B074CE38023469B884C892344044C37
:10458000A38000234B818B810B604B6010BD00002A
:10459000D8BF0020018100224281828102604260F6
:1045A000704700000021034A1160034A1180018016
:1045B0007047000070000020740000202DE9F041D9
:1045C00005460C46164698461548006880F8346043
:1045D00000201349096881F83500414610480068F9
:1045E00000F09CFD6CB104F10807EC600122294643
:1045F0000B48006800F016F82946384600F06DF8C0
:1046000006E0002006490968C8870549096808636B
:1046100003480168204600F019F8BDE8F081000069
:10462000E800002010B5C287016300230AE00024DF
:104630004C600C600C614C610C83CC618860203153
:104640005C1CA3B29342F2DB10BD000030B560B138
:10465000D0F804C0C1F8C0C000F108042268936813
:10466000D3F820C0C0F81CC013E091F83450022DDC
:1046700002D0072D08D103E006A5C1F8C05007E01D
:1046800006A5C1F8C05003E007A5C1F8C05000BF9F
:1046900000BF30BD5461736B205100005461736BD7
:1046A0002053656D000000002000000030B507A514
:1046B000C1F8C05000F1080422681AB193681D6A5D
:1046C000C56101E001A5C56130BD0000200000000A
:1046D00000210160416001817047F0B58E6896F855
:1046E000375007893FB90127078100274F600F60C6
:1046F0000160416023E007897F1C0781026806E0B2
:10470000946894F83770AF4200DD02E05268002AE6
:10471000F6D100BF32B900274F6043680B60596083
:1047200041600CE017682FB9116000270F604A60E4
:10473000016004E013680B604A6059601160F0BDCD
:104740002DE9F0410446256BE68F0AE0D5F80C8090
:1047500008F108072946384600F00AF82035701E8F
:1047600086B2002EF2DC0020E0872063BDE8F081F5
:1047700010B50489012C03D100240460446011E0C9
:104780000C6824B94A680024146002600AE04C688E
:1047900024B90B6800245C60436003E00B684A683E
:1047A0005A6013600489641E048100244C600C600C
:1047B00010BDF0B52DED028B81B005460C461646B6
:1047C0001F469DED088A94F83600082857D2DFE886
:1047D00000F00405080906072E2F00BF00BF00BF28
:1047E0004EE000BF94F83400032808D18DED008A14
:1047F0003B4632462146284600F047F804E0E6658D
:10480000A4F8607084ED108A35B12046FFF798FF58
:1048100021462846FFF74AFF204600F04FFD0020C2
:1048200004F13404A070607004F8340928E000BF7B
:1048300094F83400032808D18DED008A3B463246B7
:104840002146284600F021F804E0E665A4F86070EF
:1048500084ED108A204601F02BF835B12046FFF791
:104860006FFF21462846FFF721FF042004F134049E
:10487000A0704FF00000607004F8340900E000BF41
:1048800000BF01B0BDEC028BF0BD70B504469DEDDC
:10489000040A086BCD8F0BE0C668A64205D10461FF
:1048A0004261038380ED070A04E020306E1EB5B23A
:1048B000002DF1DC00BF70BD70B50025074C03E092
:1048C00005F12000C5B2241D20680028F8D020681A
:1048D000FBF785FC2844C5B2284670BD3400002093
:1048E000002004E00021034A42F82010401C022866
:1048F000F8D370473400002030B5420900F01F03A0
:104900000121C3F11F04A140034C54F822400C4381
:10491000014D45F8224030BD3400002030B5420939
:1049200000F01F030121C3F11F04A140034C54F800
:1049300022408C43014D45F8224030BD3400002018
:104940000021034A1160034A118001807047000072
:104950007C0000208000002000210AE001EB4102E1
:10496000054B03EB820000220281026042604A1C78
:10497000D1B24029F2D37047E4BF002010B50446FD
:1049800094F83700FFF7B8FF94F837000549097825
:10499000884203D1204600F027F802E0204600F0CC
:1049A00003F810BD7600002010B590F8373003EB07
:1049B00043030C4C04EB83010B893BB901230B81AE
:1049C0000023C36003610860486009E00B895B1C39
:1049D0000B810B68C360002303610A6810610860E3
:1049E00010BD0000E4BF002010B590F8373003EB95
:1049F00043030B4C04EB83010B893BB901230B816F
:104A00000023C36003610860486008E00B895B1CF9
:104A10000B810023C3604A680261D060486010BD0A
:104A2000E4BF002010B501460C8924B1012C03D04D
:104A3000022C0CD101E000BF14E008684A68026152
:104A40000024C4601461D0600A6048600AE008680D
:104A50004A68C36800241C61C4600261D0600B60B6
:104A6000486000BF00BF10BD2DE9F041054695F834
:104A7000370000EB4000124901EB80042F69EE681B
:104A800087B946B9002020812060606095F8370022
:104A9000FFF744FF0EE02089401E20810020306196
:104AA000266007E02089401E2081FE600EB9676005
:104AB00000E0376100202861E860BDE8F081000077
:104AC000E4BF002010B504480078012803D1FDF7A9
:104AD000D7FA0249086010BD900000208400002031
:104AE00010B50A48007880B9FDF7CAFA0849096884
:104AF000441A08480068A04201D2064804600648EB
:104B00000068A04201D20448046010BD900000205B
:104B100084000020880000208C00002070B505462D
:104B200000262E480078012800D070BD00BF00BFCD
:104B3000FBF74AFB064600BF00BF2C683CB900BF2C
:104B400000BF3046FBF744FB00BF00BFEDE7244841
:104B5000844207D100BF00BF3046FBF739FB00BFDE
:104B600000BFE2E7A06D10B1A06D401EA065A06D72
:104B700038B100BF00BF3046FBF72AFB00BF00BFC3
:104B8000D3E72889022807DA00BF00BF3046FBF7C9
:104B90001FFB00BF00BFC8E712480078002807DDF0
:104BA00000BF00BF3046FBF713FB00BF00BFBCE7F0
:104BB0002846FFF737FF2C68606D18B90A4800686F
:104BC000A06501E0606DA06500BF00BF3046FBF747
:104BD000FFFA00BF00BF00BFA7E700009800002059
:104BE00014BF0020900000209400002009A1C161A2
:104BF000002141610849096811B90021816105E07E
:104C000005490968816104490968486102490860E9
:104C100070470000200000009C0000200021034A93
:104C20001160034A11800180704700009C00002041
:104C3000A00000202DE9F04F2DED028B83B004463B
:104C4000884691461D460020019000BF00BFFBF73B
:104C5000BBFA019000BF00BF04F1080738890028A3
:104C600051D10420012804D0022816D0042836D1BE
:104C700025E0206AFF280FD100BF00BF0198FBF795
:104C8000A7FA00BF00BF46F6C5502880002003B039
:104C9000BDEC028BBDE8F08F22E0206AA0F57F41D9
:104CA000FF390BD100BF00BF0198FBF791FA00BF9D
:104CB00000BF46F6C55028800020E8E710E0206AD3
:104CC000401C0BD100BF00BF0198FBF781FA00BF69
:104CD00000BF46F6C55028800020D8E700E000BF9E
:104CE00000BF206A401C2062D4F820A0C4F82490A1
:104CF00000BF00BF0198FBF76BFA00BF00BF0020A8
:104D000028805046C3E718F4007F01D03E8900E0B8
:104D10000126D7F800B010E0DBF8080002909BED08
:104D2000018A00231A46CDF8009020460299FFF729
:104D300040FD18EE10BA701E86B2002EECD1D4F8E9
:104D400020A000BF00BF0198FBF742FA00BF00BFE0
:104D500018F4004F01D1FDF7BBFF0020288050461A
:104D600095E7000086B00020009000BF06E0A9494A
:104D70000968480001AA0021FEF74EFFA648007806
:104D80000128F4D101A8FEF729FA0027A3480068FA
:104D9000A0490968884205D9A04800689D4909686A
:104DA000B0FBF1F727B99D4800680A21B0FBF1F785
:104DB0002EE1FDF765F9804600BF00BFFBF704FA5E
:104DC000009000BF00BF964801689648016000202F
:104DD0009349086000BF00BF0098FBF7F9F900BFD6
:104DE00000BF914800688F490968884248D98E48B9
:104DF00000688E49884205D242F21070039001206B
:104E0000029023E0884800688949884205D24FF41F
:104E10007A7003900A20029018E083480068854960
:104E2000884203D26420039002900FE07E4800681D
:104E30008149884205D20A2003904FF47A7002908B
:104E400004E00120039042F210700290764800685E
:104E50000299B0FBF1FA7349039809684843B0FB23
:104E6000FAF042F21071081A7449088074480088F8
:104E70000988884208DA714800887149088003E08F
:104E800042F210706D490880FEF7B6FA002500BFA7
:104E900000BFFBF799F9009000BF00BF69480468A4
:104EA00000BF00BF0098FBF793F900BF00BF26E0EA
:104EB00000BF00BFFBF788F9009000BF00BF54F8A7
:104EC0009C0F6060002044F89C0900BF00BF009860
:104ED000FBF77EF900BF00BFD4F8A000054400BF77
:104EE00000BFFBF771F9009000BF00BFD4F8BC40D1
:104EF00000BF00BF0098FBF76BF900BF00BF002C9C
:104F0000D6D145B34948854205D242F2107005908A
:104F10004FF0010B1BE04648854205D24FF47A70F2
:104F200005904FF00A0B12E04248854203D26420FC
:104F3000059083460BE04048854204D20A20059044
:104F40004FF47A7B03E00120059042F2107BB5FB21
:104F5000FBF0049003E0002005900120049000BFC6
:104F600000BFFBF731F9009000BF00BF354804686F
:104F700000BF00BF0098FBF72BF900BF00BF2BE07C
:104F8000D4F8A000059948430499B0FBF1F086B22B
:104F900042F21070864200D90646A4F88C60B4F83C
:104FA0008E00B04201DAA4F88E6001AB04F1AC02CD
:104FB000111D2046FEF70CFD00BF00BFFBF704F9F2
:104FC000009000BF00BFD4F8BC4000BF00BF0098F5
:104FD000FBF7FEF800BF00BF002CD1D11A480078C3
:104FE000012805D100201849087001A8FEF7F6F83D
:104FF000FDF746F8A0EB080914480068484502D2BE
:105000001248C0F8009001AA00213846FEF704FEBD
:10501000CFE600005CFB0008B400002074FB000831
:10502000A8000020B0000020AC000020801A06007C
:1050300000093D00005A62020084D717A400002036
:10504000A6000020C0000020A2000020B800002020
:1050500010B58AB0044600201F4908601F49086047
:105060001F4908601F4908701F4908701F480068E1
:1050700020B946F62B6020800AB010BD1C4800689D
:105080001C490968884203D246F62C602080F3E769
:10509000194800783F2803D346F62A602080EBE7C2
:1050A000032000210591CDE9070406910846104927
:1050B0000968124A12680D4B1B68CDE90132CDE92F
:1050C00003100D48007800230D4A0EA100901248ED
:1050D000FEF79CF900BFCFE7A8000020B000002039
:1050E000AC000020B4000020A200002060FB0008FB
:1050F00068FB000870FB000858FB000864FB000810
:10510000654D000875432F4F532D4949492053746D
:105110006174205461736B00E4C2002038B504460A
:105120000D4685B16B4602222946204600F0E2FA80
:10513000BDF8000018B9032084F8360006E002200C
:1051400084F8360002E0022084F836002046FFF79B
:105150008BFC38BD0021C0F8B8100949096819B99D
:105160000021C0F8BC1007E005490968C0F8BC1070
:1051700003490968C1F8B800014908607047000098
:10518000C0000020D0F8B820D0F8BC104AB90D4BB0
:10519000196011B10023C1F8B8300023C0F8BC3049
:1051A0000FE029B90023C2F8BC30C0F8B83008E0DD
:1051B000C2F8BC10C1F8B8200023C0F8BC30C0F859
:1051C000B8307047C00000200021044A1160044A32
:1051D0001180044A1160018070470000C000002067
:1051E000C4000020BC00002070B5044600202060F0
:1051F000A0606060E06020616061A061E0612CA05F
:10520000206200206062A062E0622063E087206488
:10521000E065A4F86000002104F16400FFF7BAF92A
:10522000002044F8740F6060E060A0822061A4F167
:105230007404054606E0002104F17C0040F82510C6
:10524000681CC5B2002DF6D0002004F134042061A2
:1052500020676067606084F85600E067A06720817F
:105260004FF0004060614FF00000A061E0612062FB
:105270006062A4F85800A4F85A00E0652066FCF7C4
:10528000FFFE064666660020A066C4F88000207017
:105290006070A0704020E0700020C4F88400C4F862
:1052A000880005A0C4F88C00A4F1340470BD00008F
:1052B0003F5461736B0000002000000010B50446ED
:1052C000204600F0F5FA94F8360010F0040F02D1F1
:1052D0002046FFF753FB10BD70B504460D4600266F
:1052E00000BF00BFFAF770FF064600BF00BF0020F6
:1052F000288094F8360008285ED2DFE800F0040524
:1053000006071227394B00BF00BF00BF00BF00BF18
:105310003046FAF75DFF00BF00BF47F25310288008
:1053200055E014F88A0F401E207014F88A0928B935
:10533000002084F836002046FFF7C0FF00BF00BF02
:105340003046FAF745FF00BF00BF40E014F88A0F6F
:10535000401E207014F88A0910B9012084F8360024
:1053600000BF00BF3046FAF733FF00BF00BF2EE09A
:1053700014F88A0F401E207014F88A0910B9022010
:1053800084F8360000BF00BF3046FAF721FF00BFA7
:1053900000BF1CE014F88A0F401E207014F88A0920
:1053A00010B9032084F8360000BF00BF3046FAF77A
:1053B0000FFF00BF00BF0AE000BF00BF3046FAF792
:1053C00007FF00BF00BF46F62D60288070BD00BFFC
:1053D000FDF77EFC00BFF9E708B504480068FEF75A
:1053E000DDF969460020FEF705F908BDE800002058
:1053F0002DE9F8430446884617461D464FF000093C
:1054000000BF00BFFAF7E0FE814600BF00BF0CB945
:105410006748046827640020288094F8360008282C
:1054200075D2DFE800F0040550510607525300BF63
:1054300000BF00BF0420012804D0022813D0042894
:1054400033D122E0606CFF280CD100BF00BF48467A
:10545000FAF7BEFE00BF00BF46F6C5502880002008
:10546000BDE8F88322E0606CA0F57F41FF390BD1E5
:1054700000BF00BF4846FAF7ABFE00BF00BF46F6CC
:10548000C55028800020EBE710E0606C401C0BD179
:1054900000BF00BF4846FAF79BFE00BF00BF46F6BC
:1054A000C55028800020DBE700E000BF00BF606C33
:1054B000401C6064666C00BF00BF4846FAF788FE77
:1054C00000BF00BF70E000BF00BF00BF94F8340011
:1054D000072814D100231A46214618460097FFF7E3
:1054E00068F9666C00BF00BF4846FAF771FE00BF5E
:1054F00000BF18F4004F4AD1FDF7EAFB47E0042053
:10550000012805D0022813D0042833D122E03FE03F
:10551000606CFF280BD100BF00BF4846FAF758FE69
:1055200000BF00BF46F6C5502880002098E722E063
:10553000606CA0F57F41FF390BD100BF00BF48462A
:10554000FAF746FE00BF00BF46F6C550288000208F
:1055500086E710E0606C401C0BD100BF00BF4846DE
:10556000FAF736FE00BF00BF46F6C550288000207F
:1055700076E700E000BF00BF606C401C6064666CB2
:1055800000BF00BF4846FAF723FE00BF00BF0BE094
:1055900000BF00BF4846FAF71BFE00BF00BF46F63B
:1055A0002D602880002600BF00BF304658E700006D
:1055B000E800002070B504460D46002600BF00BF7D
:1055C000FAF702FE064600BF00BF0CB93D4804686A
:1055D0003C48006884420ED13B48007800280ADD30
:1055E00000BF00BF3046FAF7F3FD00BF00BF46F62C
:1055F0006350288070BD0020288094F83600082869
:1056000050D2DFE800F0041523313F40414204202E
:1056100084F83600012084F88A002046FFF724FA37
:1056200000BF00BF3046FAF7D3FD00BF00BF44E023
:10563000052084F83600012084F88A0000BF00BFEE
:105640003046FAF7C5FD00BF00BF36E0062084F8FB
:105650003600012084F88A0000BF00BF3046FAF708
:10566000B7FD00BF00BF28E0072084F83600012006
:1056700084F88A0000BF00BF3046FAF7A9FD00BFDA
:1056800000BF1AE000BF00BF00BF94F88A00401CB2
:1056900084F88A0000BF00BF3046FAF799FD00BFCA
:1056A00000BF0AE000BF00BF3046FAF791FD00BF1F
:1056B00000BF46F62D6028809CE700BFFDF708FB81
:1056C00000BF97E7E800002090000020002108E0DC
:1056D000064A02EBC100002202608280C2804A1C9E
:1056E00091B2034A12889142F2DB70470CBC002051
:1056F0008CFB00082DE9F04F0C4616461D46042E83
:105700001ED1DFF8A091D9F80090A4EB0909A9F106
:10571000010313F5803F0DD94FF00009C0F84C90FC
:10572000C0F85090C0F81C9047F27E29A5F8009070
:10573000BDE8F08FC46403F10109C0F850903FE068
:1057400084B3082E25D1D0F8489009EB0407DFF880
:105750005491D9F80090A7EB0909A9F10103A342DC
:1057600001D2C76406E0DFF83C91D9F80090A1446B
:10577000C0F84C90DFF82CA1D0F84C90DAF800A0DB
:10578000A9EB0A09C0F85090D0F84C90C0F84890A6
:1057900016E0DFF81091D9F80090A144C0F84C90C1
:1057A00004650DE0FFE74FF00009C0F84C90C0F829
:1057B0005090C0F81C9047F27E29A5F80090B7E7FA
:1057C000DFF8E4A0BAF800A0D0F84C90B9FBFAFBDF
:1057D0000AFB1B991FFA89F8DFF8D09009EBC80281
:1057E000B2F80490B9F1000F0BD14FF00009C0F8E6
:1057F0001490C0F8189010604FF00109A2F80490BE
:105800003EE0116834E0DFF89CA0D1F84C90DAF863
:1058100000A0A9EB0A09C1F85090D0F85090D1F837
:1058200050A0D1450ED9D1F81490B9F1000F01D094
:1058300049691DE04FF00009C0F81490816148618A
:10584000002115E0D1F81890B9F1000F07D14FF001
:105850000009C0F8189041618861106007E0D1F834
:1058600018C0C0F818C04161CCF81400886100214C
:105870000029C8D1B2F8049009F10109A2F80490F6
:10588000B2F80690B2F804A0D14503DAB2F8049059
:10589000A2F80690C2614FF00009A5F8009000BF81
:1058A00046E70000C80000208CFB00080CBC00206C
:1058B00010B5C269BAB1002404651468844205D1E8
:1058C0004169116039B100248C6104E08169436948
:1058D0004B6103B19961002444618461C461C46473
:1058E0009488641E948010BD002006E0054A02EBF7
:1058F000C0010022CA80421C90B2034A1288904222
:10590000F4DB70470CBC00208CFB00082DE9F0474D
:105910002DED028B4FF0000A00BF00BFFAF754FCD8
:10592000824600BF00BFFCF7ABFB05465E4800683F
:10593000401C5D490860084600685C490988B0FB66
:10594000F1F201FB12001FFA80F8594800EBC8077A
:105950003C684FF000098FE0002C7CD094ED058A64
:1059600094F83600082877D2DFE800F00408051C18
:105970000642075600BF00BF00BF77E04A49E06C0F
:105980000968401A20654849E06C0968884206D1D8
:10599000002084F836002046FFF790FC01E04FF02D
:1059A000010963E04049E06C0968401A20653E49FE
:1059B000E06C0968884218D10020E065A4F8600016
:1059C000FCF75EFB20642046FEF7BAFE2046FFF798
:1059D00075FC002004F13404A0704FF003006070E7
:1059E0004FF0000004F8340901E04FF001093DE0F8
:1059F0002D49E06C0968401A20652B49E06C096864
:105A0000884206D1042084F836002046FFF750FF74
:105A100001E04FF0010929E02349E06C0968401AD0
:105A200020652149E06C096888421BD10020E065AF
:105A3000A4F86000FCF724FB20642046FEF780FEFB
:105A40002046FFF735FF042004F13404A0704FF026
:105A50000300607001E00DE007E04FF0000004F883
:105A6000340901E04FF0010900E000BF00BF18EE6B
:105A7000104A01E04FF00109B9F1000F3FF46CAF9B
:105A8000FCF7FEFA461B0B480068B04201D20948F9
:105A9000066000BF00BF5046FAF79AFB00BF00BF88
:105AA000BDEC028BBDE8F087C80000208CFB00082D
:105AB0000CBC0020CC0000201CB500BF0EE001ABE8
:105AC0006A4600210846FDF775FEBDF8040028B9B6
:105AD00003480078012801D1FFF718FFEFE7000025
