:020000040800F2
:1000000080EB002001000208515E02080F4C02083C
:100010009555020801240208D9C802080000000012
:10002000000000000000000000000000E1B802082D
:100030003D2B020800000000EF0B020809770208C0
:100040001B0002086D9B02081B0002081B0002082F
:100050001B0002081B0002081B0002081B0002080C
:100060001B0002081B0002081B0002081B000208FC
:100070001B0002081B0002081B0002081B000208EC
:100080001B0002081B0002081B0002081B000208DC
:100090001B0002081B0002081B0002081B000208CC
:1000A0001B000208B1BE0208F9BD02081B000208CD
:1000B0001B0002081B0002081B0002081B000208AC
:1000C0001B0002081B0002081B000208F5B602080C
:1000D00065B7020835C4020845C4020855C40208C1
:1000E0001B0002081B0002081B0002081B0002087C
:1000F0001B0002081B0002081B0002081B0002086C
:100100001B00020891A602081B0002081B0002083F
:100110001B0002081B0002081B0002081B0002084B
:100120001B0002081B0002081B000208B928020875
:100130001B0002081B0002081B0002081B0002082B
:100140001B0002081B0002081B0002081B0002081B
:100150001B0002081B0002081B0002087DC40208E5
:100160001B0002081B0002081B0002081B000208FB
:100170001B0002081B0002081B0002081B000208EB
:100180001B0002081B000208DFF80CD000F006F884
:1001900000480047FD33030880EB0020064C074D64
:1001A00006E0E06840F0010394E807009847103447
:1001B000AC42F6D3FFF7ECFFE001000800020008B4
:1001C00002E008C8121F08C1002AFAD17047704720
:1001D000002001E001C1121F002AFBD1704700007E
:1001E0000002000800000020F40200005A0B020880
:1001F00024020008F40200208CE80000D00100086E
:1002000001242D010203040405D4060708096A022B
:10021000010912FC018F32A763E70303FF0F2701D7
:0402200037000000A3
:020000040802F0
:100000000648804706480047FEE7FEE7FEE7FEE7B2
:10001000FEE7FEE7FEE7FEE7FEE7FEE7D1B90208EE
:100020008901000872B6704762B67047EFF310801E
:1000300072B6704780F31088704730BF704720BF9A
:100040007047B0FA80F0704790FAA0F0B0FA80F0F4
:10005000704790FAA0F07047002800D1704700293F
:1000600000D17047002A00D170472DE9F81F00F039
:10007000030301F00304A34211D1C3F1040303F00D
:100080000303012B1DD3012A00D2F2E011F8014B2A
:1000900000F8014BA3F10103A2F10102F1E700F026
:1000A000010301F00104A34200D094E0012B44D3EA
:1000B00011F8014B00F8014BA3F10103A2F1010279
:1000C000F4E7B2F5B47F26D3B1E8F81FA0E8F81F33
:1000D000B1E8F81FA0E8F81FB1E8F81FA0E8F81F82
:1000E000B1E8F81FA0E8F81FB1E8F81FA0E8F81F72
:1000F000B1E8F81FA0E8F81FB1E8F81FA0E8F81F62
:10010000B1E8F81FA0E8F81FB1E8F81FA0E8F81F51
:10011000A2F5B472D5E7282A06D3B1E8F81FA0E803
:10012000F81FA2F12802F6E7042A06D351F8043B8F
:1001300040F8043BA2F10402F6E7202A42D331F84A
:10014000023B20F8023B31F8023B20F8023B31F839
:10015000023B20F8023B31F8023B20F8023B31F829
:10016000023B20F8023B31F8023B20F8023B31F819
:10017000023B20F8023B31F8023B20F8023B31F809
:10018000023B20F8023B31F8023B20F8023B31F8F9
:10019000023B20F8023B31F8023B20F8023B31F8E9
:1001A000023B20F8023B31F8023B20F8023B31F8D9
:1001B000023B20F8023B31F8023B20F8023BA2F15F
:1001C0002002BAE7022A06D331F8023B20F8023BAC
:1001D000A2F10202F6E7102A42D311F8013B00F81F
:1001E000013B11F8013B00F8013B11F8013B00F81D
:1001F000013B11F8013B00F8013B11F8013B00F80D
:10020000013B11F8013B00F8013B11F8013B00F8FC
:10021000013B11F8013B00F8013B11F8013B00F8EC
:10022000013B11F8013B00F8013B11F8013B00F8DC
:10023000013B11F8013B00F8013B11F8013B00F8CC
:10024000013B11F8013B00F8013B11F8013B00F8BC
:10025000013B11F8013B00F8013BA2F11002BAE7A3
:10026000012A06D311F8013B00F8013BA2F101027B
:10027000F6E7BDE8F81F70472DE9F05F054600205E
:1002800092469B4688460646814640241BE0284607
:1002900041464746224600F0C0FA53465A46C01A25
:1002A000914110D311461846224600F0A7FA2D1AA4
:1002B00067EB01084F4622460120002100F09EFA1C
:1002C00017EB00094E41201EA4F10104DFDC484673
:1002D00031462A464346BDE8F09F000038B5D0E9D4
:1002E0000221491E01EB410102EBC1014268C1EB51
:1002F000011102EB81010268C1EB011102EB8103E4
:10030000D0E9042101EB410102EB8101A1F5527119
:10031000302491FBF4F2154D04FB1211554303EB0D
:10032000C51300931A2902DB114A1A4400920C23C8
:1003300091FBF3F20F4C009D544303FB121105EBAC
:10034000C4140D4B009408E0491E40F2A3245A5CEB
:100350006243009C04EBC21200920029F4DC0146C7
:10036000684600F07DFA009838BD00003F0C0F0091
:100370008051010067C203005888030840EA010366
:100380009B0703D009E008C9121F08C0042AFAD24B
:1003900003E011F8013B00F8013B521EF9D270470F
:1003A000D2B201E000F8012B491EFBD270470022B7
:1003B000F6E710B513460A4604461946FFF7F0FF64
:1003C000204610BD30B505462A460B4612F8010BF3
:1003D00013F8014B08B1A042F8D01CB1002802D09C
:1003E0006D1CF1E7284630BD2DE9FE4F804681EABD
:1003F0000300C00F0C46009021F0004123F000459F
:10040000B8EB0200A94105D24046214690461C4661
:100410000B46024623F00040104304D140462146DB
:1004200003B0BDE8F08F270DC7F30A00C3F30A51EC
:100430000290401A0190402866DAC3F3130040F49A
:10044000801B0098924620B10023D2EB030A63EB95
:100450000B0B01985946C0F14002504600F0CEF90E
:1004600006460D4650465946019A00F0E6F910EB53
:1004700008006141002487EA115284EAE7731A43B5
:100480003BD0009A3AB3019A012A4FEA075210DC96
:10049000001B61EB02014FF0004202EA0752CDE976
:1004A0000042001C41F5801132462B4600F05BFAF9
:1004B000B6E7001B61EB0201001C41F58013001838
:1004C0005B412018A2F5001747EB030140EAD57005
:1004D000B6196D4111E06D084FEA360645EAC07560
:1004E0004FEA0752001B61EB0201001C41F580112D
:1004F00049084FEA30000019514132462B4603B0FB
:10050000BDE8F04F00F022BA00980122400000231D
:10051000D0EB020263EBE073009821464FEAE074EF
:10052000B8EB000061EB0401E9E783F000435BE70F
:1005300081F0004158E72DE9FE4F81EA030404F001
:10054000004421F0004100944FF0000B23F00043E1
:1005500050EA010402D052EA030404D1002001460B
:1005600003B0BDE8F08FC3F30A54C1F30A552C441D
:10057000A4F2F3340194A0FB0254C1F3130141F43B
:100580008011C3F3130343F4801301FB024400FB07
:10059000034E840A970A44EA815447EA8357A4FB2E
:1005A000076802958D0A05FB07854FEA932C04FB2B
:1005B0000C542705029D4FEA065847EA1637B5EB5B
:1005C00008056EEB070C870E920E47EA811742EA88
:1005D0008312A7FB0201B6EB0B0164EB00042B0DA9
:1005E00043EA0C335E1844EB1C50DA465146E7FBF5
:1005F0000201C5F313044FEA0B3343EA14534FEAE5
:100600000432019C43EA0603A4F10C040294009C0A
:10061000CDE900B400F0A7F9A2E72DE9F04D81EA99
:10062000030404F0004B21F0004514464FF0000A8B
:1006300023F0004150EA050220D054EA01021DD007
:10064000C5F30A570246C5F31303C1F31300C1F300
:100650000A5640F4801543F48013A7EB0608101BDC
:10066000D64608F2FD3873EB050002D308F1010805
:1006700001E092185B41B8F1000F03DA0020014657
:10068000BDE8F08D00204FF48011064684460EE050
:10069000171B73EB050705D3121B63EB050306431A
:1006A0004CEA010C49084FEA300092185B4150EACD
:1006B0000107EDD152EA030012D082EA040083EA76
:1006C0000501084303D100224FF0004308E0101B4E
:1006D000AB4102D20122002302E06FF0010253106D
:1006E0001AEB06004CEB085110EB0A0041EB0B0132
:1006F000BDE8F04D00F02AB90EB5C10F80EAE070F8
:100700000844CA07002140F233438DE80E000A4630
:100710000B4600F028F903B000BD0EB540F233419E
:1007200002910021CDE900110A460B4600F01BF9A9
:1007300003B000BD70B5C1F30A5201F000450024BA
:10074000C1F3130140F2FF3341F480119A4201DA00
:10075000002070BD40F233439A42A2F2334203DCE0
:10076000524200F05AF800E090402C43F1D0404251
:1007700070BD000030B5002904DB4FF0004440425A
:1007800064EB0101002B04DB4FF00044524264EBA8
:1007900003038B4208BF824230BD000030B5002900
:1007A00004DB4FF00044404264EB0101002B04DB0A
:1007B0004FF00044524264EB0303994208BF904259
:1007C00030BD000001F0004330B421F0004150EA98
:1007D000010206D00A0DA2F56072C1F31301002ACE
:1007E00002DC30BC00207047440F44EAC104C10061
:1007F000E01830BC00EBC25000F072B8202A04DBD5
:10080000203A00FA02F1002070479140C2F1200323
:1008100020FA03F3194390407047202A04DB203A62
:1008200021FA02F00021704721FA02F3D040C2F110
:1008300020029140084319467047202A06DBCB1757
:10084000203A41FA02F043EAE07306E041FA02F38B
:10085000D040C2F120029140084319467047000081
:1008600030B503683C22B3FBF2F002FB10330B609F
:10087000B0FBF2F302FB130018244860B3FBF4F062
:1008800004FB10328A60021D0723B2FBF3F403FB62
:1008900014228A61820002F66C3240F2B555B2FB36
:1008A000F5F404F144000346486105FB1420800878
:1008B000C8613B2802D39A0700D0401C0022074C95
:1008C00013460A61E25C824203D8801A5B1C0B610A
:1008D000F8E7401CC860084630BD0000F0890308F6
:1008E0000029A8BF7047401C490008BF20F0010044
:1008F000704710B4B0FA80FC00FA0CF050EA010422
:1009000004BF10BC704749B1CCF1200421FA04F4B3
:1009100011FA0CF118BF012121430843A3EB0C018C
:10092000CB1D0106000A002BBEBF002010BC704783
:1009300000EBC35010440029A4BF10BC7047401CFA
:10094000490008BF20F0010010BC704710B5002B13
:1009500008DA401C41F1000192185B411A4301D1B1
:1009600020F0010010BD2DE9F04D92469B4611B1DB
:10097000B1FA81F202E0B0FA80F220329046FFF73D
:100980003DFF04460F4640EA0A0041EA0B01534688
:100990005A46084303D120463946BDE8F08D11463A
:1009A00053EA010015D0C8F140025046FFF735FF69
:1009B00005460E46504659464246FFF71FFF08437C
:1009C00001D0012000E00020054346EAE0762C43F8
:1009D00037430A984FEA4453A0EB08004FEAD42467
:1009E0000A304FF0000244EA47544FEAD72502D5B7
:1009F00000200146D1E7010510196941DDE90845EC
:100A000000196941BDE8F04DA0E770B521F0004341
:100A100003430CD0C1F30A550024D5EB040564EB65
:100A20000403D617AD1AB34102DB0020014670BDA6
:100A3000201841EB025170BD2DE9F04D00231A46FC
:100A40001B1A8A4103DB00200146BDE8F08DC1F38B
:100A50000A52C1F3130141F480154FF0000BD10786
:100A600002D100186D41521E0027044640F2FF11CA
:100A7000384601EB620A3E468046024600204FF4AB
:100A80008011FFF7CAFEC2197141BB1846EB010085
:100A9000B4EB030C75EB000C04D3E41A65EB000512
:100AA00017460E46241908F101006D41804634288E
:100AB000E3DDF91946EB0600091BA84103D24FF00C
:100AC000FF32134601E0002213461BEB070046EB02
:100AD0000A51BDE8F04DFFF739BF2DE9FE4FC3F3D2
:100AE0000A5701F000450024C1F30A56C3F313036B
:100AF000C1F3130143F4801312EB020AA64641F43A
:100B00008011009543EB030CA7F1010B13E0B0EB50
:100B10000A0071EB0C0107D54FF00008D0EB08007C
:100B200085F0004568EB0101171A73EB0107EED35E
:100B3000761E001849415E45F6DA50EA010204D1FA
:100B40000099204603B0BDE8F08FCDE900E5002212
:100B500013460296FFF707FFF4E770B501EB0204B6
:100B600010F8015B15F0070301D110F8013B2A11C1
:100B700006D110F8012B03E010F8016B01F8016BAE
:100B80005B1EF9D12B0705D40023521E0FD401F8A8
:100B9000013BFAE710F8013B02F10202A1EB03036B
:100BA00003E013F8015B01F8015B521EF9D5A14285
:100BB000D6D3002070BD000021484FF0FF01017026
:100BC000002080F309881F48016881F308881E48C7
:100BD0004FF08051016062B6FEE71B484FF0805134
:100BE0000160704718484FF080510160704772B63D
:100BF000EFF3098050B11EF0100F08BF20ED108AEE
:100C0000734620E9F80F11490968086000B51048DB
:100C100080475DF804EB0F480F490A7802700B48D3
:100C20000E490A6802601068B0E8F80F9E461EF090
:100C3000100F08BFB0EC108A80F3098862B67047C5
:100C400022ED00E0F000002004ED00E0E8000020CC
:100C5000C97002087600002077000020EC00002018
:100C600010B58AB0002407E09FED3C0B3D4800EB37
:100C7000C40080ED000B641C032CF5DB002407E0AE
:100C80009FED360B384800EBC40080ED000B641C70
:100C9000032CF5DB9FED310B344880ED000B9FED0D
:100CA000340B80ED020B9FED340B354880ED000BCB
:100CB0009FED310B334880ED000B01203249087065
:100CC00000203249087032490870324908603249C0
:100CD0000860324908609FED320B334880ED000B0D
:100CE00000203249087032490870324908709FED7F
:100CF000320B334880ED000B9FED320B334880ED13
:100D0000000B9FED330B344880ED000B002033497E
:100D10000870334908703349087033490870334903
:100D20000870334908703349087040F2DF70099049
:100D3000032008901C200790002006900590049046
:100D400004A805A906AA07ABCDE90021029008AACC
:100D500009A9294817F098F90AB010BD0000000051
:100D60000000000090A8002008A9002050A9002041
:100D7000F4FB7CD35E16D33F000000000000F03F80
:100D8000B8020020C0020020A8020020A902002012
:100D9000AA020020AC020020B0020020B402002011
:100DA000000000000000004098020020080200201F
:100DB000CC02002009020020613255302AA9333FBD
:100DC00050020020FA7E6ABC7493783F68020020CB
:100DD0007B14AE47E17AB43F80020020600200201D
:100DE000780200209002002091020020930200204F
:100DF0009502002097020020D802002001F006FF93
:100E000008F0B0FB642001F0CBFA1FE0002417E0EB
:100E1000012001F017FF012001F0C2FA022001F0C9
:100E200011FF20210A4800F017F8012001F0B8FA5C
:100E300008F0A6FB1021074800F00EF8601CC4B2B1
:100E4000102CE5DB4FF47A7001F0AAFADEE700001F
:100E5000E0A30020C09A0020F0B502460B46002017
:100E600046E000EB400732F8274000EB400732F83D
:100E70002750002600212BE000EB400702EB8707FC
:100E800037F81170A74206DD00EB400702EB870739
:100E900037F8117000E027463C4600EB400702EBB4
:100EA000870737F81170AF4206DA00EB400702EB14
:100EB000870737F8117000E02F463D4600EB4007EA
:100EC00002EB870737F811703744BEB24F1CF9B2F6
:100ED0000529D1DB371B7F1B4FF0030C97FBFCF779
:100EE00000EB400C02EB8C0CACF80A70471CF8B21B
:100EF0009842B6DBF0BD000010B512A200211448E4
:100F000001F013FA13A20021154801F00EFA15A200
:100F10000021184801F009FA17A200211A4801F02F
:100F200004FA1AA200211D4801F0FFF91CA20021B9
:100F30001F4801F0FAF91FA20021224801F0F5F93B
:100F400010BD000053454D5F4750535F53544F0051
:100F50009470002053454D5F54454C5F53544F00EF
:100F6000BC70002053454D5F504C4F41445F53547B
:100F70004F000000E470002053454D5F4359435F2C
:100F8000494E464F00000000F0A6002053454D5F3B
:100F90004D41475F444F545F444D500018A7002017
:100FA00053454D5F5049545F464C545F434F4D008D
:100FB00040A7002053454D5F4154545F5354415F57
:100FC00043544C0068A700202DED108BAEB09FED70
:100FD000D30B8DED1A0B9FEDD30BB0EE40BAF0EEB4
:100FE00060BA9FEDD20BB0EE40CAF0EE60CA9FED42
:100FF000D10B8DED180B90E10021D04801F0B4F930
:10100000CF4890ED001BB0EE410AF0EE610A9FED73
:10101000CD1B53EC112B51EC100BFFF78CFA41EC6C
:10102000100BB0EE40DAF0EE60DA9FEDC80B53EC37
:10103000102B51EC1D0BFFF7F0FA41EC180BC048D8
:1010400090ED021BB0EE410AF0EE610A9FEDBD1B70
:1010500053EC112B51EC100BFFF76DFA41EC100B18
:10106000B0EE40DAF0EE60DA9FEDB80B53EC102BE7
:1010700051EC1D0BFFF7D1FA41EC190BB548006894
:10108000012806DA03230122B34928A812F06AFADC
:101090000DE00320012328AAAF49009022A812F0F6
:1010A000E7FC03230122AC4928A812F05BFA53ECB9
:1010B000192BAA4890ED000B51EC100BFFF73BFAEF
:1010C00041EC100BB0EE40DAF0EE60DAA44890ED9F
:1010D000000B51EC100B81F0004141EC100BB0EE15
:1010E00040FAF0EE60FA53EC182B51EC1F0BFFF7AF
:1010F00022FA41EC100BB0EE40EAF0EE60EA53EC5D
:101100001D2B51EC1E0BFFF710FA41EC1A0B9FED53
:10111000950B8DED100B8DED12AB9FED920B8DEDC0
:10112000140B01201AAACDE90020032302468A49A4
:1011300002901CA812F0A4FB03211CA812F0F2FCE0
:10114000B0EE40DAF0EE60DA53EC1D2B9FED870B2A
:1011500051EC100BFFF761FA41EC100B8DED160B03
:101160009DED160B53EC102B9DED160B51EC100B57
:10117000FFF7E1F941EC100B8DED160B10AA1CA93D
:101180007C480BF0ABFB012016AACDE9002003231D
:10119000024678490290084612F072FB9DED241B2E
:1011A000B0EE410AF0EE610A734890ED001B53EC7B
:1011B000112B51EC100BFFF7B8F941EC100BB0EE0E
:1011C00040DAF0EE60DA6D4890ED000B51EC100B58
:1011D00081F0004141EC100BB0EE40EAF0EE60EA25
:1011E00053EC1D2B51EC1E0BFFF7A5F941EC100B36
:1011F000604880ED020B002432E05E4800EBC40042
:1012000090ED001BB0EE410AF0EE610A9FED5C1B11
:1012100053EC112B51EC100BFFF7ACFA06D29FEDFB
:10122000580B544800EBC40080ED000B514800EB14
:10123000C40090ED001BB0EE410AF0EE610A9FED94
:10124000521B53EC112B51EC100BFFF7A7FA06D2EF
:101250009FED4F0B474800EBC40080ED000B641C72
:10126000032CCADB434890ED001BB0EE410AF0EEC0
:10127000610A53EC1B2B51EC100BFFF75CF941ECAE
:10128000100B8DED0A0B3B4890ED021BB0EE410AAE
:10129000F0EE610A53EC1C2B51EC100BFFF74BF9ED
:1012A00041EC100B8DED0C0B324890ED041BB0EEB1
:1012B000410AF0EE610A9DED181B53EC112B51EC25
:1012C000100BFFF738F941EC100B8DED0E0B0323DB
:1012D00001220AA9304812F045F91E480068401C56
:1012E0001C490860002511E02C4800EBC40090ED7B
:1012F000000B04A800EBC40080ED000B9FED190B60
:10130000264800EBC40080ED000B6D1C032DEBDBC9
:1013100004AA23490A4812F075FE6DE695D626E820
:101320000B2E113E39183558CD5CDC3FAF3DAC3942
:10133000AE02DD3F9F910416B960DE3F68A7002032
:1013400020A900200000000000806640182D4454B1
:10135000FB210940B4020020D8A800206802002028
:10136000500200200000000000000000000000000B
:101370000000F03FF0A80020A00200208002002022
:101380009A9999999999C9BF0000000000000040FE
:101390009A9999999999C93FC0A7002008A9002056
:1013A00030A9002000B58BB00AA8032100220592C5
:1013B000CDE906210890012080210C22B94BCDE90E
:1013C0000132CDE9031003200023B74AB7A10090F2
:1013D000BA4805F0B7FA0AA8032100220592CDE920
:1013E00006210890022080210C22B54BCDE9013264
:1013F000CDE9031004200023B24AB3A10090B648FF
:1014000005F0A0FA0AA8032100220592CDE90621E1
:101410000890104680210C22B04BCDE90132CDE975
:10142000031005200023AE4AAEA10090B14805F09C
:1014300089FA0AA8032100220823CDE90532CDE963
:101440000710104699013322AB4BCDE90132CDE9AB
:10145000031006200023A94AA9A10090AC4805F07A
:1014600071FA0AA8032100220823CDE90532CDE94B
:101470000710104680210C22A64BCDE90132CDE9A0
:10148000031007200023A44AA4A10090A74805F058
:1014900059FA0AA8032100220823CDE90532CDE933
:1014A0000710104680210C22A14BCDE90132CDE975
:1014B0000310082000239F4A9FA10090A24805F036
:1014C00041FA0AA8032100220823CDE90532CDE91B
:1014D0000710104680210C229C4BCDE90132CDE94A
:1014E0000310092000239A4A9AA100909D4805F014
:1014F00029FA0AA8032100220823CDE90532CDE903
:101500000710104680210C22974BCDE901320023B1
:101510000092CDE90310954A95A19A4805F012FA78
:101520000AA8032100220823CDE90532CDE90710DE
:10153000104680210C22944BCDE90132CDE90310F5
:1015400002200023914A92A10090944805F0FAF9F4
:101550000AA8032100220823CDE90532CDE90710AE
:10156000104680210C228E4BCDE90132CDE90310CB
:10157000022000238B4A8CA100908E4805F0E2F9EE
:101580000AA8032100220823CDE90532CDE907107E
:10159000104680210C22884BCDE90132CDE90310A1
:1015A0000D200023854A86A10090894805F0CAF9DC
:1015B0000AA8032100220823CDE90532CDE907104E
:1015C000104680210C22834BCDE90132CDE9031076
:1015D0000B200023804A81A10090834805F0B2F9D6
:1015E0000AA8032100220592CDE9062108901046A1
:1015F0004FF4806166227D4BCDE90132CDE90310C5
:10160000122000237A4A7BA100907E4805F09AF9C7
:101610000AA8032100220592CDE906210890104670
:101620004FF480616622784BCDE90132CDE9031099
:1016300013200023754A76A100907A4805F082F9BC
:101640000AA8032100220592CDE906210890104640
:101650004FF480616622744BCDE90132CDE903106D
:1016600014200023714A72A10090764805F06AF9AF
:101670000AA8032100220592CDE906210890104610
:101680004FF480616622704BCDE90132CDE9031041
:10169000162000236D4A6EA10090724805F052F9A1
:1016A0000BB000BD18070020A13802084750535F57
:1016B00053544F5F5441534B000000005406002028
:1016C000DC0900200D3802084750535F5245565F31
:1016D0005441534B0000000018090020A00C0020CA
:1016E00039BA020854454C5F53414D5F5441534B46
:1016F00000000000DC0B0020640F002079BA020813
:1017000054454C5F53544F5F5441534B000000000D
:10171000A00E002028180020A1960208504C4F412E
:10172000445F53414D5F5441534B00006417002008
:10173000EC1A0020619B0208504C4F41445F535407
:101740004F5F5441534B0000281A0020B01D002069
:10175000B9B8020853544F5F5550444154455F5443
:1017600041534B00EC1C002074200020ADB802084F
:1017700053544F5F4D4F4E49544F525F5441534B5A
:1017800000000000B01F002038230020B52D020803
:101790004641554C545F5441534B00007422002085
:1017A000C0280020E59302084F55545055545F540B
:1017B00041534B00FC270020842B0020FD0D020824
:1017C0004144435F53414D504C455F5441534B009E
:1017D000C02A0020FC250020ADBA0208544553540D
:1017E0005F5441534B00000038250020482E002054
:1017F000991D0208417070205461736B2053656E0F
:1018000047657400842D00200C3F002069180208F1
:10181000417070205461736B204D6167446F744454
:101820006D700000483E0020D04F0020E11A0208F1
:10183000417070205461736B20506974466C74431E
:101840006F6D00000C4F002094600020C90F02084B
:10185000417070205461736B204174745374614300
:10186000746C0000D05F00202DED088B94B040F622
:10187000B7359FED820BB0EE408AF0EE608A9FEDA7
:10188000810BB0EE409AF0EE609A9FED800BB0EEC7
:1018900040AAF0EE60AAF0E000217E4800F064FD6E
:1018A0007D480068FEF728FF41EC100BB0EE40BA0F
:1018B000F0EE60BA9FED790B53EC102B51EC1B0B43
:1018C000FEF758FF12D20323012276490EA811F029
:1018D00049FE002407E09FED740B754800EBC4003F
:1018E00080ED000B641C032CF5DB74E00320012366
:1018F0000EAA6C49009008A812F0BAF8032301223E
:1019000068490EA811F02EFE002462E008A800EB42
:10191000C40090ED001BB0EE410AF0EE610A53ECFA
:10192000102B9FED641B51EC110BFEF704FE41ECF4
:10193000100BB0EE40BAF0EE60BA604890ED000BCC
:1019400053EC102B51EC1B0BFEF767FE41EC100B18
:10195000574800EBC40080ED000B554800EBC40075
:1019600090ED001BB0EE410AF0EE610A9FED541BB2
:1019700053EC112B51EC100BFEF710FF07D29FED2B
:10198000500B4B4800EBC40080ED000B20E04848B2
:1019900000EBC40090ED001BB0EE410AF0EE610ACE
:1019A0009FED491B53EC112B51EC100BFEF7E2FE9F
:1019B00007D29FED450B3E4800EBC40080ED000BC5
:1019C00006E09FED390B3A4800EBC40080ED000BB8
:1019D000641C032C9ADB364890ED001BB0EE410AE4
:1019E000F0EE610A53EC182B51EC100BFEF7A3FD3F
:1019F00041EC100B8DED020B2D4890ED021BB0EE6B
:101A0000410AF0EE610A53EC192B51EC100BFEF772
:101A100092FD41EC100B8DED040B254890ED041B5D
:101A2000B0EE410AF0EE610A53EC1A2B51EC100BA8
:101A3000FEF781FD41EC100B8DED060B0323012217
:101A400002A9234811F08EFD0323012215492148E4
:101A500011F088FD2048007878B90F480068401CD4
:101A60000D4908601D480078012806D10846006825
:101A7000A84202DD0120184908700DE739183558D1
:101A8000CD5CDC3FAF3DAC39AE02DD3F9F9104162B
:101A9000B960DE3F18A70020AC0200209A999999FE
:101AA0009999B93FD8A8002000000000000000006C
:101AB000F0A800200000000080842EC198020020C1
:101AC0009A9999999999C93F9A9999999999C9BF58
:101AD000C0A7002000A80020A902002008020020C2
:101AE0002DED0A8BC4B09FED8E0BB0EE408AF0EE68
:101AF000608A13E100218C4800F036FC01A805F053
:101B000057FC8A49086008460068FEF706FE41EC6B
:101B1000100BB0EE40CAF0EE60CA9FED850B53EC9F
:101B2000102B51EC1C0BFEF706FD41EC100BB0EE38
:101B300040BAF0EE60BA9FED800B53EC102B51ECE5
:101B40001B0BFEF76AFD41EC100BB0EE40AAF0EE65
:101B500060AA9FED7B0B53EC102B51EC1A0BFEF798
:101B60005CFD41EC100BB0EE409AF0EE609A7648C6
:101B700090ED000B53EC102B51EC190BFEF734FCDD
:101B800041EC100B714880ED000B71480078012882
:101B90000ED100240AE06F4800EBC40090ED000B6A
:101BA0006D4800EBC40080ED000B641C062CF2DBDA
:101BB000062301226849694811F0D4FC634932A820
:101BC0000FF0B6FA644A32A92CA812F017FB2CA920
:101BD00028A810F08DFD22AA32A91CA803F0B2FC9F
:101BE0005D490AA803F012FD1CAA0AA904A803F083
:101BF000C1FC5B4890ED022BB0EE420AF0EE620AA7
:101C00009DED062BB0EE421AF0EE621A53EC102B4B
:101C100051EC110BFEF789FC41EC100B514880EDA3
:101C2000000B9DED040B4E4880ED000B9DED060B67
:101C300080ED020B9DED080B80ED040B4A4A04A9D0
:101C400002A811F0E7FA4948006828B902AA4849F1
:101C5000484811F0B5FF04E002AA4549454812F092
:101C60000FF853EC182B9DED020B51EC100BFEF707
:101C700062FC41EC100B404880ED000B0223012276
:101C80003C493E4811F06EFC3C4890ED001BB0EE24
:101C9000410AF0EE610A53EC182B51EC100BFEF7E1
:101CA0004AFC41EC100B354880ED000B90ED021B17
:101CB000B0EE410AF0EE610A53EC182B51EC100B18
:101CC000FEF739FC41EC100B2C4880ED020B03238E
:101CD000012222A92A4811F045FC032301222249AE
:101CE000284811F03FFC21480068401C1F4908604B
:101CF0002548007858B9084600681E2807DB0120EF
:101D000021490870002021490870214908601E48B7
:101D10000078012802D11F4800F018FBEAE6000015
:101D2000F8C1631ADCA54C4040A70020E80200205F
:101D3000000000000000F03F0000000000408F4065
:101D4000000000000018F540D8020020E00200204A
:101D5000CC020020A8A8002060A8002090A70020A6
:101D600018A80020A0020020D8A80020B00200205F
:101D700030A9002020A90020E8010020D8A70020D9
:101D8000E8A7002000A80020AA020020A802002046
:101D9000AC02002068A700202DED088B9EB04FF408
:101DA000B465D7E10021EC4800F0DEFAEB4800789A
:101DB000012810D10020E94908700120E849087085
:101DC0000020E8490870E8490870E8490860E849D7
:101DD0000860E84908601CA805F0EAFAE6490860CE
:101DE00008460068FEF799FC41EC100BB0EE40BAD3
:101DF000F0EE60BA9FEDE10B53EC102B51EC1B0B96
:101E0000FEF799FB41EC100BB0EE40AAF0EE60AA91
:101E10009FEDDC0B53EC102B51EC1A0BFEF7FDFB86
:101E200041EC100BB0EE409AF0EE609A9FEDD70BAC
:101E300053EC102B51EC190BFEF7EFFB41EC100BA0
:101E4000B0EE408AF0EE608AD24890ED000B53EC81
:101E5000102B51EC180BFEF7C7FA41EC100BCE48D3
:101E600080ED000BCD480078012838D10020CB4907
:101E700008700120CA490870CA4890ED000BCA4892
:101E800080ED360BC94890ED000BC74880ED3C0B48
:101E9000C74890ED000BC44880ED380BC54890ED65
:101EA000000BC14880ED3E0BC34890ED000BBE48CF
:101EB00080ED340BC14890ED000BBB4880ED400B2A
:101EC000BF4890ED000BB84880ED420BBD4890ED47
:101ED000000BB54880ED3A0B0020BB490860BB48B9
:101EE000007801282BD1BA4908700020B749087042
:101EF000002415E0B74800EBC40090ED000B16A8D5
:101F000000EBC40080ED000BB249E01C01EBC00007
:101F100090ED000B10A800EBC40080ED000B641CDA
:101F2000032CE7DB9C4B10AA16A9AB4812F076F9FC
:101F30000120AA4908700020A949086093E0984848
:101F40000078012842D1A24908702846FEF7D4FB48
:101F500041EC100BB0EE408AF0EE608A924890EDB2
:101F6000341BB0EE410AF0EE610A53EC102B8A48A4
:101F700090ED001B51EC110BFEF7D7FA41EC100B62
:101F8000B0EE409AF0EE609A53EC182B51EC190B1E
:101F9000FEF7D1FA41EC100B8DED0C0B8A4800686E
:101FA00010B9814814F020F887480068401C864921
:101FB00008600CAB7C4A694606A812F0C7FA764B5B
:101FC0006A4606A9874812F0B0F94CE083480078C9
:101FD000012845D18248006838B96F4A7E49824855
:101FE00001F064FC804813F0FFFF7D480068FEF7B5
:101FF00083FB41EC100BB0EE408AF0EE608A7B4828
:1020000090ED000B53EC102B51EC180BFEF793FAEC
:1020100041EC100B8DED0C0B9FED750B53EC102B61
:102020009DED0C0B51EC100BFEF7A4FB14D201201C
:10203000674908700CAB6C4A694606A812F086FA2C
:102040000EAB6A4606A9674812F06FF9644800684B
:10205000401C6349086006E000206049087002E007
:1020600000205B49087064480078012808D1634863
:1020700090ED000B624880ED000B00205E49087077
:1020800060480078012808D15F4890ED000B5F4858
:1020900080ED000B00205B4908705D480078012846
:1020A00008D15C4890ED000B5B4880ED000B0020F0
:1020B0005749087059480078012806D158480078D7
:1020C00027490870002055490870564800780128B3
:1020D00006D15548007823490870002051490870FE
:1020E00052480078012806D1514800781E490870EE
:1020F00000204E4908703648007810B90020194970
:10210000087001201649087008460078012802D19D
:10211000484800F01BF913480078012802D14648CE
:1021200000F014F90E480078444908700F48006820
:10213000434908600B480078424908700C48006821
:10214000414908600848007840490870094800681B
:102150003F49086026E60000F0A60020910200201A
:10216000A8020020A9020020AA020020AC02002040
:10217000B0020020B4020020E802002000000000AD
:102180000000F03F0000000000408F400000000011
:102190000018F540D8020020E002002009020020CB
:1021A0000A0200201002002060A90020180200206E
:1021B00020020020280200203002002038020020E7
:1021C0004002002048020020C8020020CC0200206B
:1021D0000802002030A80020A8A80020CD0200207E
:1021E000D002002060A8002070AA002098020020E1
:1021F000000000000018E5406002002058020020A6
:1022000050020020780200207002002068020020A6
:10221000900200208802002080020020930200200B
:1022200092020020950200209402002097020020D4
:102230009602002018A7002040A70020F0010020EF
:10224000F4010020F8010020FC0100200002002021
:102250000402002008B50DF0DBF900F0D3F800F01F
:10226000C1F8684604F0ECFA00F00AF8FEF744FE04
:10227000FFF798F803E04FF4FA6000F091F8FAE7FE
:1022800000B585B004A800210123CDE900310A463C
:10229000CDE9021010A1144805F0F6F804A80021B9
:1022A000124A0123CDE90032CDE902100B46142277
:1022B0000FA1134805F0E8F804A80021114A0123F2
:1022C000CDE90032CDE902100B4614220EA11248CE
:1022D00005F0DAF805B000BD455053204F76657221
:1022E0002054696D65720000F40200206D27020819
:1022F000434F4D204F7665722054696D6572000022
:1023000028030020D9370208475053204F766572C2
:102310002054696D657200005C0300201FB568469B
:1023200007F0CAFC019804B010BDF8B506460C468B
:1023300015466B4622462946304604F06BF8BDF838
:10234000000008B10020F8BD0120FCE738B50446C4
:102350006A460021204604F071F9BDF8000008B17A
:10236000002038BD0120FCE77CB505460C464FF443
:102370007A70604309490968B0FBF1F601A80023AF
:102380001A4631460090284604F084F8BDF804004F
:1023900008B100207CBD0120FCE70000EC840308AC
:1023A000FEB5044642F21070844200D90446B4F5EA
:1023B0007A7F0BD34FF47A70B4FBF0F086B24FF40F
:1023C0007A70B4FBF0F100FB114501E0A5B20026E4
:1023D00002A800212B463246CDE90010084604F041
:1023E00019FFFEBD70B5FFF799FF0446034800686A
:1023F000B4FBF0F5284605F0A3F970BDEC840308A2
:1024000000BFFEE710B500F01FF800F019F810BD8E
:1024100010B5002400BF00BFFDF708FE044600BF52
:1024200000BF1021054803F0B7F800BF00BF2046E9
:10243000FDF700FE00BF00BF10BD00007C7D002046
:1024400010B5FFF7E5FF10BD10B500200249086088
:1024500000F00AF810BD00003000002001490860BB
:10246000704700003000002010B5FFF757FF04460A
:102470000848006840F0807006490860002006495E
:1024800048600846006840F0010008602046FFF7F9
:10249000E5FF10BDFCED00E0001000E001494868D8
:1024A00070470000001000E070B500254FF4803444
:1024B00000E0641E24B1802008F0BEF80028F8D0A7
:1024C00014B90325284670BD40F2FF5008F070F89B
:1024D0002846F8E72DE9F0410646002747480568F9
:1024E00001E04648056815F0450FFAD015F0040FD5
:1024F00006D00327042008F05BF83846BDE8F081D9
:1025000015F0010F05D00127012008F051F83846D9
:10251000F4E708F08BF8B04202D010273846EDE718
:1025200040F2FF5008F044F8002008F0A5F80446F7
:102530003348044201D13846E0E714F0004F01D09F
:102540001C20DBE714F0804F01D00920D6E714F0FF
:10255000005F01D00A20D1E714F0805F01D00B208A
:10256000CCE714F0006F01D00C20C7E714F0806FA7
:1025700001D00D20C2E714F0807F01D00E20BDE70E
:1025800014F4000F01D00F20B8E714F4800F01D02D
:102590001020B3E714F4001F01D01120AEE714F4AB
:1025A000801F01D01220A9E714F4002F01D01320BE
:1025B000A4E714F4802F01D014209FE714F4003F07
:1025C00001D015209AE714F4803F01D0162095E73A
:1025D00014F4004F01D0172090E714F4804F01D07D
:1025E00018208BE714F4005F01D0192086E714F05F
:1025F000080F01D01A2081E738467FE7342C0140CC
:1026000008E0FFFD70B500250F48046801E00E48A2
:10261000046814F0450FFAD014F0040F05D0032518
:10262000042007F0C5FF284670BD14F0010F05D047
:102630000125012007F0BCFF2846F5E740F2FF50D6
:1026400007F0B6FF2846EFE7342C014070B50025AF
:102650000B48046801E00A48046814F0450FFAD0FA
:1026600014F0040F05D00325042007F0A1FF28462D
:1026700070BD40F2FF5007F09BFF2846F8E70000CE
:10268000342C01402DE9F04106460F464FF000087A
:102690002248056801E02148056815F0450FFAD089
:1026A00015F0040F07D04FF00308042007F080FF57
:1026B0004046BDE8F08115F0010F06D04FF001084B
:1026C000012007F075FF4046F3E707F0AFFFB04287
:1026D00003D04FF010084046EBE740F2FF5007F000
:1026E00067FF002007F0C8FF044614F4604F03D1D1
:1026F000200C38804046DCE714F4005F01D0132042
:10270000D7E714F4804F01D01020D2E714F4004F23
:1027100001D00F20CDE74046CBE70000342C01402C
:1027200070B500264FF480350F48046802E06D1E36
:102730000D48046814F0450F01D1002DF7D115B1F3
:1027400014F0040F05D00326042007F031FF3046B3
:1027500070BD14F0400F05D00026402007F028FF80
:102760003046F5E73046F3E7342C01400022124BA7
:102770001A70124B1A701A46127822B1012A09D027
:10278000022A15D10DE00E4A127842F040020C4B9D
:102790001A700EE00A4A127842F02002084B1A70B2
:1027A00007E0074A127842F01002054B1A7000E069
:1027B00000BF00BF704700001D010020160100206F
:1027C0001A010020014609B90B487047012901D1BF
:1027D0000A48FAE7022901D10948F6E7032901D19D
:1027E0000020F2E7042901D10020EEE7052901D1FC
:1027F0000448EAE70020E8E7DC71002004740020C8
:102800002C760020547B002008B54FF4E06003F0E4
:102810008DFB25208DF8000000208DF8020001209E
:102820008DF80300684603F045FB26208DF8000074
:1028300001208DF802008DF80300684603F03AFB92
:1028400027208DF8000002208DF8020001208DF86D
:102850000300684603F02EFB47208DF8000005209A
:102860008DF8020001208DF80300684603F022FB7A
:1028700008BD000038B50446074880780090064837
:10288000437802780548817805A00AF07FF8204651
:102890000AF07CF838BD000042010020460100200B
:1028A0005B253032642D253032643A253032643A6B
:1028B000253032645D2D3E0010B5002400BF00BFFE
:1028C000FDF7B4FB044600BF00BF08480078401C79
:1028D0000649087000BF00BF2046FDF7ABFB00BFF4
:1028E00000BF08F009FC03F021FC10BD5C000020D3
:1028F0000246094B9A4201D2084801E006481038C6
:1029000011F0005F03D0064B0B40C36002E0044BA4
:102910000B4083607047000010640240006002407A
:102920007D0F7D0F21B1026842F00102026003E0D9
:10293000026822F00102026070470000016821F085
:10294000010101600021016041608160C16001619D
:10295000212141614A49884204D13D21484A103A27
:1029600091608CE046491831884205D14FF474617A
:10297000434A103A916082E041493031884205D1A2
:102980004FF474113E4A103A916078E03C49483166
:10299000884205D14FF07461394A103A91606EE077
:1029A00037496031884204D13649354A103AD160FE
:1029B00065E033497831884204D13349304A103ACE
:1029C000D1605CE02E499031884204D12F492C4AD5
:1029D000103AD16053E02A49A831884205D14FF01E
:1029E0003D51274A103AD16049E02949884204D133
:1029F0003D21274A083A116041E0254918318842B3
:102A000005D14FF47461224A083A116037E0204939
:102A10003031884205D14FF474111D4A083A1160D3
:102A20002DE01B494831884205D14FF07461184AA6
:102A3000083A116023E016496031884204D11149F7
:102A4000134A121F11601AE011497831884204D1EB
:102A50000D490F4A121F116011E00D499031884253
:102A600004D10A490A4A121F116008E00849A83136
:102A7000884204D14FF03D51054A121F1160704742
:102A8000106002403D000020400F002000003D206B
:102A90001064024021B1026842F02002026003E0AB
:102AA000026822F020020260704710B511F0800F1A
:102AB00009D022B1436943F08003436103E04369D5
:102AC00023F08003436180290BD02AB1036801F011
:102AD0001E042343036004E0036801F01E04A343C3
:102AE000036010BD10B500220268134B1A40CC6879
:102AF0000B6823434C6923438C692343CC692343EC
:102B00000C6A23434C6A23438C6A23434C6B234354
:102B10008C6B23431A430260426922F00702D1E919
:102B20000B3423431A4342610B6943604B68836053
:102B30008B68C36010BD00003F801CF07047000030
:102B400010B54FF4C0720021054802F02EFD20227E
:102B50000021044802F029FD00200349087010BD3F
:102B6000E0A3002060A500207A0100200149086050
:102B700070470000143C0140002123498279002A5B
:102B80003AD00A46126803689A430B461A600A1D37
:102B9000126803689A430B1D1A60027911440A688F
:102BA00003681A430A60184A0832126803689A4395
:102BB000154B08331A601A1D126803689A43124BAA
:102BC0000C331A604279102A0ED11A1F126803685A
:102BD0001A430D4B08331A601A1D126803681A4312
:102BE000094B0C331A600DE00749427911440A6819
:102BF00003681A430A6005E0027911440A68036811
:102C00009A430A6070470000003C014010B548F24A
:102C1000B0340121204600F075F800BF00BF00BFAE
:102C200001214FF6FF7000F06DF80221204600F000
:102C300069F800BF00BF00BF02214FF6FF7000F02F
:102C400061F810BD70B504462146002000F05AF826
:102C500005462146284600F003F8002070BD00001C
:102C6000F0B503460C461913C3F30B02022C02D134
:102C700001F11005E9B240F6FF75AA421DDA102AEB
:102C80001BDD002010E001EB41051C4E06EB850624
:102C9000451C36F8155001EB4106184F07EB860628
:102CA00026F81050451CE8B20428ECDB01EB410586
:102CB000124E06EB85052A811FE0002010E001EB93
:102CC00041050E4E06EB8506451C36F8155001EB06
:102CD00041060A4F07EB860626F81050451CE8B25D
:102CE0000428ECDB01EB4105044E06EB85052A8147
:102CF000034D6D5C6D1C024E7554F0BDE0A30020C9
:102D000060A5002070B505460C4600260EE000BF09
:102D100000BF00BF3046761C2149884206D92148B1
:102D20000078401C1F490870012070BD02211E4818
:102D300008F066FD0028EAD0012C03D110201B49C1
:102D4000488304E0022C02D1A00318494883294695
:102D5000154808F08BFD0EE000BF00BF00BF3046F5
:102D6000761C0F49884206D911480078401C10494A
:102D700008700120D9E701210B4808F041FD002827
:102D8000EAD0012C03D110200849088304E0022C6A
:102D900002D1A00305490883034808F064FDC4E795
:102DA000400D0300510100200030014000000240AE
:102DB0005201002003E04FF47A70FFF7F1FAFAE7CE
:102DC00051B14FF0204252F8202042F001024FF062
:102DD000204343F8202009E04FF0204252F8202001
:102DE000034B1A404FF0204343F820207047000067
:102DF000FEFF0F00D0E901121143C26811430269BE
:102E000011434269114382691143C2691143026A45
:102E10001143426A1143826A1143C26A1143026B31
:102E200011434FF02043026843F8221081680829BB
:102E300008D11A46016852F8211041F04001026899
:102E400043F82210416B0968426B526841EA021153
:102E5000426B926841EA0221426B928941EA024147
:102E6000426B128A41EA0251426B127D41EA0261D1
:102E7000426B926911430268521C4FF0204343F8A1
:102E80002210C16AB1F5804F1AD1816B0968826B3B
:102E9000526841EA0211826B926841EA0221826B18
:102EA000128A41EA0251826B127D41EA0261826B11
:102EB00092691143026803EB8202C2F8041108E030
:102EC0006FF070414FF02043026803EB8202C2F8BA
:102ED000041170472DE9FC4107460D4600260024E9
:102EE00000200090019008205A4908601020486096
:102EF000402088600020C8604FF480600861084668
:102F000007F02EFC1020FFF7E5FA044614B1204626
:102F1000BDE8FC815048008800044E490860372015
:102F20004860402088600020C8604FF480600861DD
:102F3000084607F015FC3720FFF7CCFA04460CB121
:102F40002046E5E74FF0FF3044490860082048601C
:102F5000302088600220C86000200861012048619C
:102F6000084607F03DFB00203A49086033204860DE
:102F7000402088600020C8604FF4806008610846E7
:102F800007F0EEFB3320FFF7A5FA04460CB120460C
:102F9000BEE709E04FF4001007F04EFB20B107F048
:102FA000D9FB4DF82600761C2D48006840F22A61B6
:102FB0000842EFD0082007F03FFB28B1082007F0B7
:102FC000F7FA04242046A3E7022007F035FB28B1D6
:102FD000022007F0EDFA0224204699E7202007F0AE
:102FE0002BFB28B1202007F0E3FA062420468FE7C8
:102FF0004FF4007007F020FB30B14FF4007007F081
:10300000D7FA0724204683E740F2FF5007F0D0FAB2
:1030100000980006009901F47F4140EA01200099E0
:1030200001F47F0140EA1120009940EA11606860D4
:1030300001980006019901F47F4140EA01200199BD
:1030400001F47F0140EA1120019940EA11602860F3
:1030500020465DE7B071002004000020C47100200C
:10306000342C014038B5044620787E280BD0274800
:10307000007818B901202549087038BD002023497F
:1030800008700320F9E70122694620460CF08EF90A
:10309000A078204400799DF8001088420BD01B488E
:1030A000007818B9012019490870E6E7002017498F
:1030B00008700320E1E76078022804D0032804D0D8
:1030C00004281AD100E01DE01CE02079012802D07C
:1030D000207902280FD10E480078012804D1002061
:1030E0000B4908700320C8E709480078401C0849CC
:1030F00008700220C1E70320BFE7204600F0CCF9AA
:103100000420BAE700BF0020B7E70000FB00002062
:10311000E001002070B505460C46164604EBC400DD
:103120000F4901EB800080F8206004EBC4010C4AD9
:1031300002EB81002022002102F037FA04EBC401E7
:10314000074A02EB810032462946FCF785FF0A2038
:1031500004EBC401024A02EB81014884002070BDE7
:1031600080A500202DE9F84105462E78EF7905F17C
:103170000804A019A0F1010870E0012F20D1042E4D
:1031800002D00120BDE8F8816078FF2805D1A07841
:10319000012802D1E078FE2801D00120F2E798F85A
:1031A0000000FE2807D118F8010C012803D118F8F7
:1031B000020CFF2801D00120E4E7781EC7B24DE0E1
:1031C000A078204480797E2846D160780F2825D0C9
:1031D0006078F02822D06078FF281FD06078E8B1AE
:1031E000607801281AD06078042817D060781028F9
:1031F00014D06078112811D0607820280ED0607823
:1032000021280BD060780A2808D060780B2805D0D8
:1032100060780C2802D0607833281BD100226946E0
:1032200020460CF0C3F8A0782044C0789DF8001028
:10323000884201D00120A5E7A078801D301A06B28F
:10324000002E01DA01209DE7A078801D0444781E3D
:10325000C7B203E0012095E7012093E7002F8CD14E
:1032600000208FE72DE9F047064696F800804FF0E2
:1032700000096DA0FFF7FEFA3046FFF773FF10B1AB
:103280000120BDE8F0874FF4B87200216D4802F0CC
:103290008CF9042410E06B48D0F8680100026949F9
:1032A000C1F868010846D0F86801315D08436549F6
:1032B000C1F86801601EC4B2002CECDCA8F1040067
:1032C0000FFA80F8062413E05E48B0F86C014FF660
:1032D000FF7101EA00205B49A1F86C010846B0F8D3
:1032E0006C01315D08435749A1F86C01601EC4B2FE
:1032F000042CE9DCA8F102000FFA80F896F8079098
:10330000504880F86E9106F10805002487E068783F
:10331000102863D010DC0A2864D006DC00285AD0BC
:10332000012859D0042877D157E00B285BD00C280E
:103330005AD00F2870D10EE0332856D006DC112861
:103340004DD020284CD0212866D14AE0F02803D067
:10335000FF2861D12EE000BFA8782844071DA97876
:103360000A1D04EBC401374B03EB81002946FCF72F
:1033700073FEA878001D04EBC401324A02EB810100
:1033800081F82000787804EBC40102EB81014884C5
:10339000387804EBC40102EB810191F8221040EA75
:1033A000012004EBC40102EB81014884A878284481
:1033B000851D31E004EBC400224901EB800029683F
:1033C0000160042004EBC4011E4A02EB810181F874
:1033D00020002D1D20E000BF00BF00BF00BF00BFC8
:1033E00000BF00BF00BF00BF00BFA9788A1D04EB6B
:1033F000C401144B03EB81002946FCF7BFFFA878FA
:10340000801D04EBC4010F4A02EB810181F820000A
:10341000A8782844851D00BF00BF601CC4B24C457D
:10342000FFF675AF00202CE7436F6D6D616E642071
:103430004672616D6520436865636B2121210D0A29
:103440000000000080A5002010B507A0FFF712FAC9
:103450004FF4B8720D490E4800680CF0ADFE002024
:103460000C49087010BD0000526561642046697007
:10347000657820436F6D6D616E642066726F6D209C
:1034800043505520466C6173680D0A0080A50020EA
:1034900074010020E10100202DE9F8430546AF78D2
:1034A000E819441D3048807804F8010B2F48007853
:1034B00004F8010B2D48407804F8010B2B48807864
:1034C00004F8010B4FF0000806E0FF2004F8010BA0
:1034D00008F1010000F0FF08B8F1140FF5DB0B2232
:1034E00023A127480EF062FE064626B125A0FFF76D
:1034F000C1F9BDE8F8832AA0FFF7BCF92D4801689F
:103500002DA009F043FA2B4801681D480EF0C6FCB7
:10351000064636B12EA0FFF7ADF919480EF0AEFC05
:10352000E7E7A8781C30C7B26B463A46691C1448D6
:103530000EF05FFF0098874206D02CA0FFF79AF9A3
:103540000F480EF09BFCD4E70D480EF097FC0646A2
:1035500016B92DA0FFF78EF91648006838441549B2
:10356000086000BFC5E700004601002042010020BE
:10357000303A2F66697065782E62696E000000002F
:10358000149E0020303A2F66697065782E62696E4D
:10359000206F70656E206572726F720D0A000000F8
:1035A00046697065782073746F7265206461746118
:1035B0002D3E0000DC010020303A2F6669706578EE
:1035C0002E6673697A653A20256C640D0A00000046
:1035D000303A2F66697065782E62696E206C73656B
:1035E000656B206572726F720D0A0000303A2F66AB
:1035F000697065782E62696E2077726974652065DE
:1036000072726F720D0A0000303A2F666970657829
:103610002E62696E2073746F7265206F6B0D0A00E5
:103620000120014908707047E10100200020044991
:10363000087004490870044908600449086070472C
:10364000D3010020D2010020D4010020D8010020A5
:1036500010B51D488078801DC2B200211A48FFF7BE
:1036600059FD1A488078801DC2B201211748FFF722
:1036700051FD17488078801DC2B202211448FFF71F
:1036800049FD14488078801DC2B203211148FFF71C
:1036900041FD11488078801DC2B204210E48FFF719
:1036A00039FD0E488078801DC2B205210B48FFF716
:1036B00031FD0B480B49C1F868011E20A1F86C01CF
:1036C000062081F86E0110BDA0860308A6860308B7
:1036D000AF860308B8860308C1860308C7860308B7
:1036E000C0BF561A80A50020F0B50A46002100236D
:1036F000002400BF3DE0012505FA01F3156805EA45
:1037000003049C4234D105684F000326BE40B543F4
:10371000056015794E00B54006683543056015799A
:10372000012D02D01579022D16D185684F00032690
:10373000BE40B543856055794E00B5408668354337
:103740008560456801268E40B54345604568967999
:103750008E40B6B235434560C5684F000326BE4073
:10376000B543C560D5794E00B540C6683543C560E0
:10377000491C1029BFD3F0BDF0B5002300244D072C
:10378000ED0E02FA05F3CE1000F1200555F8265093
:103790004E07F70E0F26BE40B543CF1000F12006AE
:1037A00046F82750CE1000F1200555F8265045EA7E
:1037B0000304CE1000F1200545F82640F0BD024676
:1037C000002053690B4201D0012000E00020704727
:1037D0004183704701837047704770B504460D46BA
:1037E0002946204602F0E2F82946204602F04EF82B
:1037F0002946204602F07EF82946204602F070F95C
:103800002946204602F078FA70BD000008B5002273
:1038100040F225511E4808F078FE01200CF0CEFF42
:1038200000201C49088032E042F21070FEF7B8FD1B
:1038300001200CF0C3FF002016490880012240F24D
:103840002551134808F061FE12E008E09DF80020C1
:1038500010490888411C0F4B19800F490A546946CA
:1038600001200CF0B9FF0028F0D10A20FEF798FDE6
:1038700008480088B0F5487FE7DB002240F2255178
:10388000034808F042FE04490448FFF7A6FFCBE7CF
:103890000044004022010020C0A0002040A00020E1
:1038A00003E04FF47A70FEF77BFDFAE72DE9F0476D
:1038B0002DED0E8BEAB004468846924651462EA85E
:1038C0000CF0DCFF03222EA91CA80FF019FF4FF00B
:1038D00000090AE008EBC90090ED000B04A800EB1A
:1038E000C90080ED000B09F10109B9F1060FF1DB08
:1038F00004A95EA800F0CAFA9FEDFE0B84ED360B1A
:103900009DED621BB0EE410AF0EE610A9FEDFB1BDC
:1039100053EC112B51EC100BFCF70DFE41EC100B8E
:10392000B0EE40BAF0EE60BA9FEDF60B53EC102B00
:1039300051EC1B0BFCF771FE41EC100B84ED380BC6
:103940009DED641BB0EE410AF0EE610A9FEDEB1BAA
:1039500053EC112B51EC100BFCF7EDFD41EC100B6F
:10396000B0EE40BAF0EE60BA9FEDE60B53EC102BD0
:1039700051EC1B0BFCF751FE41EC100B84ED3A0BA4
:103980009DED600B84ED3C0B9DED661BB0EE410A96
:10399000F0EE610A9FEDD91B53EC112B51EC100B8B
:1039A000FCF7C9FD41EC100BB0EE40BAF0EE60BA86
:1039B0009FEDD40B53EC102B51EC1B0BFCF72DFEA1
:1039C00041EC100B84ED3E0B9DED681BB0EE410AFF
:1039D000F0EE610A9FEDC91B53EC112B51EC100B5B
:1039E000FCF7A9FD41EC100BB0EE40BAF0EE60BA66
:1039F0009FEDC40B53EC102B51EC1B0BFCF70DFE91
:103A000041EC100B84ED400B9DED5E2BB0EE420AB5
:103A1000F0EE620A9DED5E2BB0EE421AF0EE621AF5
:103A200053EC102B51EC110BFCF785FD41EC100B06
:103A3000B0EE40EAF0EE60EA9DED5E1BB0EE410AAA
:103A4000F0EE610A53EC102B51EC1E0BFCF773FDEA
:103A500041EC100BB0EE40DAF0EE60DA53EC1D2BC7
:103A6000AA4890ED000B51EC100BFCF7D6FD41EC91
:103A7000100BB0EE40CAF0EE60CA0AF0E5FBB0EE03
:103A800040BAF0EE60BA9FEDA20B53EC102B51EC54
:103A90001B0BFCF750FD41EC100B84ED420B9FED2E
:103AA0009E8B9FED9F9B9FEDA0ABDDE19FED9E0B5D
:103AB00053EC102B51EC180BFCF796FC41EC100B5F
:103AC000B0EE408AF0EE608A204612F08DFA0023B4
:103AD00022464CA952A810F039FD0120032152AA18
:103AE0000B46CDE9002102900A461CA916A80FF04A
:103AF000C7FE012003214CAA0B46CDE9002102900C
:103B00000A461CA910A80FF0BBFE002528E016A845
:103B100000EBC50090ED002BB0EE420AF0EE620A19
:103B200008EBC50090ED002BB0EE421AF0EE621AE1
:103B300053EC102B51EC110BFCF7F7FC41EC100B84
:103B400040A800EBC50080ED000B40A800EBC500CD
:103B500090ED000B58A800EBC50080ED000B6D1C2C
:103B6000032DD4DB002620E010A800EBC60090ED6A
:103B7000002BB0EE420AF0EE620AF01C08EBC00027
:103B800090ED002BB0EE421AF0EE621A53EC102BBF
:103B900051EC110BFCF7C9FC41EC100B40A9F01CD7
:103BA00001EBC00080ED000B761C032EDCDB032153
:103BB00058A80FF0B7FFB0EE40CAF0EE60CA9FED14
:103BC0005C0B53EC102B51EC1C0BFCF726FD41EC6D
:103BD000100BB0EE40BAF0EE60BA0AF035FBB0EE72
:103BE000409AF0EE609A9FED540B53EC102B51EC81
:103BF000190BFCF7D3FD7BD89FED510B53EC102B29
:103C000051EC180BFCF7B6FDF5D800271FE040A8D3
:103C100000EBC70090ED002BB0EE420AF0EE620A16
:103C200004A800EBC70090ED002BB0EE421AF0EEB6
:103C3000621A53EC102B51EC110BFCF7D5FB41EC45
:103C4000100B04A800EBC70080ED000B7F1C062FB3
:103C5000DDDB04A95EA800F019F99FED260B84EDC9
:103C6000360B9DED621BB0EE410AF0EE610A9FED4E
:103C7000231B53EC112B51EC100BFCF75CFC41ECBB
:103C8000100BB0EE40BAF0EE60BA9FED1E0B53EC95
:103C9000102B51EC1B0BFCF7C0FC41EC100B84ED1E
:103CA000380B9DED641BB0EE410AF0EE610A9FED0A
:103CB000131B53EC112B51EC100BFCF73CFC41ECAB
:103CC000100BB0EE40BAF0EE60BA9FED0E0B53EC65
:103CD000102B51EC1B0BFCF7A0FC41EC100B84EDFE
:103CE0003A0B9DED600B84ED3C0B9DED661B2BE0CC
:103CF000B4E000002D431CEBE2362A3F182D44545B
:103D0000FB2109400000000000806640D8860308BF
:103D10000000000000004E40000000000000000015
:103D2000000000000088C340000000000000F03FD9
:103D300000000000000008407B14AE47E17A843F99
:103D40000000000000003440B0EE410AF0EE610ACD
:103D50001FED161B53EC112B51EC100BFCF7EBFB7A
:103D600041EC100BB0EE40BAF0EE60BA1FED1B0B49
:103D700053EC102B51EC1B0BFCF74FFC41EC100BE0
:103D800084ED3E0B9DED681BB0EE410AF0EE610A3A
:103D90001FED261B53EC112B51EC100BFCF7CBFB4A
:103DA00041EC100BB0EE40BAF0EE60BA1FED2B0BF9
:103DB00053EC102B51EC1B0BFCF72FFC41EC100BC0
:103DC00084ED400B9DED5E2BB0EE420AF0EE620AF0
:103DD0009DED5E2BB0EE421AF0EE621A53EC102B02
:103DE00051EC110BFCF7A7FB41EC100BB0EE40EAD5
:103DF000F0EE60EA9DED5E1BB0EE410AF0EE610A66
:103E000053EC102B51EC1E0BFCF795FB41EC100B07
:103E1000B0EE40DAF0EE60DA53EC1D2B1A4890ED6C
:103E2000000B51EC100BFCF7F8FB41EC100BB0EE63
:103E300040CAF0EE60CA0AF007FAB0EE40BAF0EEFF
:103E400060BA1FED4D0B53EC102B51EC1B0BFCF724
:103E500072FB41EC100B84ED420B05E01FED520BA1
:103E6000B0EE40AAF0EE60AA1FED550B53EC102BFC
:103E700051EC1A0BFCF77EFC7FF418AE6AB0BDEC77
:103E80000E8BBDE8F0870000D886030803B5EFB0BD
:103E90000020179033E01799709800EBC10090ED67
:103EA000000B68A9179801EBC00080ED000B9DED99
:103EB000680B8DED5C0B9DED6A0B8DED5A0B9DED46
:103EC0006C0B8DED580B1798C01C709901EBC0005E
:103ED00090ED000B60A9179801EBC00080ED000B7E
:103EE0009DED600B8DED560B9DED620B8DED540B32
:103EF0009DED640B8DED520B1798401C1790179891
:103F00000328C8DB032168A80FF00CFE8DED660BBB
:103F1000032160A80FF006FE8DED5E0B60AA68A974
:103F20004CA808F0DBFC9DED5E0B53EC102B9DEDD7
:103F3000660B51EC100BFCF7FEFA41EC100B8DED0B
:103F40000A0B9DED5E0B53EC102B9DED0A0B51EC13
:103F5000100BFCF7F0FA41EC100B8DED0E0BFE4848
:103F600090ED000B53EC102B9FEDFC0B51EC100B64
:103F7000FCF7E1FA41EC100B8DED0C0B9DED0E0BF7
:103F800053EC102B9DED0C0B51EC100BFCF7CDFA04
:103F900041EC100B8DED120B9DED660B53EC102BCD
:103FA000ED4890ED000B51EC100BFCF7C4FA41EC1E
:103FB000100B8DED100B9DED120B53EC102B9DEDA6
:103FC000100B51EC100BFCF728FB41EC100B8DEDA6
:103FD000440B9DED520B53EC102B9DED580B51EC07
:103FE000100BFCF7A8FA41EC100B8DED0E0B9DEDBC
:103FF000540B53EC102B9DED5A0B51EC100BFCF7AE
:104000009AFA41EC100B8DED0A0B9DED560B53EC1B
:10401000102B9DED5C0B51EC100BFCF78CFA41EC76
:10402000100B8DED080B9DED0A0B53EC102B9DED45
:10403000080B51EC100BFCF7D7F941EC100B8DED90
:104040000C0B9DED0E0B53EC102B9DED0C0B51EC5E
:10405000100BFCF7C9F941EC100B8DED120B9DED27
:10406000440B53EC102BBC4890ED000B51EC100BA3
:10407000FCF761FA41EC100B8DED0C0B9DED0C0B78
:1040800053EC102B9FEDB70B51EC100BFCF7C5FA5E
:1040900041EC100B8DED0E0B9DED0E0B0AF0D4F8DC
:1040A0008DED100B9DED120B53EC102B9DED100BB5
:1040B00051EC100BFCF73FFA41EC100B8DED4A0B65
:1040C0009DED440B53EC102B9DED660B51EC100B4A
:1040D000FCF7A3FA41EC100B8DED120B9FEDA10B39
:1040E00053EC102B9DED120B51EC100BFCF720FA4A
:1040F00041EC100B8DED480B9DED480B53EC102B54
:104100009DED4A0B51EC100BFCF787FA41EC100BBC
:104110008DED0E0B9DED0E0B08F00AFE8DED100BD4
:104120009FED920B53EC102B9DED100B51EC100BEF
:10413000FCF701FA41EC100B8DED120B9FED8D0B8E
:1041400053EC102B9DED120B51EC100BFCF765FAA4
:1041500041EC100B8DED460B9FED880B53EC102BB3
:104160009DED4A0B51EC100BFCF718FB19D29FED9B
:10417000830B53EC102B9DED480B51EC100BFCF70F
:10418000F9FA0ED29FED790B53EC102B9DED460BF7
:1041900051EC100BFCF728F941EC100B8DED460BA0
:1041A00048E09FED760B53EC102B9DED4A0B51EC44
:1041B000100BFCF7DFFA19D29FED700B53EC102BAC
:1041C0009DED480B51EC100BFCF7E8FA0ED29FED79
:1041D0006D0B53EC102B9DED460B51EC100BFCF7C7
:1041E00003F941EC100B8DED460B23E09FED630BC3
:1041F00053EC102B9DED4A0B51EC100BFCF7BAFA67
:1042000018D29FED5E0B53EC102B9DED480B51EC3B
:10421000100BFCF7AFFA0DD29FED540B53EC102BA3
:104220009DED460B51EC100BFCF7DEF841EC100B4A
:104230008DED460B9FED4F0B53EC102B9DED460B78
:1042400051EC100BFCF777F941EC100B8DED0C0BDA
:104250009FED460B53EC102B9DED0C0B51EC100B0E
:10426000FCF7DBF941EC100B8DED0E0B9DED0E0B09
:1042700008F0C2FF8DED120B9DED440B53EC102B9B
:104280009DED660B51EC100BFCF7C7F941EC100BE0
:104290008DED0E0B9FED330B53EC102B9DED0E0BA4
:1042A00051EC100BFCF744F941EC100B8DED100BA9
:1042B0009DED120B53EC102B9DED100B51EC100BE0
:1042C000FCF7ABF941EC100B8DED420B9DED420B71
:1042D00053EC102B9DED420B51EC100BFCF72BF91E
:1042E00041EC100B8DED020B9FED1E0B53EC102BD0
:1042F0009DED020B51EC100BFCF71AF941EC100B81
:104300008DED060B9DED440B53EC102B124890EDF8
:10431000000B51EC100BFCF70EF941EC100B8DED7E
:10432000040B9DED060B53EC102B9DED040B51EC93
:10433000100BFCF700F941EC100B8DED080B9DED17
:10434000080B09F081FF8DED0C0B9DED560B53EC26
:10435000102B9DED5A0B19E0D886030800000000D1
:1043600000000040000000000000F03F00000000DE
:1043700000806640182D4454FB21094000000000D5
:1043800000000000000000000080764051EC100B9F
:10439000FCF7D1F841EC100B8DED080B9DED540BA3
:1043A00053EC102B9DED5C0B51EC100BFCF7C3F89C
:1043B00041EC100B8DED060B9DED080B53EC102B13
:1043C0009DED060B51EC100BFCF7AFF841EC100B18
:1043D0008DED0A0B9DED0C0B53EC102B9DED0A0B94
:1043E00051EC100BFCF719F941EC100B8DED0E0B95
:1043F0009DED0E0B08F0F4FA8DED100B1FED250B63
:1044000053EC102B9DED100B51EC100BFCF793F8B7
:1044100041EC100B8DED120B1FED2A0B53EC102B02
:104420009DED120B51EC100BFCF7F7F841EC100B63
:104430008DED400B1FED2F0B8DED2E0B1FED310B76
:104440008DED300B1FED390B8DED320B4CAA2EA9E3
:1044500028A808F043FA032128A80FF063FB8DED8C
:10446000260B002016901CE028A9169801EBC0002E
:1044700090ED000B8DED120B9DED260B53EC102BE8
:104480009DED120B51EC100BFCF7C7F841EC100B33
:1044900028A9169801EBC00080ED000B1698401C6F
:1044A000169016980328DFDB9DED280B8DED0E0B83
:1044B0009DED0E0B08F094FA8DED100B1FED550BD2
:1044C00053EC102B9DED100B51EC100BFCF733F857
:1044D00041EC100B8DED120B1FED5A0B53EC102B12
:1044E0009DED120B51EC100BFCF797F841EC100B03
:1044F0008DED3E0B9DED2A0B8DED0E0B9DED0E0B04
:1045000008F06EFA8DED100B1FED680B53EC102BBD
:104510009DED100B51EC100BFCF70DF841EC100B5E
:104520008DED120B1FED6D0B53EC102B9DED120B4F
:1045300051EC100BFCF771F841EC100B8DED3C0BBE
:104540001FED720B53EC102B9DED3C0B51EC100B3F
:10455000FCF724F90FD89FEDFE0B53EC102B9DEDCB
:104560003C0B51EC100BFCF705F904D89DED3E0B0C
:104570008DED3E0B23E09FEDF60B53EC102B9DEDE4
:104580003C0B51EC100BFCF709F918D21FED890B0D
:1045900053EC102B9DED3C0B51EC100BFCF7EAF8A3
:1045A0000DD89DED3E0B53EC102B1FED8A0B51ECFB
:1045B000100BFBF7BAFF41EC100B8DED3E0B28AA58
:1045C0004CA920A808F08AF9032120A80FF0AAFA24
:1045D0008DED1E0B002015901CE020A9159801EB15
:1045E000C00090ED000B8DED120B9DED1E0B53ECFA
:1045F000102B9DED120B51EC100BFCF70EF841EC5B
:10460000100B20A9159801EBC00080ED000B159848
:10461000401C159015980328DFDB9DED2C0B8DEDCC
:10462000060B9DED6C0B8DED040B9DED060B53EC15
:10463000102B9DED040B51EC100BFBF77CFF41ECB4
:10464000100B8DED0A0B9DED2A0B8DED020B9DEDF0
:104650006A0B8DED000B9DED020B53EC102B9DEDC5
:10466000000B51EC100BFBF766FF41EC100B8DEDCE
:10467000060B9DED280B8DED020B9DED680B8DED6E
:10468000000B9DED020B53EC102B9DED000B51EC3C
:10469000100BFBF750FF41EC100B8DED040B9DED63
:1046A000060B53EC102B9DED040B51EC100BFBF79C
:1046B0009BFE41EC100B8DED080B9DED0A0B53ECAE
:1046C000102B9DED080B51EC100BFBF78DFE41EC10
:1046D000100B8DED0C0B9DED660B53EC102B9DED2F
:1046E0000C0B51EC100BFBF798FF41EC100B8DED10
:1046F0000E0B9DED0E0B08F073F98DED100B1FEDF9
:10470000E50B53EC102B9DED100B51EC100BFBF750
:1047100012FF41EC100B8DED120B1FEDEA0B53EC69
:10472000102B9DED120B51EC100BFBF776FF41ECBB
:10473000100B8DED3A0B9DED240B8DED060B9DEDD1
:104740006C0B8DED040B9DED060B53EC102B9DEDCA
:10475000040B51EC100BFBF7EEFE41EC100B8DED52
:104760000A0B9DED220B8DED020B9DED6A0B8DED7D
:10477000000B9DED020B53EC102B9DED000B51EC4B
:10478000100BFBF7D8FE41EC100B8DED060B9DEDE9
:10479000200B8DED020B9DED680B8DED000B9DED5B
:1047A000020B53EC102B9DED000B51EC100BFBF7A3
:1047B000C2FE41EC100B8DED040B9DED060B53EC8E
:1047C000102B9DED040B51EC100BFBF70DFE41EC93
:1047D000100B8DED080B9DED0A0B53EC102B9DED8E
:1047E000080B51EC100BFBF7FFFD41EC100B8DEDAE
:1047F0000C0B9DED660B53EC102B9DED0C0B51EC4F
:10480000100BFBF70AFF41EC100B8DED0E0B9DED2D
:104810000E0B08F0E5F88DED100B9FED4F0B53ECF0
:10482000102B9DED100B51EC100BFBF784FE41ECAF
:10483000100B8DED120B9FED4A0B53EC102B9DEDE1
:10484000120B51EC100BFBF7E8FE41EC100B8DED59
:10485000380B9FED450B53EC102B9DED380B51ECB5
:10486000100BFBF79BFF0FD89FED390B53EC102B70
:104870009DED380B51EC100BFBF77CFF04D89DED40
:104880003A0B8DED3A0B23E09FED310B53EC102BDF
:104890009DED380B51EC100BFBF780FF18D29FED0C
:1048A0002E0B53EC102B9DED380B51EC100BFBF73E
:1048B00061FF0DD89DED3A0B53EC102B9FED2C0BA7
:1048C00051EC100BFBF731FE41EC100B8DED3A0B68
:1048D0009FED230B53EC102B9DED460B51EC100B71
:1048E000FBF729FE41EC100B8DED120B9FED200B19
:1048F00053EC102B9DED120B51EC100BFBF78DFEC2
:1049000041EC100B8DED1C0B9DED1C0B09F0DCFC3C
:104910008DED100B9DED420B53EC102B9FED160B04
:1049200051EC100BFBF701FE41EC100B8DED0A0B67
:104930009DED420B53EC102B9FED0F0B51EC100B28
:10494000FBF752FD41EC100B8DED080B18E0000059
:10495000000000000080564000000000008066401B
:10496000182D4454FB210940000000000000000005
:104970000000000000807640000000000000F03FD2
:104980009DED0A0B53EC102B9DED080B51EC100B19
:10499000FBF743FE41EC100B8DED0C0B9DED0C0B6A
:1049A00009F052FC8DED0E0B9DED100B53EC102B0E
:1049B0009DED0E0B51EC100BFBF7BDFD41EC100B08
:1049C0008DED120B9DED120B08F0B2F98DED1A0B67
:1049D0009FED850B53EC102B9DED1C0B51EC100B38
:1049E000FBF7DCFE18D21FED220B53EC102B9DEDD4
:1049F0001C0B51EC100BFBF7BDFE0DD21FED280B6D
:104A000053EC102B9DED1A0B51EC100BFBF7ECFC4B
:104A100041EC100B8DED1A0B9DED1A0B53EC102B86
:104A20009FED730B51EC100BFBF785FD41EC100B68
:104A30008DED100B1FED380B53EC102B9DED100B73
:104A400051EC100BFBF777FD41EC100B8DED120BC9
:104A50001FED3D0B53EC102B9DED120B51EC100B89
:104A6000FBF7DBFD41EC100B8DED180B9DED180BEA
:104A700053EC102B9DED3A0B51EC100BFBF755FD51
:104A800041EC100B8DED360B1FED490B53EC102B49
:104A90009DED360B51EC100BFBF76CFE0DD21FEDAC
:104AA0004C0B53EC102B9DED360B51EC100BFBF720
:104AB0009BFC41EC100B8DED360B1FED570B53ECAF
:104AC000102B9DED460B51EC100BFBF734FD41EC28
:104AD000100B8DED060B1FED600B53EC102B9DEDB5
:104AE000060B51EC100BFBF798FD41EC100B8DED14
:104AF000080B9DED080B09F03BFB8DED0A0B9DEDBE
:104B0000420B53EC102B9DED0A0B51EC100BFBF7F5
:104B100012FD41EC100B8DED0E0B1FED6F0B53ECE6
:104B2000102B9DED460B51EC100BFBF704FD41ECF7
:104B3000100B8DED0A0B1FED780B53EC102B9DED38
:104B40000A0B51EC100BFBF768FD41EC100B8DEDDF
:104B50000C0B9DED0E0B53EC102B9DED0C0B51EC43
:104B6000100BFBF7E2FC41EC100B8DED100B1FED71
:104B7000860B53EC102B9DED100B51EC100BFBF73B
:104B8000DAFC41EC100B8DED120B1FED8B0B53EC8F
:104B9000102B9DED120B51EC100BFBF73EFD41EC81
:104BA000100B8DED340B9DED440B6F9880ED000BD9
:104BB0009DED420B6F9880ED020B9DED400B6F98C1
:104BC00080ED040B9DED3E0B6F9880ED060B9DED87
:104BD000360B6F9880ED080B9DED340B6F9880EDD0
:104BE0000A0B71B000BD0000182D4454FB21F93FA1
:104BF000000000000000004008B5694605200BF0E9
:104C0000EBFD18B19DF8000007F0A2FB08BD00BF46
:104C1000FEE710B500F002F810BD00004AF6AA2029
:104C200001490860704700000030004000B587B0BF
:104C30000121022004F0E0FF0121102005F01CF802
:104C4000072206219C48FEF797FD072211469A4845
:104C5000FEF792FD00208DF81A0001208DF81B0050
:104C600002208DF818004020059002208DF81900D0
:104C700005A99148FEF738FD02208DF81800802024
:104C8000059005A98C48FEF72FFD4FF4E130019007
:104C90000020ADF80800ADF80A00ADF80C00ADF842
:104CA00010000C20ADF80E0001A9844807F052FC5A
:104CB000012240F22551814807F027FC01217F485D
:104CC00007F0EDFB40217D4807F0E0FB012108469D
:104CD00004F092FF0121480404F0BEFF07220321E3
:104CE0007748FEF749FD00208DF81A0001208DF865
:104CF0001B0002208DF818008DF818000820059080
:104D000002208DF8190005A96D48FEF7EDFC4FF45F
:104D1000E13001900020ADF80800ADF80A00ADF8D0
:104D20000C00ADF810000420ADF80E0001A9654894
:104D300007F010FC012240F22551624807F0E5FB24
:104D40000121604807F0ABFB40215E4807F09EFB65
:104D50000121022004F050FF01208DF818000020EE
:104D60008DF81A008DF81B0003208DF8190004201F
:104D7000059005A95048FEF7B7FC0121022004F078
:104D80003BFF0121880404F067FF07220A214A48FB
:104D9000FEF7F2FC07220B214748FEF7EDFC00204E
:104DA0008DF81A0001208DF81B0002208DF81800E4
:104DB0004002059002208DF8190005A93E48FEF733
:104DC00093FC02208DF818008002059005A93A484E
:104DD000FEF78AFC4FF4165001900020ADF8080051
:104DE000ADF80A00ADF80C00ADF810000C20ADF8DD
:104DF0000E0001A9344807F0ADFB012240F2255115
:104E0000314807F082FB01212F4807F048FB402181
:104E10002D4807F03BFB0121042004F0EDFE0121A9
:104E2000202004F029FF082206212848FEF7A4FCD0
:104E3000082207212548FEF79FFC00208DF81A0064
:104E400001208DF81B0002208DF818008DF8180045
:104E50004020059005A91D48FEF746FC02208DF86C
:104E600018008020059005A91848FEF73DFC4FF476
:104E7000E13001900020ADF80800ADF80A00ADF86F
:104E80000C004FF44070ADF810000C20ADF80E008F
:104E900001A90F4807F05EFB012240F225510C48A2
:104EA00007F033FB01210A4807F0F9FA40210848CE
:104EB00007F0ECFA07B000BD00040240001001400A
:104EC000000002400044004000480040000802404A
:104ED0000014014000B587B01222002102A800F0A2
:104EE00064FB0422002101A800F05FFB01210803FC
:104EF00004F0C2FE00211F4806F06CFC0020ADF853
:104F000008004FF48270ADF80A004FF40060ADF86D
:104F10000C000220ADF80E000020ADF810004FF498
:104F20000070ADF812003820ADF814000020ADF884
:104F300016000720ADF8180002A90E4806F098FCEC
:104F4000012250210B4806F07EFC0121094806F0A1
:104F500041FC23208DF8040002208DF8050000207C
:104F60008DF8060001208DF8070001A800F0A2FFCF
:104F700007B000BD003001401CB508220021684682
:104F800000F013FB0121084604F036FE0121022047
:104F900004F032FE052211462F48FEF7EDFB0522F4
:104FA00006212D48FEF7E8FB052207212A48FEF7D7
:104FB000E3FB02208DF804008DF8050000208DF839
:104FC000060002208DF80700E02000906946224884
:104FD000FEF78AFB01208DF8040000208DF8060002
:104FE00002208DF8050000208DF8070002200090B7
:104FF00069461A48FEF778FB01208DF8040000206E
:105000008DF8060002208DF8050000208DF80700BD
:105010001020009069461048FEF766FB01208DF8CD
:10502000040000208DF8060002208DF80500002005
:105030008DF807004FF40040009069460648FEF7DF
:1050400053FB0220054918310880102002490883CB
:10505000C00208831CBD00000000024000040240A2
:105060003EB50446617802AAA01C00F033FA6078CD
:10507000801C205C9DF80810884206D0FA48007811
:10508000401CF949087001203EBD20781D286ED0D3
:1050900011DC6DD2DFE800F06C3641494F555B639F
:1050A0006D6C6C6C6C6C6C6C75828EA1ADB9C5D17D
:1050B000DDE9F7F6F50031286FD00ADCA0F11E001B
:1050C0000A28E6D2DFE800F0E9E8E7E6E5E4E3E213
:1050D000E1E042287AD00CDC342878D004DC322895
:1050E00076D0332844D187E1352872D04128F9D1D0
:1050F0009AE143286ED044286DD064286CD065288E
:10510000F0D1D1E10120D9490870D9480088401C6C
:10511000D749088000F0EAF9D6E1D5480088401C5C
:10512000D349088000F0E2F9CEE1D1480088401C64
:10513000CF490880C8E1CE480088401CCC4908808F
:10514000C2E1CB480088401CC9490880BCE1C8487E
:105150000088401CC649088000F0C8F9B4E1C44882
:105160000088401CC249088000F0C0F9ACE1BAE0F8
:10517000A9E1BF480088401CBD49088000F0B6F98D
:10518000A2E10221BB48FEF725FBB9480088401C7C
:10519000B749088000F0AAF996E11DE10221B5485F
:1051A000FEF716FBB2480088401CB149088000F0A9
:1051B0009DF989E14021AF48FEF70CFBAC4800881F
:1051C000401CAB49088000F091F97DE134E11BE11E
:1051D0000AE121E138E13FE154E14021A548FEF731
:1051E000F7FAA3480088401CA149088000F07EF926
:1051F0006AE104219F48FEF7EDFA9D480088401CB3
:105200009B49088000F072F95EE104219948FEF79D
:10521000DFFA97480088401C9549088000F066F93D
:1052200052E101219348FEF7D5FA91480088401CCD
:105230008F49088000F05AF946E101218D48FEF7B8
:10524000C7FA8B480088401C8949088000F04EF955
:105250003AE110218848FEF7BDFA85480088401CD5
:105260008349088000F042F92EE110218248FEF7C0
:10527000AFFA7F480088401C7D49088000F036F96D
:1052800022E123E016E009E09EE095E08CE083E077
:1052900075E067E05AE04DE03FE031E008217648F4
:1052A000FEF798FA72480088401C7149088000F0A7
:1052B0001DF909E108217048FEF78AFA6C48008858
:1052C000401C6B49088000F011F9FDE04FF480416B
:1052D0006A48FEF77FFA66480088401C64490880E7
:1052E00000F004F9F0E04FF480416448FEF770FAF2
:1052F0005F480088401C5E49088000F0F7F8E3E052
:105300004FF400415D48FEF765FA59480088401C9B
:105310005749088000F0EAF8D6E04FF400415748BA
:10532000FEF756FA52480088401C5149088000F0A8
:10533000DDF8C9E008215248FEF74CFA4C480088D5
:10534000401C4B49088000F0D1F8BDE008214C48D2
:10535000FEF73EFA46480088401C4549088000F0A8
:10536000C5F8B1E04FF480714448FEF733FA404885
:105370000088401C3E49088000F0B8F8A4E04FF4D3
:1053800080713E48FEF724FA39480088401C3849AD
:10539000088000F0ABF897E035480088401C34499D
:1053A000088000F0A3F88FE031480088401C3049A5
:1053B000088000F09BF887E02D480088401C2C49AD
:1053C000088000F093F87FE029480088401C2849B5
:1053D000088000F08BF877E025480088401C2449BD
:1053E000088000F083F86FE021480088401C2049C5
:1053F000088000F07BF867E01D480088401C1C49CD
:10540000088000F073F85FE019480088401C1849D4
:10541000088000F06BF857E015480088401C1449DC
:10542000088000F063F84FE011480088401C1049E4
:10543000088000F05BF847E00D480088401C0C49EC
:10544000088000F053F83FE009480088401C0849F4
:10545000088000F04BF837E005480088401C0449FC
:10546000088000F043F82FE01C0100201B01002001
:105470001801002000100240000402400018024001
:10548000000C0240E07AA17ACDE90010637A227A1A
:10549000E179A0790AF024FE0D480088401C0C49EF
:1054A000088000F023F80FE0FEF7C0F8A01DFDF71C
:1054B000D9FEFEF7B5F806480088401C044908806C
:1054C00000F014F800E000BF00BF0020DCE50000A1
:1054D0001801002010B5002303E04C1EE1B2445C2B
:1054E00063400029F9D1137010BD00001FB50020E2
:1054F000019002900390A5208DF804005A208DF8A9
:10550000050030208DF8060002208DF807000C48B9
:1055100000788DF808000A480088000A8DF8090014
:105520009DF807106A4602A8FFF7D4FF9DF8000017
:105530008DF80A00072201A905200BF05CF91FBDB8
:105540001801002070B596B005460E461446032398
:105550001A46314604A80EF0C6FA012003210B4674
:105560000A46CDE90041029004A928460EF088F9C8
:1055700016B070BDFEB505460E4614460120032147
:105580000B460A46CDE900410290314628460EF00E
:1055900077F9FEBD00BFFEE730B505460C46224652
:1055A0000021284600F001F830BD2DE9F041034606
:1055B0000C4617460FB9BDE8F08103B9FBE700259B
:1055C000002202E02D022543521C042AFAD3384659
:1055D00003F0030C1946BCF1000F08D0624603E04B
:1055E00001F8014B401E521C08B1042AF8D30E46A4
:1055F00001E020C6001F0428FBD2314602E001F87A
:10560000014B401E0028FAD100BFD4E730B52DED84
:10561000028BB1B005460C46032120460EF082FAFB
:10562000B0EE408AF0EE608A53EC182B9FED840BAD
:1056300051EC100BFAF7F1FF41EC100B8DED160B4E
:10564000012016AACDE9002003460322214602903C
:105650001EA80EF015F9032104F118000EF062FAED
:10566000B0EE408AF0EE608A53EC182B9FED760B7B
:1056700051EC100BFAF7D1FF41EC100B8DED160B2E
:10568000012016AACDE900200346032204F11801E7
:10569000029018A80EF0F4F89FED6D0B8DED040B41
:1056A0009DED221BB0EE410AF0EE610A51EC100BA9
:1056B00081F0004141EC100B8DED060B9DED200BB0
:1056C0008DED080B9DED220B8DED0A0B9FED600B10
:1056D0008DED0C0B9DED1E1BB0EE410AF0EE610A44
:1056E00051EC100B81F0004141EC100B8DED0E0BD5
:1056F0009DED201BB0EE410AF0EE610A51EC100B5B
:1057000081F0004141EC100B8DED100B9DED1E0B57
:105710008DED120B9FED4E0B8DED140B012003212F
:1057200018AA0B46CDE9002102900A4604A924A834
:105730000EF0A6F8032124A80EF0F4F9B0EE408A8A
:10574000F0EE608A53EC182B9FED3F0B51EC100BE1
:10575000FAF763FF41EC100B8DED160B012016AA32
:10576000CDE900200346032224A9029024A80EF0CC
:1057700087F89FED370B8DED040B9DED281BB0EEE8
:10578000410AF0EE610A51EC100B81F0004141EC4E
:10579000100B8DED060B9DED260B8DED080B9DED91
:1057A000280B8DED0A0B9FED2A0B8DED0C0B9DED5B
:1057B000241BB0EE410AF0EE610A51EC100B81F0AF
:1057C000004141EC100B8DED0E0B9DED261BB0EE54
:1057D000410AF0EE610A51EC100B81F0004141ECFE
:1057E000100B8DED100B9DED240B8DED120B9FED2D
:1057F000180B8DED140B012003211EAA0B46CDE9D9
:10580000002102900A4604A92AA80EF039F80323C1
:1058100001222AA928460DF0A5FE0323012224A96E
:1058200005F118000DF09EFE032301221EA905F1CB
:1058300030000DF097FE31B0BDEC028B30BD0000A2
:10584000000000000000F0BF000000000000F03F7A
:1058500000000000000000000246134610E010782F
:105860002A2805D01078202802DB10787A2801DD5C
:10587000FF20704710782C2801D1481EC1B2521C5D
:105880000029ECD1D01AC0B2F3E70000F8B5054604
:105890000F4616A13846FAF795FD06460621304612
:1058A000FFF7DAFF0446FF2C05D03019694600F0F7
