:020000040800F2
:10000000981901209D01000819330008C52800082F
:10001000A52B0008C5210008A98D000800000000DC
:1000200000000000000000000000000075780008DB
:100030005523000800000000D70A0008354C0008CE
:10004000B7010008296C0008B7010008B7010008D3
:10005000B7010008B7010008B7010008B7010008A0
:10006000B7010008B7010008B7010008B701000890
:10007000B7010008B7010008B7010008B701000880
:10008000B7010008B7010008B7010008B701000870
:10009000B7010008B7010008B7010008B701000860
:1000A000B701000865840008AD830008B7010008A7
:1000B000B7010008B7010008B7010008B701000840
:1000C000B7010008B7010008B70100086D76000805
:1000D000DD760008BD890008CD890008B701000859
:1000E000B7010008B7010008B7010008B701000810
:1000F000B7010008B7010008B7010008B701000800
:10010000B701000841750008B7010008B7010008F1
:10011000B7010008B7010008B7010008B7010008DF
:10012000B7010008B7010008B7010008E92200087C
:10013000B7010008B7010008B7010008B7010008BF
:10014000B7010008B7010008B7010008B7010008AF
:10015000B7010008B7010008B7010008B70100089F
:10016000B7010008B7010008B7010008B70100088F
:10017000B7010008B7010008B7010008B70100087F
:10018000B7010008B7010008DFF80CD000F028FC28
:1001900000480047C1D70008981901200648804749
:1001A00006480047FEE7FEE7FEE7FEE7FEE7FEE75C
:1001B000FEE7FEE7FEE7FEE7517900088901000847
:1001C00072B6704762B67047EFF3108072B6704730
:1001D00080F31088704730BF704720BF7047B0FA77
:1001E00080F0704790FAA0F0B0FA80F0704790FA73
:1001F000A0F070472DE9F05F0546002092469B462F
:1002000088460646814640241BE02846414647462C
:10021000224600F020F852465B46801A994110D3DE
:1002200010461946224600F063FA2D1A67EB0108C2
:100230004F4622460120002100F05AFA17EB000930
:100240004E41201EA4F10104DFDC484631462A4617
:100250004346BDE8F09F202A04DB203A21FA02F051
:100260000021704721FA02F3D040C2F120029140F0
:10027000084319467047D2B201E000F8012B491E2D
:10028000FBD270470022F6E710B504460846114637
:1002900002462046FFF7EFFF204610BD30B50EE0C6
:1002A00003460A4601E05B1C521C1C781578AC42E0
:1002B00001D1002CF7D115F0FF0F04D0401C0278BB
:1002C000002AEDD1002030BD2DE9FE4F074681EA1E
:1002D0000300C00F0E46019021F0004123F00044BE
:1002E000B81AA14105D23846314617461E460B467C
:1002F000024623F00040104304D13846314603B093
:10030000BDE8F08F350DC5F30A00C3F30A51029022
:10031000401A0090402868DAC3F3130040F4801BB1
:100320000198924620B10023D2EB030A63EB0B0B3A
:1003300000985946C0F14002504600F0D9F9804675
:100340000C4650465946009A00F0E1F9C019714137
:10035000EF1785EA11533B4340D0019A52B3009AFC
:10036000012A11DC0022801A4FF0004361EB055195
:1003700003EA05538018CDE9002341F58011424678
:10038000234600F019FABAE72E050025401B61EB61
:100390000601401941F58012001852412818A6F5AF
:1003A000001343EB020140EAD470294318EB08081C
:1003B000644113E064084FEA38084FF0000244EA51
:1003C000C0744FEA0553801A61EB0301801841F5B0
:1003D000801149084FEA30008018594142462346AF
:1003E00003B0BDE8F04F00F0DAB9019801224000F7
:1003F0000023D0EB020263EBE07301984FEAE07454
:10040000381A66EB0401EBE783F000435CE781F008
:10041000004159E72DE9FE4F81EA030421F0004530
:1004200004F0004423F000414FF0000A009450EA29
:10043000050302D052EA010304D10020014603B0B3
:10044000BDE8F08FC1F30A53C5F30A541C44A0FB66
:1004500002B3C5F3130545F4801CC1F3130141F445
:1004600080180CFB023300FB083EA4F2F334810A2F
:10047000930A41EA8C5143EA88530194A1FB034754
:100480004FEA9C2505FB03734FEA982601FB0637CC
:100490003D05260545EA1435BBEB06016EEB050369
:1004A000850E920E45EA8C1542EA8812A5FB0206DB
:1004B000261E67EB00070C0D44EA0334A41947EB32
:1004C0001350C1F313064FF0000319464FEA0333EC
:1004D00043EA165343EA0403019CE5FB0201A4F13D
:1004E0000C040294009C4FEA0632CDE900A400F00F
:1004F00063F9A4E72DE9F04D81EA030404F0004B11
:1005000021F0004714464FF0000A23F0004150EA62
:10051000070220D054EA01021DD0C1F30A55024659
:10052000C1F31300C7F30A56C7F3130340F4801155
:1005300043F48013A6EB0508101BD64608F2FD38DD
:1005400073EB010002D308F1010801E092185B414E
:10055000B8F1000F03DA00200146BDE8F08D00205D
:100560004FF48015064607460EE0B2EB040C73EB21
:10057000010C04D3121B064363EB01032F436D08E8
:100580004FEA300092185B4150EA050CEDD152EA77
:10059000030012D082EA040083EA0105284303D154
:1005A00000224FF0004308E0101B8B4102D20122D1
:1005B000002302E06FF0010253101AEB060047EB34
:1005C000085110EB0A0041EB0B01BDE8F04D00F0C3
:1005D000E6B80EB5C10F80EAE0700844CA070021F2
:1005E00040F233438DE80E000A460B4600F0E4F873
:1005F00003B000BD0EB540F2334102910021CDE9B8
:1006000000110A460B4600F0D7F803B000BD00F019
:10061000004230F000400DD0C10D01F5607142EA9A
:1006200001510022C0F31600520742EAD0024007EF
:1006300011437047002001467047000030B5002983
:1006400004DB4FF00044404264EB0101002B04DB6B
:100650004FF00044524264EB03038B4208BF8242D6
:1006600030BD000030B5002904DB4FF000444042AB
:1006700064EB0101002B04DB4FF00044524264EBB9
:100680000303994208BF904230BD000001F00042D0
:1006900030B421F0004150EA010306D00B0DA3F560
:1006A0006073C1F31301002B02DC30BC00207047E3
:1006B000440F44EAC104C100A01830BC00EBC35091
:1006C00000F037B830B50B46014600202022012447
:1006D00009E021FA02F59D4205D303FA02F5491B10
:1006E00004FA02F52844151EA2F10102F1DC30BD26
:1006F000202A04DB203A00FA02F1002070479140E2
:10070000C2F1200320FA03F3194390407047202AD6
:1007100006DBCB17203A41FA02F043EAE07170475A
:1007200041FA02F3D040C2F1200291400843194639
:1007300070470029A8BF7047401C490008BF20F03F
:100740000100704710B4B0FA80FC00FA0CF050EAD7
:10075000010404BF10BC704749B1CCF1200421FA58
:1007600004F411FA0CF118BF012121430843A3EB53
:100770000C01CB1D0106000A002BBEBF002010BCDF
:10078000704700EBC35010440029A4BF10BC704751
:10079000401C490008BF20F0010010BC704710B594
:1007A000002B08DA401C41F1000192185B411A430A
:1007B00001D120F0010010BD2DE9F04D92469B467D
:1007C00011B1B1FA81F202E0B0FA80F22032904623
:1007D000FFF78EFF06460F4640EA0A0041EA0B018A
:1007E00052465B46084303D130463946BDE8F08D9A
:1007F000194652EA010015D0C8F140025046FFF7F1
:100800002AFD04460D46504659464246FFF770FF02
:10081000084301D0012000E00020044345EAE075D0
:1008200026432F430A984FEAD625A0EB08000A304A
:100830004FEA46534FF0000245EA47554FEAD724A6
:1008400002D500200146D1E7010550196141DDE9DB
:10085000084500196941BDE8F04DA0E770B521F0E9
:10086000004303430CD0C1F30A540026D4EB060521
:1008700066EB0603D417AD1AA34102DB0020014644
:1008800070BD001C41EB025170BD2DE9F04D0023FD
:100890001A461B1A8A4103DB00200146BDE8F08D91
:1008A000C1F30A52C1F3130141F480154FF0000B5C
:1008B000D10702D100186D41521E0026044640F2B5
:1008C000FF11304601EB620A37468046024600209F
:1008D0004FF48011FFF7BFFC80197941331847EBC3
:1008E0000102B4EB030C75EB020C04D3E41A65EBC4
:1008F000020506460F46241908F101006D418046A5
:100900003428E3DDB11947EB0700091BA84103D2E6
:100910004FF0FF32134601E0002213461BEB0600A6
:1009200047EB0A51BDE8F04DFFF739BF2DE9FE4F07
:10093000C3F30A5801F000450024C1F30A56C3F37B
:100940001303C1F3130143F4801312EB020CA64608
:1009500041F480119246009543EB0307A8F1010B87
:1009600013E0B0EB0C00B94107D54FF00008D0EB15
:10097000080085F0004568EB0101BAEB000273EB5B
:100980000102EED3761E001849415E45F5DA50EAC1
:10099000010204D10099204603B0BDE8F08FCDE9F3
:1009A00000E5002213460296FFF706FFF4E7C1F3C5
:1009B0000A52C1F3130140F2FF3341F480119A420D
:1009C00002DA00200146704740F233439A42A2F215
:1009D000334202DC5242FFF73EBCFFF789BE000003
:1009E000064C074D06E0E06840F0010394E807007C
:1009F00098471034AC42F6D3FFF7CAFB3820010801
:100A00005820010870B5C1F30A5201F000450024D6
:100A1000C1F3130140F2FF3341F480119A4201DA2D
:100A2000002070BD40F233439A42A2F2334203DC0D
:100A30005242FFF710FC00E090402C43F1D04042BE
:100A400070BD70B501EB020410F8015B15F00703EF
:100A500001D110F8013B2A1106D110F8012B03E057
:100A600010F8016B01F8016B5B1EF9D12B0705D45F
:100A70000023521E0FD401F8013BFAE710F8013BA6
:100A800002F10202A1EB030303E013F8015B01F89A
:100A9000015B521EF9D5A142D6D3002070BD0000E3
:100AA00021484FF0FF010170002080F309881F48A2
:100AB000016881F308881E484FF08051016062B6DA
:100AC000FEE71B484FF080510160704718484FF017
:100AD00080510160704772B6EFF3098050B11EF08B
:100AE000100F08BF20ED108A734620E9F80F114956
:100AF0000968086000B5104880475DF804EB0F48AE
:100B00000F490A7802700B480E490A6802601068A3
:100B1000B0E8F80F9E461EF0100F08BFB0EC108A28
:100B200080F3098862B6704722ED00E0F4000020EF
:100B300004ED00E0EC0000209D4700087A00002052
:100B40007B000020F0000020002007E09FED370B25
:100B5000384901EBC00181ED000B401C0328F5DB97
:100B6000002007E09FED310B334901EBC00181ED1F
:100B7000000B401C0328F5DB9FED2C0B2F4981ED6A
:100B8000000B9FED2F0B81ED020B9FED2F0B3049DA
:100B900081ED000B9FED2C0B2E4981ED000B012107
:100BA0002D4A117000212D4A11702D4A11702D4AC5
:100BB00011602D4A11602D4A11609FED2D0B2E49B9
:100BC00081ED000B00212D4A11702D4A11702D4A24
:100BD00011709FED2D0B2E4981ED000B9FED2D0B1C
:100BE0002E4981ED000B9FED2E0B2F4981ED000B5F
:100BF0009FED2E0B2F4981ED000B00212E4A117025
:100C00002E4A11702E4A11702E4A11702E4A117000
:100C10002E4A11702E4A11702E4A11702E4A1170F0
:100C20009FED2E0B2F4981ED000B70470000000057
:100C300000000000B8D7002030D8002078D800206D
:100C4000F4FB7CD35E16D33F000000000000F03FB1
:100C5000C0020020C8020020B0020020B102002023
:100C6000B2020020B4020020B8020020BC02002022
:100C7000000000000000004090020020E001002081
:100C8000D4020020E1010020613255302AA9333F0F
:100C900028020020FA7E6ABC7493783F400200204C
:100CA0000000000000000840580200207B14AE47FE
:100CB000E17AB43F70020020380200205002002088
:100CC00068020020800200208102002082020020B1
:100CD00084020020860200208802002000000040DC
:100CE0005DBE4241D802002001F09CFB05F0F2FEFF
:100CF000642001F037FA1FE0002417E0012001F022
:100D0000ADFB012001F02EFA022001F0A7FB20210B
:100D10000A4800F017F8012001F024FA05F0E8FE77
:100D20001021074800F00EF8601CC4B2102CE5DB5F
:100D30004FF47A7001F016FADEE7000000D40020CC
:100D4000E0CA0020F0B502460B46002046E000EB6A
:100D5000400732F8274000EB400732F827500026C2
:100D600000212BE000EB400702EB870737F81170FA
:100D7000A74206DD00EB400702EB870737F811C0FA
:100D800000E0A446644600EB400702EB870737F813
:100D90001170AF4206DA00EB400702EB870737F825
:100DA00011C000E0AC46654600EB400702EB870748
:100DB00037F811703744BEB24F1CF9B20529D1DBA8
:100DC000371B7F1B4FF0030C97FBFCF700EB400C2D
:100DD00002EB8C0CACF80A70471CF8B29842B6DBF8
:100DE000F0BD000010B51CA200211F4801F07FF9E2
:100DF0001EA20021204801F07AF920A200212248F9
:100E000001F075F921A20021244801F070F924A213
:100E10000021264801F06BF925A20021284801F0A5
:100E200066F928A200212B4801F061F92AA20021CD
:100E30002D4801F05CF92DA20021304801F057F94E
:100E40002FA20021324801F052F932A20021354888
:100E500001F04DF910BD000053454D5F5445585405
:100E60005F524556000000000CA3002053454D5F23
:100E70004750535F53544F0034A3002053454D5FF8
:100E800054454C5F53544F005CA3002053454D5FC5
:100E9000504C4F41445F53544F00000084A3002046
:100EA00053454D5F4F52425F44455400A0D500204A
:100EB00053454D5F4F52425F43414C435500000044
:100EC000C8D5002053454D5F4359435F494E464FB7
:100ED00000000000F0D5002053454D5F4D41475FB5
:100EE000444F545F444D500018D6002053454D5F89
:100EF0005049545F464C545F434F4D0040D600204C
:100F000053454D5F5049545F464C545F50524F001B
:100F100068D6002053454D5F4154545F5354415FA0
:100F200043544C0090D600202DED108BAAB09FEDBD
:100F3000CB0B8DED160B9FEDCB0BB0EE40EAF0EE38
:100F400060EA9FEDCA0B8DED140B9FEDCA0B8DED82
:100F5000120B81E10021C94801F0E8F8C84890ED82
:100F6000001BB0EE410AF0EE610A9FEDC61B53EC88
:100F7000112B51EC100BFFF74DFA41EC100BB0EEBA
:100F800040BAF0EE60BA9FEDC10B53EC102B51EC60
:100F90001B0BFFF7AFFA41EC180BB94890ED021BA1
:100FA000B0EE410AF0EE610A9FEDB61B53EC112B37
:100FB00051EC100BFFF72EFA41EC100BB0EE40BADB
:100FC000F0EE60BA9FEDB10B53EC102B51EC1B0B04
:100FD000FFF790FA41EC190BAE480068012806DAD9
:100FE00003230122AC4924A80CF053FC0DE003209C
:100FF000012324AAA84900901EA80CF0B7FE0323E1
:101000000122A54924A80CF044FC53EC192BA34859
:1010100090ED000B51EC100BFFF7FCF941EC100BBD
:10102000B0EE40BAF0EE60BA9D4890ED000B51EC86
:10103000100B81F0004141EC100BB0EE40CAF0EE15
:1010400060CA53EC182B51EC1C0BFFF7E3F941EC91
:10105000100BB0EE40DAF0EE60DA53EC1B2B51ECE3
:101060001D0BFFF7D1F941EC1A0B9FED8E0B8DEDA7
:101070000A0B8DED0CAB9FED8B0B8DED0E0B012054
:1010800016AACDE90020032302468349029018A83E
:101090000CF080FD032118A80CF0BAFEB0EE40BAA7
:1010A000F0EE60BA53EC1B2B9FED800B51EC100B54
:1010B000FFF720FA41EC100B8DED100B9DED100B9E
:1010C00053EC102B9DED100B51EC100BFFF7A2F918
:1010D00041EC100B8DED100B0AAA18A9754807F00A
:1010E00065FE012010AACDE90020032302467149C4
:1010F000029008460CF04EFD9DED201BB0EE410A1B
:10110000F0EE610A6C4890ED001B53EC112B51EC92
:10111000100BFFF779F941EC100BB0EE40BAF0EE8E
:1011200060BA664890ED000B51EC100B81F0004165
:1011300041EC100BB0EE40CAF0EE60CA53EC1B2B32
:1011400051EC1C0BFFF766F941EC100B594880ED90
:10115000020B002432E0574800EBC40090ED001B66
:10116000B0EE410AF0EE610A9FED551B53EC112BD6
:1011700051EC100BFFF762FA06D29FED510B4D4870
:1011800000EBC40080ED000B4A4800EBC40090ED7A
:10119000001BB0EE410AF0EE610A9FED4B1B53ECD1
:1011A000112B51EC100BFFF75DFA06D29FED480BA7
:1011B000404800EBC40080ED000B641C032CCADB2C
:1011C0003C4890ED001BB0EE410AF0EE610A53EC92
:1011D0001E2B51EC100BFFF71DF941EC100B8DEDA0
:1011E000040B344890ED021BB0EE410AF0EE610AA8
:1011F0009DED141B53EC112B51EC100BFFF70AF96A
:1012000041EC100B8DED060B2A4890ED041BB0EE5F
:10121000410AF0EE610A9DED121B53EC112B51ECCB
:10122000100BFFF7F7F841EC100B8DED080B2A4877
:1012300090ED000BB0EE40FAF0EE60FA274880ED3A
:1012400000FB0323012204A925480CF022FB1148CE
:101250000068401C0F4908607CE6000095D626E82F
:101260000B2E113E39183558CD5CDC3FAF3DAC3903
:10127000AE02DD3F9F910416B960DE3F90D600209C
:1012800048D800200000000000806640182D44541B
:10129000FB210940BC02002000D8002040020020B1
:1012A00028020020000000000000000000000000F4
:1012B0000000F03F18D800209802002070020020A3
:1012C0009A9999999999C9BF0000000000000040BF
:1012D0009A9999999999C93F58020020B80100201C
:1012E000E8D600202DED088B92B04FF4B46489E06D
:1012F0000021454800F01AFF10A803F0C3FB434942
:10130000086008460068FFF775F941EC100BB0EE75
:10131000409AF0EE609A9FED3E0B53EC102B51EC8F
:10132000190BFFF777F841EC100BB0EE408AF0EEA6
:10133000608A9FED390B53EC102B51EC180BFFF723
:10134000D9F841EC100BB0EE40BAF0EE60BA9FED68
:10135000340B53EC102B51EC1B0BFFF7CBF841EC8B
:10136000100BB0EE40AAF0EE60AA2F4890ED000BF3
:1013700053EC102B51EC1A0BFEF7A6FF41EC100BAF
:101380002A4880ED000B2046FFF723F941EC100BB3
:10139000B0EE408AF0EE608A254803C841EC100B9D
:1013A00053EC102B214890ED001B51EC110BFFF773
:1013B0002BF841EC100BB0EE409AF0EE609A53EC33
:1013C000182B51EC190BFFF725F841EC100B8DEDA4
:1013D0000C0B1848006818B91548D0380EF006FCF8
:1013E00014480068401C134908600CAB104AD03AFE
:1013F000694606A80CF004FF0EAB6A4606A90E4823
:101400000CF0BFFE74E70000C8D50020E002002009
:10141000000000000000F03F0000000000408F408E
:10142000000000000018F540D8020020A8020020AB
:1014300058D90020D002002088D7002000B58BB0FA
:101440000AA8032100220592CDE906210890012077
:1014500080210C22DD4BCDE90132CDE903100320C0
:101460000023DB4ADBA10090DE4802F0D5FD0AA88C
:10147000032100220592CDE9062108900220802157
:101480000C22D94BCDE90132CDE903100420002311
:10149000D64AD7A10090DA4802F0BEFD0AA803217F
:1014A00000220592CDE906210890104680210C22E9
:1014B000D44BCDE90132CDE9031005200023D24AF7
:1014C000D2A10090D54802F0A7FD0AA8032100226E
:1014D0000823CDE90532CDE90710104699013322E2
:1014E000CF4BCDE90132CDE9031006200023CD4AD0
:1014F000CDA10090D04802F08FFD0AA80321002260
:101500000823CDE90532CDE90710104680210C22D1
:10151000CA4BCDE90132CDE9031007200023C84AA8
:10152000C8A10090CB4802F077FD0AA80321002251
:101530000823CDE90532CDE90710104680210C22A1
:10154000C54BCDE90132CDE9031008200023C34A81
:10155000C3A10090C64802F05FFD0AA80321002243
:101560000823CDE90532CDE90710104680210C2271
:10157000C04BCDE90132CDE9031009200023BE4A5A
:10158000BEA10090C14802F047FD0AA80321002235
:101590000823CDE90532CDE90710104680210C2241
:1015A000BB4BCDE9013200230092CDE90310B94ACB
:1015B000B9A1BE4802F030FD0AA803210022082389
:1015C000CDE90532CDE90710104680210C22B84B39
:1015D000CDE90132CDE9031002200023B54AB6A1BE
:1015E0000090B84802F018FD0AA803210022082341
:1015F000CDE90532CDE90710104680210C22B24B0F
:10160000CDE90132CDE9031002200023AF4AB0A199
:101610000090B24802F000FD0AA80321002208232E
:10162000CDE90532CDE90710104680210C22AC4BE4
:10163000CDE90132CDE903100D200023A94AAAA16A
:101640000090AD4802F0E8FC0AA80321002208231C
:10165000CDE90532CDE90710104680210C22A74BB9
:10166000CDE90132CDE903100B200023A44AA5A146
:101670000090A74802F0D0FC0AA80321002205929E
:10168000CDE90621089010464FF480616622A14BF7
:10169000CDE90132CDE903100F2000239E4A9FA11E
:1016A0000090A24802F0B8FC0AA80321002205928B
:1016B000CDE90621089010464FF4806166229C4BCC
:1016C000CDE90132CDE9031011200023994A9AA1F6
:1016D00000909E4802F0A0FC0AA803210022059277
:1016E000CDE90621089010464FF480616622984BA0
:1016F000CDE90132CDE9031012200023954A96A1CD
:101700000090994802F088FC0AA803210022059263
:10171000CDE90621089010464FF480616622934B74
:10172000CDE90132CDE9031013200023904A91A1A5
:101730000090954802F070FC0AA80321002205924F
:10174000CDE90621089010464FF4806166228F4B48
:10175000CDE90132CDE90310142000238C4A8DA17C
:101760000090914802F058FC0AA80321002205923B
:10177000CDE90621089010464FF4806166228B4B1C
:10178000CDE90132CDE9031015200023884A89A153
:1017900000908D4802F040FC0AA803210022059227
:1017A000CDE90621089010464FF480616622874BF0
:1017B000CDE90132CDE9031016200023844A85A12A
:1017C0000090894802F028FC0BB000BD44070020BF
:1017D000B92800084750535F53544F5F5441534B4F
:1017E0000000000080060020080A002025280008CC
:1017F0004750535F5245565F5441534B0000000021
:1018000044090020CC0C0020B979000854454C5FF5
:1018100053414D5F5441534B00000000080C002021
:10182000900F0020F979000854454C5F53544F5FE6
:101830005441534B00000000CC0E002054180020EF
:10184000116C0008504C4F41445F53414D5F54416F
:10185000534B000090170020181B00201D6C00083F
:10186000504C4F41445F53544F5F5441534B000021
:10187000541A0020DC1D00204178000853544F5FAB
:101880005550444154455F5441534B00181D0020AE
:10189000A02000203378000853544F5F4D4F4E492D
:1018A000544F525F5441534B00000000DC1F002096
:1018B00064230020D12500084641554C545F544113
:1018C000534B0000A0220020EC280020556900089E
:1018D0004F55545055545F5441534B002828002015
:1018E000B02B0020E90C00084144435F53414D50A8
:1018F0004C455F5441534B00EC2A00202826002021
:101900002D7A0008544553545F5441534B00000056
:1019100064250020742E0020511C000841707020A6
:101920005461736B204F726244657400B02D0020C7
:10193000383F0020E5120008417070205461736B3D
:101940002043616C63754F7262000000743E00209A
:10195000FC4F0020B51D0008417070205461736B6E
:101960002053656E47657400384F0020C06000202A
:10197000ED190008417070205461736B204D616750
:10198000446F74446D700000FC5F0020847100207F
:10199000591D0008417070205461736B20506974A8
:1019A000466C74436F6D0000C070002048820020B8
:1019B0005D1D0008417070205461736B2050697484
:1019C000466C7450726F0000848100200C930020DC
:1019D000290F0008417070205461736B20417474AA
:1019E00053746143746C0000489200202DED0A8B03
:1019F00094B040F6B7359FED7A0BB0EE40AAF0EE0A
:101A000060AA9FED790BB0EE40BAF0EE60BA9FEDA0
:101A1000780BB0EE40CAF0EE60CADFE000217648F5
:101A200000F084FB75480068FEF7D3FD41EC100B15
:101A3000B0EE408AF0EE608A9FED710B53EC102BF4
:101A400051EC180BFEF7FAFD12D2032301226E4966
:101A50000EA80BF01EFF002407E09FED6C0B6D48F5
:101A600000EBC40080ED000B641C032CF5DB67E089
:101A7000032001230EAA6449009008A80CF076F90F
:101A80000323012260490EA80BF003FF002455E058
:101A900008A800EBC40003C841EC100B53EC102B5A
:101AA0009FED5D1B51EC110BFEF7B4FC41EC100BEC
:101AB000B0EE408AF0EE608A594890ED000B53EC8E
:101AC000102B51EC180BFEF715FD41EC100B514893
:101AD00000EBC40080ED000B4E4800EBC40003C8CF
:101AE00041EC100B9FED4F1B53EC112BFEF7BAFD91
:101AF00007D29FED4C0B474800EBC40080ED000B74
:101B00001BE0444800EBC40003C841EC100B9FED00
:101B1000471B53EC112BFEF791FD07D29FED430BB2
:101B20003C4800EBC40080ED000B06E09FED370B56
:101B3000384800EBC40080ED000B641C032CA7DBCD
:101B4000344803C841EC100B53EC1A2BFEF762FC2F
:101B500041EC100B8DED020B2E48C168806841EC02
:101B6000100B53EC1B2BFEF755FC41EC100B8DEDCD
:101B7000040B28484169006941EC100B53EC1C2B05
:101B8000FEF748FC41EC100B8DED060B294890ED5B
:101B9000009B294880ED009B0323012202A92748CE
:101BA0000BF077FE03230122174925480BF071FE45
:101BB0002448007890B911480068401C0F4908601B
:101BC00021480078012809D108460068A84205DDAF
:101BD0001E48007810B901201A4908701EE700005D
:101BE00039183558CD5CDC3FAF3DAC39AE02DD3F36
:101BF0009F910416B960DE3F18D60020B402002081
:101C00009A9999999999B93F00D80020000000004D
:101C10000000000018D800200000000080842EC1C1
:101C2000900200209A9999999999C93F9A999999FE
:101C30009999C9BF58020020B8010020E8D60020B9
:101C400028D70020B1020020E001002082020020FD
:101C50002DED088B8EB066E00021334800F066FA67
:101C60000CA802F00FFF3149086008460068FEF733
:101C7000C1FC41EC100BB0EE40AAF0EE60AA9FED63
:101C80002C0B53EC102B51EC1A0BFEF7C3FB41EC61
:101C9000100BB0EE409AF0EE609A9FED270B53ECDC
:101CA000102B51EC190BFEF725FC41EC100BB0EE9C
:101CB000408AF0EE608A9FED220B53EC102B51EC22
:101CC000180BFEF717FC41EC100BB0EE40BAF0EE2B
:101CD00060BA1D4890ED000B53EC102B51EC1B0B20
:101CE000FEF7F2FA41EC100B184880ED000B0024CF
:101CF00011E0174800EBC40006C806A800EBC400BA
:101D000006C01349E01C01EBC00006C8684600EBA2
:101D1000C40006C0641C032CEBDB0C4B6A4606A90E
:101D20000C480CF0A7F997E7A0D50020E0020020AE
:101D3000000000000000F03F0000000000408F4065
:101D4000000000000018F540D8020020A802002082
:101D500058D70020D0D700207047000086B01CE084
:101D600000210E4800F0E2F900240FE00C4800EBDF
:101D7000C40003C86A4602EBC40203C29FED090B0C
:101D8000074800EBC40080ED000B641C032CEDDB66
:101D90006A46064906480CF081F8E1E768D600205B
:101DA00030D80020000000000000000058D80020BB
:101DB00048D80020CFE00021674800F0B7F9674815
:101DC0000078012810D1002064490870012064497E
:101DD000087000206349087063490870634908600F
:101DE000634908606349086063480078012801D1AD
:101DF0006249087062480078012832D15F49087052
:101E000000205F4908705F4806C85F4806C05F4809
:101E100006C85D48183006C05D4806C85A480830F4
:101E200006C05C4806C85848203006C05A4806C854
:101E30005548083806C0594806C85348D83800F5F0
:101E4000807006C0564806C84F48D83800F58470E0
:101E500006C0544806C84C48103006C000205249FD
:101E6000086052480078012806D1514806C85148F8
:101E700006C000204D4908704F480078012806D15F
:101E80004E4806C84E4806C000204B4908704D48D1
:101E90000078012806D14C4806C84C4806C00020EE
:101EA000484908704A480078012806D1494806C8C0
:101EB000494806C000204649087048480078012873
:101EC00006D1474800782649087000204349087029
:101ED00044480078012806D1434800782149087019
:101EE00000204049087041480078012806D1404848
:101EF00000781D49087000203C4908701F48007890
:101F0000012802D13B4800F003F915480078012868
:101F100002D1394800F0FCF812480078012802D1BB
:101F2000364800F0F5F80E480078354908700F483B
:101F30000068344908600B480078334908700C4841
:101F4000006832490860084800783149087009483B
:101F50000068304908602EE7F0D50020810200209B
:101F6000B0020020B1020020B2020020B402002022
:101F7000B8020020BC020020D4020020E0010020B2
:101F8000E1010020E801002060D90020F0010020DC
:101F9000F8010020000200200802002010020020AA
:101FA0001802002020020020D00200203802002069
:101FB00030020020280200205002002048020020A9
:101FC0004002002068020020600200205802002029
:101FD000800200207802002070020020840200208D
:101FE0008302002086020020850200208802002053
:101FF00087020020C8D5002018D6002040D6002037
:10200000C8010020CC010020D0010020D401002014
:10201000D8010020DC01002008B509F06DFA00F0BD
:10202000D3F800F0C1F8684601F074FF00F00AF838
:10203000FEF7D8FEFFF702FA03E04FF4FA6000F073
:1020400091F8FAE700B585B004A800210123CDE995
:1020500000310A46CDE9021010A1144802F07EFDBD
:1020600004A80021124A0123CDE90032CDE9021073
:102070000B460A460FA1134802F070FD04A8002188
:10208000114A0123CDE90032CDE902100B4614229A
:102090000EA1124802F062FD05B000BD455053206C
:1020A0004F7665722054696D65720000EC02002065
:1020B0006D220008434F4D204F7665722054696DA4
:1020C0006572000020030020F327000847505320CA
:1020D0004F7665722054696D6572000054030020CC
:1020E0001FB5684604F036FE019804B010BDF8B57F
:1020F00006460C4615466B4622462946304601F0F8
:10210000F3FCBDF8000008B10020F8BD0120FCE799
:1021100038B504466A460021204601F0F9FDBDF8B5
:10212000000008B1002038BD0120FCE77CB5054661
:102130000C464FF47A70604309490968B0FBF1F628
:1021400001A800231A4631460090284601F00CFDF4
:10215000BDF8040008B100207CBD0120FCE70000B0
:10216000F01B0108FEB5044642F21070844200D90B
:102170000446B4F57A7F0BD34FF47A70B4FBF0F0D9
:1021800086B24FF47A70B4FBF0F100FB114501E028
:10219000A5B2002602A800212B463246CDE9001048
:1021A000084602F0A1FBFEBD70B5FFF799FF04469B
:1021B00003480068B4FBF0F5284602F057FD70BDF7
:1021C000F01B010800BFFEE710B500F01FF800F09B
:1021D00019F810BD10B5002400BF00BFFDF7F4FFD3
:1021E000044600BF00BF1021054800F0DDFC00BF21
:1021F00000BF2046FDF7ECFF00BF00BF10BD000090
:10220000FCAF002010B5FFF7E5FF10BD10B50020B2
:102210000249086000F00AF810BD000034000020F8
:1022200001490860704700003400002010B5FFF736
:1022300057FF04460848006840F08070064908606F
:102240000020064948600846006840F00100086028
:102250002046FFF7E5FF10BDFCED00E0001000E0B8
:102260000149486870470000001000E07047000016
:10227000014609B90B487047012901D10A48FAE71C
:10228000022901D10020F6E7032901D10020F2E75D
:10229000042901D10020EEE7052901D10020EAE759
:1022A0000020E8E7ACA30020D4AB002008B54FF431
:1022B000E06001F0A5F925208DF8000000208DF8E0
:1022C000020001208DF80300684601F05DF9262028
:1022D0008DF8000001208DF802008DF8030068469B
:1022E00001F052F908BD000010B5002400BF00BF86
:1022F000FDF76AFF044600BF00BF08480078401C95
:102300000649087000BF00BF2046FDF761FF00BF0F
:1023100000BF05F041F901F073FA10BD6000002024
:102320000246094B9A4201D2084801E0064810389B
:1023300011F0005F03D0064B0B40C36002E0044B7A
:102340000B40836070470000106402400060024050
:102350007D0F7D0F7047000010B54FF4C072002153
:10236000054800F02AFC20220021044800F025FC4A
:1023700000200349087010BD00D4002080D5002043
:10238000620100200149086070470000143C0140D0
:10239000002123498279002A3AD00A46126803684C
:1023A0009A430B461A600A1D126803689A430B1D74
:1023B0001A60027911440A6803681A430A60184ACD
:1023C0000832126803689A43154B08331A601A1DC5
:1023D000126803689A43124B0C331A604279102A30
:1023E0000ED11A1F126803681A430D4B08331A6086
:1023F0001A1D126803681A43094B0C331A600DE06A
:102400000749427911440A6803681A430A6005E0E3
:10241000027911440A6803689A430A607047000011
:10242000003C014010B548F2B0340121204600F0D4
:1024300077F800BF00BF00BF01214FF6FF7000F02A
:102440006FF80221204600F06BF800BF00BF00BF0C
:1024500002214FF6FF7000F063F810BD70B504461E
:102460002146002000F05CF805462146284600F091
:1024700003F8002070BD000070B503468C461913A8
:10248000C3F30B02BCF1020F02D101F11004E1B25F
:1024900040F6FF74A2421DDA102A1BDD002010E076
:1024A00001EB41041C4D05EB8405441C35F8144038
:1024B00001EB4105184E06EB850525F81040441C3C
:1024C000E0B20428ECDB01EB4104134D05EB84047E
:1024D00022811FE0002010E001EB41040E4D05EBCE
:1024E0008405441C35F8144001EB41050A4E06EB07
:1024F000850525F81040441CE0B20428ECDB01EB14
:102500004104054D05EB84042281044C645C641C89
:10251000024D6C5470BD000000D4002080D5002016
:1025200070B506460C4600250EE000BF00BF00BF98
:1025300028466D1C2149884206D921480078401C54
:102540001F490870012070BD02211E4805F014F9D2
:102550000028EAD0012C03D110201B49488304E055
:10256000022C02D1A003184948833146154805F0D2
:1025700040F90EE000BF00BF00BF28466D1C0F49A8
:10258000884206D911480078401C10490870012083
:10259000D9E701210B4805F0EFF80028EAD0012C1B
:1025A00003D110200849088304E0022C02D1A003C3
:1025B00005490883034805F019F9C4E7400D0300F5
:1025C0003B01002000300140000002403C0100209F
:1025D00003E04FF47A70FFF7C5FDFAE751B14FF011
:1025E000204252F8202042F001024FF0204343F8ED
:1025F000202009E04FF0204252F82020034B1A40DF
:102600004FF0204343F8202070470000FEFF0F00EA
:10261000D0E901121143C2681143026911434269B2
:10262000114382691143C2691143026A1143426A2C
:102630001143826A1143C26A1143026B11434FF086
:102640002043026843F822108168082908D11A46FD
:10265000016852F8211041F04001026843F822104D
:10266000416B0968426B526841EA0211426B926801
:1026700041EA0221426BD26841EA0241426B12698F
:1026800041EA0251426B526941EA0261426B92692E
:1026900011430268521C4FF0204343F82210C16AD4
:1026A000B1F5804F1AD1816B0968826B526841EA9B
:1026B0000211826B926841EA0221826B126941EA3F
:1026C0000251826B526941EA0261826B9269114345
:1026D000026803EB8202C2F8041108E06FF0704157
:1026E0004FF02043026803EB8202C2F804117047E6
:1026F00070B50A46002100238C4600BF3DE001244E
:1027000004FA01F3146804EA030C9C4534D104680C
:102710004E000325B540AC43046014794D00AC4035
:1027200005682C4304601479012C02D01479022C22
:1027300016D184684E000325B540AC4384605479BB
:102740004D00AC4085682C438460446801258D4071
:10275000AC434460446895798D40ADB22C434460ED
:10276000C4684E000325B540AC43C460D4794D0025
:10277000AC40C5682C43C460491C1029BFD370BD50
:1027800070B500239C464C07E40E02FA04F3CD100A
:1027900000F1200454F825404D07EE0E0F25B540FA
:1027A000AC43CE1000F1200545F82640CD1000F1D5
:1027B000200454F8254044EA030CCD1000F1200415
:1027C00044F825C070BD0246002013690B4201D0B9
:1027D000012000E0002070470246002053690B42B0
:1027E00001D0012000E00020704741837047018341
:1027F0007047704770B504460D462946204600F0E4
:1028000039FB2946204600F0A5FA2946204600F06B
:10281000D5FA2946204600F0C7FB2946204600F09D
:10282000CFFC70BD08B5002240F225511E4806F0CD
:1028300016F9012009F0F0FB00201C49088032E065
:1028400042F21070FFF78EFC012009F0E5FB00203A
:1028500016490880012240F22551134806F0FFF87E
:1028600012E008E09DF8002010490888411C0F4B39
:1028700019800F490A546946012009F0DBFB002842
:10288000F0D16420FFF76EFC08480088B0F5487F5F
:10289000E7DB002240F22551034806F0E0F8044946
:1028A0000448FFF7A7FFCBE70044004012010020D7
:1028B000E0D0002060D0002003E04FF47A70FFF7F2
:1028C00051FCFAE700BFFEE710B500F001F810BDBB
:1028D0004AF6AA2001490860704700000030004015
:1028E00000B587B00121022004F0E4F90121102095
:1028F00004F020FA072206214348FFF741FF072290
:1029000011464148FFF73CFF00208DF81A000120D6
:102910008DF81B0002208DF8180040200590022041
:102920008DF8190005A93848FFF7E2FE02208DF85E
:1029300018008020059005A93348FFF7D9FE4FF411
:10294000E13001900020ADF80800ADF80A00ADF8C4
:102950000C00ADF810000C20ADF80E0001A92B48BA
:1029600006F0A2F8012240F22551284806F077F837
:102970000121264806F03BF84021244806F02EF8B5
:102980000121084604F096F90121480404F0C2F937
:10299000072203211E48FFF7F3FE00208DF81A00DE
:1029A00001208DF81B0002208DF818008DF818000A
:1029B0000820059002208DF8190005A91448FFF79A
:1029C00097FE4FF4E13001900020ADF80800ADF81B
:1029D0000A00ADF80C00ADF810000420ADF80E00B0
:1029E00001A90C4806F060F8012240F2255109487F
:1029F00006F035F80121074805F0F9FF40210548A8
:102A000005F0ECFF07B000BD0004024000100140DB
:102A1000000002400044004000B587B012220021AF
:102A200002A800F0CAF80422002101A800F0C5F8AD
:102A30000121080304F07EF900211F4804F086FEFE
:102A40000020ADF808004FF48270ADF80A004FF492
:102A50000060ADF80C000220ADF80E000020ADF8CB
:102A600010004FF40070ADF812003820ADF81400DB
:102A70000020ADF816000720ADF8180002A90E4896
:102A800004F0B9FE012250210B4804F09AFE012106
:102A9000094804F05BFE23208DF8040002208DF825
:102AA000050000208DF8060001208DF8070001A820
:102AB00000F06AFD07B000BD003001401CB50822DF
:102AC0000021684600F079F80121084604F0F2F888
:102AD0000121022004F0EEF8052211462F48FFF7ED
:102AE0004FFE052206212D48FFF74AFE0522072149
:102AF0002A48FFF745FE02208DF804008DF80500F6
:102B000000208DF8060002208DF80700E0200090DC
:102B100069462248FFF7ECFD01208DF804000020F3
:102B20008DF8060002208DF8050000208DF80700C2
:102B30000220009069461A48FFF7DAFD01208DF85F
:102B4000040000208DF8060002208DF8050000200A
:102B50008DF807001020009069461048FFF7C8FD67
:102B600001208DF8040000208DF8060002208DF869
:102B7000050000208DF807004FF4004000906946E2
:102B80000648FFF7B5FD02200549183108801020DE
:102B900002490883C00208831CBD000000000240F7
:102BA0000004024000BFFEE730B505460C46224651
:102BB0000021284600F001F830BD2DE9F041034620
:102BC0000C4617460FB9BDE8F08103B9FBE70025B5
:102BD000002202E02D022543521C042AFAD3384673
:102BE00003F0030C1946BCF1000F08D0624603E065
:102BF00001F8014B401E521C08B1042AF8D30E46BE
:102C000001E020C6001F0428FBD2314602E001F893
:102C1000014B401E0028FAD100BFD4E710B509A02F
:102C200006F010F913A006F00DF91EA006F00AF93F
:102C300022A006F007F929A006F004F92FA006F05B
:102C400001F910BD2D2D2D2D2D2D2D2D4F6E204236
:102C5000726F616420436F6D707574657220446596
:102C6000627567204D6F64652D2D2D2D2D2D2D2D19
:102C70000D0A00002D2D2D2D2D2D2D2D2D2D2D2D21
:102C80002D2D2D2D2D2D2D2D2D2D2D2D2D2D2D2D74
:102C90002D2D2D2D2D2D2D2D2D2D2D2D2D2D2D2D64
:102CA0000D0A00005B315D205254432046756E636F
:102CB00074696F6E20546573740D0A005B325D2079
:102CC0004E6F72466C6173682046756E6374696FEF
:102CD0006E20546573740D0A000000005B335D20A4
:102CE0004550532053797374656D2046756E637437
:102CF000696F6E20546573740D0A00005B345D20AB
:102D00004F626320414453797374656D2046756E3C
:102D10006374696F6E20546573740D0A00000000BF
:102D20000246134610E010782A2805D01078202893
:102D300002DB10787A2801DDFF20704710782C28FC
:102D400001D1481EC1B2521C0029ECD1D01AC0B228
:102D5000F3E70000F8B505460F4616A13846FDF723
:102D60009DFA064606213046FFF7DAFF0446FF2C9F
:102D700005D03019694600F05AFA85F8610007213C
:102D80003046FFF7CDFF0446FF2C05D030196946C9
:102D900000F04DFA85F8620009213046FFF7C0FFC8
:102DA0000446FF2C04D03019694600F040FAA867A9
:102DB000F8BD000024475047474100002DE9F84383
:102DC0000546884629A14046FDF768FA06460221D5
:102DD0003046FFF7A5FF0446FF2C05D030196946A1
:102DE00000F025FA85F86F00002713E0F81CC1B247
:102DF0003046FFF795FF0446FF2C08D0301969468E
:102E000000F015FAC1B205F16300C15500E003E01E
:102E1000781CC7B20C2FE9DB00BF0F213046FFF74B
:102E20007FFF0446FF2C05D03019694600F0FFF9FA
:102E3000A5F8700010213046FFF772FF0446FF2C02
:102E400005D03019694600F0F2F9A5F87200112199
:102E50003046FFF765FF0446FF2C05D03019694660
:102E600000F0E5F9A5F87400BDE8F8832447504761
:102E7000534100002DE9FC5F07468A464FF00008E9
:102E8000CDF804A046A10198FDF708FA0646F079AE
:102E9000303800F0FF0B03213046FFF741FF0546B5
:102EA000FF2D04D07019694600F0C1F938704FF059
:102EB000000970E03AA10198FDF7F0F906460024F8
:102EC00060E0042000EB8400C1B23046FFF728FF29
:102ED0000546FF2D0AD07019694600F0A8F9C1B265
:102EE00008EB4802B81C00F8121000E04CE0052086
:102EF00000EB8400C1B23046FFF712FF0546FF2DFC
:102F00000BD07019694600F092F9C1B208EB480283
:102F1000B81C00EB4200417000E035E0062000EBF9
:102F20008400C1B23046FFF7FBFE0546FF2D0BD0F3
:102F30007019694600F07BF981B208EB4802B81CB1
:102F400000EB4200418000E01EE0072000EB84001F
:102F5000C1B23046FFF7E4FE0546FF2D0BD07019D5
:102F6000694600F064F9C1B208EB4802B81C00EBF6
:102F70004200017100E007E008F1010000F0FF08E5
:102F8000601CC4B2042C9CDB00BF701C019009F1D2
:102F9000010000F0FF09D9458CDBBDE8FC9F000073
:102FA00024475047535600002DE9F0432DED028B86
:102FB00081B0044688467FA14046FDF76FF9074679
:102FC00001213846FFF7ACFE0546FF2D23D07819C6
:102FD000694600F02CF981469DF800100A2000F0A7
:102FE0001BF9B9FBF0F642F21070B6FBF0F0C1B27B
:102FF0004E2001556420B6FBF0F06421B0FBF1F2E5
:1030000001FB12014F2001556420B6FBF0F100FBDB
:1030100011615020015503213846FFF781FE054616
:10302000FF2D3FD07819694600F001F906469DF85A
:103030000000801CC1B20A2000F0EEF8B6FBF0F0F0
:1030400060659DF80000801CC1B20A2000F0E4F821
:10305000B6FBF0F100FB116000EE100AB8EE408AFA
:1030600005210A2000F0D8F8616D484300EE100AEF
:10307000F8EE400A9DF80000C0F10500C1B20A2038
:1030800000F0CAF800EE100AB8EE400A20EE080A76
:103090009FED4A1AC0EE011A30EEA10ABCEEC00A3A
:1030A00084ED150A04213846FFF73AFE0546FF2D48
:1030B00002D0785D84F8580005213846FFF730FECD
:1030C0000546FF2D41D07819694600F0B0F8064654
:1030D0009DF80000801CC1B20A2000F09DF8B6FBEC
:1030E000F0F0E0659DF80000801CC1B20A2000F0FD
:1030F00093F8B6FBF0F100FB116000EE100AB8EE99
:10310000400AB0EE408A05210A2000F085F8E16D02
:10311000484300EE100AF8EE400A9DF80000C0F1A6
:103120000500C1B20A2000F077F800EE100AB8EEF0
:10313000400A20EE080A9FED211AC0EE011A30EE77
:10314000A10ABCEEC00A84ED170A06213846FFF733
:10315000E7FD0546FF2D02D0785D84F86000092167
:103160003846FFF7DDFD0546FF2D1ED0781969466C
:1031700000F05DF8064642F21070B6FBF0F0C1B206
:103180004D2001556420B6FBF0F06421B0FBF1F254
:1031900001FB12014C2001556420B6FBF0F100FB4D
:1031A000116000F5FA60A4F84A0001B0BDEC028B92
:1031B000BDE8F083244750524D43000000007042A8
:1031C000F8B504460F4612A13846FDF767F80546E4
:1031D00007212846FFF7A4FD0646FF2E16D0A819A2
:1031E000694600F024F8A4F87C009DF8000003284C
:1031F0000CDA9DF80000C0F10300C1B20A2000F013
:103200000BF8B4F87C104843A4F87C00F8BD00002B
:10321000244750565447000010B50246012000E0F4
:1032200050430B00A1F10104E1B2F9D110BD2DE929
:10323000F34F81B007463C4600200090834681460C
:103240000026804628E020782D2802D148F0020888
:10325000641C20782C2802D020782A2800D11CE079
:1032600020782E2803D148F00108641C09E020785A
:10327000392802DC2078302803DA4FF000090026D4
:103280000BE018F0010F02D0701CC6B203E009F188
:10329000010000F0FF09641CD5E700BF18F0020F21
:1032A00000D07F1C00250EE0A9F10100401BC1B237
:1032B0000A20FFF7B1FF795D3039009A00FB012049
:1032C0000090681CC5B24D45EEDB052E00DD0526DD
:1032D0000298067000250EE0701E401BC1B20A2045
:1032E000FFF79AFF09F101012944795C303900FBAD
:1032F00001BB681CC5B2B542EEDB31460A20FFF7C0
:103300008BFF009901FB00BA18F0020F01D0CAF13F
:10331000000A5046BDE8FE8F7047000010B5044615
:10332000AA200B49088055200A49088080200849B6
:103330000880AA20088055200649088030214FF0D7
:10334000C84001534FF4200000F006F810BD000003
:10335000AA0A0064540500642DE9F04104460025E2
:1033600000274FF00108264600E0761E4021224843
:10337000FFF729FA08B1002EF7D1264600E0761EA5
:1033800040211D48FFF71FFA08B9002EF7D127E0AA
:10339000641E4FF0C8400588078805F0400007F01C
:1033A0004001884202D10020BDE8F08105F02000F4
:1033B000202801D04FF001084FF0C8400588078849
:1033C00005F0400007F04001884201D10020EBE702
:1033D00005F02000202803D14FF0020800F00EF87D
:1033E00014B1B8F1000FD3D11CB94FF0030800F0AD
:1033F00005F84046D8E70000000C0240AA20054925
:103400000880552004490880F0204FF0C84108800A
:1034100070470000AA0A00645405006470B5944621
:10342000644611F0010F07D06FF01C46725A161255
:1034300000F8016B641E491C01F1C843002508E037
:1034400033F8022B00F8012B161200F8016BA41EB2
:103450006D1CB5EB540FF3D3012C02D11E8800F87C
:10346000016B70BD30B5AA24124D2C805524124D2D
:103470002C8090240F4D2C804FF0C8442488E1B25A
:103480004FF0C8446488E2B24FF0C844A48BE3B262
:103490004FF0C844E48B04F0FF0C0C0644EA0244ED
:1034A00044EA032444EA0C00F0244FF0C8452C8081
:1034B00030BD0000AA0A0064540500642DE9F047FD
:1034C00004460D469246D14615F0010F11D06FF01B
:1034D0001C40465BF6B214F8011B46EA0126681E42
:1034E000314600F033F8074607B12CE0A9F1010995
:1034F0006D1C4FF000080FE014F8016B14F8011B6D
:1035000046EA01263146284600F020F8074607B172
:1035100019E0AD1C08F10108B8EB590FECD319F014
:10352000010F0ED04FF0C840465B06F47F4614F8FA
:10353000010B06433146284600F008F8074607B15C
:1035400001E0002700BF3846BDE8F08770B50446AB
:103550000D46AA2007490880552007490880A02069
:10356000044908804FF0C84005534FF4A050FFF7BE
:10357000F3FE70BDAA0A00645405006410B54FF450
:10358000407000F03DF810BD70B5002100230F22FF
:10359000C47824B3174C246804F4E064C4F5E064F0
:1035A000C4F30721C1F10404E3B20A4144789C400A
:1035B000E1B28478144021430C07210E0E4C0578AB
:1035C0006155047804F01F050124AC4005786D11A5
:1035D0004FF0E02606EB8505C5F8004109E00478C8
:1035E00004F01F050124AC40044D0678761145F81F
:1035F000264070BD0CED00E000E400E080E100E05A
:1036000002490143024A1160704700000000FA05B8
:103610000CED00E07047000010B50348006810B1E1
:1036200001480068804710BD4C00002070B504467A
:1036300000F0BCF80020454908704549087045492C
:103640000870454908604549086045490870454982
:103650000870454908704549086045490860454972
:10366000086045490870454800680A21B0FBF1F040
:10367000434908604348006858B14348056845B16C
:103680004048066803E0761E002028602D1D002EAD
:10369000F9D100203D4908603D4908603D49086076
:1036A0003D4908603D4908603D4908603D49086062
:1036B0003D49087001F040FE01F07AFE204601F01D
:1036C000C3FB208800B170BD204601F023FC208898
:1036D00000B1F8E7204601F029FC208800B1F2E7AC
:1036E000204601F08BFC208800B1ECE7204601F079
:1036F00053FE208800B1E6E7204601F0BBFF20889A
:1037000000B1E0E7204602F08BFA208800B1DAE74A
:10371000204601F0C7FB208800B1D4E7204602F024
:103720000DFF208800B1CEE7204602F0BDF92088C9
:1037300000B1C8E7204602F071FF208800B1C2E75F
:1037400001F0ACFAFFF766FF00BFBCE760000020A5
:103750006100002094000020EC000020F000002018
:103760007A0000207B0000207C00002088000020E0
:103770008C000020900000209C000020F01B01081D
:1037800098000020C01B0108BC1B0108400000205D
:1037900044000020480000204C0000205000002081
:1037A0005400002058000020CA000020064800688D
:1037B0000649096800EB8100054908600846006871
:1037C00020F0070008607047BC1B0108C01B0108FF
:1037D000F400002008480078012800D0704707480E
:1037E0000078FA2800DBF9E704480078401C034918
:1037F000087000BFF2E700006100002060000020B8
:1038000010B500242D480078012800D010BD00BF5D
:10381000FCF7DAFC044600BF2948007828B900BF4D
:103820002046FCF7D5FC00BFF0E725480078401E95
:103830002349087008460078002805DD00BF2046AF
:10384000FCF7C6FC00BFE1E71E480078002805DD54
:1038500000BF2046FCF7BCFC00BFD7E701F058FDD5
:10386000194908700846007800EB4000174951F8E4
:103870002000174908600846006816490968884210
:1038800005D100BF2046FCF7A3FC00BFBEE71048EF
:103890000068D0F89000401C0D490968C1F89000FC
:1038A0000D480068401C0C490860FDF70FF900BF87
:1038B0002046FCF78DFC00BF00BFA7E76100002099
:1038C00060000020940000207B00002024C4002021
:1038D000F0000020EC000020C000002010B5002403
:1038E0001F480078002800DD10BD1E480078002821
:1038F00000DDF9E700BFFCF767FC044600BF01F0FC
:1039000007FD194908700846007800EB4000174988
:1039100051F82000164908600846006815490968F2
:10392000884205D100BF2046FCF752FC00BFDBE710
:103930000F480068D0F89000401C0D490968C1F894
:1039400090000D480068401C0B490860FDF7B9F86D
:1039500000BF2046FCF73CFC00BF00BFC4E70000EE
:1039600060000020940000207B00002024C4002080
:10397000F0000020EC000020C000002070B50446DC
:10398000002518480078002803DD46F662502080A4
:1039900070BD15480078012803D045F68960208065
:1039A000F6E712480078FA2803DB45F20920208068
:1039B000EEE700BF00BFFCF707FC054600BF00BFF5
:1039C0000A480078401C0949087001F0A7FD00BFB3
:1039D00000BF2846FCF7FCFB00BF00BF0020208092
:1039E00000BFD5E7600000206100002094000020A7
:1039F0002DE9F04105460C461646002700BF00BFE2
:103A0000FCF7E2FB074600BF00BF012D03D00020FA
:103A10000D49087002E001200B49087014B10B48F1
:103A2000046006E00A4800680A21B0FBF1F007498B
:103A3000086000BF00BF3846FCF7CAFB00BF00BFEC
:103A400000203080BDE8F0819C000020980000201C
:103A5000F01B010870B504460025204800780028B6
:103A600003DD46F66550208070BD1D4800780128B2
:103A700003D045F689602080F6E71A48007818B927
:103A800046F664502080EFE700BF00BFFCF79CFBC8
:103A9000054600BF00BF13480078401E114908705A
:103AA0000846007800280ADD00BF00BF2846FCF762
:103AB0008FFB00BF00BF46F663502080D4E701F0C3
:103AC0003BFD00BF00BF2846FCF782FB00BF00BFE4
:103AD000FFF704FF0020208000BFC5E76000002042
:103AE00061000020940000202DE9F04104460E46BC
:103AF00017461D464FF0000818480078002804DDDE
:103B000042F6E1602880BDE8F0811CB945F6C3505B
:103B10002880F8E700BF00BFFCF756FB804600BFD7
:103B200000BF0F482060276200206062666004F1D9
:103B3000080001F0F9FA204601F084FD09480088E8
:103B4000401C0849088000BF00BF4046FCF740FB0E
:103B500000BF00BF0020288000BFD4E76000002025
:103B600053454D41A40000202DE9F04788B006469A
:103B7000894690461C46109D4FF0000A6048007828
:103B8000002806DD46F2AE102880002008B0BDE80F
:103B9000F08726B945F6C35028800020F6E7B8F133
:103BA000000F03D0B8F5004F02D100E000BF04E0E1
:103BB00045F6256028800020E8E700BF51493068BD
:103BC000884204D045F6C45028800020DEE70CB1BE
:103BD0000020206000BF00BFFCF7F6FA824600BF5D
:103BE00000BF306A88B1306A401E30620CB1706A22
:103BF0002060376A00BF00BF5046FCF7E9FA00BFFB
:103C000000BF002028803846C0E718F4004F0CD0D1
:103C1000376A00BF00BF5046FCF7DAFA00BF00BFAA
:103C200046F2B01028803846B0E7374800780028C0
:103C30000BDD00BF00BF5046FCF7CAFA00BF00BF53
:103C400046F6635028800020A0E74B460622314606
:103C5000684601F0DFF900BF00BF5046FCF7B8FA34
:103C600000BF00BFFFF73AFE00BF00BFFCF7ACFA91
:103C7000824600BF00BF2548006890F8350030B18B
:103C800001280CD002281AD0032821D110E01CB141
:103C90001E480068006C20600020288024E01CB1D1
:103CA0001A480068006C206046F2A91028801BE0CA
:103CB0000CB10020206047F2D920288014E01CB10C
:103CC00012480068006C206045F6C25028800BE066
:103CD00046F62E60288000BF00BF5046FCF778FAF9
:103CE00000BF00BF002051E700BF376A00BF00BF20
:103CF0005046FCF76DFA00BF00BF384646E70000AB
:103D00006000002053454D4194000020EC0000204D
:103D10002DE9F04105460E4614462DB945F6C3502F
:103D200020800020BDE8F0814EB1B6F5007F07D0BD
:103D3000B6F5004F05D0B6F5024F04D102E000BF42
:103D400000BF00BF04E045F6256020800020E9E7C1
:103D500000BF0A492868884204D045F6C450208034
:103D60000020DFE7FEF77CFA8046234642463146D4
:103D7000284601F08BFC07463846D3E753454D41B2
:103D800010B5044612480078E8B901F0C1FA1149AB
:103D9000087008460078104908700E48007800EB5B
:103DA00040000E4951F820000D490860084600689F
:103DB0000C490860012006490870FCF771FE43F6C3
:103DC0009920208002E045F68A60208010BD000026
:103DD000610000207B0000207A00002024C4002025
:103DE000F0000020EC0000202DE9F04107464FF0E4
:103DF000000800BF00BFFCF7E7F9804600BF00BF26
:103E000000203C4908803C4908603C4908603C4926
:103E100008603C4908603C49088100BF00BF40463B
:103E2000FCF7D6F900BF00BF00BF00BFFCF7CCF91C
:103E3000804600BF00BF3548046800BF00BF404651
:103E4000FCF7C6F900BF00BF24E000BF00BFFCF7CD
:103E5000BBF9804600BF00BF002004F17804E06396
:103E600020602063A061A082E0826062A062FEF711
:103E7000F7F92062A4F1780404F164064FF0000021
:103E8000B081D4F8BC4000BF00BF4046FCF7A0F9A9
:103E900000BF00BF002CD8D100BF00BFFCF794F9D1
:103EA000804600BF00BF1A48056800BF00BF4046FB
:103EB000FCF78EF900BF00BF12E000BF00BFFCF7A7
:103EC00083F9804600BF00BF05F120060020B081C5
:103ED000AD6900BF00BF4046FCF77AF900BF00BFE4
:103EE000002DEAD102F02CFA02F094FC0020388078
:103EF000BDE8F081AA000020BC000020D000002016
:103F0000DC0000208C00002018C40020C400002029
:103F100080000020F8B5044600266946324800F0CB
:103F200021FCBDF8000018B1BDF800002080F8BDEC
:103F30006A460021022000F075FCBDF8000018B1AF
:103F4000BDF800002080F2E700BF00BFFCF73CF99D
:103F5000064600BF00BF00202449086000BF00BF24
:103F60003046FCF735F900BF00BF00252048006847
:103F700020490968884205D91D4800681D4909681B
:103F8000B0FBF1F525B91A4800680A21B0FBF1F53C
:103F90006A460021284600F045FC6946124800F0B8
:103FA000CFF9BDF8000018B1BDF800002080BEE7D1
:103FB00000BF00BFFCF708F9064600BF00BF0020A5
:103FC0000D490860094800680C49086001200C4947
:103FD000087000BF00BF3046FCF7FAF800BF00BF12
:103FE0000020208000BFA2E7ACC80020AC00002069
:103FF000F01B0108D81B0108BC000020B000002005
:10400000B800002010B50348006810B101480068EE
:10401000804710BD500000202DE9FF4F2DED028B91
:1040200085B004469046179F159E9DED1A8ADDE9DE
:104030001B950020029066480078002807DD47F2B3
:104040004A10288005B0BDEC028BBDE8FF8F1CB97B
:1040500047F2AD102880F5E7B8F1000F03D147F221
:104060004F102880EEE71EB946F62F602880E9E75A
:1040700058480068874203D246F630602880E1E75E
:104080001698B84203D346F631602880DAE71498D0
:10409000402803D346F273202880D3E714983F28A2
:1040A00006D14D48844203D046F273202880C9E7E8
:1040B000204601F0C5FD0020288019F0010F10D026
:1040C00019F0020F0DD0B346049007E00020CBF8A2
:1040D00000000BF1040B0498401C04900498B842B3
:1040E000F4D3169806EB80000390CDE900793246B0
:1040F0004046039B0A9900F0DBFA8346C4F8288007
:104100009DED0A0A84ED0B0A9DED080A84ED080A6C
:10411000149884F83700C4F800B00398A0609DEDAF
:10412000190A84ED150A199818B92C480068A06579
:1041300003E09DED190A84ED160A84ED018A66629A
:10414000A763A4F83C904FF0000A08E0002104F1B6
:104150007C0040F82A100AF1010000F0FF0ABAF1D1
:10416000000FF3D004F16400189900F03FFF2046DF
:1041700000F03AF800BF00BFFCF726F8029000BF3D
:1041800000BF94F83710084601F0E2F8204601F02D
:1041900057F9204601F00AFD11480088401C1049DB
:1041A000088010480078012807D000BF00BF02989F
:1041B000FCF70EF800BF00BF44E700BF00BF029845
:1041C000FCF706F800BF00BFFFF788FB00BF39E728
:1041D00060000020EC1B010854C300209800002060
:1041E000C80000206100002010B5044603480068A4
:1041F00018B1204601490968884710BD40000020D9
:1042000070B504460D46002643480078002803DDBB
:1042100047F24E10288070BD4048844203D147F2D7
:104220004C102880F7E77CB900BF00BFFBF7CCFF3C
:10423000064600BF00BF3A48046800BF00BF3046D2
:10424000FBF7C6FF00BF00BF00BF00BFFBF7BCFF0E
:10425000064600BF00BF94F8360008282DD2DFE8DC
:1042600000F004090E10080A0F11204601F028F989
:104270002EE02DE000BF204602F046F828E000BF07
:1042800000BF00BF204602F03FF894F83400082831
:1042900010D2DFE800F004070508090A0B0600BF8A
:1042A00000BF08E000BF00BF00BF00BF204600F015
:1042B00073FF00E000BF00BF0AE000BF00BF304650
:1042C000FBF786FF00BF00BF46F62D602880A2E7FF
:1042D00000BF04F1640000F067FE204600F024F8FF
:1042E000204601F07BFC0F480088401E0D490880E5
:1042F000204601F0A5FCFF2084F8360000BF00BF77
:104300003046FBF765FF00BF00BF00202880FFF7A5
:10431000E5FA00BF7FE700006000002054C30020E2
:10432000EC000020C800002010B5044603480068D7
:1043300018B1204601490968884710BD4400002093
:1043400070B504460D46002615480078002803DDA8
:1043500047F25510288070BD00BF00BFFBF734FF47
:10436000064600BF00BF1CB10E48006884420AD157
:1043700000BF00BF3046FBF72BFF00BF00BF47F276
:1043800057102880E7E700BF00BF3046FBF720FF4B
:1043900000BF00BF2946204601F0CAFC00BFDAE793
:1043A00060000020EC00002010B5044603480068BF
:1043B00018B1204601490968884710BD480000200F
:1043C0002DE9F04780460E4614461D464FF0000981
:1043D0006F480078002805DD46F2AE1028800020E6
:1043E000BDE8F0871EB1B6F5004F02D100E000BF76
:1043F00004E045F6256028800020F1E700BF0CB1FD
:104400000020206000BF00BFFBF7DEFE814600BF3A
:1044100000BF60480068406CA8B35E480068406C0C
:10442000401E5C49096848645A480068476C1CB1E2
:1044300058480068006C2060FDF712FF5549096874
:10444000096C401A53490968C1F8A4005148006832
:10445000D0F8A8004F490968D1F8A410884207D2C3
:104460004C480068D0F8A4004A490968C1F8A8007F
:1044700000BF00BF4846FBF7ABFE00BF00BF0020F7
:1044800028803846ACE7FFE716F4004F0BD000BF9A
:1044900000BF4846FBF79CFE00BF00BF46F2B010CD
:1044A000288000209CE73C48007800280BDD00BFF6
:1044B00000BF4846FBF78CFE00BF00BF46F66350C6
:1044C000288000208CE7434607220021084600F0A0
:1044D000A1FD00BF00BF4846FBF77AFE00BF00BF4A
:1044E000FFF7FCF900BF00BFFBF76EFE814600BF7F
:1044F00000BF2848006890F8350020B1012826D078
:10450000032834D12CE0FCB122480068006C206004
:10451000FDF7A6FE1F490968096C401A1D49096884
:10452000C1F8A4001B480068D0F8A8001949096820
:10453000D1F8A410884207D216480068D0F8A40029
:1045400014490968C1F8A8000020288013E01CB1B4
:1045500010480068006C206046F2A91028800AE02C
:104560000CB10020206047F2D920288003E046F6F5
:104570002E60288000BF00BF06480068476C00BF5F
:1045800000BF4846FBF724FE00BF00BF384627E7C0
:1045900060000020EC000020940000202DE9F04194
:1045A00006460D4614461DB1B5F5004F02D100E098
:1045B00000BF05E045F6256020800020BDE8F081C1
:1045C00000BFFDF74DFE8046234642462946304651
:1045D00001F03AFC07463846F0E700002DE9F047C5
:1045E00005460E4617461C464FF0000A2E48007836
:1045F000002804DD47F259102080BDE8F0871EB97D
:1046000046F2D5202080F8E71FB946F2D520208059
:10461000F3E700BF00BFFBF7D7FD824600BF00BF36
:104620000DB922480568286868B900BF00BF504628
:10463000FBF7CEFD00BF00BF00203060386047F2BE
:1046400052102080D9E7A88F10F0010F0DD100BFC4
:1046500000BF5046FBF7BCFD00BF00BF002030602C
:10466000386047F254102080C7E700BF00BF5046B3
:10467000FBF7AEFD00BF00BF4FF00008D5F8249057
:1046800003E009F1040908F10108D9F80000002845
:10469000F7D0C6F80080A86BA0EB080038600020B7
:1046A000208000BFA9E7000060000020EC0000208F
:1046B000F0B50446DDE9055C02EB850020F007005B
:1046C0004FF08077061F30463760061F3046346053
:1046D000234F061F304637604FF01237061F304613
:1046E00037604FF00337061F304637604FF0023710
:1046F000061F30463760061F30463360061F3046BF
:1047000031604FF01137061F304637604FF01037D9
:10471000061F304637604FF00937061F30463760B6
:104720004FF00837061F304637604FF00737061F37
:10473000304637604FF00637061F304637604FF07F
:104740000537061F304637604FF00437061F3046E6
:1047500037606FF00207061F30463760F0BD00007B
:10476000315E000870B505460C460A4800780028FE
:1047700003DD47F25D10208070BD0748854203D1FC
:1047800047F25B102080F7E72146284601F03EFC07
:1047900000BFF1E76000002054C3002010B51D48A1
:1047A000006810B11B4800688047FDF759FD0446BA
:1047B0001948006819490968884215D016480068E8
:1047C000D0F89800201A14490968C1F894001248DA
:1047D0000068D0F89C0010490968D1F8941008448A
:1047E0000D490968C1F89C000C480068C0F8984061
:1047F00009480068D0F8B40009490968884205D220
:104800000748006804490968C1F8B4000020044959
:10481000086010BD54000020EC000020F0000020D3
:10482000900000202DE9F04105460E461446002771
:104830002A480078002804DD47F275202080BDE872
:10484000F08127480078002803DD46F66350208079
:10485000F5E736B1022E05D0042E0AD0082E09D174
:1048600001E000BF00BF1DB947F27E202080E6E7CF
:1048700004E003E045F625602080E0E700BF00BFCC
:1048800000BFFBF7A1FC074600BF00BF0120154990
:10489000096881F8360023463246294611480068E7
:1048A00001F054FC208838B100BF00BF3846FBF748
:1048B0008FFC00BF00BFC2E70A48006800F000FE9E
:1048C00000BF00BF3846FBF783FC00BF00BFFFF707
:1048D00005F80020208000BFB1E700006000002044
:1048E00094000020EC0000202DE9FF5F05460E46F5
:1048F00017469846DDE90EA4002000905D48007838
:10490000002804DD47F275202080BDE8FF9F5A484B
:104910000078002803DD46F663502080F5E70AF0B2
:104920000E0BBBF1000F09D0BBF1020F07D0BBF19A
:10493000040F10D0BBF1080F0ED101E000BF00BF83
:10494000B8F1000F06D12FB926B91DB947F27E2064
:104950002080DAE704E003E045F625602080D4E714
:1049600000BF3AF01E0001D0012000E000200390BB
:104970000398012803D145F625602080C5E7CAF3D6
:10498000001002900298012818D0B8F57A7F03D35E
:1049900047F27B202080B8E73B2F03DD47F27A20E7
:1049A0002080B2E73B2E03DD47F279202080ACE780
:1049B000632D12DD47F278202080A6E742F20F70C7
:1049C000864203DD47F2792020809EE7B5F57A7FA5
:1049D00003DB47F27820208097E72848D0F8009042
:1049E0004FF4FA70B0FBF9F0404400FB09F04FF4CB
:1049F0007A71B0FBF1F14FF461606843C6EB0612C7
:104A000000EB8200384400FB09100190019860B36C
:104A100000BF00BFFBF7D8FB009000BF00BF012024
:104A20001749096881F8360023465A461448019907
:104A3000006801F08BFB208838B100BF00BF0098F0
:104A4000FBF7C6FB00BF00BF5FE70D48006800F042
:104A500037FD00BF00BF0098FBF7BAFB00BF00BFE7
:104A6000FEF73CFF0020208002E047F27E202080FD
:104A700000BF4AE76000002094000020F01B0108FE
:104A8000EC00002070B50446002600BF00BFFBF715
:104A90009BFB064600BF00BF0648056800BF00BF7D
:104AA0003046FBF795FB00BF00BF00202080284662
:104AB00070BD0000CC00002070B504460D460026F5
:104AC00000BF00BFFBF780FB064600BF00BF0648E3
:104AD000046000BF00BF3046FBF77AFB00BF00BF99
:104AE0000020288070BD0000CC00002008B500F038
:104AF0002BF86A4600210E48FFF750FD0D49097852
:104B000001EB41010C4A02EB810000F033FD0B4840
:104B10000068401E094908600846006838B908481E
:104B2000006808606A4600210648FFF737FD08BDA7
:104B3000E8C700207A00002024C40020E8000020FC
:104B4000E4000020ACC8002010B50348006810B194
:104B500001480068804710BD580000202DE9F0474B
:104B60002DED028B0446884616461F46DDF8289038
:104B70009DED0B8ADDED0C8A0D9D4FF0000A2A4851
:104B80000078002806DD47F243302880BDEC028B18
:104B9000BDE8F0871CB945F6C3502880F6E7B9F1A7
:104BA000010F08D0B9F1020F0BD11FB947F2403005
:104BB0002880EBE709E01EB947F23F302880E5E79F
:104BC00003E045F625602880E0E700BF00BF00BF96
:104BD000FBF7FAFA824600BF00BF012084F82A00E2
:104BE00012482060C4F8048026620020A061E061C1
:104BF0006762A4F8289084ED028AC4ED038A2061DC
:104C00006061204601F0F6FC09480088401C084914
:104C1000088000BF00BF5046FBF7DAFA00BF00BFB4
:104C20000020288000BFB1E760000020544D5220D2
:104C3000D800002010B5002400BF00BFFBF7C4FA65
:104C4000044600BF00BF08480078401C06490870B1
:104C500000BF00BF2046FBF7BBFA00BF00BFFFF755
:104C600045FFFEF7CDFD10BD6000002001464A1E45
:104C70004FF0E0235A61084A106820F07F4000BFDF
:104C800010601A46126942F005021A611A4612694A
:104C900042F002021A61704720ED00E0244A2549E3
:104CA000254A264A2649274A2748284A284A294A7F
:104CB000294A2A482A482B4A2B482C4A2C482D4A54
:104CC0002D482E482E482F482F4A304A304A314826
:104CD000314A324A324833483348344834483548F8
:104CE0003548364A364A374A374A384838483948C4
:104CF000394A3A4A3A4A3B483B483C483C493D4895
:104D00003D4A3E4A3E4A3F4A3F4A404A404A41485D
:104D1000414A424A42484348434A444A4448454A31
:104D2000454A46484648474800BF00BF00BF704755
:104D3000341C01089C1D0108351C0108361C0108A3
:104D4000381C01083C1C0108401C01083D1C0108DE
:104D5000681C0108691C01086A1C01086C1C010818
:104D60006E1C0108721C0108741C0108941C0108C7
:104D7000961C0108981C01089A1C01089C1C01083B
:104D80009E1C0108A01C0108CC1C0108CD1C0108B8
:104D9000CE1C0108D01C0108D21C0108D31C01083C
:104DA000D41C0108D61C0108D81C0108DA1C010813
:104DB000DC1C0108DE1C0108E01C0108101D0108B4
:104DC000111D0108121D0108131D0108141D010801
:104DD000161D0108181D0108401D0108411D01088C
:104DE000421D0108431D0108441D0108461D01081C
:104DF000481D01084C1D01084D1D01084E1D0108EC
:104E00004F1D0108501D0108511D0108521D0108C8
:104E1000531D0108541D0108561D0108571D0108A6
:104E2000581D01085A1D01085C1D01085D1D01087F
:104E3000601D0108941D0108951D0108961D0108BB
:104E4000981D01089A1D01080021034A1160034AB8
:104E5000118001807047000064000020680000207D
:104E6000002400BF19E000BF00BFFBF7ADF9044606
:104E700000BF00BF09480068401C08490860084896
:104E80000068401C0649086000BF00BF2046FBF7D1
:104E90009FF900BF00BFFEF7BFFBE4E75C00002006
:104EA000AC00002010B58AB0044600200E4908600E
:104EB0000B2000210591CDE90704069108460B4916
:104EC00009680B4A12680B4B1B68CDE90132CDE92A
:104ED00003103F200023084A08A100900C48FFF768
:104EE0009BF80AB010BD00005C000020981B010870
:104EF000941B0108901B0108614E000875432F4F59
:104F0000532D4949492049646C65205461736B00F5
:104F100054C300200021034A1160034A118001801C
:104F2000704700006C0000207000002070B5014642
:104F30001A4D2D681DB945F21E750D8070BD184DB6
:104F40002D881DB945F21D750D80F7E7134D2868B2
:104F50002A681032124D2D886D1EACB2002308E075
:104F60000260002545600581C560103010325D1C6F
:104F7000ABB2A342F4DB0025056045600581C56046
:104F8000064D2D68074E3560054D2D88B5800025EE
:104F9000F58035810D8000BFD0E70000D01B0108EF
:104FA000C81B010818C4002010B5014648894B8968
:104FB000002B17DD0A680C4B1B6813600A4C4B680A
:104FC00023602346DB884C891B1B074CE380234668
:104FD0009B884C892344044CA38000234B818B8104
:104FE0000B604B6010BD000018C40020018100223E
:104FF0004281828102604260704700000021034AC2
:105000001160034A11800180704700007400002085
:10501000780000202DE9F04105460C4616469846DA
:105020001548006880F8346000201349096881F849
:10503000350041461048006800F09CFD6CB104F159
:105040000807EC60012229460B48006800F016F8BA
:105050002946384600F06DF806E000200649096848
:10506000C88705490968086303480168204600F0BD
:1050700019F8BDE8F0810000EC00002010B5C287EF
:10508000016300230AE000244C600C600C614C6159
:105090000C83CC61886020315C1CA3B29342F2DBAC
:1050A00010BD000030B560B1D0F804C0C1F8C0C078
:1050B00000F1080422689368D3F820C0C0F81CC02F
:1050C00013E091F83450022D02D0072D08D103E0EF
:1050D00006A5C1F8C05007E006A5C1F8C05003E01E
:1050E00007A5C1F8C05000BF00BF30BD5461736B4D
:1050F000205100005461736B2053656D0000000067
:105100002000000030B507A5C1F8C05000F1080428
:1051100022681AB193681D6AC56101E001A5C561E5
:1051200030BD0000200000000021016041600181CD
:105130007047F0B58E6896F8375007893FB9012758
:10514000078100274F600F600160416023E00789FD
:105150007F1C0781026806E0946894F83770AF42BC
:1051600000DD02E05268002AF6D100BF32B9002704
:105170004F6043680B60596041600CE017682FB9BD
:10518000116000270F604A60016004E013680B6043
:105190004A6059601160F0BD2DE9F0410446256B6D
:1051A000E68F0AE0D5F80C8008F108072946384652
:1051B00000F00AF82035701E86B2002EF2DC0020C6
:1051C000E0872063BDE8F08110B50489012C03D18C
:1051D00000240460446011E00C6824B94A6800248B
:1051E000146002600AE04C6824B90B6800245C601B
:1051F000436003E00B684A685A6013600489641EC8
:10520000048100244C600C6010BDF0B52DED028BC4
:1052100081B005460C4616461F469DED088A94F857
:105220003600082857D2DFE800F004050809060711
:105230002E2F00BF00BF00BF4EE000BF94F8340027
:10524000032808D18DED008A3B4632462146284688
:1052500000F047F804E0E665A4F8607084ED108A79
:1052600035B12046FFF798FF21462846FFF74AFF51
:10527000204600F04FFD002004F13404A07060705F
:1052800004F8340928E000BF94F83400032808D15A
:105290008DED008A3B4632462146284600F021F833
:1052A00004E0E665A4F8607084ED108A204601F001
:1052B0002BF835B12046FFF76FFF21462846FFF750
:1052C00021FF042004F13404A0704FF0000060704E
:1052D00004F8340900E000BF00BF01B0BDEC028B50
:1052E000F0BD70B504469DED040A086BCD8F0BE050
:1052F000C668A64205D104614261038380ED070AB6
:1053000004E020306E1EB5B2002DF1DC00BF70BD90
:1053100070B50025074C03E005F12000C5B2241D3F
:1053200020680028F8D02068FAF759FF2844C5B251
:10533000284670BD38000020002004E00021034A08
:1053400042F82010401C0228F8D370473800002093
:1053500030B5420900F01F030121C3F11F04A14031
:10536000034C54F822400C43014D45F8224030BD17
:105370003800002030B5420900F01F030121C3F1BD
:105380001F04A140034C54F822408C43014D45F8C2
:10539000224030BD380000200021034A1160034A3A
:1053A00011800180704700008000002084000020F0
:1053B00000210AE001EB4102054B03EB82000022D1
:1053C0000281026042604A1CD1B24029F2D3704788
:1053D00024C4002010B5044694F83700FFF7B8FF46
:1053E00094F8370005490978884203D1204600F037
:1053F00027F802E0204600F003F810BD7A000020F4
:1054000010B590F8373003EB43030C4C04EB8301E9
:105410000B893BB901230B810023C3600361086042
:10542000486009E00B895B1C0B810B68C36000239B
:1054300003610A681061086010BD000024C40020E8
:1054400010B590F8373003EB43030B4C04EB8301AA
:105450000B893BB901230B810023C3600361086002
:10546000486008E00B895B1C0B810023C3604A681D
:105470000261D060486010BD24C4002010B5014610
:105480000C8924B1012C03D0022C0CD101E000BF07
:1054900014E008684A6802610024C4601461D060A6
:1054A0000A6048600AE008684A68C36800241C6112
:1054B000C4600261D0600B60486000BF00BF10BDD7
:1054C0002DE9F041054695F8370000EB4000124900
:1054D00001EB80042F69EE6887B946B9002020816E
:1054E0002060606095F83700FFF744FF0EE02089E8
:1054F000401E208100203061266007E02089401E88
:105500002081FE600EB9676000E0376100202861ED
:10551000E860BDE8F081000024C4002010B5044814
:105520000078012803D1FCF79BFE0249086010BDFA
:10553000940000208800002010B50A48007880B947
:10554000FCF78EFE08490968441A08480068A04222
:1055500001D20648046006480068A04201D204480F
:10556000046010BD94000020880000208C00002002
:105570009000002070B5054600262E4800780128CE
:1055800000D070BD00BF00BFFAF71EFE064600BF88
:1055900000BF2C683CB900BF00BF3046FAF718FEC8
:1055A00000BF00BFEDE72448844207D100BF00BF21
:1055B0003046FAF70DFE00BF00BFE2E7A06D10B164
:1055C000A06D401EA065A06D38B100BF00BF304681
:1055D000FAF7FEFD00BF00BFD3E72889022807DAEB
:1055E00000BF00BF3046FAF7F3FD00BF00BFC8E7B9
:1055F00012480078002807DD00BF00BF3046FAF7E8
:10560000E7FD00BF00BFBCE72846FFF737FF2C6867
:10561000606D18B90A480068A06501E0606DA0657A
:1056200000BF00BF3046FAF7D3FD00BF00BF00BF88
:10563000A7E700009C00002054C300209400002035
:105640009800002009A1C161002141610849096851
:1056500011B90021816105E00549096881610449AA
:105660000968486102490860704700002000000096
:10567000A00000200021034A1160034A118001802C
:1056800070470000A0000020A40000202DE9F04F8A
:105690002DED028B83B00446884691461D460020BE
:1056A000019000BF00BFFAF78FFD019000BF00BF5F
:1056B00004F108073889002851D10420012804D0BA
:1056C000022816D0042836D125E0206AFF280FD101
:1056D00000BF00BF0198FAF77BFD00BF00BF46F690
:1056E000C5502880002003B0BDEC028BBDE8F08FD0
:1056F00022E0206AA0F57F41FF390BD100BF00BF37
:105700000198FAF765FD00BF00BF46F6C550288036
:105710000020E8E710E0206A401C0BD100BF00BF6A
:105720000198FAF755FD00BF00BF46F6C550288026
:105730000020D8E700E000BF00BF206A401C2062C4
:10574000D4F820A0C4F8249000BF00BF0198FAF755
:105750003FFD00BF00BF002028805046C3E718F47B
:10576000007F01D03E8900E00126D7F800B010E0AC
:10577000DBF8080002909BED018A00231A46CDF861
:10578000009020460299FFF740FD18EE10BA701EF7
:1057900086B2002EECD1D4F820A000BF00BF019843
:1057A000FAF716FD00BF00BF18F4004F01D1FEF755
:1057B00095F800202880504695E7000086B000202C
:1057C000009000BF06E0A9490968480001AA00212D
:1057D000FFF728F8A64800780128F4D101A8FEF7C1
:1057E00003FB0027A3480068A0490968884205D93F
:1057F000A04800689D490968B0FBF1F727B99D48AA
:1058000000680A21B0FBF1F72EE1FCF729FD804684
:1058100000BF00BFFAF7D8FC009000BF00BF964859
:1058200001689648016000209349086000BF00BFEE
:105830000098FAF7CDFC00BF00BF914800688F497F
:105840000968884248D98E4800688E49884205D246
:1058500042F2107003900120029023E08848006813
:105860008949884205D24FF47A7003900A20029049
:1058700018E0834800688549884203D26420039079
:1058800002900FE07E4800688149884205D20A20D4
:1058900003904FF47A70029004E00120039042F2EA
:1058A00010700290764800680299B0FBF1FA7349D3
:1058B000039809684843B0FBFAF042F21071081AE5
:1058C00074490880744800880988884208DA714859
:1058D00000887149088003E042F210706D49088029
:1058E000FEF790FB002500BF00BFFAF76DFC0090AB
:1058F00000BF00BF6948046800BF00BF0098FAF706
:1059000067FC00BF00BF26E000BF00BFFAF75CFCE9
:10591000009000BF00BF54F89C0F6060002044F866
:105920009C0900BF00BF0098FAF752FC00BF00BFFF
:10593000D4F8A000054400BF00BFFAF745FC009072
:1059400000BF00BFD4F8BC4000BF00BF0098FAF70A
:105950003FFC00BF00BF002CD6D145B3494885426B
:1059600005D242F2107005904FF0010B1BE0464843
:10597000854205D24FF47A7005904FF00A0B12E081
:105980004248854203D26420059083460BE040489C
:10599000854204D20A2005904FF47A7B03E001206F
:1059A000059042F2107BB5FBFBF0049003E0002071
:1059B00005900120049000BF00BFFAF705FC00909D
:1059C00000BF00BF3548046800BF00BF0098FAF769
:1059D000FFFB00BF00BF2BE0D4F8A00005994843AF
:1059E0000499B0FBF1F086B242F21070864200D901
:1059F0000646A4F88C60B4F88E00B04201DAA4F830
:105A00008E6001AB04F1AC02111D2046FEF7E6FDED
:105A100000BF00BFFAF7D8FB009000BF00BFD4F86A
:105A2000BC4000BF00BF0098FAF7D2FB00BF00BF28
:105A3000002CD1D11A480078012805D1002018493E
:105A4000087001A8FEF7D0F9FCF70AFCA0EB0809E2
:105A500014480068484502D21248C0F8009001AAD4
:105A600000213846FEF7DEFECFE60000D81B010815
:105A7000B8000020F01B0108AC000020B40000209A
:105A8000B0000020801A060000093D00005A6202A2
:105A90000084D717A8000020AA000020C40000201E
:105AA000A6000020BC00002010B58AB004460020EB
:105AB0001F4908601F4908601F4908601F49087096
:105AC0001F4908701F48006820B946F62B602080E7
:105AD0000AB010BD1C4800681C490968884203D2FE
