:020000040800F2
:1000000080EB002001000208F9630208934B02080C
:100010006D5B02088D2302087DCE020800000000FF
:10002000000000000000000000000000A9BE02085F
:10003000C92A020800000000F30B0208C17C020874
:100040001B00020869A102081B0002081B0002082D
:100050001B0002081B0002081B0002081B0002080C
:100060001B0002081B0002081B0002081B000208FC
:100070001B0002081B0002081B0002081B000208EC
:100080001B0002081B0002081B0002081B000208DC
:100090001B0002081B0002081B0002081B000208CC
:1000A0001B00020841C4020889C302081B000208A1
:1000B0001B0002081B0002081B0002081B000208AC
:1000C0001B0002081B0002081B000208ADBC02084E
:1000D0001DBD0208D5C90208E5C90208F5C9020814
:1000E0001B0002081B0002081B0002081B0002087C
:1000F0001B0002081B0002081B0002081B0002086C
:100100001B0002086DAC02081B0002081B0002085D
:100110001B0002081B0002081B0002081B0002084B
:100120001B0002081B0002081B00020845280208E9
:100130001B0002081B0002081B0002081B0002082B
:100140001B0002081B0002081B0002081B0002081B
:100150001B0002081B0002081B0002081DCA02083F
:100160001B0002081B0002081B0002081B000208FB
:100170001B0002081B0002081B0002081B000208EB
:100180001B0002081B000208DFF80CD000F006F884
:10019000004800472D3A030880EB0020064C074D2D
:1001A00006E0E06840F0010394E807009847103447
:1001B000AC42F6D3FFF7ECFFE001000800020008B4
:1001C00002E008C8121F08C1002AFAD17047704720
:1001D000002001E001C1121F002AFBD1704700007E
:1001E0000002000800000020F4020000600B02087A
:1001F00024020008F40200208CE80000D00100086E
:1002000001242D010203040405D4060708096A022B
:10021000010912FC018F32A763E70303FF0F2701D7
:0402200037000000A3
:020000040802F0
:100000000648804706480047FEE7FEE7FEE7FEE7B2
:10001000FEE7FEE7FEE7FEE7FEE7FEE785BF020834
:100020008901000872B6704762B67047EFF310801E
:1000300072B6704780F31088704730BF704720BF9A
:100040007047B0FA80F0704790FAA0F0B0FA80F0F4
:10005000704790FAA0F07047002800D1704700293F
:1000600000D17047002A00D170472DE9F81F00F039
:10007000030301F00304A34211D1C3F1040303F00D
:100080000303012B1DD3012A00D2F2E011F8014B2A
:1000900000F8014BA3F10103A2F10102F1E700F026
:1000A000010301F00104A34200D094E0012B44D3EA
:1000B00011F8014B00F8014BA3F10103A2F1010279
:1000C000F4E7B2F5B47F26D3B1E8F81FA0E8F81F33
:1000D000B1E8F81FA0E8F81FB1E8F81FA0E8F81F82
:1000E000B1E8F81FA0E8F81FB1E8F81FA0E8F81F72
:1000F000B1E8F81FA0E8F81FB1E8F81FA0E8F81F62
:10010000B1E8F81FA0E8F81FB1E8F81FA0E8F81F51
:10011000A2F5B472D5E7282A06D3B1E8F81FA0E803
:10012000F81FA2F12802F6E7042A06D351F8043B8F
:1001300040F8043BA2F10402F6E7202A42D331F84A
:10014000023B20F8023B31F8023B20F8023B31F839
:10015000023B20F8023B31F8023B20F8023B31F829
:10016000023B20F8023B31F8023B20F8023B31F819
:10017000023B20F8023B31F8023B20F8023B31F809
:10018000023B20F8023B31F8023B20F8023B31F8F9
:10019000023B20F8023B31F8023B20F8023B31F8E9
:1001A000023B20F8023B31F8023B20F8023B31F8D9
:1001B000023B20F8023B31F8023B20F8023BA2F15F
:1001C0002002BAE7022A06D331F8023B20F8023BAC
:1001D000A2F10202F6E7102A42D311F8013B00F81F
:1001E000013B11F8013B00F8013B11F8013B00F81D
:1001F000013B11F8013B00F8013B11F8013B00F80D
:10020000013B11F8013B00F8013B11F8013B00F8FC
:10021000013B11F8013B00F8013B11F8013B00F8EC
:10022000013B11F8013B00F8013B11F8013B00F8DC
:10023000013B11F8013B00F8013B11F8013B00F8CC
:10024000013B11F8013B00F8013B11F8013B00F8BC
:10025000013B11F8013B00F8013BA2F11002BAE7A3
:10026000012A06D311F8013B00F8013BA2F101027B
:10027000F6E7BDE8F81F70472DE9F05F054600205E
:1002800092469B4688460646814640241BE0284607
:1002900041464746224600F020F852465B46801A07
:1002A000994110D310461946224600F0B9FA2D1A8A
:1002B00067EB01084F4622460120002100F0B0FA0A
:1002C00017EB00094E41201EA4F10104DFDC484673
:1002D00031462A464346BDE8F09F202A04DB203AF7
:1002E00021FA02F00021704721FA02F3D040C2F156
:1002F00020029140084319467047000038B5D0E904
:100300000221491E01EB410102EBC1014268C1EB30
:10031000011102EB81010268C1EB011102EB8103C3
:10032000D0E9042101EB410102EB8101A1F55271F9
:10033000302491FBF4F2154D04FB1211554303EBED
:10034000C51300931A2902DB114A1A4400920C23A8
:1003500091FBF3F20F4C009D544303FB121105EB8C
:10036000C4140D4A009408E0491E40F2A324535CD3
:100370006343009C04EBC31300930029F4DC0146A3
:10038000684600F06FFA009838BD00003F0C0F007F
:100390008051010067C20300988D030840EA010301
:1003A0009B0703D009E008C9121F08C0042AFAD22B
:1003B00003E011F8013B00F8013B521EF9D27047EF
:1003C000D2B201E000F8012B491EFBD27047002297
:1003D000F6E710B504460846114602462046FFF7E8
:1003E000EFFF204610BD30B50EE003460A4601E09F
:1003F0005B1C521C1C781578AC4201D1002CF7D143
:1004000015F0FF0F04D0401C0278002AEDD1002027
:1004100030BD2DE9FE4F074681EA0300C00F0E46AE
:10042000019021F0004123F00044B81AA14105D207
:100430003846314617461E460B46024623F000401A
:10044000104304D13846314603B0BDE8F08F350D76
:10045000C5F30A00C3F30A510290401A00904028E5
:1004600068DAC3F3130040F4801B0198924620B170
:100470000023D2EB030A63EB0B0B00985946C0F143
:100480004002504600F0CCF980460C465046594692
:10049000009A00F0D4F9C0197141EF1785EA1153A1
:1004A0003B4340D0019A52B3009A012A11DC00224A
:1004B000801A4FF0004361EB055103EA05538018A1
:1004C000CDE9002341F580114246234600F04DFA64
:1004D000BAE72E050025401B61EB0601401941F5E6
:1004E0008012001852412818A6F5001343EB0201B0
:1004F00040EAD470294318EB0808644113E064080B
:100500004FEA38084FF0000244EAC0744FEA05533E
:10051000801A61EB0301801841F5801149084FEA08
:100520003000801859414246234603B0BDE8F04FE1
:1005300000F00EBA0198012240000023D0EB020225
:1005400063EBE07301984FEAE074381A66EB04013C
:10055000EBE783F000435CE781F0004159E72DE9C8
:10056000FE4F81EA030421F0004504F0004423F02B
:1005700000414FF0000A009450EA050302D052EA0D
:10058000010304D10020014603B0BDE8F08FC1F3A0
:100590000A53C5F30A541C44A0FB02B3C5F3130568
:1005A00045F4801CC1F3130141F480180CFB0233A5
:1005B00000FB083EA4F2F334810A930A41EA8C510D
:1005C00043EA88530194A1FB03474FEA9C2505FBAE
:1005D00003734FEA982601FB06373D05260545EAD9
:1005E0001435BBEB06016EEB0503850E920E45EA52
:1005F0008C1542EA8812A5FB0206261E67EB00074F
:100600000C0D44EA0334A41947EB1350C1F313064D
:100610004FF0000319464FEA033343EA165343EA07
:100620000403019CE5FB0201A4F10C040294009C6C
:100630004FEA0632CDE900A400F097F9A4E72DE9CE
:10064000F04D81EA030404F0004B21F0004714460A
:100650004FF0000A23F0004150EA070220D054EA8C
:1006600001021DD0C1F30A550246C1F31300C7F3BE
:100670000A56C7F3130340F4801143F48013A6EB2A
:100680000508101BD64608F2FD3873EB010002D3B3
:1006900008F1010801E092185B41B8F1000F03DA9C
:1006A00000200146BDE8F08D00204FF4801506467D
:1006B00007460EE0B2EB040C73EB010C04D3121BE3
:1006C000064363EB01032F436D084FEA3000921895
:1006D0005B4150EA050CEDD152EA030012D082EAE8
:1006E000040083EA0105284303D100224FF00043B0
:1006F00008E0101B8B4102D20122002302E06FF0C0
:10070000010253101AEB060047EB085110EB0A00E8
:1007100041EB0B01BDE8F04D00F01AB90EB5C10F69
:1007200080EAE0700844CA07002140F233438DE8B4
:100730000E000A460B4600F018F903B000BD0EB5D6
:1007400040F2334102910021CDE900110A460B46E7
:1007500000F00BF903B000BD70B5C1F30A5201F00F
:1007600000450024C1F3130140F2FF3341F480112E
:100770009A4201DA002070BD40F233439A42A2F25D
:10078000334203DC5242FFF7A8FD00E090402C43C7
:10079000F1D0404270BD000030B5002904DB4FF0BD
:1007A0000044404264EB0101002B04DB4FF00044A5
:1007B000524264EB03038B4208BF824230BD00000B
:1007C00030B5002904DB4FF00044404264EB0101E6
:1007D000002B04DB4FF00044524264EB03039942C8
:1007E00008BF904230BD000001F0004230B421F05B
:1007F000004150EA010306D00B0DA3F56073C1F36D
:100800001301002B02DC30BC00207047440F44EA87
:10081000C104C100A01830BC00EBC35000F062B8A6
:10082000202A04DB203A00FA02F1002070479140B0
:10083000C2F1200320FA03F3194390407047202AA5
:1008400006DBCB17203A41FA02F043EAE071704729
:1008500041FA02F3D040C2F1200291400843194608
:100860007047000030B50246084613683C22B3FBCF
:10087000F2F102FB11330360B1FBF2F302FB13113F
:1008800018244160B3FBF4F104FB113282600A1DAD
:100890000723B2FBF3F403FB1422890001F66C3149
:1008A00040F2B555B1FBF5F405FB1411826104F17A
:1008B000440289084261C1613B2902D3920700D0FA
:1008C000491C0022064C13460261E25C8A4203D8AE
:1008D000891A5B1C0361F8E7491CC16030BD000048
:1008E000308F03080029A8BF7047401C490008BF8B
:1008F00020F00100704710B4B0FA80FC00FA0CF050
:1009000050EA010404BF10BC704749B1CCF1200487
:1009100021FA04F411FA0CF118BF01212143084314
:10092000A3EB0C01CB1D0106000A002BBEBF00206B
:1009300010BC704700EBC35010440029A4BF10BC8A
:100940007047401C490008BF20F0010010BC7047F0
:1009500010B5002B08DA401C41F1000192185B41F0
:100960001A4301D120F0010010BD2DE9F04D92464F
:100970009B4611B1B1FA81F202E0B0FA80F2203266
:100980009046FFF74DFF06460F4640EA0A0041EA4F
:100990000B0152465B46084303D130463946BDE859
:1009A000F08D194652EA010015D0C8F140025046B8
:1009B000FFF793FC04460D46504659464246FFF762
:1009C0002FFF084301D0012000E00020044345EA46
:1009D000E07526432F430A984FEAD625A0EB08007E
:1009E0000A304FEA46534FF0000245EA47554FEAB6
:1009F000D72402D500200146D1E7010550196141F5
:100A0000DDE9084500196941BDE8F04DA0E770B582
:100A100021F0004303430CD0C1F30A540026D4EB69
:100A2000060566EB0603D417AD1AA34102DB0020CE
:100A3000014670BD001C41EB025170BD2DE9F04D27
:100A400000231A461B1A8A4103DB00200146BDE839
:100A5000F08DC1F30A52C1F3130141F480154FF038
:100A6000000BD10702D100186D41521E002604462A
:100A700040F2FF11304601EB620A374680460246DB
:100A800000204FF48011FFF728FC801979413318BA
:100A900047EB0102B4EB030C75EB020C04D3E41A30
:100AA00065EB020506460F46241908F101006D4169
:100AB00080463428E3DDB11947EB0700091BA84144
:100AC00003D24FF0FF32134601E0002213461BEB26
:100AD000060047EB0A51BDE8F04DFFF739BF2DE99D
:100AE000FE4FC3F30A5801F000450024C1F30A5633
:100AF000C3F31303C1F3130143F4801312EB020C8D
:100B0000A64641F480119246009543EB0307A8F1F5
:100B1000010B13E0B0EB0C00B94107D54FF0000812
:100B2000D0EB080085F0004568EB0101BAEB00024C
:100B300073EB0102EED3761E001849415E45F5DAEB
:100B400050EA010204D10099204603B0BDE8F08FBD
:100B5000CDE900E5002213460296FFF706FFF4E711
:100B600070B501EB020410F8015B15F0070301D129
:100B700010F8013B2A1106D110F8012B03E010F800
:100B8000016B01F8016B5B1EF9D12B0705D4002323
:100B9000521E0FD401F8013BFAE710F8013B02F1B5
:100BA0000202A1EB030303E013F8015B01F8015B10
:100BB000521EF9D5A142D6D3002070BD21484FF076
:100BC000FF010170002080F309881F48016881F34C
:100BD00008881E484FF08051016062B6FEE71B484E
:100BE0004FF080510160704718484FF0805101600C
:100BF000704772B6EFF3098050B11EF0100F08BFB6
:100C000020ED108A734620E9F80F11490968086041
:100C100000B5104880475DF804EB0F480F490A788B
:100C200002700B480E490A6802601068B0E8F80FBD
:100C30009E461EF0100F08BFB0EC108A80F30988A2
:100C400062B6704722ED00E0F000002004ED00E005
:100C5000E80000207576020876000020770000206A
:100C6000EC00002010B58AB0002407E09FED3C0B9B
:100C70003D4800EBC40080ED000B641C032CF5DB49
:100C8000002407E09FED360B384800EBC40080EDF0
:100C9000000B641C032CF5DB9FED310B344880ED19
:100CA000000B9FED340B80ED020B9FED340B3548AC
:100CB00080ED000B9FED310B334880ED000B0120E0
:100CC00032490870002032490870324908703249B0
:100CD000086032490860324908609FED320B3348A2
:100CE00080ED000B0020324908703249087032490B
:100CF00008709FED320B334880ED000B9FED320BF7
:100D0000334880ED000B9FED330B344880ED000B32
:100D1000002033490870334908703349087033495B
:100D2000087033490870334908703349087040F23D
:100D3000DF700990032008901C2007900020069087
:100D40000590049004A805A906AA07ABCDE90021E7
:100D5000029008AA09A9294817F036FC0AB010BD6C
:100D6000000000000000000090A8002008A900205A
:100D700050A90020F4FB7CD35E16D33F0000000096
:100D80000000F03FB8020020C0020020A8020020AE
:100D9000A9020020AA020020AC020020B00200201C
:100DA000B402002000000000000000409802002073
:100DB00008020020CC0200200902002061325530D8
:100DC0002AA9333F50020020FA7E6ABC7493783F10
:100DD000680200207B14AE47E17AB43F8002002015
:100DE0006002002078020020900200209102002082
:100DF000930200209502002097020020D8020020D4
:100E000001F0CAFE08F0ACFE642001F08FFA1FE08A
:100E1000002417E0012001F0DBFE012001F086FA3A
:100E2000022001F0D5FE20210A4800F017F8012029
:100E300001F07CFA08F0A2FE1021074800F00EF83D
:100E4000601CC4B2102CE5DB4FF47A7001F06EFA2E
:100E5000DEE70000E0A30020C09A0020F0B50246C3
:100E60000B46002046E000EB400732F8274000EB3D
:100E7000400732F82750002600212BE000EB400706
:100E800002EB870737F81170A74206DD00EB400739
:100E900002EB870737F811C000E0A446644600EB78
:100EA000400702EB870737F81170AF4206DA00EB14
:100EB000400702EB870737F811C000E0AC466546F3
:100EC00000EB400702EB870737F811703744BEB2DA
:100ED0004F1CF9B20529D1DB371B7F1B4FF0030CE8
:100EE00097FBFCF700EB400C02EB8C0CACF80A70A3
:100EF000471CF8B29842B6DBF0BD000010B512A254
:100F00000021144801F0D7F913A20021154801F07F
:100F1000D2F915A20021184801F0CDF917A200213D
:100F20001A4801F0C8F91AA200211D4801F0C3F9BE
:100F30001CA200211F4801F0BEF91FA20021224877
:100F400001F0B9F910BD000053454D5F4750535FA4
:100F500053544F009470002053454D5F54454C5FEF
:100F600053544F00BC70002053454D5F504C4F41CF
:100F7000445F53544F000000E470002053454D5F20
:100F80004359435F494E464F00000000F0A6002041
:100F900053454D5F4D41475F444F545F444D5000B2
:100FA00018A7002053454D5F5049545F464C545F8D
:100FB000434F4D0040A7002053454D5F4154545FBF
:100FC0005354415F43544C0068A700202DED108B13
:100FD000AEB09FEDD30B8DED1A0B9FEDD30BB0EEA2
:100FE00040EAF0EE60EA9FEDD20BB0EE40FAF0EE90
:100FF00060FA9FEDD10B8DED180B90E10021D048E8
:1010000001F078F9CF4890ED001BB0EE410AF0EE08
:10101000610A9FEDCD1B53EC112B51EC100BFFF728
:101020009EFA41EC100BB0EE40BAF0EE60BA9FEDC4
:10103000C80B53EC102B51EC1B0BFFF700FB41ECE2
:10104000180BC04890ED021BB0EE410AF0EE610AA9
:101050009FEDBD1B53EC112B51EC100BFFF77FFAEA
:1010600041EC100BB0EE40BAF0EE60BA9FEDB80B59
:1010700053EC102B51EC1B0BFFF7E1FA41EC190B71
:10108000B5480068012806DA03230122B34928A8DD
:1010900012F077FD0DE00320012328AAAF4900904C
:1010A00022A812F0DBFF03230122AC4928A812F08A
:1010B00068FD53EC192BAA4890ED000B51EC100B76
:1010C000FFF74DFA41EC100BB0EE40CAF0EE60CAEB
:1010D000A44890ED000B51EC100B81F0004141EC65
:1010E000100BB0EE40BAF0EE60BA53EC182B51EC96
:1010F0001B0BFFF734FA41EC100BB0EE40DAF0EEC8
:1011000060DA53EC1C2B51EC1D0BFFF722FA41EC7B
:101110001A0B9FED950B8DED100B8DED12AB9FED26
:10112000920B8DED140B01201AAACDE900200323A8
:1011300002468A4902901CA812F0A4FE03211CA8B2
:1011400012F0DEFFB0EE40BAF0EE60BA53EC1B2BAB
:101150009FED870B51EC100BFFF771FA41EC100B70
:101160008DED160B9DED160B53EC102B9DED160B14
:1011700051EC100BFFF7F3F941EC100B8DED160B52
:1011800010AA1CA97C480BF07BFE012016AACDE911
:1011900000200323024678490290084612F072FEAE
:1011A0009DED241BB0EE410AF0EE610A734890ED0C
:1011B000001B53EC112B51EC100BFFF7CAF941EC5B
:1011C000100BB0EE40BAF0EE60BA6D4890ED000B37
:1011D00051EC100B81F0004141EC100BB0EE40CA15
:1011E000F0EE60CA53EC1B2B51EC1C0BFFF7B7F968
:1011F00041EC100B604880ED020B002432E05E48A9
:1012000000EBC40090ED001BB0EE410AF0EE610A65
:101210009FED5C1B53EC112B51EC100BFFF7BCFA4C
:1012200006D29FED580B544800EBC40080ED000B34
:10123000514800EBC40090ED001BB0EE410AF0EE07
:10124000610A9FED521B53EC112B51EC100BFFF771
:10125000B7FA06D29FED4F0B474800EBC40080ED74
:10126000000B641C032CCADB434890ED001BB0EE5E
:10127000410AF0EE610A53EC1E2B51EC100BFFF704
:101280006EF941EC100B8DED0A0B3B4890ED021B03
:10129000B0EE410AF0EE610A53EC1F2B51EC100B3B
:1012A000FFF75DF941EC100B8DED0C0B324890ED22
:1012B000041BB0EE410AF0EE610A9DED181B53ECE1
:1012C000112B51EC100BFFF74AF941EC100B8DED8F
:1012D0000E0B032301220AA9304812F052FC1E48CB
:1012E0000068401C1C490860002511E02C4800EBF8
:1012F000C40090ED000B04A800EBC40080ED000BCF
:101300009FED190B264800EBC40080ED000B6D1C0F
:10131000032DEBDB04AA23490A4813F027F96DE6F5
:1013200095D626E80B2E113E39183558CD5CDC3F9A
:10133000AF3DAC39AE02DD3F9F910416B960DE3F90
:1013400068A7002020A9002000000000008066405F
:10135000182D4454FB210940B4020020D8A80020D5
:101360006802002050020020000000000000000081
:10137000000000000000F03FF0A80020A0020020C4
:10138000800200209A9999999999C9BF000000009C
:10139000000000409A9999999999C93FC0A70020E7
:1013A00008A9002030A9002000B58BB00AA80321AD
:1013B00000220592CDE906210890012080210C220F
:1013C000B94BCDE90132CDE9031003200023B74A20
:1013D000B7A10090BA4805F08BFD0AA803210022AE
:1013E0000592CDE906210890022080210C22B54B00
:1013F000CDE90132CDE9031004200023B24AB3A1A4
:101400000090B64805F074FD0AA803210022059259
:10141000CDE906210890104680210C22B04BCDE981
:101420000132CDE9031005200023AE4AAEA10090A1
:10143000B14805F05DFD0AA8032100220823CDE98B
:101440000532CDE90710104699013322AB4BCDE9A7
:101450000132CDE9031006200023A94AA9A100907A
:10146000AC4805F045FD0AA8032100220823CDE978
:101470000532CDE90710104680210C22A64BCDE99C
:101480000132CDE9031007200023A44AA4A1009053
:10149000A74805F02DFD0AA8032100220823CDE965
:1014A0000532CDE90710104680210C22A14BCDE971
:1014B0000132CDE90310082000239F4A9FA100902C
:1014C000A24805F015FD0AA8032100220823CDE952
:1014D0000532CDE90710104680210C229C4BCDE946
:1014E0000132CDE90310092000239A4A9AA1009005
:1014F0009D4805F0FDFC0AA8032100220823CDE940
:101500000532CDE90710104680210C22974BCDE91A
:10151000013200230092CDE90310954A95A19A4823
:1015200005F0E6FC0AA8032100220823CDE90532D4
:10153000CDE90710104680210C22944BCDE90132F1
:10154000CDE9031002200023914A92A10090944813
:1015500005F0CEFC0AA8032100220823CDE90532BC
:10156000CDE90710104680210C228E4BCDE90132C7
:10157000CDE90310022000238B4A8CA100908E48F5
:1015800005F0B6FC0AA8032100220823CDE90532A4
:10159000CDE90710104680210C22884BCDE901329D
:1015A000CDE903100D200023854A86A100908948CB
:1015B00005F09EFC0AA8032100220823CDE905328C
:1015C000CDE90710104680210C22834BCDE9013272
:1015D000CDE903100B200023804A81A100908348AD
:1015E00005F086FC0AA8032100220592CDE9062118
:1015F000089010464FF4806166227D4BCDE90132A0
:10160000CDE90310122000237A4A7BA100907E4886
:1016100005F06EFC0AA8032100220592CDE90621FF
:10162000089010464FF480616622784BCDE9013274
:10163000CDE9031013200023754A76A100907A4863
:1016400005F056FC0AA8032100220592CDE90621E7
:10165000089010464FF480616622744BCDE9013248
:10166000CDE9031014200023714A72A1009076483E
:1016700005F03EFC0AA8032100220592CDE90621CF
:10168000089010464FF480616622704BCDE901321C
:10169000CDE90310162000236D4A6EA10090724818
:1016A00005F026FC0BB000BD180700202D380208FD
:1016B0004750535F53544F5F5441534B0000000059
:1016C00054060020DC090020993702084750535F78
:1016D0005245565F5441534B00000000180900204A
:1016E000A00C0020EDBF020854454C5F53414D5FF4
:1016F0005441534B00000000DC0B0020640F00201D
:101700002DC0020854454C5F53544F5F5441534B16
:1017100000000000A00E0020281800209D9C020858
:10172000504C4F41445F53414D5F5441534B000077
:1017300064170020EC1A00205DA10208504C4F41B4
:10174000445F53544F5F5441534B0000281A00200C
:10175000B01D002081BE020853544F5F55504441D4
:1017600054455F5441534B00EC1C00207420002072
:1017700073BE020853544F5F4D4F4E49544F525F52
:101780005441534B00000000B01F002038230020BC
:10179000452D02084641554C545F5441534B0000BF
:1017A00074220020C0280020E19902084F555450AF
:1017B00055545F5441534B00FC270020842B0020DC
:1017C000010E02084144435F53414D504C455F5464
:1017D00041534B00C02A0020FC25002061C00208B4
:1017E000544553545F5441534B00000038250020AA
:1017F000482E0020451D0208417070205461736B13
:101800002053656E47657400842D00200C3F002036
:101810006D180208417070205461736B204D616730
:10182000446F74446D700000483E0020D04F00208B
:10183000B11A0208417070205461736B20506974B2
:10184000466C74436F6D00000C4F002094600020C4
:10185000CD0F0208417070205461736B2041747485
:1018600053746143746C0000D05F00202DED088B31
:1018700094B040F6B7359FED750BB0EE409AF0EEA0
:10188000609A9FED740BB0EE40AAF0EE60AA9FED57
:10189000730BB0EE40BAF0EE60BAD6E000217148AA
:1018A00000F028FD70480068FEF738FF41EC100B8F
:1018B000B0EE408AF0EE608A9FED6C0B53EC102B7B
:1018C00051EC180BFEF768FF12D20323012269497D
:1018D0000EA812F056F9002407E09FED670B684848
:1018E00000EBC40080ED000B641C032CF5DB67E00B
:1018F000032001230EAA5F49009008A812F0AEFB56
:10190000032301225B490EA812F03BF9002455E0A5
:1019100008A800EBC40003C841EC100B53EC102BDB
:101920009FED581B51EC110BFEF719FE41EC100B0B
:10193000B0EE408AF0EE608A544890ED000B53EC14
:10194000102B51EC180BFEF77AFE41EC100B4C48B3
:1019500000EBC40080ED000B494800EBC40003C855
:1019600041EC100B9FED4A1B53EC112BFEF728FFA7
:1019700007D29FED470B424800EBC40080ED000BFF
:101980001BE03F4800EBC40003C841EC100B9FED87
:10199000421B53EC112BFEF7FFFE07D29FED3E0BCF
:1019A000374800EBC40080ED000B06E09FED320BE2
:1019B000334800EBC40080ED000B641C032CA7DB54
:1019C0002F4803C841EC100B53EC192BFEF7C7FD51
:1019D00041EC100B8DED020B2948C168806841EC89
:1019E000100B53EC1A2BFEF7BAFD41EC100B8DEDEA
:1019F000040B23484169006941EC100B53EC1B2B8D
:101A0000FEF7ADFD41EC100B8DED060B032301221B
:101A100002A9234812F0B5F80323012215492148F1
:101A200012F0AFF82048007878B90F480068401CE1
:101A30000D4908601D480078012806D10846006855
:101A4000A84202DD01201849087027E739183558E7
:101A5000CD5CDC3FAF3DAC39AE02DD3F9F9104165B
:101A6000B960DE3F18A70020AC0200209A9999992E
:101A70009999B93FD8A8002000000000000000009C
:101A8000F0A800200000000080842EC198020020F1
:101A90009A9999999999C93F9A9999999999C9BF88
:101AA000C0A7002000A80020A902002008020020F2
:101AB0002DED0A8BC4B09FED850BB0EE408AF0EEA1
:101AC000608A02E10021834800F014FC01A805F0BF
:101AD00045FF8149086008460068FEF730FE41EC8A
:101AE000100BB0EE40BAF0EE60BA9FED7C0B53ECF9
:101AF000102B51EC1B0BFEF732FD41EC100BB0EE3E
:101B000040AAF0EE60AA9FED770B53EC102B51EC3E
:101B10001A0BFEF794FD41EC100BB0EE409AF0EE7C
:101B2000609A9FED720B53EC102B51EC190BFEF7E2
:101B300086FD41EC100BB0EE40CAF0EE60CA6D4875
:101B400090ED000B53EC102B51EC1C0BFEF761FCDD
:101B500041EC100B684880ED000B684800780128C4
:101B60000CD1002408E0664800EBC40003C8654AB5
:101B700002EBC40203C2641C062CF4DB0623012220
:101B80006049614811F0FDFF5B4932A80FF0C2FDCA
:101B90005C4A32A92CA812F0D5FD2CA928A811F076
:101BA00097F822AA32A91CA803F0B8FF55490AA841
:101BB00004F018F81CAA0AA904A803F0C7FF5348A8
:101BC000C168806841EC100BDDE9060141EC110BA6
:101BD00053EC102BFEF7BDFC41EC100B4C4880ED94
:101BE000000B4A48DDE9041206C00838DDE9061298
:101BF000C0E90212DDE90812C0E90412454A04A94D
:101C000002A811F023FE4448006828B902AA4349FB
:101C1000434812F0BBFA04E002AA4049404812F0DF
:101C200015FB53EC182B9DED020B51EC100BFEF73E
:101C300096FC41EC100B3B4880ED000B0223012287
:101C40003749394811F09DFF374803C841EC100B64
:101C500053EC182BFEF783FC41EC100B324880ED5F
:101C6000000BC168806841EC100B53EC182BFEF799
:101C700076FC41EC100B2C4880ED020B0323012273
:101C800022A92A4811F07DFF032301222149284877
:101C900011F077FF20480068401C1F490860254864
:101CA000007858B9084600681E2807DB0120214942
:101CB0000870002020490870204908601D480078FD
:101CC000012802D11E4800F007FBFBE6F8C1631AA9
:101CD000DCA54C4040A70020E802002000000000E6
:101CE0000000F03F0000000000408F4000000000B6
:101CF0000018F540D8020020E0020020CC020020AD
:101D0000A8A8002060A8002090A7002018A8002004
:101D1000A0020020D8A80020B002002030A9002096
:101D200020A90020E8010020D8A70020E8A7002073
:101D300000A80020AA020020A8020020AC02002077
:101D400068A700202DED088B9EB04FF4B465C8E164
:101D50000021E44800F0CEFAE3480078012810D1D1
:101D60000020E14908700120E04908700020E049A6
:101D70000870E0490870E0490860E0490860E049FF
:101D800008601CA805F0EAFDDE4908600846006806
:101D9000FEF7D5FC41EC100BB0EE409AF0EE609AE5
:101DA0009FEDD90B53EC102B51EC190BFEF7D7FB21
:101DB00041EC100BB0EE40AAF0EE60AA9FEDD40B00
:101DC00053EC102B51EC1A0BFEF739FC41EC100BC5
:101DD000B0EE40BAF0EE60BA9FEDCF0B53EC102B93
:101DE00051EC1B0BFEF72BFC41EC100BB0EE408AC4
:101DF000F0EE608ACA4890ED000B53EC102B51ECCA
:101E0000180BFEF706FB41EC100BC64880ED000BEB
:101E1000C5480078012833D10020C349087001204B
:101E2000C2490870C24806C8C24806C0C24806C8AF
:101E3000C048183006C0C14806C8BE48083006C0B1
:101E4000BF4806C8BB48203006C0BE4806C8B948CF
:101E5000083806C0BC4806C8B648D83800F58070B7
:101E600006C0BA4806C8B348D83800F5847006C022
:101E7000B74806C8AF48103006C00020B549086012
:101E8000B5480078012827D1B44908700020B2492C
:101E90000870002411E0B24800EBC40006C816A880
:101EA00000EBC40006C0AE49E01C01EBC00006C850
:101EB00010A800EBC40006C0641C032CEBDB994B9C
:101EC00010AA16A9A74812F04DFC0120A6490870D7
:101ED0000020A649086093E094480078012842D188
:101EE0009E4908702846FEF719FC41EC100BB0EE35
:101EF000408AF0EE608A8F48083803C841EC100B26
:101F000053EC102B874890ED001B51EC110BFEF7A2
:101F100020FB41EC100BB0EE409AF0EE609A53ECCF
:101F2000182B51EC190BFEF71AFB41EC100B8DED41
:101F30000C0B8848006818B97E48D83814F0F6FAB7
:101F400084480068401C834908600CAB794AD83A41
:101F5000694606A812F09CFD724B6A4606A98448A1
:101F600012F087FC4CE080480078012845D17F487A
:101F7000006838B96B4A7B497E4801F05DFC7D48BA
:101F800014F0D4FA79480068FEF7C8FB41EC100B56
:101F9000B0EE408AF0EE608A774890ED000B53EC8B
:101FA000102B51EC180BFEF7DAFA41EC100B8DED0B
:101FB0000C0B9FED720B53EC102B9DED0C0B51ECA9
:101FC000100BFEF7E9FB14D20120644908700CAB3A
:101FD000684A694606A812F05BFD0EAB6A4606A980
:101FE000634812F046FC61480068401C5F49086085
:101FF00006E000205C49087002E0002057490870A4
:1020000060480078012806D15F4806C85F4806C0CE
:1020100000205C4908705E480078012806D15D48C0
:1020200006C85D4806C00020594908705B48007822
:10203000012806D15A4806C85A4806C00020574908
:10204000087059480078012806D158480078274977
:10205000087000205449087055480078012806D1BE
:1020600054480078224908700020514908705248AD
:102070000078012806D1514800781E4908700020D8
:102080004D4908703548007810B90020184908708B
:1020900001201649087008460078012802D14848F6
:1020A00000F01AF912480078012802D1454800F0E2
:1020B00013F90E480078444908700F4800684349F6
:1020C00008600B480078424908700C480068414994
:1020D00008600848007840490870094800683F498E
:1020E000086035E6F0A6002091020020A80200203A
:1020F000A9020020AA020020AC020020B0020020A9
:10210000B4020020E8020020000000000000F03FC0
:102110000000000000408F40000000000018F54063
:10212000D8020020E0020020090200200A0200205C
:102130001002002038AA00201802002020020020EF
:102140002802002030020020380200204002002037
:1021500048020020C8020020CC0200200802002013
:1021600030A80020A8A80020CD020020D002002026
:1021700060A8002070AA0020980200200000000043
:102180000018E540600200205802002050020020A4
:1021900078020020700200206802002090020020D7
:1021A000880200208002002093020020920200207A
:1021B0009502002094020020970200209602002041
:1021C00018A7002040A70020F0010020F401002003
:1021D000F8010020FC010020000200200402002081
:1021E00008B50DF0F9FC00F0D3F800F0C1F868462E
:1021F00004F0FCFD00F00AF8FEF780FEFFF7D4F8CB
:1022000003E04FF4FA6000F091F8FAE700B585B00A
:1022100004A800210123CDE900310A46CDE90210CE
:1022200010A1144805F006FC04A80021124A01235D
:10223000CDE90032CDE902100B4614220FA113485C
:1022400005F0F8FB04A80021114A0123CDE9003272
:10225000CDE902100B4614220EA1124805F0EAFB4C
:1022600005B000BD455053204F7665722054696D0E
:1022700065720000F4020020F9260208434F4D2049
:102280004F7665722054696D657200002803002046
:1022900065370208475053204F7665722054696DA8
:1022A000657200005C0300201FB5684608F002F864
:1022B000019804B010BDF8B506460C4615466B46AD
:1022C00022462946304604F07BFBBDF8000008B1E9
:1022D0000020F8BD0120FCE738B504466A4600211D
:1022E000204604F081FCBDF8000008B1002038BD94
:1022F0000120FCE77CB505460C464FF47A7060433C
:1023000009490968B0FBF1F601A800231A463146D5
:102310000090284604F094FBBDF8040008B10020AA
:102320007CBD0120FCE700002C8A0308FEB50446B2
:1023300042F21070844200D90446B4F57A7F0BD380
:102340004FF47A70B4FBF0F086B24FF47A70B4FBBD
:10235000F0F100FB114501E0A5B2002602A8002122
:102360002B463246CDE90010084605F029FAFEBD9D
:1023700070B5FFF799FF044603480068B4FBF0F519
:10238000284605F0B9FC70BD2C8A030800BFFEE7A3
:1023900010B500F01FF800F019F810BD10B50024BA
:1023A00000BF00BFFDF742FE044600BF00BF102182
:1023B000054803F0DDFB00BF00BF2046FDF73AFEF5
:1023C00000BF00BF10BD00007C7D002010B5FFF7EE
:1023D000E5FF10BD10B500200249086000F00AF8C2
:1023E00010BD000030000020014908607047000067
:1023F0003000002010B5FFF757FF0446084800687A
:1024000040F0807006490860002006494860084690
:10241000006840F0010008602046FFF7E5FF10BDAE
:10242000FCED00E0001000E0014948687047000042
:10243000001000E070B500254FF4803400E0641E09
:1024400024B1802008F0EAFB0028F8D014B9032555
:10245000284670BD40F2FF5008F09CFB2846F8E784
:102460002DE9F041064600274748056801E0464847
:10247000056815F0450FFAD015F0040F06D00327B4
:10248000042008F087FB3846BDE8F08115F0010F05
:1024900005D00127012008F07DFB3846F4E708F05D
:1024A000B7FBB04202D010273846EDE740F2FF50AC
:1024B00008F070FB002008F0D1FB044633480442CA
:1024C00001D13846E0E714F0004F01D01C20DBE7D3
:1024D00014F0804F01D00920D6E714F0005F01D03E
:1024E0000A20D1E714F0805F01D00B20CCE714F074
:1024F000006F01D00C20C7E714F0806F01D00D20D1
:10250000C2E714F0807F01D00E20BDE714F4000F65
:1025100001D00F20B8E714F4800F01D01020B3E7EA
:1025200014F4001F01D01120AEE714F4801F01D075
:102530001220A9E714F4002F01D01320A4E714F40B
:10254000802F01D014209FE714F4003F01D0152004
:102550009AE714F4803F01D0162095E714F4004F59
:1025600001D0172090E714F4804F01D018208BE79A
:1025700014F4005F01D0192086E714F0080F01D091
:102580001A2081E738467FE7342C014008E0FFFD40
:1025900070B500250F48046801E00E48046814F087
:1025A000450FFAD014F0040F05D00325042008F0DD
:1025B000F1FA284670BD14F0010F05D00125012065
:1025C00008F0E8FA2846F5E740F2FF5008F0E2FA92
:1025D0002846EFE7342C014070B500250B4804680D
:1025E00001E00A48046814F0450FFAD014F0040F13
:1025F00005D00325042008F0CDFA284670BD40F22E
:10260000FF5008F0C7FA2846F8E70000342C0140D4
:102610002DE9F04106460F464FF0000822480568B4
:1026200001E02148056815F0450FFAD015F0040FB8
:1026300007D04FF00308042008F0ACFA4046BDE88C
:10264000F08115F0010F06D04FF00108012008F0CD
:10265000A1FA4046F3E708F0DBFAB04203D04FF0AE
:1026600010084046EBE740F2FF5008F093FA0020D4
:1026700008F0F4FA044614F4604F03D1200C3880BB
:102680004046DCE714F4005F01D01320D7E714F4D0
:10269000804F01D01020D2E714F4004F01D00F205A
:1026A000CDE74046CBE70000342C014070B5002652
:1026B0004FF480350F48046802E06D1E0D48046831
:1026C00014F0450F01D1002DF7D115B114F0040F0E
:1026D00005D00326042008F05DFA304670BD14F0E2
:1026E000400F05D00026402008F054FA3046F5E7A8
:1026F0003046F3E7342C01400022124B1A70124B83
:102700001A701A46127822B1012A09D0022A15D16C
:102710000DE00E4A127842F040020C4B1A700EE0A7
:102720000A4A127842F02002084B1A7007E0074A62
:10273000127842F01002054B1A7000E000BF00BF93
:10274000704700001D010020160100201A01002022
:10275000014609B90B487047012901D10A48FAE737
:10276000022901D10948F6E7032901D10020F2E747
:10277000042901D10020EEE7052901D10448EAE748
:102780000020E8E7DC710020047400202C76002093
:10279000547B002008B54FF4E06003F09DFE252037
:1027A0008DF8000000208DF8020001208DF8030054
:1027B000684603F055FE26208DF8000001208DF8B4
:1027C00002008DF80300684603F04AFE27208DF8CA
:1027D000000002208DF8020001208DF803006846F9
:1027E00003F03EFE47208DF8000005208DF8020022
:1027F00001208DF80300684603F032FE08BD00009A
:1028000038B5044607488078009006484378027837
:102810000548817805A00AF07FFB20460AF07CFB82
:1028200038BD000042010020460100205B25303207
:10283000642D253032643A253032643A25303264D2
:102840005D2D3E0010B5002400BF00BFFDF7EEFB7C
:10285000044600BF00BF08480078401C06490870C5
:1028600000BF00BF2046FDF7E5FB00BF00BF08F03A
:102870001FFF03F031FF10BD5C0000200246094B32
:102880009A4201D2084801E00648103811F0005F72
:1028900003D0064B0B40C36002E0044B0B40836047
:1028A0007047000010640240006002407D0F7D0F01
:1028B00021B1026842F00102026003E0026822F0E6
:1028C0000102026070470000016821F0010101600F
:1028D0000021016041608160C1600161212141618D
:1028E0004A49884204D13D21484A103A91608CE01F
:1028F00046491831884205D14FF47461434A103A71
:10290000916082E041493031884205D14FF4741121
:102910003E4A103A916078E03C494831884205D1FE
:102920004FF07461394A103A91606EE03749603176
:10293000884204D13649354A103AD16065E03349BE
:102940007831884204D13349304A103AD1605CE092
:102950002E499031884204D12F492C4A103AD16037
:1029600053E02A49A831884205D14FF03D51274A0A
:10297000103AD16049E02949884204D13D21274AD3
:10298000083A116041E025491831884205D14FF4D9
:102990007461224A083A116037E020493031884298
:1029A00005D14FF474111D4A083A11602DE01B49FE
:1029B0004831884205D14FF07461184A083A1160D5
:1029C00023E016496031884204D11149134A121F8D
:1029D00011601AE011497831884204D10D490F4A3B
:1029E000121F116011E00D499031884204D10A494B
:1029F0000A4A121F116008E00849A831884204D130
:102A00004FF03D51054A121F11607047106002409F
:102A10003D000020400F002000003D2010640240D7
:102A200021B1026842F02002026003E0026822F055
:102A300020020260704710B511F0800F09D022B15A
:102A4000436943F08003436103E0436923F080035B
:102A5000436180290BD02AB1036801F01E0423438F
:102A6000036004E0036801F01E04A343036010BD8B
:102A700010B500220268134B1A40CC680B68234340
:102A80004C6923438C692343CC6923430C6A234359
:102A90004C6A23438C6A23434C6B23438C6B234344
:102AA0001A430260426922F00702D1E90B34234342
:102AB0001A4342610B6943604B6883608B68C36053
:102AC00010BD00003F801CF07047000010B54FF4AF
:102AD000C0720021054803F054F820220021044868
:102AE00003F04FF800200349087010BDE0A3002058
:102AF00060A500207A0100200149086070470000AD
:102B0000143C0140002123498279002A3AD00A4628
:102B1000126803689A430B461A600A1D126803681C
:102B20009A430B1D1A60027911440A6803681A431C
:102B30000A60184A0832126803689A43154B083332
:102B40001A601A1D126803689A43124B0C331A60FC
:102B50004279102A0ED11A1F126803681A430D4BCE
:102B600008331A601A1D126803681A43094B0C33A4
:102B70001A600DE00749427911440A6803681A4354
:102B80000A6005E0027911440A6803689A430A6002
:102B900070470000003C014010B548F2B0340121FC
:102BA000204600F077F800BF00BF00BF01214FF6BC
:102BB000FF7000F06FF80221204600F06BF800BFB4
:102BC00000BF00BF02214FF6FF7000F063F810BD98
:102BD00070B504462146002000F05CF80546214609
:102BE000284600F003F8002070BD000070B50346D1
:102BF0008C461913C3F30B02BCF1020F02D101F191
:102C00001004E1B240F6FF74A2421DDA102A1BDD67
:102C1000002010E001EB41041C4D05EB8405441C31
:102C200035F8144001EB4105184E06EB850525F8F3
:102C30001040441CE0B20428ECDB01EB4104134DCE
:102C400005EB840422811FE0002010E001EB410429
:102C50000E4D05EB8405441C35F8144001EB41058D
:102C60000A4E06EB850525F81040441CE0B2042806
:102C7000ECDB01EB4104054D05EB84042281044C9F
:102C8000645C641C024D6C5470BD0000E0A3002025
:102C900060A5002070B506460C4600250EE000BF7A
:102CA00000BF00BF28466D1C2149884206D9214833
:102CB0000078401C1F490870012070BD02211E4889
:102CC00009F07AF80028EAD0012C03D110201B4922
:102CD000488304E0022C02D1A003184948833146FE
:102CE000154809F0A6F80EE000BF00BF00BF284657
:102CF0006D1C0F49884206D911480078401C1049C4
:102D000008700120D9E701210B4809F055F8002887
:102D1000EAD0012C03D110200849088304E0022CDA
:102D200002D1A00305490883034809F07FF8C4E7EE
:102D3000400D03005101002000300140000002401E
:102D40005201002003E04FF47A70FFF7EFFAFAE740
:102D500051B14FF0204252F8202042F001024FF0D2
:102D6000204343F8202009E04FF0204252F8202071
:102D7000034B1A404FF0204343F8202070470000D7
:102D8000FEFF0F00D0E901121143C268114302692E
:102D900011434269114382691143C2691143026AB6
:102DA0001143426A1143826A1143C26A1143026BA2
:102DB00011434FF02043026843F82210816808292C
:102DC00008D11A46016852F8211041F0400102680A
:102DD00043F82210416B0968426B526841EA0211C4
:102DE000426B926841EA0221426BD26841EA024199
:102DF000426B126941EA0251426B526941EA026137
:102E0000426B926911430268521C4FF0204343F811
:102E10002210C16AB1F5804F1AD1816B0968826BAB
:102E2000526841EA0211826B926841EA0221826B88
:102E3000126941EA0251826B526941EA0261826B76
:102E400092691143026803EB8202C2F8041108E0A0
:102E50006FF070414FF02043026803EB8202C2F82A
:102E6000041170472DE9FC4107460D460026002459
:102E700000200090019008205A4908601020486006
:102E8000402088600020C8604FF4806008610846D8
:102E900007F054FF1020FFF7E3FA044614B1204670
:102EA000BDE8FC815048006800044E4908603720A6
:102EB0004860402088600020C8604FF4806008614E
:102EC000084607F03BFF3720FFF7CAFA04460CB16B
:102ED0002046E5E74FF0FF3044490860082048608D
:102EE000302088600220C86000200861012048610D
:102EF000084607F067FE00203A4908603320486022
:102F0000402088600020C8604FF480600861084657
:102F100007F014FF3320FFF7A3FA04460CB1204654
:102F2000BEE709E04FF4001007F078FE20B107F08B
:102F3000FFFE4DF82600761C2D48006840F22A61FD
:102F40000842EFD0082007F069FE28B1082007F0FA
:102F500021FE04242046A3E7022007F05FFE28B1EB
:102F6000022007F017FE0224204699E7202007F0F0
:102F700055FE28B1202007F00DFE062420468FE7DD
:102F80004FF4007007F04AFE30B14FF4007007F0C4
:102F900001FE0724204683E740F2FF5007F0FAFDC8
:102FA00000980006009901F47F4140EA0120009951
:102FB00001F47F0140EA1120009940EA1160686045
:102FC00001980006019901F47F4140EA012001992E
:102FD00001F47F0140EA1120019940EA1160286064
:102FE00020465DE7B071002004000020C47100207D
:102FF000342C014038B5044620787E280BD0274871
:10300000007818B901202549087038BD00202349EF
:1030100008700320F9E70122694620460CF0A6FC5F
:10302000A078204400799DF8001088420BD01B48FE
:10303000007818B9012019490870E6E700201749FF
:1030400008700320E1E76078022804D0032804D048
:1030500004281AD100E01DE01CE02079012802D0EC
:10306000207902280FD10E480078012804D10020D1
:103070000B4908700320C8E709480078401C08493C
:1030800008700220C1E70320BFE7204600F0CAF91C
:103090000420BAE700BF0020B7E70000FB000020D3
:1030A000E001002070B506460C46154604EBC4004E
:1030B0000F4901EB800080F8205004EBC4010C4A5A
:1030C00002EB81002022002102F05BFD04EBC40131
:1030D000074A02EB81002A463146FCF7BDFF0A2071
:1030E00004EBC401024A02EB81014884002070BD58
:1030F00080A500202DE9F84105462E78EF7905F1ED
:103100000804A019A0F1010870E0012F20D1042EBD
:1031100002D00120BDE8F8816078FF2805D1A078B1
:10312000012802D1E078FE2801D00120F2E798F8CA
:103130000000FE2807D118F8010C012803D118F867
:10314000020CFF2801D00120E4E7781EC7B24DE051
:10315000A078204480797E2846D160780F2825D039
:103160006078F02822D06078FF281FD06078E8B11E
:10317000607801281AD06078042817D06078102869
:1031800014D06078112811D0607820280ED0607893
:1031900021280BD060780A2808D060780B2805D049
:1031A00060780C2802D0607833281BD10022694651
:1031B00020460CF0DBFBA0782044C0789DF800107E
:1031C000884201D00120A5E7A078801D301A06B200
:1031D000002E01DA01209DE7A078801D0444781EAE
:1031E000C7B203E0012095E7012093E7002F8CD1BF
:1031F00000208FE72DE9F047064696F800804FF053
:1032000000096CA0FFF7FCFA3046FFF773FF10B11E
:103210000120BDE8F0874FF4B87200216C4802F03D
:10322000B0FC042410E06A48D0F868010002684944
:10323000C1F868010846D0F86801315D0843644967
:10324000C1F86801601EC4B2002CECDCA8F10400D7
:103250000FFA80F8062411E05D48B0F86C01000612
:10326000000C5B49A1F86C010846B0F86C01315DB7
:1032700008435749A1F86C01601EC4B2042CEBDC72
:10328000A8F102000FFA80F896F80790504880F8ED
:103290006E9106F10805002486E06878102862D057
:1032A00010DC0A2863D006DC002859D0012858D049
:1032B000042876D156E00B285AD00C2859D00F2874
:1032C0006FD10EE0332855D006DC11284CD02028D1
:1032D0004BD0212865D149E0F02803D0FF2860D1E8
:1032E0002DE000BFA8782844071DA9780A1D04EB2B
:1032F000C401374B03EB81002946FCF7ADFEA878EB
:10330000001D04EBC401324A02EB810181F8200068
:10331000787804EBC40102EB81014884387804EB2F
:10332000C40102EB8101498C40EA012004EBC40195
:1033300002EB81014884A8782844851D31E004EB24
:10334000C400234901EB800029680160042004EBDC
:10335000C4011F4A02EB810181F820002D1D20E0ED
:1033600000BF00BF00BF00BF00BF00BF00BF00BF65
:1033700000BF00BFA9788A1D04EBC401144B03EB06
:1033800081002946FDF70AF8A878801D04EBC401E6
:103390000F4A02EB810181F82000A8782844851D9E
:1033A00000BF00BF601CC4B24C45FFF676AF0020E2
:1033B0002FE70000436F6D6D616E64204672616D92
:1033C0006520436865636B2121210D0A0000000020
:1033D00080A5002010B507A0FFF712FA4FF4B872CD
:1033E0000D490E4800680DF0CFF900200C49087017
:1033F00010BD000052656164204669706578204305
:103400006F6D6D616E642066726F6D204350552044
:10341000466C6173680D0A0080A5002074010020CD
:10342000E10100202DE9F8430546AF78E819441D75
:103430003048807804F8010B2F48007804F8010B1D
:103440002D48407804F8010B2B48807804F8010BD4
:103450004FF0000806E0FF2004F8010B08F101001E
:1034600000F0FF08B8F1140FF5DB0B2223A1274869
:103470000FF08CF9064626B125A0FFF7C1F9BDE88B
:10348000F8832AA0FFF7BCF92D4801682DA009F0A8
:1034900043FD2B4801681D480EF0EEFF064636B18D
:1034A0002EA0FFF7ADF919480EF0D6FFE7E7A87890
:1034B0001C30C7B26B463A46691C14480FF089FAB3
:1034C0000098874206D02CA0FFF79AF90F480EF01B
:1034D000C3FFD4E70D480EF0BFFF064616B92DA076
:1034E000FFF78EF91648006838441549086000BF98
:1034F000C5E700004601002042010020303A2F6657
:10350000697065782E62696E00000000149E0020CC
:10351000303A2F66697065782E62696E206F70652B
:103520006E206572726F720D0A0000004669706548
:10353000782073746F726520646174612D3E0000A1
:10354000DC010020303A2F66697065782E66736959
:103550007A653A20256C640D0A000000303A2F6627
:10356000697065782E62696E206C7365656B206585
:1035700072726F720D0A0000303A2F6669706578BA
:103580002E62696E207772697465206572726F723F
:103590000D0A0000303A2F66697065782E62696EF8
:1035A0002073746F7265206F6B0D0A000120014952
:1035B00008707047E10100200020044908700449A8
:1035C000087004490860044908607047D30100206E
:1035D000D2010020D4010020D801002010B51D48E0
:1035E0008078801DC2B200211A48FFF75BFD1A489F
:1035F0008078801DC2B201211748FFF753FD17489C
:103600008078801DC2B202211448FFF74BFD144898
:103610008078801DC2B203211148FFF743FD114895
:103620008078801DC2B204210E48FFF73BFD0E4892
:103630008078801DC2B205210B48FFF733FD0B488F
:103640000B49C1F868011E20A1F86C01062081F821
:103650006E0110BDE08B0308E68B0308EF8B0308B7
:10366000F88B0308018C0308078C0308C0BF561AA7
:1036700080A5002070B50A46002100238C4600BFBB
:103680003DE0012404FA01F3146804EA030C9C45AC
:1036900034D104684E000325B540AC43046014796E
:1036A0004D00AC4005682C4304601479012C02D015
:1036B0001479022C16D184684E000325B540AC4322
:1036C000846054794D00AC4085682C438460446824
:1036D00001258D40AC434460446895798D40ADB27E
:1036E0002C434460C4684E000325B540AC43C4601D
:1036F000D4794D00AC40C5682C43C460491C1029E6
:10370000BFD370BD70B500239C464C07E40E02FA8F
:1037100004F3CD1000F1200454F825404D07EE0EBF
:103720000F25B540AC43CE1000F1200545F82640EA
:10373000CD1000F1200454F8254044EA030CCD10CC
:1037400000F1200444F825C070BD024600205369F2
:103750000B4201D0012000E00020704741837047F8
:1037600001837047704770B504460D4629462046D0
:1037700002F0F0FB2946204602F05CFB2946204679
:1037800002F08CFB2946204602F07EFC29462046AA
:1037900002F086FD70BD000008B5002240F2255100
:1037A0001E4809F084F901200DF0F9FA00201C49A7
:1037B000088032E042F21070FEF7B8FD01200DF0F3
:1037C000EEFA002016490880012240F225511348E4
:1037D00009F06DF912E008E09DF800201049088812
:1037E000411C0F4B19800F490A54694601200DF006
:1037F000E4FA0028F0D10A20FEF798FD0848008876
:10380000B0F5487FE7DB002240F22551034809F07C
:103810004EF904490448FFF7A6FFCBE700440040F7
:1038200022010020C0A0002040A0002003E04FF4AF
:103830007A70FEF77BFDFAE72DE9F0472DED0E8B50
:10384000EAB004468846924651462EA80DF008FB81
:1038500003222EA91CA810F05BFA4FF000090AE021
:1038600008EBC90090ED000B04A800EBC90080ED47
:10387000000B09F10109B9F1060FF1DB04A95EA8FB
:1038800000F0CAFA9FEDFE0B84ED360B9DED620B46
:10389000B0EE401AF0EE601A9FEDFB0B53EC102BCC
:1038A00051EC110BFCF75BFE41EC100BB0EE40BA93
:1038B000F0EE60BA9FEDF60B53EC102B51EC1B0BA6
:1038C000FCF7BDFE41EC100B84ED380B9DED640B55
:1038D000B0EE401AF0EE601A9FEDEB0B53EC102B9C
:1038E00051EC110BFCF73BFE41EC100BB0EE40BA73
:1038F000F0EE60BA9FEDE60B53EC102B51EC1B0B76
:10390000FCF79DFE41EC100B84ED3A0B6199609839
:10391000C4E93C019DED660BB0EE401AF0EE601A72
:103920009FEDD90B53EC102B51EC110BFCF717FE4C
:1039300041EC100BB0EE40BAF0EE60BA9FEDD40B44
:1039400053EC102B51EC1B0BFCF779FE41EC100BE8
:1039500084ED3E0B9DED680BB0EE401AF0EE601A60
:103960009FEDC90B53EC102B51EC110BFCF7F7FD3D
:1039700041EC100BB0EE40BAF0EE60BA9FEDC40B14
:1039800053EC102B51EC1B0BFCF759FE41EC100BC8
:1039900084ED400B9DED5E0BB0EE401AF0EE601A28
:1039A0009DED5E0BB0EE402AF0EE602A53EC112B39
:1039B00051EC120BFCF7D3FD41EC100BB0EE40BA0A
:1039C000F0EE60BA9DED5E0BB0EE401AF0EE601ABC
:1039D00053EC112B51EC1B0BFCF7C1FD41EC100B10
:1039E000B0EE40CAF0EE60CA53EC1C2BAA4890ED32
:1039F000000B51EC100BFCF722FE41EC100BB0EE6B
:103A000040DAF0EE60DA0AF0FBFEB0EE40EAF0EEEB
:103A100060EA9FEDA20B53EC102B51EC1E0BFCF750
:103A20009EFD41EC100B84ED420B9FED9E8B9FEDB4
:103A30009F9B9FEDA0ABDDE19FED9E0B53EC102B08
:103A400051EC180BFCF7E5FC41EC100BB0EE408A92
:103A5000F0EE608A204612F069FD002322464CA950
:103A600052A811F015F80120032152AA0B46CDE906
:103A7000002102900A461CA916A810F003FA0120A2
:103A800003214CAA0B46CDE9002102900A461CA94D
:103A900010A810F0F7F9002528E016A800EBC500E3
:103AA00090ED000BB0EE401AF0EE601A08EBC50086
:103AB00090ED000BB0EE402AF0EE602A53EC112B93
:103AC00051EC120BFCF745FD41EC100B40A800EB4C
:103AD000C50080ED000B40A800EBC50090ED000B89
:103AE00058A800EBC50080ED000B6D1C032DD4DB46
:103AF000002620E010A800EBC60090ED000BB0EE11
:103B0000401AF0EE601AF01C08EBC00090ED000BBC
:103B1000B0EE402AF0EE602A53EC112B51EC120B60
:103B2000FCF717FD41EC100B40A9F01C01EBC000A5
:103B300080ED000B761C032EDCDB032158A810F06F
:103B4000DFFAB0EE40BAF0EE60BA9FED5C0B53ECDA
:103B5000102B51EC1B0BFCF772FD41EC100BB0EE7F
:103B600040CAF0EE60CA0AF04BFEB0EE409AF0EEAA
:103B7000609A9FED540B53EC102B51EC190BFCF792
:103B80001FFE7BD89FED510B53EC102B51EC180B03
:103B9000FCF702FEF5D800271FE040A800EBC700A5
:103BA00090ED000BB0EE401AF0EE601A04A800EBA6
:103BB000C70090ED000BB0EE402AF0EE602A53EC07
:103BC000112B51EC120BFCF724FC41EC100B04A858
:103BD00000EBC70080ED000B7F1C062FDDDB04A986
:103BE0005EA800F019F99FED260B84ED360B9DEDD4
:103BF000620BB0EE401AF0EE601A9FED230B53EC0F
:103C0000102B51EC110BFCF7AAFC41EC100BB0EEA1
:103C100040BAF0EE60BA9FED1E0B53EC102B51EC46
:103C20001B0BFCF70CFD41EC100B84ED380B9DEDEC
:103C3000640BB0EE401AF0EE601A9FED130B53ECDC
:103C4000102B51EC110BFCF78AFC41EC100BB0EE81
:103C500040BAF0EE60BA9FED0E0B53EC102B51EC16
:103C60001B0BFCF7ECFC41EC100B84ED3A0B61995B
:103C70006098C4E93C019DED660B2BE0B4E00000C8
:103C80002D431CEBE2362A3F182D4454FB210940FA
:103C90000000000000806640188C0308000000004F
:103CA00000004E4000000000000000000000000086
:103CB0000088C340000000000000F03F000000004A
:103CC000000008407B14AE47E17A843F000000000A
:103CD00000003440B0EE401AF0EE601A1FED160BF3
:103CE00053EC102B51EC110BFCF739FC41EC100B91
:103CF000B0EE40BAF0EE60BA1FED1B0B53EC102B88
:103D000051EC1B0BFCF79BFC41EC100B84ED3E0BC4
:103D10009DED680BB0EE401AF0EE601A1FED260B19
:103D200053EC102B51EC110BFCF719FC41EC100B70
:103D3000B0EE40BAF0EE60BA1FED2B0B53EC102B37
:103D400051EC1B0BFCF77BFC41EC100B84ED400BA2
:103D50009DED5E0BB0EE401AF0EE601A9DED5E0B2D
:103D6000B0EE402AF0EE602A53EC112B51EC120B0E
:103D7000FCF7F5FB41EC100BB0EE40BAF0EE60BA88
:103D80009DED5E0BB0EE401AF0EE601A53EC112B75
:103D900051EC1B0BFCF7E3FB41EC100BB0EE40CAFF
:103DA000F0EE60CA53EC1C2B1A4890ED000B51EC5E
:103DB000100BFCF744FC41EC100BB0EE40DAF0EED7
:103DC00060DA0AF01DFDB0EE40EAF0EE60EA1FEDA9
:103DD0004D0B53EC102B51EC1E0BFCF7C0FB41ECD0
:103DE000100B84ED420B05E01FED520BB0EE40AA24
:103DF000F0EE60AA1FED550B53EC102B51EC1A0B93
:103E0000FCF7CAFC7FF418AE6AB0BDEC0E8BBDE8BF
:103E1000F0870000188C030803B5EFB0002017905E
:103E20002FE01799709800EBC10068AB06C817988F
:103E300003EBC00006C09DED680B8DED5C0B9DEDA6
:103E40006A0B8DED5A0B9DED6C0B8DED580B179891
:103E5000C01C709901EBC00060A90CC8179801EB59
:103E6000C0000CC09DED600B8DED560B9DED620BFF
:103E70008DED540B9DED640B8DED520B1798401C8E
:103E8000179017980328CCDB032168A810F038F9A5
:103E90008DED660B032160A810F032F98DED5E0BFD
:103EA00060AA68A94CA808F0EBFF9DED5E0B53ECEF
:103EB000102B9DED660B51EC100BFCF750FB41EC09
:103EC000100B8DED0A0B9DED5E0B53EC102B9DED51
:103ED0000A0B51EC100BFCF742FB41EC100B8DED83
:103EE0000E0BFE4890ED000B53EC102B9FEDFC0BDE
:103EF00051EC100BFCF733FB41EC100B8DED0C0B70
:103F00009DED0E0B53EC102B9DED0C0B51EC100B9B
:103F1000FCF71FFB41EC100B8DED120B9DED660BBA
:103F200053EC102BED4890ED000B51EC100BFCF70F
:103F300016FB41EC100B8DED100B9DED120B53ECAD
:103F4000102B9DED100B51EC100BFCF778FB41ECA6
:103F5000100B8DED440B9DED520B53EC102B9DED92
:103F6000580B51EC100BFCF7FAFA41EC100B8DEDED
:103F70000E0B9DED540B53EC102B9DED5A0B51EC99
:103F8000100BFCF7ECFA41EC100B8DED0A0B9DEDDC
:103F9000560B53EC102B9DED5C0B51EC100BFCF70A
:103FA000DEFA41EC100B8DED080B9DED0A0B53EC86
:103FB000102B9DED080B51EC100BFCF72AFA41EC8D
:103FC000100B8DED0C0B9DED0E0B53EC102B9DED9E
:103FD0000C0B51EC100BFCF71CFA41EC100B8DEDA7
:103FE000120B9DED440B53EC102BBC4890ED000BD5
:103FF00051EC100BFCF7B3FA41EC100B8DED0C0BF0
:104000009DED0C0B53EC102B9FEDB70B51EC100BEF
:10401000FCF715FB41EC100B8DED0E0B9DED0E0B1F
:104020000AF0EEFB8DED100B9DED120B53EC102BF7
:104030009DED100B51EC100BFCF791FA41EC100BBD
:104040008DED4A0B9DED440B53EC102B9DED660B53
:1040500051EC100BFCF7F3FA41EC100B8DED120B49
:104060009FEDA10B53EC102B9DED120B51EC100B9F
:10407000FCF772FA41EC100B8DED480B9DED480BEF
:1040800053EC102B9DED4A0B51EC100BFCF7D7FABB
:1040900041EC100B8DED0E0B9DED0E0B09F00CF9A4
:1040A0008DED100B9FED920B53EC102B9DED100B33
:1040B00051EC100BFCF753FA41EC100B8DED120B89
:1040C0009FED8D0B53EC102B9DED120B51EC100B53
:1040D000FCF7B5FA41EC100B8DED460B9FED880B0C
:1040E00053EC102B9DED4A0B51EC100BFCF768FBC9
:1040F00019D29FED830B53EC102B9DED480B51EC27
:10410000100BFCF749FB0ED29FED790B53EC102BF3
:104110009DED460B51EC100BFCF77BF941EC100BBD
:104120008DED460B48E09FED760B53EC102B9DED8B
:104130004A0B51EC100BFCF72FFB19D29FED700BC3
:1041400053EC102B9DED480B51EC100BFCF738FB9A
:104150000ED29FED6D0B53EC102B9DED460B51ECE9
:10416000100BFCF756F941EC100B8DED460B23E0DC
:104170009FED630B53EC102B9DED4A0B51EC100B94
:10418000FCF70AFB18D29FED5E0B53EC102B9DED54
:10419000480B51EC100BFCF7FFFA0DD29FED540BBE
:1041A00053EC102B9DED460B51EC100BFCF731F945
:1041B00041EC100B8DED460B9FED4F0B53EC102B8C
:1041C0009DED460B51EC100BFCF7C9F941EC100BBF
:1041D0008DED0C0B9FED460B53EC102B9DED0C0B56
:1041E00051EC100BFCF72BFA41EC100B8DED0E0B84
:1041F0009DED0E0B09F0C8FA8DED120B9DED440BF1
:1042000053EC102B9DED660B51EC100BFCF717FADD
:1042100041EC100B8DED0E0B9FED330B53EC102B7F
:104220009DED0E0B51EC100BFCF796F941EC100BC9
:104230008DED100B9DED120B53EC102B9DED100B23
:1042400051EC100BFCF7FBF941EC100B8DED420B20
:104250009DED420B53EC102B9DED420B51EC100BDE
:10426000FCF77DF941EC100B8DED020B9FED1E0B61
:1042700053EC102B9DED020B51EC100BFCF76CF97D
:1042800041EC100B8DED060B9DED440B53EC102B08
:10429000124890ED000B51EC100BFCF760F941EC6B
:1042A000100B8DED040B9DED060B53EC102B9DEDCB
:1042B000040B51EC100BFCF752F941EC100B8DED97
:1042C000080B9DED080B0AF09BFA8DED0C0B9DED94
:1042D000560B53EC102B9DED5A0B19E0188C03086C
:1042E0000000000000000040000000000000F03F5F
:1042F0000000000000806640182D4454FB21094056
:104300000000000000000000000000000080764077
:1043100051EC100BFCF723F941EC100B8DED080B61
:104320009DED540B53EC102B9DED5C0B51EC100BE1
:10433000FCF715F941EC100B8DED060B9DED080B0C
:1043400053EC102B9DED060B51EC100BFCF701F913
:1043500041EC100B8DED0A0B9DED0C0B53EC102B6B
:104360009DED0A0B51EC100BFCF769F941EC100BB9
:104370008DED0E0B9DED0E0B08F0F6FD8DED100B87
:104380001FED250B53EC102B9DED100B51EC100B7A
:10439000FCF7E5F841EC100B8DED120B1FED2A0B2D
:1043A00053EC102B9DED120B51EC100BFCF747F961
:1043B00041EC100B8DED400B1FED2F0B8DED2E0BF7
:1043C0001FED310B8DED300B1FED390B8DED320BE9
:1043D0004CAA2EA928A808F053FD032128A80FF005
:1043E0008FFE8DED260B002016901CE028A9169854
:1043F00001EBC00090ED000B8DED120B9DED260B37
:1044000053EC102B9DED120B51EC100BFCF717F930
:1044100041EC100B28A9169801EBC00080ED000BB1
:104420001698401C169016980328DFDB9DED280B8C
:104430008DED0E0B9DED0E0B08F096FD8DED100B26
:104440001FED550B53EC102B9DED100B51EC100B89
:10445000FCF785F841EC100B8DED120B1FED5A0B9C
:1044600053EC102B9DED120B51EC100BFCF7E7F801
:1044700041EC100B8DED3E0B9DED2A0B8DED0E0BDF
:104480009DED0E0B08F070FD8DED100B1FED680B10
:1044900053EC102B9DED100B51EC100BFCF75FF85B
:1044A00041EC100B8DED120B1FED6D0B53EC102B2F
:1044B0009DED120B51EC100BFCF7C1F841EC100B09
:1044C0008DED3C0B1FED720B53EC102B9DED3C0B57
:1044D00051EC100BFCF774F90FD89FEDFE0B53EC69
:1044E000102B9DED3C0B51EC100BFCF755F904D84B
:1044F0009DED3E0B8DED3E0B23E09FEDF60B53EC57
:10450000102B9DED3C0B51EC100BFCF759F918D218
:104510001FED890B53EC102B9DED3C0B51EC100B58
:10452000FCF73AF90DD89DED3E0B53EC102B1FED27
:104530008A0B51EC100BFCF70CF841EC100B8DEDD5
:104540003E0B28AA4CA920A808F09AFC032120A819
:104550000FF0D6FD8DED1E0B002015901CE020A95C
:10456000159801EBC00090ED000B8DED120B9DED49
:104570001E0B53EC102B9DED120B51EC100BFCF7A6
:104580005EF841EC100B20A9159801EBC00080EDFE
:10459000000B1598401C159015980328DFDB9DED46
:1045A0002C0B8DED060B9DED6C0B8DED040B9DED35
:1045B000060B53EC102B9DED040B51EC100BFBF78D
:1045C000CEFF41EC100B8DED0A0B9DED2A0B8DED0E
:1045D000020B9DED6A0B8DED000B9DED020B53EC74
:1045E000102B9DED000B51EC100BFBF7B8FF41ECCD
:1045F000100B8DED060B9DED280B8DED020B9DED47
:10460000680B8DED000B9DED020B53EC102B9DED17
:10461000000B51EC100BFBF7A2FF41EC100B8DEDE2
:10462000040B9DED060B53EC102B9DED040B51EC90
:10463000100BFBF7EEFE41EC100B8DED080B9DED22
:104640000A0B53EC102B9DED080B51EC100BFBF7F4
:10465000E0FE41EC100B8DED0C0B9DED660B53EC69
:10466000102B9DED0C0B51EC100BFBF7E8FF41EC10
:10467000100B8DED0E0B9DED0E0B08F075FC8DED06
:10468000100B1FEDE50B53EC102B9DED100B51ECB7
:10469000100BFBF764FF41EC100B8DED120B1FEDBF
:1046A000EA0B53EC102B9DED120B51EC100BFBF7AA
:1046B000C6FF41EC100B8DED3A0B9DED240B8DEDFB
:1046C000060B9DED6C0B8DED040B9DED060B53EC75
:1046D000102B9DED040B51EC100BFBF740FF41EC50
:1046E000100B8DED0A0B9DED220B8DED020B9DED58
:1046F0006A0B8DED000B9DED020B53EC102B9DED25
:10470000000B51EC100BFBF72AFF41EC100B8DED69
:10471000060B9DED200B8DED020B9DED680B8DEDD5
:10472000000B9DED020B53EC102B9DED000B51EC9B
:10473000100BFBF714FF41EC100B8DED040B9DEDFE
:10474000060B53EC102B9DED040B51EC100BFBF7FB
:1047500060FE41EC100B8DED080B9DED0A0B53EC48
:10476000102B9DED080B51EC100BFBF752FE41ECAA
:10477000100B8DED0C0B9DED660B53EC102B9DED8E
:104780000C0B51EC100BFBF75AFF41EC100B8DEDAD
:104790000E0B9DED0E0B08F0E7FB8DED100B9FED62
:1047A0004F0B53EC102B9DED100B51EC100BFBF746
:1047B000D6FE41EC100B8DED120B9FED4A0B53EC26
:1047C000102B9DED120B51EC100BFBF738FF41EC59
:1047D000100B8DED380B9FED450B53EC102B9DED21
:1047E000380B51EC100BFBF7EBFF0FD89FED390B9B
:1047F00053EC102B9DED380B51EC100BFBF7CCFF5D
:1048000004D89DED3A0B8DED3A0B23E09FED310B73
:1048100053EC102B9DED380B51EC100BFBF7D0FF38
:1048200018D29FED2E0B53EC102B9DED380B51EC55
:10483000100BFBF7B1FF0DD89DED3A0B53EC102B8D
:104840009FED2C0B51EC100BFBF783FE41EC100B92
:104850008DED3A0B9FED230B53EC102B9DED460B8A
:1048600051EC100BFBF77BFE41EC100B8DED120BA6
:104870009FED200B53EC102B9DED120B51EC100B08
:10488000FBF7DDFE41EC100B8DED1C0B9DED1C0BC1
:1048900009F0F2FF8DED100B9DED420B53EC102B48
:1048A0009FED160B51EC100BFBF753FE41EC100B78
:1048B0008DED0A0B9DED420B53EC102B9FED0F0B72
:1048C00051EC100BFBF7A5FD41EC100B8DED080B27
:1048D00018E00000000000000080564000000000CA
:1048E00000806640182D4454FB2109400000000060
:1048F0000000000000000000008076400000000082
:104900000000F03F9DED0A0B53EC102B9DED080BC2
:1049100051EC100BFBF793FE41EC100B8DED0C0BE3
:104920009DED0C0B09F06CFF8DED0E0B9DED100B4A
:1049300053EC102B9DED0E0B51EC100BFBF70FFE03
:1049400041EC100B8DED120B9DED120B08F0B4FC39
:104950008DED1A0B9FED850B53EC102B9DED1C0B71
:1049600051EC100BFBF72CFF18D21FED220B53EC70
:10497000102B9DED1C0B51EC100BFBF70DFF0DD216
:104980001FED280B53EC102B9DED1A0B51EC100B67
:10499000FBF73FFD41EC100B8DED1A0B9DED1A0B53
:1049A00053EC102B9FED730B51EC100BFBF7D7FD65
:1049B00041EC100B8DED100B1FED380B53EC102B51
:1049C0009DED100B51EC100BFBF7C9FD41EC100BEA
:1049D0008DED120B1FED3D0B53EC102B9DED120BCB
:1049E00051EC100BFBF72BFE41EC100B8DED180B6F
:1049F0009DED180B53EC102B9DED3A0B51EC100B69
:104A0000FBF7A7FD41EC100B8DED360B1FED490BAD
:104A100053EC102B9DED360B51EC100BFBF7BCFE4D
:104A20000DD21FED4C0B53EC102B9DED360B51ECC2
:104A3000100BFBF7EEFC41EC100B8DED360B1FED70
:104A4000570B53EC102B9DED460B51EC100BFBF765
:104A500086FD41EC100B8DED060B1FED600B53EC4A
:104A6000102B9DED060B51EC100BFBF7E8FD41EC14
:104A7000100B8DED080B9DED080B09F055FE8DED2B
:104A80000A0B9DED420B53EC102B9DED0A0B51ECE4
:104A9000100BFBF764FD41EC100B8DED0E0B1FEDC1
:104AA0006F0B53EC102B9DED460B51EC100BFBF7ED
:104AB00056FD41EC100B8DED0A0B1FED780B53ECFE
:104AC000102B9DED0A0B51EC100BFBF7B8FD41ECE0
:104AD000100B8DED0C0B9DED0E0B53EC102B9DED83
:104AE0000C0B51EC100BFBF734FD41EC100B8DED72
:104AF000100B1FED860B53EC102B9DED100B51ECA2
:104B0000100BFBF72CFD41EC100B8DED120B1FED84
:104B10008B0B53EC102B9DED120B51EC100BFBF794
:104B20008EFD41EC100B8DED340B9DED440B6F9819
:104B300080ED000B9DED420B6F9880ED020B9DED1B
:104B4000400B6F9880ED040B9DED3E0B6F9880ED50
:104B5000060B9DED360B6F9880ED080B9DED340B29
:104B60006F9880ED0A0B71B000BD0000182D445401
:104B7000FB21F93F000000000000004008B5694635
:104B800005200CF01AF918B19DF8000007F0B0FEEE
:104B900008BD00BFFEE710B500F002F810BD000030
:104BA0004AF6AA2001490860704700000030004022
:104BB00000B587B00121022005F01CFB0121102067
:104BC00005F058FB072206219C48FEF79BFD0722B3
:104BD00011469A48FEF796FD00208DF81A00012034
:104BE0008DF81B0002208DF818004020059002204F
:104BF0008DF8190005A99148FEF73CFD02208DF8BB
:104C000018008020059005A98C48FEF733FD4FF46D
:104C1000E13001900020ADF80800ADF80A00ADF8D1
:104C20000C00ADF810000C20ADF80E0001A984486E
:104C300007F062FF012240F22551814807F037FF5B
:104C400001217F4807F0FBFE40217D4807F0EEFE82
:104C50000121084605F0CEFA0121480405F0FAFAD0
:104C6000072203217748FEF74DFD00208DF81A003A
:104C700001208DF81B0002208DF818008DF8180017
:104C80000820059002208DF8190005A96D48FEF74F
:104C9000F1FC4FF4E13001900020ADF80800ADF8D0
:104CA0000A00ADF80C00ADF810000420ADF80E00BD
:104CB00001A9654807F020FF012240F22551624812
:104CC00007F0F5FE0121604807F0B9FE40215E487B
:104CD00007F0ACFE0121022005F08CFA01208DF8CE
:104CE000180000208DF81A008DF81B0003208DF8A5
:104CF00019000420059005A95048FEF7BBFC0121CE
:104D0000022005F077FA0121880405F0A3FA0722B2
:104D10000A214A48FEF7F6FC07220B214748FEF716
:104D2000F1FC00208DF81A0001208DF81B000220F4
:104D30008DF818004002059002208DF8190005A991
:104D40003E48FEF797FC02208DF81800800205907F
:104D500005A93A48FEF78EFC4FF41650019000204A
:104D6000ADF80800ADF80A00ADF80C00ADF8100081
:104D70000C20ADF80E0001A9344807F0BDFE012259
:104D800040F22551314807F092FE01212F4807F0EB
:104D900056FE40212D4807F049FE0121042005F070
:104DA00029FA0121202005F065FA08220621284869
:104DB000FEF7A8FC082207212548FEF7A3FC0020E7
:104DC0008DF81A0001208DF81B0002208DF81800C4
:104DD0008DF818004020059005A91D48FEF74AFCF3
:104DE00002208DF818008020059005A91848FEF7CC
:104DF00041FC4FF4E13001900020ADF80800ADF81F
:104E00000A00ADF80C004FF44070ADF810000C2013
:104E1000ADF80E0001A90F4807F06EFE012240F226
:104E200025510C4807F043FE01210A4807F007FE10
:104E30004021084807F0FAFD07B000BD0004024019
:104E400000100140000002400044004000480040C3
:104E5000000802400014014000B587B01222002172
:104E600002A800F08EFE0422002101A800F089FEB5
:104E70000121080305F0FEF900211F4806F086FF16
:104E80000020ADF808004FF48270ADF80A004FF42E
:104E90000060ADF80C000220ADF80E000020ADF867
:104EA00010004FF40070ADF812003820ADF8140077
:104EB0000020ADF816000720ADF8180002A90E4832
:104EC00006F0B9FF012250210B4806F09AFF01219C
:104ED000094806F05BFF23208DF8040002208DF8BE
:104EE000050000208DF8060001208DF8070001A8BC
:104EF00001F0B6FA07B000BD003001401CB5082231
:104F00000021684600F03DFE0121084605F072F9D7
:104F10000121022005F06EF9052211462F48FEF707
:104F2000F1FB052206212D48FEF7ECFB05220721A7
:104F30002A48FEF7E7FB02208DF804008DF80500F3
:104F400000208DF8060002208DF80700E020009078
:104F500069462248FEF78EFB01208DF804000020F0
:104F60008DF8060002208DF8050000208DF807005E
:104F70000220009069461A48FEF77CFB01208DF85C
:104F8000040000208DF8060002208DF805000020A6
:104F90008DF807001020009069461048FEF76AFB64
:104FA00001208DF8040000208DF8060002208DF805
:104FB000050000208DF807004FF40040009069467E
:104FC0000648FEF757FB02200549183108801020DB
:104FD00002490883C00208831CBD00000000024093
:104FE00000040240FEB50546697802AAA81C00F03C
:104FF0005BFD6878801C285C9DF80810884206D00C
:10500000FE480078401CFD4908700120FEBD28784C
:10501000662872D2DFE810F07100660072007A0034
:10502000800086008C0094009C007100710071006B
:105030007100710071007100A400C500E800090151
:105040002C014D0170019101B401D501030224022C
:1050500047026B029102B502DB02FC021F0343030D
:1050600069038A03AD03CE03FA031B043E045F0405
:105070008304A404710071007100C704CF04D70435
:10508000DF04E704710071007100710071007100AC
:1050900071007100710071007100EF04F704FF04EA
:1050A00007057100710071007100710071007100DD
:1050B000710071007100710071000F05100511057C
:1050C0001205130514051505160517057100710065
:1050D00071007100710071007100180519051A0541
:1050E0001B052D050120C6490870C6480088401CD4
:1050F000C449088000F0E4FC1EE2EEE3C1480088E9
:10510000401CC049088000F0DBFCF5E7BD48008882
:10511000401CBC490880EFE7BA480088401CB949E8
:105120000880E9E7B7480088401CB6490880E3E7F3
:10513000B4480088401CB349088000F0C1FCDBE79C
:10514000B0480088401CAF49088000F0B9FCD3E7A4
:10515000AC480088401CAB49088000F0B1FCCBE7AC
:10516000002408E00221A848FEF7FAFA0120FDF722
:10517000DDF8601CC4B20221A348FEF7E6FA08B9C4
:10518000052CEFDB052C04D102219F48FEF7DDFA48
:1051900030B19C480088401C9A49088000F090FC7F
:1051A000AAE7002408E002219748FEF7D7FA012079
:1051B000FDF7BCF8601CC4B202219348FEF7C5FAA3
:1051C000012801D1052CEEDB052C05D102218E48EA
:1051D000FEF7BBFA012806D08A480088401C89499E
:1051E000088000F06DFC87E7002408E04021864835
:1051F000FEF7B6FA0120FDF799F8601CC4B2402111
:105200008148FEF7A2FA08B9052CEFDB052C04D182
:1052100040217D48FEF799FA30B17A480088401C59
:105220007849088000F04CFC66E7002408E0402143
:105230007548FEF793FA0120FDF778F8601CC4B2B8
:1052400040217148FEF781FA012801D1052CEEDBDF
:10525000052C05D140216C48FEF777FA012806D0CD
:1052600068480088401C6749088000F029FC43E733
:10527000002408E004216448FEF772FA0120FDF7DB
:1052800055F8601CC4B204215F48FEF75EFA08B905
:10529000052CEFDB052C04D104215B48FEF755FA01
:1052A00030B158480088401C5649088000F008FC7E
:1052B000EFE3002408E004215348FEF74FFA0120F1
:1052C000FDF734F8601CC4B204214F48FEF73DFAE4
:1052D000012801D1052CEEDB052C05D104214A481B
:1052E000FEF733FA012806D046480088401C45499D
:1052F000088000F0E5FBCCE3002408E001214248EF
:10530000FEF72EFA0120FDF711F8601CC4B201214E
:105310003D48FEF71AFA08B9052CEFDB052C04D13D
:1053200001213948FEF711FA30B136480088401C97
:105330003449088000F0C4FBABE3002408E00121FD
:105340003148FEF70BFA0120FCF7F0FF601CC4B2F5
:1053500001212D48FEF7F9F9012801D1052CEEDBDA
:10536000052C05D101212848FEF7EFF9012806D0C8
:1053700024480088401C2349088000F0A1FB88E3F2
:10538000002408E010212148FEF7EAF90120FCF78B
:10539000CDFF601CC4B210211C48FEF7D6F908B935
:1053A000052CEFDB052C04D110211848FEF7CDF9B0
:1053B00030B114480088401C1249088000F080FB7E
:1053C00067E3002408E010211048FEF7C7F9012028
:1053D000FCF7ACFF601CC4B210210C48FEF7B5F915
:1053E000012801D1052CEEDB052C05D11021074841
:1053F000FEF7ABF9012811D0024809E01C0100209A
:105400001B0100201801002000100240000402408F
:105410000088401CF949088000F052FB39E3002461
:1054200008E00821F648FEF79BF90120FCF77EFF13
:10543000601CC4B20821F248FEF787F908B9052CB0
:10544000EFDB052C04D10821ED48FEF77EF930B1E1
:10545000EA480088401CE949088000F031FB18E365
:10546000002408E00821E648FEF778F90120FCF75F
:105470005DFF601CC4B20821E148FEF766F901280F
:1054800001D1052CEEDB052C05D10821DC48FEF707
:105490005CF9012806D0D9480088401CD74908800B
:1054A00000F00EFBF5E2002409E04FF48041D548FE
:1054B000FEF756F90120FCF739FF601CC4B24FF427
:1054C0008041D048FEF741F908B9052CEDDB052CE9
:1054D00005D14FF48041CB48FEF737F930B1C748CA
:1054E0000088401CC549088000F0EAFAD1E2002497
:1054F00009E04FF48041C348FEF730F90120FCF782
:1055000015FF601CC4B24FF48041BE48FEF71DF980
:10551000012801D1052CECDB052C06D14FF480418C
:10552000B848FEF712F9012806D0B4480088401C9C
:10553000B249088000F0C4FAABE2002409E04FF45D
:105540000041B048FEF70CF90120FCF7EFFE601CAB
:10555000C4B24FF40041AB48FEF7F7F808B9052C88
:10556000EDDB052C05D14FF40041A648FEF7EDF820
:1055700030B1A2480088401CA049088000F0A0FA81
:1055800087E2002409E04FF400419E48FEF7E6F868
:105590000120FCF7CBFE601CC4B24FF400419948D7
:1055A000FEF7D3F8012801D1052CECDB052C06D140
:1055B0004FF400419348FEF7C8F8012806D08F4801
:1055C0000088401C8D49088000F07AFA61E20024CE
:1055D00008E008218C48FEF7C3F80120FCF7A6FE7E
:1055E000601CC4B208218848FEF7AFF808B9052C42
:1055F000EFDB052C04D108218348FEF7A6F830B173
:105600007E480088401C7D49088000F059FA40E23D
:10561000002408E008217C48FEF7A0F80120FCF7F0
:1056200085FE601CC4B208217748FEF78EF8012879
:1056300001D1052CEEDB052C05D108217248FEF7BF
:1056400084F8012806D06D480088401C6B4908800A
:1056500000F036FA1DE2002409E04FF48071694839
:10566000FEF77EF80120FCF761FE601CC4B24FF427
:1056700080716448FEF769F808B9052CEDDB052C4C
:1056800005D14FF480715F48FEF75FF830B15B4899
:105690000088401C5949088000F012FAF9E1002402
:1056A00009E04FF480715748FEF758F80120FCF7E5
:1056B0003DFE601CC4B24FF480715248FEF745F8BD
:1056C000012801D1052CECDB052C06D14FF48071AB
:1056D0004C48FEF73AF8012806D048480088401C9C
:1056E0004649088000F0ECF9D3E1002408E080216D
:1056F0004448FEF735F80120FCF718FE601CC4B2E0
:1057000080214048FEF721F808B9052CEFDB052C75
:1057100004D180213B48FEF718F830B137480088A3
:10572000401C3649088000F0CBF9B2E1002408E0C3
:1057300080213448FEF712F80120FCF7F7FD601CC9
:10574000C4B280212F48FEF700F8012801D1052CB2
:10575000EEDB052C05D180212A48FDF7F6FF012854
:1057600006D026480088401C2449088000F0A8F98B
:105770008FE1002408E040212248FDF7F1FF0120DD
:10578000FCF7D4FD601CC4B240211E48FDF7DDFFCC
:1057900008B9052CEFDB052C04D140211948FDF791
:1057A000D4FF30B115480088401C1449088000F02F
:1057B00087F96EE1002408E040211248FDF7CEFF92
:1057C0000120FCF7B3FD601CC4B240210D48FDF779
:1057D000BCFF012801D1052CEEDB052C05D14021B1
:1057E0000848FDF7B2FF012806D004480088401C95
:1057F0000249088000F064F94BE100001801002024
:105800000004024000180240000C0240002408E09E
:105810000121A248FDF7A4FF0120FCF787FD601CD1
:10582000C4B201219D48FDF790FF08B9052CEFDBBC
:10583000052C04D101219948FDF787FF30B1984824
:105840000088401C9649088000F03AF921E10024C4
:1058500008E001219148FDF781FF0120FCF766FD7A
:10586000601CC4B201218D48FDF76FFF012801D1F2
:10587000052CEEDB052C05D101218848FDF765FFDD
:10588000012806D086480088401C8549088000F021
:1058900017F9FEE0002408E020218248FDF760FFB0
:1058A0000120FCF743FD601CC4B220217D48FDF7B8
